{
	"Airdrop.sol": {
		"Airdrop": {
			"abi": [
				{
					"inputs": [
						{
							"internalType": "uint256[]",
							"name": "_arr",
							"type": "uint256[]"
						}
					],
					"name": "getSum",
					"outputs": [
						{
							"internalType": "uint256",
							"name": "sum",
							"type": "uint256"
						}
					],
					"stateMutability": "pure",
					"type": "function"
				},
				{
					"inputs": [
						{
							"internalType": "address payable[]",
							"name": "_addresses",
							"type": "address[]"
						},
						{
							"internalType": "uint256[]",
							"name": "_amounts",
							"type": "uint256[]"
						}
					],
					"name": "multiTransferETH",
					"outputs": [],
					"stateMutability": "payable",
					"type": "function"
				},
				{
					"inputs": [
						{
							"internalType": "address",
							"name": "_token",
							"type": "address"
						},
						{
							"internalType": "address[]",
							"name": "_addresses",
							"type": "address[]"
						},
						{
							"internalType": "uint256[]",
							"name": "_amounts",
							"type": "uint256[]"
						}
					],
					"name": "multiTransferToken",
					"outputs": [],
					"stateMutability": "nonpayable",
					"type": "function"
				}
			],
			"devdoc": {
				"kind": "dev",
				"methods": {},
				"version": 1
			},
			"evm": {
				"assembly": "    /* \"Airdrop.sol\":484:2435  contract Airdrop {... */\n  mstore(0x40, 0x80)\n  callvalue\n  dup1\n  iszero\n  tag_1\n  jumpi\n  0x00\n  dup1\n  revert\ntag_1:\n  pop\n  dataSize(sub_0)\n  dup1\n  dataOffset(sub_0)\n  0x00\n  codecopy\n  0x00\n  return\nstop\n\nsub_0: assembly {\n        /* \"Airdrop.sol\":484:2435  contract Airdrop {... */\n      mstore(0x40, 0x80)\n      jumpi(tag_1, lt(calldatasize, 0x04))\n      shr(0xe0, calldataload(0x00))\n      dup1\n      0x41ed24a2\n      eq\n      tag_2\n      jumpi\n      dup1\n      0x77988cf8\n      eq\n      tag_3\n      jumpi\n      dup1\n      0xccb8c1e0\n      eq\n      tag_4\n      jumpi\n    tag_1:\n      0x00\n      dup1\n      revert\n        /* \"Airdrop.sol\":689:1499  function multiTransferToken(address _token, address[] calldata _addresses, uint256[] calldata _amounts) external {... */\n    tag_2:\n      callvalue\n      dup1\n      iszero\n      tag_5\n      jumpi\n      0x00\n      dup1\n      revert\n    tag_5:\n      pop\n      tag_6\n      0x04\n      dup1\n      calldatasize\n      sub\n      dup2\n      add\n      swap1\n      tag_7\n      swap2\n      swap1\n      tag_8\n      jump\t// in\n    tag_7:\n      tag_9\n      jump\t// in\n    tag_6:\n      stop\n        /* \"Airdrop.sol\":1742:2422  function multiTransferETH(... */\n    tag_3:\n      tag_10\n      0x04\n      dup1\n      calldatasize\n      sub\n      dup2\n      add\n      swap1\n      tag_11\n      swap2\n      swap1\n      tag_12\n      jump\t// in\n    tag_11:\n      tag_13\n      jump\t// in\n    tag_10:\n      stop\n        /* \"Airdrop.sol\":508:681  function getSum(uint256[] calldata _arr) public pure returns(uint sum) {... */\n    tag_4:\n      callvalue\n      dup1\n      iszero\n      tag_14\n      jumpi\n      0x00\n      dup1\n      revert\n    tag_14:\n      pop\n      tag_15\n      0x04\n      dup1\n      calldatasize\n      sub\n      dup2\n      add\n      swap1\n      tag_16\n      swap2\n      swap1\n      tag_17\n      jump\t// in\n    tag_16:\n      tag_18\n      jump\t// in\n    tag_15:\n      mload(0x40)\n      tag_19\n      swap2\n      swap1\n      tag_20\n      jump\t// in\n    tag_19:\n      mload(0x40)\n      dup1\n      swap2\n      sub\n      swap1\n      return\n        /* \"Airdrop.sol\":689:1499  function multiTransferToken(address _token, address[] calldata _addresses, uint256[] calldata _amounts) external {... */\n    tag_9:\n        /* \"Airdrop.sol\":909:917  _amounts */\n      dup2\n      dup2\n        /* \"Airdrop.sol\":909:924  _amounts.length */\n      swap1\n      pop\n        /* \"Airdrop.sol\":888:898  _addresses */\n      dup5\n      dup5\n        /* \"Airdrop.sol\":888:905  _addresses.length */\n      swap1\n      pop\n        /* \"Airdrop.sol\":888:924  _addresses.length == _amounts.length */\n      eq\n        /* \"Airdrop.sol\":880:971  require(_addresses.length == _amounts.length, \"Lengths of Addresses and Amounts NOT EQUAL\") */\n      tag_22\n      jumpi\n      mload(0x40)\n      0x08c379a000000000000000000000000000000000000000000000000000000000\n      dup2\n      mstore\n      0x04\n      add\n      tag_23\n      swap1\n      tag_24\n      jump\t// in\n    tag_23:\n      mload(0x40)\n      dup1\n      swap2\n      sub\n      swap1\n      revert\n    tag_22:\n        /* \"Airdrop.sol\":1037:1049  IERC20 token */\n      0x00\n        /* \"Airdrop.sol\":1059:1065  _token */\n      dup6\n        /* \"Airdrop.sol\":1037:1066  IERC20 token = IERC20(_token) */\n      swap1\n      pop\n        /* \"Airdrop.sol\":1108:1123  uint _amountSum */\n      0x00\n        /* \"Airdrop.sol\":1126:1142  getSum(_amounts) */\n      tag_25\n        /* \"Airdrop.sol\":1133:1141  _amounts */\n      dup5\n      dup5\n        /* \"Airdrop.sol\":1126:1132  getSum */\n      tag_18\n        /* \"Airdrop.sol\":1126:1142  getSum(_amounts) */\n      jump\t// in\n    tag_25:\n        /* \"Airdrop.sol\":1108:1142  uint _amountSum = getSum(_amounts) */\n      swap1\n      pop\n        /* \"Airdrop.sol\":1274:1284  _amountSum */\n      dup1\n        /* \"Airdrop.sol\":1228:1233  token */\n      dup3\n        /* \"Airdrop.sol\":1228:1243  token.allowance */\n      0xffffffffffffffffffffffffffffffffffffffff\n      and\n      0xdd62ed3e\n        /* \"Airdrop.sol\":1244:1254  msg.sender */\n      caller\n        /* \"Airdrop.sol\":1264:1268  this */\n      address\n        /* \"Airdrop.sol\":1228:1270  token.allowance(msg.sender, address(this)) */\n      mload(0x40)\n      dup4\n      0xffffffff\n      and\n      0xe0\n      shl\n      dup2\n      mstore\n      0x04\n      add\n      tag_26\n      swap3\n      swap2\n      swap1\n      tag_27\n      jump\t// in\n    tag_26:\n      0x20\n      mload(0x40)\n      dup1\n      dup4\n      sub\n      dup2\n      dup7\n      gas\n      staticcall\n      iszero\n      dup1\n      iszero\n      tag_29\n      jumpi\n      returndatasize\n      0x00\n      dup1\n      returndatacopy\n      revert(0x00, returndatasize)\n    tag_29:\n      pop\n      pop\n      pop\n      pop\n      mload(0x40)\n      returndatasize\n      not(0x1f)\n      0x1f\n      dup3\n      add\n      and\n      dup3\n      add\n      dup1\n      0x40\n      mstore\n      pop\n      dup2\n      add\n      swap1\n      tag_30\n      swap2\n      swap1\n      tag_31\n      jump\t// in\n    tag_30:\n        /* \"Airdrop.sol\":1228:1284  token.allowance(msg.sender, address(this)) >= _amountSum */\n      lt\n      iszero\n        /* \"Airdrop.sol\":1220:1313  require(token.allowance(msg.sender, address(this)) >= _amountSum, \"Need Approve ERC20 token\") */\n      tag_32\n      jumpi\n      mload(0x40)\n      0x08c379a000000000000000000000000000000000000000000000000000000000\n      dup2\n      mstore\n      0x04\n      add\n      tag_33\n      swap1\n      tag_34\n      jump\t// in\n    tag_33:\n      mload(0x40)\n      dup1\n      swap2\n      sub\n      swap1\n      revert\n    tag_32:\n        /* \"Airdrop.sol\":1370:1377  uint8 i */\n      0x00\n        /* \"Airdrop.sol\":1366:1492  for(uint8 i; i < _addresses.length; i++) {... */\n    tag_35:\n        /* \"Airdrop.sol\":1383:1393  _addresses */\n      dup7\n      dup7\n        /* \"Airdrop.sol\":1383:1400  _addresses.length */\n      swap1\n      pop\n        /* \"Airdrop.sol\":1379:1380  i */\n      dup2\n        /* \"Airdrop.sol\":1379:1400  i < _addresses.length */\n      0xff\n      and\n      lt\n        /* \"Airdrop.sol\":1366:1492  for(uint8 i; i < _addresses.length; i++) {... */\n      iszero\n      tag_36\n      jumpi\n        /* \"Airdrop.sol\":1422:1427  token */\n      dup3\n        /* \"Airdrop.sol\":1422:1440  token.transferFrom */\n      0xffffffffffffffffffffffffffffffffffffffff\n      and\n      0x23b872dd\n        /* \"Airdrop.sol\":1441:1451  msg.sender */\n      caller\n        /* \"Airdrop.sol\":1453:1463  _addresses */\n      dup10\n      dup10\n        /* \"Airdrop.sol\":1464:1465  i */\n      dup6\n        /* \"Airdrop.sol\":1453:1466  _addresses[i] */\n      0xff\n      and\n      dup2\n      dup2\n      lt\n      tag_38\n      jumpi\n      tag_39\n      tag_40\n      jump\t// in\n    tag_39:\n    tag_38:\n      swap1\n      pop\n      0x20\n      mul\n      add\n      0x20\n      dup2\n      add\n      swap1\n      tag_41\n      swap2\n      swap1\n      tag_42\n      jump\t// in\n    tag_41:\n        /* \"Airdrop.sol\":1468:1476  _amounts */\n      dup9\n      dup9\n        /* \"Airdrop.sol\":1477:1478  i */\n      dup7\n        /* \"Airdrop.sol\":1468:1479  _amounts[i] */\n      0xff\n      and\n      dup2\n      dup2\n      lt\n      tag_43\n      jumpi\n      tag_44\n      tag_40\n      jump\t// in\n    tag_44:\n    tag_43:\n      swap1\n      pop\n      0x20\n      mul\n      add\n      calldataload\n        /* \"Airdrop.sol\":1422:1480  token.transferFrom(msg.sender, _addresses[i], _amounts[i]) */\n      mload(0x40)\n      dup5\n      0xffffffff\n      and\n      0xe0\n      shl\n      dup2\n      mstore\n      0x04\n      add\n      tag_45\n      swap4\n      swap3\n      swap2\n      swap1\n      tag_46\n      jump\t// in\n    tag_45:\n      0x20\n      mload(0x40)\n      dup1\n      dup4\n      sub\n      dup2\n      0x00\n      dup8\n      gas\n      call\n      iszero\n      dup1\n      iszero\n      tag_48\n      jumpi\n      returndatasize\n      0x00\n      dup1\n      returndatacopy\n      revert(0x00, returndatasize)\n    tag_48:\n      pop\n      pop\n      pop\n      pop\n      mload(0x40)\n      returndatasize\n      not(0x1f)\n      0x1f\n      dup3\n      add\n      and\n      dup3\n      add\n      dup1\n      0x40\n      mstore\n      pop\n      dup2\n      add\n      swap1\n      tag_49\n      swap2\n      swap1\n      tag_50\n      jump\t// in\n    tag_49:\n      pop\n        /* \"Airdrop.sol\":1402:1405  i++ */\n      dup1\n      dup1\n      tag_51\n      swap1\n      tag_52\n      jump\t// in\n    tag_51:\n      swap2\n      pop\n      pop\n        /* \"Airdrop.sol\":1366:1492  for(uint8 i; i < _addresses.length; i++) {... */\n      jump(tag_35)\n    tag_36:\n      pop\n        /* \"Airdrop.sol\":802:1499  {... */\n      pop\n      pop\n        /* \"Airdrop.sol\":689:1499  function multiTransferToken(address _token, address[] calldata _addresses, uint256[] calldata _amounts) external {... */\n      pop\n      pop\n      pop\n      pop\n      pop\n      jump\t// out\n        /* \"Airdrop.sol\":1742:2422  function multiTransferETH(... */\n    tag_13:\n        /* \"Airdrop.sol\":2003:2011  _amounts */\n      dup2\n      dup2\n        /* \"Airdrop.sol\":2003:2018  _amounts.length */\n      swap1\n      pop\n        /* \"Airdrop.sol\":1982:1992  _addresses */\n      dup5\n      dup5\n        /* \"Airdrop.sol\":1982:1999  _addresses.length */\n      swap1\n      pop\n        /* \"Airdrop.sol\":1982:2018  _addresses.length == _amounts.length */\n      eq\n        /* \"Airdrop.sol\":1974:2065  require(_addresses.length == _amounts.length, \"Lengths of Addresses and Amounts NOT EQUAL\") */\n      tag_54\n      jumpi\n      mload(0x40)\n      0x08c379a000000000000000000000000000000000000000000000000000000000\n      dup2\n      mstore\n      0x04\n      add\n      tag_55\n      swap1\n      tag_24\n      jump\t// in\n    tag_55:\n      mload(0x40)\n      dup1\n      swap2\n      sub\n      swap1\n      revert\n    tag_54:\n        /* \"Airdrop.sol\":2110:2125  uint _amountSum */\n      0x00\n        /* \"Airdrop.sol\":2128:2144  getSum(_amounts) */\n      tag_56\n        /* \"Airdrop.sol\":2135:2143  _amounts */\n      dup4\n      dup4\n        /* \"Airdrop.sol\":2128:2134  getSum */\n      tag_18\n        /* \"Airdrop.sol\":2128:2144  getSum(_amounts) */\n      jump\t// in\n    tag_56:\n        /* \"Airdrop.sol\":2110:2144  uint _amountSum = getSum(_amounts) */\n      swap1\n      pop\n        /* \"Airdrop.sol\":2230:2240  _amountSum */\n      dup1\n        /* \"Airdrop.sol\":2217:2226  msg.value */\n      callvalue\n        /* \"Airdrop.sol\":2217:2240  msg.value == _amountSum */\n      eq\n        /* \"Airdrop.sol\":2209:2266  require(msg.value == _amountSum, \"Transfer amount error\") */\n      tag_57\n      jumpi\n      mload(0x40)\n      0x08c379a000000000000000000000000000000000000000000000000000000000\n      dup2\n      mstore\n      0x04\n      add\n      tag_58\n      swap1\n      tag_59\n      jump\t// in\n    tag_58:\n      mload(0x40)\n      dup1\n      swap2\n      sub\n      swap1\n      revert\n    tag_57:\n        /* \"Airdrop.sol\":2308:2317  uint256 i */\n      0x00\n        /* \"Airdrop.sol\":2304:2413  for(uint256 i = 0; i < _addresses.length; i++) {... */\n    tag_60:\n        /* \"Airdrop.sol\":2327:2337  _addresses */\n      dup6\n      dup6\n        /* \"Airdrop.sol\":2327:2344  _addresses.length */\n      swap1\n      pop\n        /* \"Airdrop.sol\":2323:2324  i */\n      dup2\n        /* \"Airdrop.sol\":2323:2344  i < _addresses.length */\n      lt\n        /* \"Airdrop.sol\":2304:2413  for(uint256 i = 0; i < _addresses.length; i++) {... */\n      iszero\n      tag_61\n      jumpi\n        /* \"Airdrop.sol\":2366:2376  _addresses */\n      dup6\n      dup6\n        /* \"Airdrop.sol\":2377:2378  i */\n      dup3\n        /* \"Airdrop.sol\":2366:2379  _addresses[i] */\n      dup2\n      dup2\n      lt\n      tag_63\n      jumpi\n      tag_64\n      tag_40\n      jump\t// in\n    tag_64:\n    tag_63:\n      swap1\n      pop\n      0x20\n      mul\n      add\n      0x20\n      dup2\n      add\n      swap1\n      tag_65\n      swap2\n      swap1\n      tag_66\n      jump\t// in\n    tag_65:\n        /* \"Airdrop.sol\":2366:2388  _addresses[i].transfer */\n      0xffffffffffffffffffffffffffffffffffffffff\n      and\n        /* \"Airdrop.sol\":2366:2401  _addresses[i].transfer(_amounts[i]) */\n      0x08fc\n        /* \"Airdrop.sol\":2389:2397  _amounts */\n      dup6\n      dup6\n        /* \"Airdrop.sol\":2398:2399  i */\n      dup5\n        /* \"Airdrop.sol\":2389:2400  _amounts[i] */\n      dup2\n      dup2\n      lt\n      tag_67\n      jumpi\n      tag_68\n      tag_40\n      jump\t// in\n    tag_68:\n    tag_67:\n      swap1\n      pop\n      0x20\n      mul\n      add\n      calldataload\n        /* \"Airdrop.sol\":2366:2401  _addresses[i].transfer(_amounts[i]) */\n      swap1\n      dup2\n      iszero\n      mul\n      swap1\n      mload(0x40)\n      0x00\n      mload(0x40)\n      dup1\n      dup4\n      sub\n      dup2\n      dup6\n      dup9\n      dup9\n      call\n      swap4\n      pop\n      pop\n      pop\n      pop\n      iszero\n      dup1\n      iszero\n      tag_70\n      jumpi\n      returndatasize\n      0x00\n      dup1\n      returndatacopy\n      revert(0x00, returndatasize)\n    tag_70:\n      pop\n        /* \"Airdrop.sol\":2346:2349  i++ */\n      dup1\n      dup1\n      0x01\n      add\n      swap2\n      pop\n      pop\n        /* \"Airdrop.sol\":2304:2413  for(uint256 i = 0; i < _addresses.length; i++) {... */\n      jump(tag_60)\n    tag_61:\n      pop\n        /* \"Airdrop.sol\":1877:2422  {... */\n      pop\n        /* \"Airdrop.sol\":1742:2422  function multiTransferETH(... */\n      pop\n      pop\n      pop\n      pop\n      jump\t// out\n        /* \"Airdrop.sol\":508:681  function getSum(uint256[] calldata _arr) public pure returns(uint sum) {... */\n    tag_18:\n        /* \"Airdrop.sol\":569:577  uint sum */\n      0x00\n        /* \"Airdrop.sol\":594:600  uint i */\n      dup1\n        /* \"Airdrop.sol\":603:604  0 */\n      0x00\n        /* \"Airdrop.sol\":594:604  uint i = 0 */\n      swap1\n      pop\n        /* \"Airdrop.sol\":590:674  for(uint i = 0; i < _arr.length; i++) {... */\n    tag_72:\n        /* \"Airdrop.sol\":610:614  _arr */\n      dup4\n      dup4\n        /* \"Airdrop.sol\":610:621  _arr.length */\n      swap1\n      pop\n        /* \"Airdrop.sol\":606:607  i */\n      dup2\n        /* \"Airdrop.sol\":606:621  i < _arr.length */\n      lt\n        /* \"Airdrop.sol\":590:674  for(uint i = 0; i < _arr.length; i++) {... */\n      iszero\n      tag_73\n      jumpi\n        /* \"Airdrop.sol\":655:659  _arr */\n      dup4\n      dup4\n        /* \"Airdrop.sol\":660:661  i */\n      dup3\n        /* \"Airdrop.sol\":655:662  _arr[i] */\n      dup2\n      dup2\n      lt\n      tag_75\n      jumpi\n      tag_76\n      tag_40\n      jump\t// in\n    tag_76:\n    tag_75:\n      swap1\n      pop\n      0x20\n      mul\n      add\n      calldataload\n        /* \"Airdrop.sol\":649:652  sum */\n      dup3\n        /* \"Airdrop.sol\":649:662  sum + _arr[i] */\n      tag_77\n      swap2\n      swap1\n      tag_78\n      jump\t// in\n    tag_77:\n        /* \"Airdrop.sol\":643:662  sum = sum + _arr[i] */\n      swap2\n      pop\n        /* \"Airdrop.sol\":623:626  i++ */\n      dup1\n      dup1\n      0x01\n      add\n      swap2\n      pop\n      pop\n        /* \"Airdrop.sol\":590:674  for(uint i = 0; i < _arr.length; i++) {... */\n      jump(tag_72)\n    tag_73:\n      pop\n        /* \"Airdrop.sol\":508:681  function getSum(uint256[] calldata _arr) public pure returns(uint sum) {... */\n      swap3\n      swap2\n      pop\n      pop\n      jump\t// out\n        /* \"#utility.yul\":88:205   */\n    tag_80:\n        /* \"#utility.yul\":197:198   */\n      0x00\n        /* \"#utility.yul\":194:195   */\n      dup1\n        /* \"#utility.yul\":187:199   */\n      revert\n        /* \"#utility.yul\":211:328   */\n    tag_81:\n        /* \"#utility.yul\":320:321   */\n      0x00\n        /* \"#utility.yul\":317:318   */\n      dup1\n        /* \"#utility.yul\":310:322   */\n      revert\n        /* \"#utility.yul\":334:460   */\n    tag_82:\n        /* \"#utility.yul\":371:378   */\n      0x00\n        /* \"#utility.yul\":411:453   */\n      0xffffffffffffffffffffffffffffffffffffffff\n        /* \"#utility.yul\":404:409   */\n      dup3\n        /* \"#utility.yul\":400:454   */\n      and\n        /* \"#utility.yul\":389:454   */\n      swap1\n      pop\n        /* \"#utility.yul\":334:460   */\n      swap2\n      swap1\n      pop\n      jump\t// out\n        /* \"#utility.yul\":466:562   */\n    tag_83:\n        /* \"#utility.yul\":503:510   */\n      0x00\n        /* \"#utility.yul\":532:556   */\n      tag_118\n        /* \"#utility.yul\":550:555   */\n      dup3\n        /* \"#utility.yul\":532:556   */\n      tag_82\n      jump\t// in\n    tag_118:\n        /* \"#utility.yul\":521:556   */\n      swap1\n      pop\n        /* \"#utility.yul\":466:562   */\n      swap2\n      swap1\n      pop\n      jump\t// out\n        /* \"#utility.yul\":568:690   */\n    tag_84:\n        /* \"#utility.yul\":641:665   */\n      tag_120\n        /* \"#utility.yul\":659:664   */\n      dup2\n        /* \"#utility.yul\":641:665   */\n      tag_83\n      jump\t// in\n    tag_120:\n        /* \"#utility.yul\":634:639   */\n      dup2\n        /* \"#utility.yul\":631:666   */\n      eq\n        /* \"#utility.yul\":621:684   */\n      tag_121\n      jumpi\n        /* \"#utility.yul\":680:681   */\n      0x00\n        /* \"#utility.yul\":677:678   */\n      dup1\n        /* \"#utility.yul\":670:682   */\n      revert\n        /* \"#utility.yul\":621:684   */\n    tag_121:\n        /* \"#utility.yul\":568:690   */\n      pop\n      jump\t// out\n        /* \"#utility.yul\":696:835   */\n    tag_85:\n        /* \"#utility.yul\":742:747   */\n      0x00\n        /* \"#utility.yul\":780:786   */\n      dup2\n        /* \"#utility.yul\":767:787   */\n      calldataload\n        /* \"#utility.yul\":758:787   */\n      swap1\n      pop\n        /* \"#utility.yul\":796:829   */\n      tag_123\n        /* \"#utility.yul\":823:828   */\n      dup2\n        /* \"#utility.yul\":796:829   */\n      tag_84\n      jump\t// in\n    tag_123:\n        /* \"#utility.yul\":696:835   */\n      swap3\n      swap2\n      pop\n      pop\n      jump\t// out\n        /* \"#utility.yul\":841:958   */\n    tag_86:\n        /* \"#utility.yul\":950:951   */\n      0x00\n        /* \"#utility.yul\":947:948   */\n      dup1\n        /* \"#utility.yul\":940:952   */\n      revert\n        /* \"#utility.yul\":964:1081   */\n    tag_87:\n        /* \"#utility.yul\":1073:1074   */\n      0x00\n        /* \"#utility.yul\":1070:1071   */\n      dup1\n        /* \"#utility.yul\":1063:1075   */\n      revert\n        /* \"#utility.yul\":1087:1204   */\n    tag_88:\n        /* \"#utility.yul\":1196:1197   */\n      0x00\n        /* \"#utility.yul\":1193:1194   */\n      dup1\n        /* \"#utility.yul\":1186:1198   */\n      revert\n        /* \"#utility.yul\":1227:1795   */\n    tag_89:\n        /* \"#utility.yul\":1300:1308   */\n      0x00\n        /* \"#utility.yul\":1310:1316   */\n      dup1\n        /* \"#utility.yul\":1360:1363   */\n      dup4\n        /* \"#utility.yul\":1353:1357   */\n      0x1f\n        /* \"#utility.yul\":1345:1351   */\n      dup5\n        /* \"#utility.yul\":1341:1358   */\n      add\n        /* \"#utility.yul\":1337:1364   */\n      slt\n        /* \"#utility.yul\":1327:1449   */\n      tag_128\n      jumpi\n        /* \"#utility.yul\":1368:1447   */\n      tag_129\n      tag_86\n      jump\t// in\n    tag_129:\n        /* \"#utility.yul\":1327:1449   */\n    tag_128:\n        /* \"#utility.yul\":1481:1487   */\n      dup3\n        /* \"#utility.yul\":1468:1488   */\n      calldataload\n        /* \"#utility.yul\":1458:1488   */\n      swap1\n      pop\n        /* \"#utility.yul\":1511:1529   */\n      0xffffffffffffffff\n        /* \"#utility.yul\":1503:1509   */\n      dup2\n        /* \"#utility.yul\":1500:1530   */\n      gt\n        /* \"#utility.yul\":1497:1614   */\n      iszero\n      tag_130\n      jumpi\n        /* \"#utility.yul\":1533:1612   */\n      tag_131\n      tag_87\n      jump\t// in\n    tag_131:\n        /* \"#utility.yul\":1497:1614   */\n    tag_130:\n        /* \"#utility.yul\":1647:1651   */\n      0x20\n        /* \"#utility.yul\":1639:1645   */\n      dup4\n        /* \"#utility.yul\":1635:1652   */\n      add\n        /* \"#utility.yul\":1623:1652   */\n      swap2\n      pop\n        /* \"#utility.yul\":1701:1704   */\n      dup4\n        /* \"#utility.yul\":1693:1697   */\n      0x20\n        /* \"#utility.yul\":1685:1691   */\n      dup3\n        /* \"#utility.yul\":1681:1698   */\n      mul\n        /* \"#utility.yul\":1671:1679   */\n      dup4\n        /* \"#utility.yul\":1667:1699   */\n      add\n        /* \"#utility.yul\":1664:1705   */\n      gt\n        /* \"#utility.yul\":1661:1789   */\n      iszero\n      tag_132\n      jumpi\n        /* \"#utility.yul\":1708:1787   */\n      tag_133\n      tag_88\n      jump\t// in\n    tag_133:\n        /* \"#utility.yul\":1661:1789   */\n    tag_132:\n        /* \"#utility.yul\":1227:1795   */\n      swap3\n      pop\n      swap3\n      swap1\n      pop\n      jump\t// out\n        /* \"#utility.yul\":1818:2386   */\n    tag_90:\n        /* \"#utility.yul\":1891:1899   */\n      0x00\n        /* \"#utility.yul\":1901:1907   */\n      dup1\n        /* \"#utility.yul\":1951:1954   */\n      dup4\n        /* \"#utility.yul\":1944:1948   */\n      0x1f\n        /* \"#utility.yul\":1936:1942   */\n      dup5\n        /* \"#utility.yul\":1932:1949   */\n      add\n        /* \"#utility.yul\":1928:1955   */\n      slt\n        /* \"#utility.yul\":1918:2040   */\n      tag_135\n      jumpi\n        /* \"#utility.yul\":1959:2038   */\n      tag_136\n      tag_86\n      jump\t// in\n    tag_136:\n        /* \"#utility.yul\":1918:2040   */\n    tag_135:\n        /* \"#utility.yul\":2072:2078   */\n      dup3\n        /* \"#utility.yul\":2059:2079   */\n      calldataload\n        /* \"#utility.yul\":2049:2079   */\n      swap1\n      pop\n        /* \"#utility.yul\":2102:2120   */\n      0xffffffffffffffff\n        /* \"#utility.yul\":2094:2100   */\n      dup2\n        /* \"#utility.yul\":2091:2121   */\n      gt\n        /* \"#utility.yul\":2088:2205   */\n      iszero\n      tag_137\n      jumpi\n        /* \"#utility.yul\":2124:2203   */\n      tag_138\n      tag_87\n      jump\t// in\n    tag_138:\n        /* \"#utility.yul\":2088:2205   */\n    tag_137:\n        /* \"#utility.yul\":2238:2242   */\n      0x20\n        /* \"#utility.yul\":2230:2236   */\n      dup4\n        /* \"#utility.yul\":2226:2243   */\n      add\n        /* \"#utility.yul\":2214:2243   */\n      swap2\n      pop\n        /* \"#utility.yul\":2292:2295   */\n      dup4\n        /* \"#utility.yul\":2284:2288   */\n      0x20\n        /* \"#utility.yul\":2276:2282   */\n      dup3\n        /* \"#utility.yul\":2272:2289   */\n      mul\n        /* \"#utility.yul\":2262:2270   */\n      dup4\n        /* \"#utility.yul\":2258:2290   */\n      add\n        /* \"#utility.yul\":2255:2296   */\n      gt\n        /* \"#utility.yul\":2252:2380   */\n      iszero\n      tag_139\n      jumpi\n        /* \"#utility.yul\":2299:2378   */\n      tag_140\n      tag_88\n      jump\t// in\n    tag_140:\n        /* \"#utility.yul\":2252:2380   */\n    tag_139:\n        /* \"#utility.yul\":1818:2386   */\n      swap3\n      pop\n      swap3\n      swap1\n      pop\n      jump\t// out\n        /* \"#utility.yul\":2392:3471   */\n    tag_8:\n        /* \"#utility.yul\":2523:2529   */\n      0x00\n        /* \"#utility.yul\":2531:2537   */\n      dup1\n        /* \"#utility.yul\":2539:2545   */\n      0x00\n        /* \"#utility.yul\":2547:2553   */\n      dup1\n        /* \"#utility.yul\":2555:2561   */\n      0x00\n        /* \"#utility.yul\":2604:2606   */\n      0x60\n        /* \"#utility.yul\":2592:2601   */\n      dup7\n        /* \"#utility.yul\":2583:2590   */\n      dup9\n        /* \"#utility.yul\":2579:2602   */\n      sub\n        /* \"#utility.yul\":2575:2607   */\n      slt\n        /* \"#utility.yul\":2572:2691   */\n      iszero\n      tag_142\n      jumpi\n        /* \"#utility.yul\":2610:2689   */\n      tag_143\n      tag_80\n      jump\t// in\n    tag_143:\n        /* \"#utility.yul\":2572:2691   */\n    tag_142:\n        /* \"#utility.yul\":2730:2731   */\n      0x00\n        /* \"#utility.yul\":2755:2808   */\n      tag_144\n        /* \"#utility.yul\":2800:2807   */\n      dup9\n        /* \"#utility.yul\":2791:2797   */\n      dup3\n        /* \"#utility.yul\":2780:2789   */\n      dup10\n        /* \"#utility.yul\":2776:2798   */\n      add\n        /* \"#utility.yul\":2755:2808   */\n      tag_85\n      jump\t// in\n    tag_144:\n        /* \"#utility.yul\":2745:2808   */\n      swap6\n      pop\n        /* \"#utility.yul\":2701:2818   */\n      pop\n        /* \"#utility.yul\":2885:2887   */\n      0x20\n        /* \"#utility.yul\":2874:2883   */\n      dup7\n        /* \"#utility.yul\":2870:2888   */\n      add\n        /* \"#utility.yul\":2857:2889   */\n      calldataload\n        /* \"#utility.yul\":2916:2934   */\n      0xffffffffffffffff\n        /* \"#utility.yul\":2908:2914   */\n      dup2\n        /* \"#utility.yul\":2905:2935   */\n      gt\n        /* \"#utility.yul\":2902:3019   */\n      iszero\n      tag_145\n      jumpi\n        /* \"#utility.yul\":2938:3017   */\n      tag_146\n      tag_81\n      jump\t// in\n    tag_146:\n        /* \"#utility.yul\":2902:3019   */\n    tag_145:\n        /* \"#utility.yul\":3051:3131   */\n      tag_147\n        /* \"#utility.yul\":3123:3130   */\n      dup9\n        /* \"#utility.yul\":3114:3120   */\n      dup3\n        /* \"#utility.yul\":3103:3112   */\n      dup10\n        /* \"#utility.yul\":3099:3121   */\n      add\n        /* \"#utility.yul\":3051:3131   */\n      tag_89\n      jump\t// in\n    tag_147:\n        /* \"#utility.yul\":3033:3131   */\n      swap5\n      pop\n      swap5\n      pop\n        /* \"#utility.yul\":2828:3141   */\n      pop\n        /* \"#utility.yul\":3208:3210   */\n      0x40\n        /* \"#utility.yul\":3197:3206   */\n      dup7\n        /* \"#utility.yul\":3193:3211   */\n      add\n        /* \"#utility.yul\":3180:3212   */\n      calldataload\n        /* \"#utility.yul\":3239:3257   */\n      0xffffffffffffffff\n        /* \"#utility.yul\":3231:3237   */\n      dup2\n        /* \"#utility.yul\":3228:3258   */\n      gt\n        /* \"#utility.yul\":3225:3342   */\n      iszero\n      tag_148\n      jumpi\n        /* \"#utility.yul\":3261:3340   */\n      tag_149\n      tag_81\n      jump\t// in\n    tag_149:\n        /* \"#utility.yul\":3225:3342   */\n    tag_148:\n        /* \"#utility.yul\":3374:3454   */\n      tag_150\n        /* \"#utility.yul\":3446:3453   */\n      dup9\n        /* \"#utility.yul\":3437:3443   */\n      dup3\n        /* \"#utility.yul\":3426:3435   */\n      dup10\n        /* \"#utility.yul\":3422:3444   */\n      add\n        /* \"#utility.yul\":3374:3454   */\n      tag_90\n      jump\t// in\n    tag_150:\n        /* \"#utility.yul\":3356:3454   */\n      swap3\n      pop\n      swap3\n      pop\n        /* \"#utility.yul\":3151:3464   */\n      pop\n        /* \"#utility.yul\":2392:3471   */\n      swap3\n      swap6\n      pop\n      swap3\n      swap6\n      swap1\n      swap4\n      pop\n      jump\t// out\n        /* \"#utility.yul\":3502:4078   */\n    tag_91:\n        /* \"#utility.yul\":3583:3591   */\n      0x00\n        /* \"#utility.yul\":3593:3599   */\n      dup1\n        /* \"#utility.yul\":3643:3646   */\n      dup4\n        /* \"#utility.yul\":3636:3640   */\n      0x1f\n        /* \"#utility.yul\":3628:3634   */\n      dup5\n        /* \"#utility.yul\":3624:3641   */\n      add\n        /* \"#utility.yul\":3620:3647   */\n      slt\n        /* \"#utility.yul\":3610:3732   */\n      tag_152\n      jumpi\n        /* \"#utility.yul\":3651:3730   */\n      tag_153\n      tag_86\n      jump\t// in\n    tag_153:\n        /* \"#utility.yul\":3610:3732   */\n    tag_152:\n        /* \"#utility.yul\":3764:3770   */\n      dup3\n        /* \"#utility.yul\":3751:3771   */\n      calldataload\n        /* \"#utility.yul\":3741:3771   */\n      swap1\n      pop\n        /* \"#utility.yul\":3794:3812   */\n      0xffffffffffffffff\n        /* \"#utility.yul\":3786:3792   */\n      dup2\n        /* \"#utility.yul\":3783:3813   */\n      gt\n        /* \"#utility.yul\":3780:3897   */\n      iszero\n      tag_154\n      jumpi\n        /* \"#utility.yul\":3816:3895   */\n      tag_155\n      tag_87\n      jump\t// in\n    tag_155:\n        /* \"#utility.yul\":3780:3897   */\n    tag_154:\n        /* \"#utility.yul\":3930:3934   */\n      0x20\n        /* \"#utility.yul\":3922:3928   */\n      dup4\n        /* \"#utility.yul\":3918:3935   */\n      add\n        /* \"#utility.yul\":3906:3935   */\n      swap2\n      pop\n        /* \"#utility.yul\":3984:3987   */\n      dup4\n        /* \"#utility.yul\":3976:3980   */\n      0x20\n        /* \"#utility.yul\":3968:3974   */\n      dup3\n        /* \"#utility.yul\":3964:3981   */\n      mul\n        /* \"#utility.yul\":3954:3962   */\n      dup4\n        /* \"#utility.yul\":3950:3982   */\n      add\n        /* \"#utility.yul\":3947:3988   */\n      gt\n        /* \"#utility.yul\":3944:4072   */\n      iszero\n      tag_156\n      jumpi\n        /* \"#utility.yul\":3991:4070   */\n      tag_157\n      tag_88\n      jump\t// in\n    tag_157:\n        /* \"#utility.yul\":3944:4072   */\n    tag_156:\n        /* \"#utility.yul\":3502:4078   */\n      swap3\n      pop\n      swap3\n      swap1\n      pop\n      jump\t// out\n        /* \"#utility.yul\":4084:5034   */\n    tag_12:\n        /* \"#utility.yul\":4214:4220   */\n      0x00\n        /* \"#utility.yul\":4222:4228   */\n      dup1\n        /* \"#utility.yul\":4230:4236   */\n      0x00\n        /* \"#utility.yul\":4238:4244   */\n      dup1\n        /* \"#utility.yul\":4287:4289   */\n      0x40\n        /* \"#utility.yul\":4275:4284   */\n      dup6\n        /* \"#utility.yul\":4266:4273   */\n      dup8\n        /* \"#utility.yul\":4262:4285   */\n      sub\n        /* \"#utility.yul\":4258:4290   */\n      slt\n        /* \"#utility.yul\":4255:4374   */\n      iszero\n      tag_159\n      jumpi\n        /* \"#utility.yul\":4293:4372   */\n      tag_160\n      tag_80\n      jump\t// in\n    tag_160:\n        /* \"#utility.yul\":4255:4374   */\n    tag_159:\n        /* \"#utility.yul\":4441:4442   */\n      0x00\n        /* \"#utility.yul\":4430:4439   */\n      dup6\n        /* \"#utility.yul\":4426:4443   */\n      add\n        /* \"#utility.yul\":4413:4444   */\n      calldataload\n        /* \"#utility.yul\":4471:4489   */\n      0xffffffffffffffff\n        /* \"#utility.yul\":4463:4469   */\n      dup2\n        /* \"#utility.yul\":4460:4490   */\n      gt\n        /* \"#utility.yul\":4457:4574   */\n      iszero\n      tag_161\n      jumpi\n        /* \"#utility.yul\":4493:4572   */\n      tag_162\n      tag_81\n      jump\t// in\n    tag_162:\n        /* \"#utility.yul\":4457:4574   */\n    tag_161:\n        /* \"#utility.yul\":4606:4694   */\n      tag_163\n        /* \"#utility.yul\":4686:4693   */\n      dup8\n        /* \"#utility.yul\":4677:4683   */\n      dup3\n        /* \"#utility.yul\":4666:4675   */\n      dup9\n        /* \"#utility.yul\":4662:4684   */\n      add\n        /* \"#utility.yul\":4606:4694   */\n      tag_91\n      jump\t// in\n    tag_163:\n        /* \"#utility.yul\":4588:4694   */\n      swap5\n      pop\n      swap5\n      pop\n        /* \"#utility.yul\":4384:4704   */\n      pop\n        /* \"#utility.yul\":4771:4773   */\n      0x20\n        /* \"#utility.yul\":4760:4769   */\n      dup6\n        /* \"#utility.yul\":4756:4774   */\n      add\n        /* \"#utility.yul\":4743:4775   */\n      calldataload\n        /* \"#utility.yul\":4802:4820   */\n      0xffffffffffffffff\n        /* \"#utility.yul\":4794:4800   */\n      dup2\n        /* \"#utility.yul\":4791:4821   */\n      gt\n        /* \"#utility.yul\":4788:4905   */\n      iszero\n      tag_164\n      jumpi\n        /* \"#utility.yul\":4824:4903   */\n      tag_165\n      tag_81\n      jump\t// in\n    tag_165:\n        /* \"#utility.yul\":4788:4905   */\n    tag_164:\n        /* \"#utility.yul\":4937:5017   */\n      tag_166\n        /* \"#utility.yul\":5009:5016   */\n      dup8\n        /* \"#utility.yul\":5000:5006   */\n      dup3\n        /* \"#utility.yul\":4989:4998   */\n      dup9\n        /* \"#utility.yul\":4985:5007   */\n      add\n        /* \"#utility.yul\":4937:5017   */\n      tag_90\n      jump\t// in\n    tag_166:\n        /* \"#utility.yul\":4919:5017   */\n      swap3\n      pop\n      swap3\n      pop\n        /* \"#utility.yul\":4714:5027   */\n      pop\n        /* \"#utility.yul\":4084:5034   */\n      swap3\n      swap6\n      swap2\n      swap5\n      pop\n      swap3\n      pop\n      jump\t// out\n        /* \"#utility.yul\":5040:5599   */\n    tag_17:\n        /* \"#utility.yul\":5126:5132   */\n      0x00\n        /* \"#utility.yul\":5134:5140   */\n      dup1\n        /* \"#utility.yul\":5183:5185   */\n      0x20\n        /* \"#utility.yul\":5171:5180   */\n      dup4\n        /* \"#utility.yul\":5162:5169   */\n      dup6\n        /* \"#utility.yul\":5158:5181   */\n      sub\n        /* \"#utility.yul\":5154:5186   */\n      slt\n        /* \"#utility.yul\":5151:5270   */\n      iszero\n      tag_168\n      jumpi\n        /* \"#utility.yul\":5189:5268   */\n      tag_169\n      tag_80\n      jump\t// in\n    tag_169:\n        /* \"#utility.yul\":5151:5270   */\n    tag_168:\n        /* \"#utility.yul\":5337:5338   */\n      0x00\n        /* \"#utility.yul\":5326:5335   */\n      dup4\n        /* \"#utility.yul\":5322:5339   */\n      add\n        /* \"#utility.yul\":5309:5340   */\n      calldataload\n        /* \"#utility.yul\":5367:5385   */\n      0xffffffffffffffff\n        /* \"#utility.yul\":5359:5365   */\n      dup2\n        /* \"#utility.yul\":5356:5386   */\n      gt\n        /* \"#utility.yul\":5353:5470   */\n      iszero\n      tag_170\n      jumpi\n        /* \"#utility.yul\":5389:5468   */\n      tag_171\n      tag_81\n      jump\t// in\n    tag_171:\n        /* \"#utility.yul\":5353:5470   */\n    tag_170:\n        /* \"#utility.yul\":5502:5582   */\n      tag_172\n        /* \"#utility.yul\":5574:5581   */\n      dup6\n        /* \"#utility.yul\":5565:5571   */\n      dup3\n        /* \"#utility.yul\":5554:5563   */\n      dup7\n        /* \"#utility.yul\":5550:5572   */\n      add\n        /* \"#utility.yul\":5502:5582   */\n      tag_90\n      jump\t// in\n    tag_172:\n        /* \"#utility.yul\":5484:5582   */\n      swap3\n      pop\n      swap3\n      pop\n        /* \"#utility.yul\":5280:5592   */\n      pop\n        /* \"#utility.yul\":5040:5599   */\n      swap3\n      pop\n      swap3\n      swap1\n      pop\n      jump\t// out\n        /* \"#utility.yul\":5605:5682   */\n    tag_92:\n        /* \"#utility.yul\":5642:5649   */\n      0x00\n        /* \"#utility.yul\":5671:5676   */\n      dup2\n        /* \"#utility.yul\":5660:5676   */\n      swap1\n      pop\n        /* \"#utility.yul\":5605:5682   */\n      swap2\n      swap1\n      pop\n      jump\t// out\n        /* \"#utility.yul\":5688:5806   */\n    tag_93:\n        /* \"#utility.yul\":5775:5799   */\n      tag_175\n        /* \"#utility.yul\":5793:5798   */\n      dup2\n        /* \"#utility.yul\":5775:5799   */\n      tag_92\n      jump\t// in\n    tag_175:\n        /* \"#utility.yul\":5770:5773   */\n      dup3\n        /* \"#utility.yul\":5763:5800   */\n      mstore\n        /* \"#utility.yul\":5688:5806   */\n      pop\n      pop\n      jump\t// out\n        /* \"#utility.yul\":5812:6034   */\n    tag_20:\n        /* \"#utility.yul\":5905:5909   */\n      0x00\n        /* \"#utility.yul\":5943:5945   */\n      0x20\n        /* \"#utility.yul\":5932:5941   */\n      dup3\n        /* \"#utility.yul\":5928:5946   */\n      add\n        /* \"#utility.yul\":5920:5946   */\n      swap1\n      pop\n        /* \"#utility.yul\":5956:6027   */\n      tag_177\n        /* \"#utility.yul\":6024:6025   */\n      0x00\n        /* \"#utility.yul\":6013:6022   */\n      dup4\n        /* \"#utility.yul\":6009:6026   */\n      add\n        /* \"#utility.yul\":6000:6006   */\n      dup5\n        /* \"#utility.yul\":5956:6027   */\n      tag_93\n      jump\t// in\n    tag_177:\n        /* \"#utility.yul\":5812:6034   */\n      swap3\n      swap2\n      pop\n      pop\n      jump\t// out\n        /* \"#utility.yul\":6040:6209   */\n    tag_94:\n        /* \"#utility.yul\":6124:6135   */\n      0x00\n        /* \"#utility.yul\":6158:6164   */\n      dup3\n        /* \"#utility.yul\":6153:6156   */\n      dup3\n        /* \"#utility.yul\":6146:6165   */\n      mstore\n        /* \"#utility.yul\":6198:6202   */\n      0x20\n        /* \"#utility.yul\":6193:6196   */\n      dup3\n        /* \"#utility.yul\":6189:6203   */\n      add\n        /* \"#utility.yul\":6174:6203   */\n      swap1\n      pop\n        /* \"#utility.yul\":6040:6209   */\n      swap3\n      swap2\n      pop\n      pop\n      jump\t// out\n        /* \"#utility.yul\":6215:6444   */\n    tag_95:\n        /* \"#utility.yul\":6355:6389   */\n      0x4c656e67746873206f662041646472657373657320616e6420416d6f756e7473\n        /* \"#utility.yul\":6351:6352   */\n      0x00\n        /* \"#utility.yul\":6343:6349   */\n      dup3\n        /* \"#utility.yul\":6339:6353   */\n      add\n        /* \"#utility.yul\":6332:6390   */\n      mstore\n        /* \"#utility.yul\":6424:6436   */\n      0x204e4f5420455155414c00000000000000000000000000000000000000000000\n        /* \"#utility.yul\":6419:6421   */\n      0x20\n        /* \"#utility.yul\":6411:6417   */\n      dup3\n        /* \"#utility.yul\":6407:6422   */\n      add\n        /* \"#utility.yul\":6400:6437   */\n      mstore\n        /* \"#utility.yul\":6215:6444   */\n      pop\n      jump\t// out\n        /* \"#utility.yul\":6450:6816   */\n    tag_96:\n        /* \"#utility.yul\":6592:6595   */\n      0x00\n        /* \"#utility.yul\":6613:6680   */\n      tag_181\n        /* \"#utility.yul\":6677:6679   */\n      0x2a\n        /* \"#utility.yul\":6672:6675   */\n      dup4\n        /* \"#utility.yul\":6613:6680   */\n      tag_94\n      jump\t// in\n    tag_181:\n        /* \"#utility.yul\":6606:6680   */\n      swap2\n      pop\n        /* \"#utility.yul\":6689:6782   */\n      tag_182\n        /* \"#utility.yul\":6778:6781   */\n      dup3\n        /* \"#utility.yul\":6689:6782   */\n      tag_95\n      jump\t// in\n    tag_182:\n        /* \"#utility.yul\":6807:6809   */\n      0x40\n        /* \"#utility.yul\":6802:6805   */\n      dup3\n        /* \"#utility.yul\":6798:6810   */\n      add\n        /* \"#utility.yul\":6791:6810   */\n      swap1\n      pop\n        /* \"#utility.yul\":6450:6816   */\n      swap2\n      swap1\n      pop\n      jump\t// out\n        /* \"#utility.yul\":6822:7241   */\n    tag_24:\n        /* \"#utility.yul\":6988:6992   */\n      0x00\n        /* \"#utility.yul\":7026:7028   */\n      0x20\n        /* \"#utility.yul\":7015:7024   */\n      dup3\n        /* \"#utility.yul\":7011:7029   */\n      add\n        /* \"#utility.yul\":7003:7029   */\n      swap1\n      pop\n        /* \"#utility.yul\":7075:7084   */\n      dup2\n        /* \"#utility.yul\":7069:7073   */\n      dup2\n        /* \"#utility.yul\":7065:7085   */\n      sub\n        /* \"#utility.yul\":7061:7062   */\n      0x00\n        /* \"#utility.yul\":7050:7059   */\n      dup4\n        /* \"#utility.yul\":7046:7063   */\n      add\n        /* \"#utility.yul\":7039:7086   */\n      mstore\n        /* \"#utility.yul\":7103:7234   */\n      tag_184\n        /* \"#utility.yul\":7229:7233   */\n      dup2\n        /* \"#utility.yul\":7103:7234   */\n      tag_96\n      jump\t// in\n    tag_184:\n        /* \"#utility.yul\":7095:7234   */\n      swap1\n      pop\n        /* \"#utility.yul\":6822:7241   */\n      swap2\n      swap1\n      pop\n      jump\t// out\n        /* \"#utility.yul\":7247:7365   */\n    tag_97:\n        /* \"#utility.yul\":7334:7358   */\n      tag_186\n        /* \"#utility.yul\":7352:7357   */\n      dup2\n        /* \"#utility.yul\":7334:7358   */\n      tag_83\n      jump\t// in\n    tag_186:\n        /* \"#utility.yul\":7329:7332   */\n      dup3\n        /* \"#utility.yul\":7322:7359   */\n      mstore\n        /* \"#utility.yul\":7247:7365   */\n      pop\n      pop\n      jump\t// out\n        /* \"#utility.yul\":7371:7703   */\n    tag_27:\n        /* \"#utility.yul\":7492:7496   */\n      0x00\n        /* \"#utility.yul\":7530:7532   */\n      0x40\n        /* \"#utility.yul\":7519:7528   */\n      dup3\n        /* \"#utility.yul\":7515:7533   */\n      add\n        /* \"#utility.yul\":7507:7533   */\n      swap1\n      pop\n        /* \"#utility.yul\":7543:7614   */\n      tag_188\n        /* \"#utility.yul\":7611:7612   */\n      0x00\n        /* \"#utility.yul\":7600:7609   */\n      dup4\n        /* \"#utility.yul\":7596:7613   */\n      add\n        /* \"#utility.yul\":7587:7593   */\n      dup6\n        /* \"#utility.yul\":7543:7614   */\n      tag_97\n      jump\t// in\n    tag_188:\n        /* \"#utility.yul\":7624:7696   */\n      tag_189\n        /* \"#utility.yul\":7692:7694   */\n      0x20\n        /* \"#utility.yul\":7681:7690   */\n      dup4\n        /* \"#utility.yul\":7677:7695   */\n      add\n        /* \"#utility.yul\":7668:7674   */\n      dup5\n        /* \"#utility.yul\":7624:7696   */\n      tag_97\n      jump\t// in\n    tag_189:\n        /* \"#utility.yul\":7371:7703   */\n      swap4\n      swap3\n      pop\n      pop\n      pop\n      jump\t// out\n        /* \"#utility.yul\":7709:7831   */\n    tag_98:\n        /* \"#utility.yul\":7782:7806   */\n      tag_191\n        /* \"#utility.yul\":7800:7805   */\n      dup2\n        /* \"#utility.yul\":7782:7806   */\n      tag_92\n      jump\t// in\n    tag_191:\n        /* \"#utility.yul\":7775:7780   */\n      dup2\n        /* \"#utility.yul\":7772:7807   */\n      eq\n        /* \"#utility.yul\":7762:7825   */\n      tag_192\n      jumpi\n        /* \"#utility.yul\":7821:7822   */\n      0x00\n        /* \"#utility.yul\":7818:7819   */\n      dup1\n        /* \"#utility.yul\":7811:7823   */\n      revert\n        /* \"#utility.yul\":7762:7825   */\n    tag_192:\n        /* \"#utility.yul\":7709:7831   */\n      pop\n      jump\t// out\n        /* \"#utility.yul\":7837:7980   */\n    tag_99:\n        /* \"#utility.yul\":7894:7899   */\n      0x00\n        /* \"#utility.yul\":7925:7931   */\n      dup2\n        /* \"#utility.yul\":7919:7932   */\n      mload\n        /* \"#utility.yul\":7910:7932   */\n      swap1\n      pop\n        /* \"#utility.yul\":7941:7974   */\n      tag_194\n        /* \"#utility.yul\":7968:7973   */\n      dup2\n        /* \"#utility.yul\":7941:7974   */\n      tag_98\n      jump\t// in\n    tag_194:\n        /* \"#utility.yul\":7837:7980   */\n      swap3\n      swap2\n      pop\n      pop\n      jump\t// out\n        /* \"#utility.yul\":7986:8337   */\n    tag_31:\n        /* \"#utility.yul\":8056:8062   */\n      0x00\n        /* \"#utility.yul\":8105:8107   */\n      0x20\n        /* \"#utility.yul\":8093:8102   */\n      dup3\n        /* \"#utility.yul\":8084:8091   */\n      dup5\n        /* \"#utility.yul\":8080:8103   */\n      sub\n        /* \"#utility.yul\":8076:8108   */\n      slt\n        /* \"#utility.yul\":8073:8192   */\n      iszero\n      tag_196\n      jumpi\n        /* \"#utility.yul\":8111:8190   */\n      tag_197\n      tag_80\n      jump\t// in\n    tag_197:\n        /* \"#utility.yul\":8073:8192   */\n    tag_196:\n        /* \"#utility.yul\":8231:8232   */\n      0x00\n        /* \"#utility.yul\":8256:8320   */\n      tag_198\n        /* \"#utility.yul\":8312:8319   */\n      dup5\n        /* \"#utility.yul\":8303:8309   */\n      dup3\n        /* \"#utility.yul\":8292:8301   */\n      dup6\n        /* \"#utility.yul\":8288:8310   */\n      add\n        /* \"#utility.yul\":8256:8320   */\n      tag_99\n      jump\t// in\n    tag_198:\n        /* \"#utility.yul\":8246:8320   */\n      swap2\n      pop\n        /* \"#utility.yul\":8202:8330   */\n      pop\n        /* \"#utility.yul\":7986:8337   */\n      swap3\n      swap2\n      pop\n      pop\n      jump\t// out\n        /* \"#utility.yul\":8343:8517   */\n    tag_100:\n        /* \"#utility.yul\":8483:8509   */\n      0x4e65656420417070726f766520455243323020746f6b656e0000000000000000\n        /* \"#utility.yul\":8479:8480   */\n      0x00\n        /* \"#utility.yul\":8471:8477   */\n      dup3\n        /* \"#utility.yul\":8467:8481   */\n      add\n        /* \"#utility.yul\":8460:8510   */\n      mstore\n        /* \"#utility.yul\":8343:8517   */\n      pop\n      jump\t// out\n        /* \"#utility.yul\":8523:8889   */\n    tag_101:\n        /* \"#utility.yul\":8665:8668   */\n      0x00\n        /* \"#utility.yul\":8686:8753   */\n      tag_201\n        /* \"#utility.yul\":8750:8752   */\n      0x18\n        /* \"#utility.yul\":8745:8748   */\n      dup4\n        /* \"#utility.yul\":8686:8753   */\n      tag_94\n      jump\t// in\n    tag_201:\n        /* \"#utility.yul\":8679:8753   */\n      swap2\n      pop\n        /* \"#utility.yul\":8762:8855   */\n      tag_202\n        /* \"#utility.yul\":8851:8854   */\n      dup3\n        /* \"#utility.yul\":8762:8855   */\n      tag_100\n      jump\t// in\n    tag_202:\n        /* \"#utility.yul\":8880:8882   */\n      0x20\n        /* \"#utility.yul\":8875:8878   */\n      dup3\n        /* \"#utility.yul\":8871:8883   */\n      add\n        /* \"#utility.yul\":8864:8883   */\n      swap1\n      pop\n        /* \"#utility.yul\":8523:8889   */\n      swap2\n      swap1\n      pop\n      jump\t// out\n        /* \"#utility.yul\":8895:9314   */\n    tag_34:\n        /* \"#utility.yul\":9061:9065   */\n      0x00\n        /* \"#utility.yul\":9099:9101   */\n      0x20\n        /* \"#utility.yul\":9088:9097   */\n      dup3\n        /* \"#utility.yul\":9084:9102   */\n      add\n        /* \"#utility.yul\":9076:9102   */\n      swap1\n      pop\n        /* \"#utility.yul\":9148:9157   */\n      dup2\n        /* \"#utility.yul\":9142:9146   */\n      dup2\n        /* \"#utility.yul\":9138:9158   */\n      sub\n        /* \"#utility.yul\":9134:9135   */\n      0x00\n        /* \"#utility.yul\":9123:9132   */\n      dup4\n        /* \"#utility.yul\":9119:9136   */\n      add\n        /* \"#utility.yul\":9112:9159   */\n      mstore\n        /* \"#utility.yul\":9176:9307   */\n      tag_204\n        /* \"#utility.yul\":9302:9306   */\n      dup2\n        /* \"#utility.yul\":9176:9307   */\n      tag_101\n      jump\t// in\n    tag_204:\n        /* \"#utility.yul\":9168:9307   */\n      swap1\n      pop\n        /* \"#utility.yul\":8895:9314   */\n      swap2\n      swap1\n      pop\n      jump\t// out\n        /* \"#utility.yul\":9320:9500   */\n    tag_40:\n        /* \"#utility.yul\":9368:9445   */\n      0x4e487b7100000000000000000000000000000000000000000000000000000000\n        /* \"#utility.yul\":9365:9366   */\n      0x00\n        /* \"#utility.yul\":9358:9446   */\n      mstore\n        /* \"#utility.yul\":9465:9469   */\n      0x32\n        /* \"#utility.yul\":9462:9463   */\n      0x04\n        /* \"#utility.yul\":9455:9470   */\n      mstore\n        /* \"#utility.yul\":9489:9493   */\n      0x24\n        /* \"#utility.yul\":9486:9487   */\n      0x00\n        /* \"#utility.yul\":9479:9494   */\n      revert\n        /* \"#utility.yul\":9506:9835   */\n    tag_42:\n        /* \"#utility.yul\":9565:9571   */\n      0x00\n        /* \"#utility.yul\":9614:9616   */\n      0x20\n        /* \"#utility.yul\":9602:9611   */\n      dup3\n        /* \"#utility.yul\":9593:9600   */\n      dup5\n        /* \"#utility.yul\":9589:9612   */\n      sub\n        /* \"#utility.yul\":9585:9617   */\n      slt\n        /* \"#utility.yul\":9582:9701   */\n      iszero\n      tag_207\n      jumpi\n        /* \"#utility.yul\":9620:9699   */\n      tag_208\n      tag_80\n      jump\t// in\n    tag_208:\n        /* \"#utility.yul\":9582:9701   */\n    tag_207:\n        /* \"#utility.yul\":9740:9741   */\n      0x00\n        /* \"#utility.yul\":9765:9818   */\n      tag_209\n        /* \"#utility.yul\":9810:9817   */\n      dup5\n        /* \"#utility.yul\":9801:9807   */\n      dup3\n        /* \"#utility.yul\":9790:9799   */\n      dup6\n        /* \"#utility.yul\":9786:9808   */\n      add\n        /* \"#utility.yul\":9765:9818   */\n      tag_85\n      jump\t// in\n    tag_209:\n        /* \"#utility.yul\":9755:9818   */\n      swap2\n      pop\n        /* \"#utility.yul\":9711:9828   */\n      pop\n        /* \"#utility.yul\":9506:9835   */\n      swap3\n      swap2\n      pop\n      pop\n      jump\t// out\n        /* \"#utility.yul\":9841:10283   */\n    tag_46:\n        /* \"#utility.yul\":9990:9994   */\n      0x00\n        /* \"#utility.yul\":10028:10030   */\n      0x60\n        /* \"#utility.yul\":10017:10026   */\n      dup3\n        /* \"#utility.yul\":10013:10031   */\n      add\n        /* \"#utility.yul\":10005:10031   */\n      swap1\n      pop\n        /* \"#utility.yul\":10041:10112   */\n      tag_211\n        /* \"#utility.yul\":10109:10110   */\n      0x00\n        /* \"#utility.yul\":10098:10107   */\n      dup4\n        /* \"#utility.yul\":10094:10111   */\n      add\n        /* \"#utility.yul\":10085:10091   */\n      dup7\n        /* \"#utility.yul\":10041:10112   */\n      tag_97\n      jump\t// in\n    tag_211:\n        /* \"#utility.yul\":10122:10194   */\n      tag_212\n        /* \"#utility.yul\":10190:10192   */\n      0x20\n        /* \"#utility.yul\":10179:10188   */\n      dup4\n        /* \"#utility.yul\":10175:10193   */\n      add\n        /* \"#utility.yul\":10166:10172   */\n      dup6\n        /* \"#utility.yul\":10122:10194   */\n      tag_97\n      jump\t// in\n    tag_212:\n        /* \"#utility.yul\":10204:10276   */\n      tag_213\n        /* \"#utility.yul\":10272:10274   */\n      0x40\n        /* \"#utility.yul\":10261:10270   */\n      dup4\n        /* \"#utility.yul\":10257:10275   */\n      add\n        /* \"#utility.yul\":10248:10254   */\n      dup5\n        /* \"#utility.yul\":10204:10276   */\n      tag_93\n      jump\t// in\n    tag_213:\n        /* \"#utility.yul\":9841:10283   */\n      swap5\n      swap4\n      pop\n      pop\n      pop\n      pop\n      jump\t// out\n        /* \"#utility.yul\":10289:10379   */\n    tag_102:\n        /* \"#utility.yul\":10323:10330   */\n      0x00\n        /* \"#utility.yul\":10366:10371   */\n      dup2\n        /* \"#utility.yul\":10359:10372   */\n      iszero\n        /* \"#utility.yul\":10352:10373   */\n      iszero\n        /* \"#utility.yul\":10341:10373   */\n      swap1\n      pop\n        /* \"#utility.yul\":10289:10379   */\n      swap2\n      swap1\n      pop\n      jump\t// out\n        /* \"#utility.yul\":10385:10501   */\n    tag_103:\n        /* \"#utility.yul\":10455:10476   */\n      tag_216\n        /* \"#utility.yul\":10470:10475   */\n      dup2\n        /* \"#utility.yul\":10455:10476   */\n      tag_102\n      jump\t// in\n    tag_216:\n        /* \"#utility.yul\":10448:10453   */\n      dup2\n        /* \"#utility.yul\":10445:10477   */\n      eq\n        /* \"#utility.yul\":10435:10495   */\n      tag_217\n      jumpi\n        /* \"#utility.yul\":10491:10492   */\n      0x00\n        /* \"#utility.yul\":10488:10489   */\n      dup1\n        /* \"#utility.yul\":10481:10493   */\n      revert\n        /* \"#utility.yul\":10435:10495   */\n    tag_217:\n        /* \"#utility.yul\":10385:10501   */\n      pop\n      jump\t// out\n        /* \"#utility.yul\":10507:10644   */\n    tag_104:\n        /* \"#utility.yul\":10561:10566   */\n      0x00\n        /* \"#utility.yul\":10592:10598   */\n      dup2\n        /* \"#utility.yul\":10586:10599   */\n      mload\n        /* \"#utility.yul\":10577:10599   */\n      swap1\n      pop\n        /* \"#utility.yul\":10608:10638   */\n      tag_219\n        /* \"#utility.yul\":10632:10637   */\n      dup2\n        /* \"#utility.yul\":10608:10638   */\n      tag_103\n      jump\t// in\n    tag_219:\n        /* \"#utility.yul\":10507:10644   */\n      swap3\n      swap2\n      pop\n      pop\n      jump\t// out\n        /* \"#utility.yul\":10650:10995   */\n    tag_50:\n        /* \"#utility.yul\":10717:10723   */\n      0x00\n        /* \"#utility.yul\":10766:10768   */\n      0x20\n        /* \"#utility.yul\":10754:10763   */\n      dup3\n        /* \"#utility.yul\":10745:10752   */\n      dup5\n        /* \"#utility.yul\":10741:10764   */\n      sub\n        /* \"#utility.yul\":10737:10769   */\n      slt\n        /* \"#utility.yul\":10734:10853   */\n      iszero\n      tag_221\n      jumpi\n        /* \"#utility.yul\":10772:10851   */\n      tag_222\n      tag_80\n      jump\t// in\n    tag_222:\n        /* \"#utility.yul\":10734:10853   */\n    tag_221:\n        /* \"#utility.yul\":10892:10893   */\n      0x00\n        /* \"#utility.yul\":10917:10978   */\n      tag_223\n        /* \"#utility.yul\":10970:10977   */\n      dup5\n        /* \"#utility.yul\":10961:10967   */\n      dup3\n        /* \"#utility.yul\":10950:10959   */\n      dup6\n        /* \"#utility.yul\":10946:10968   */\n      add\n        /* \"#utility.yul\":10917:10978   */\n      tag_104\n      jump\t// in\n    tag_223:\n        /* \"#utility.yul\":10907:10978   */\n      swap2\n      pop\n        /* \"#utility.yul\":10863:10988   */\n      pop\n        /* \"#utility.yul\":10650:10995   */\n      swap3\n      swap2\n      pop\n      pop\n      jump\t// out\n        /* \"#utility.yul\":11001:11181   */\n    tag_105:\n        /* \"#utility.yul\":11049:11126   */\n      0x4e487b7100000000000000000000000000000000000000000000000000000000\n        /* \"#utility.yul\":11046:11047   */\n      0x00\n        /* \"#utility.yul\":11039:11127   */\n      mstore\n        /* \"#utility.yul\":11146:11150   */\n      0x11\n        /* \"#utility.yul\":11143:11144   */\n      0x04\n        /* \"#utility.yul\":11136:11151   */\n      mstore\n        /* \"#utility.yul\":11170:11174   */\n      0x24\n        /* \"#utility.yul\":11167:11168   */\n      0x00\n        /* \"#utility.yul\":11160:11175   */\n      revert\n        /* \"#utility.yul\":11187:11273   */\n    tag_106:\n        /* \"#utility.yul\":11222:11229   */\n      0x00\n        /* \"#utility.yul\":11262:11266   */\n      0xff\n        /* \"#utility.yul\":11255:11260   */\n      dup3\n        /* \"#utility.yul\":11251:11267   */\n      and\n        /* \"#utility.yul\":11240:11267   */\n      swap1\n      pop\n        /* \"#utility.yul\":11187:11273   */\n      swap2\n      swap1\n      pop\n      jump\t// out\n        /* \"#utility.yul\":11279:11446   */\n    tag_52:\n        /* \"#utility.yul\":11316:11319   */\n      0x00\n        /* \"#utility.yul\":11339:11361   */\n      tag_227\n        /* \"#utility.yul\":11355:11360   */\n      dup3\n        /* \"#utility.yul\":11339:11361   */\n      tag_106\n      jump\t// in\n    tag_227:\n        /* \"#utility.yul\":11330:11361   */\n      swap2\n      pop\n        /* \"#utility.yul\":11383:11387   */\n      0xff\n        /* \"#utility.yul\":11376:11381   */\n      dup3\n        /* \"#utility.yul\":11373:11388   */\n      sub\n        /* \"#utility.yul\":11370:11411   */\n      tag_228\n      jumpi\n        /* \"#utility.yul\":11391:11409   */\n      tag_229\n      tag_105\n      jump\t// in\n    tag_229:\n        /* \"#utility.yul\":11370:11411   */\n    tag_228:\n        /* \"#utility.yul\":11438:11439   */\n      0x01\n        /* \"#utility.yul\":11431:11436   */\n      dup3\n        /* \"#utility.yul\":11427:11440   */\n      add\n        /* \"#utility.yul\":11420:11440   */\n      swap1\n      pop\n        /* \"#utility.yul\":11279:11446   */\n      swap2\n      swap1\n      pop\n      jump\t// out\n        /* \"#utility.yul\":11452:11623   */\n    tag_107:\n        /* \"#utility.yul\":11592:11615   */\n      0x5472616e7366657220616d6f756e74206572726f720000000000000000000000\n        /* \"#utility.yul\":11588:11589   */\n      0x00\n        /* \"#utility.yul\":11580:11586   */\n      dup3\n        /* \"#utility.yul\":11576:11590   */\n      add\n        /* \"#utility.yul\":11569:11616   */\n      mstore\n        /* \"#utility.yul\":11452:11623   */\n      pop\n      jump\t// out\n        /* \"#utility.yul\":11629:11995   */\n    tag_108:\n        /* \"#utility.yul\":11771:11774   */\n      0x00\n        /* \"#utility.yul\":11792:11859   */\n      tag_232\n        /* \"#utility.yul\":11856:11858   */\n      0x15\n        /* \"#utility.yul\":11851:11854   */\n      dup4\n        /* \"#utility.yul\":11792:11859   */\n      tag_94\n      jump\t// in\n    tag_232:\n        /* \"#utility.yul\":11785:11859   */\n      swap2\n      pop\n        /* \"#utility.yul\":11868:11961   */\n      tag_233\n        /* \"#utility.yul\":11957:11960   */\n      dup3\n        /* \"#utility.yul\":11868:11961   */\n      tag_107\n      jump\t// in\n    tag_233:\n        /* \"#utility.yul\":11986:11988   */\n      0x20\n        /* \"#utility.yul\":11981:11984   */\n      dup3\n        /* \"#utility.yul\":11977:11989   */\n      add\n        /* \"#utility.yul\":11970:11989   */\n      swap1\n      pop\n        /* \"#utility.yul\":11629:11995   */\n      swap2\n      swap1\n      pop\n      jump\t// out\n        /* \"#utility.yul\":12001:12420   */\n    tag_59:\n        /* \"#utility.yul\":12167:12171   */\n      0x00\n        /* \"#utility.yul\":12205:12207   */\n      0x20\n        /* \"#utility.yul\":12194:12203   */\n      dup3\n        /* \"#utility.yul\":12190:12208   */\n      add\n        /* \"#utility.yul\":12182:12208   */\n      swap1\n      pop\n        /* \"#utility.yul\":12254:12263   */\n      dup2\n        /* \"#utility.yul\":12248:12252   */\n      dup2\n        /* \"#utility.yul\":12244:12264   */\n      sub\n        /* \"#utility.yul\":12240:12241   */\n      0x00\n        /* \"#utility.yul\":12229:12238   */\n      dup4\n        /* \"#utility.yul\":12225:12242   */\n      add\n        /* \"#utility.yul\":12218:12265   */\n      mstore\n        /* \"#utility.yul\":12282:12413   */\n      tag_235\n        /* \"#utility.yul\":12408:12412   */\n      dup2\n        /* \"#utility.yul\":12282:12413   */\n      tag_108\n      jump\t// in\n    tag_235:\n        /* \"#utility.yul\":12274:12413   */\n      swap1\n      pop\n        /* \"#utility.yul\":12001:12420   */\n      swap2\n      swap1\n      pop\n      jump\t// out\n        /* \"#utility.yul\":12426:12530   */\n    tag_109:\n        /* \"#utility.yul\":12471:12478   */\n      0x00\n        /* \"#utility.yul\":12500:12524   */\n      tag_237\n        /* \"#utility.yul\":12518:12523   */\n      dup3\n        /* \"#utility.yul\":12500:12524   */\n      tag_82\n      jump\t// in\n    tag_237:\n        /* \"#utility.yul\":12489:12524   */\n      swap1\n      pop\n        /* \"#utility.yul\":12426:12530   */\n      swap2\n      swap1\n      pop\n      jump\t// out\n        /* \"#utility.yul\":12536:12674   */\n    tag_110:\n        /* \"#utility.yul\":12617:12649   */\n      tag_239\n        /* \"#utility.yul\":12643:12648   */\n      dup2\n        /* \"#utility.yul\":12617:12649   */\n      tag_109\n      jump\t// in\n    tag_239:\n        /* \"#utility.yul\":12610:12615   */\n      dup2\n        /* \"#utility.yul\":12607:12650   */\n      eq\n        /* \"#utility.yul\":12597:12668   */\n      tag_240\n      jumpi\n        /* \"#utility.yul\":12664:12665   */\n      0x00\n        /* \"#utility.yul\":12661:12662   */\n      dup1\n        /* \"#utility.yul\":12654:12666   */\n      revert\n        /* \"#utility.yul\":12597:12668   */\n    tag_240:\n        /* \"#utility.yul\":12536:12674   */\n      pop\n      jump\t// out\n        /* \"#utility.yul\":12680:12835   */\n    tag_111:\n        /* \"#utility.yul\":12734:12739   */\n      0x00\n        /* \"#utility.yul\":12772:12778   */\n      dup2\n        /* \"#utility.yul\":12759:12779   */\n      calldataload\n        /* \"#utility.yul\":12750:12779   */\n      swap1\n      pop\n        /* \"#utility.yul\":12788:12829   */\n      tag_242\n        /* \"#utility.yul\":12823:12828   */\n      dup2\n        /* \"#utility.yul\":12788:12829   */\n      tag_110\n      jump\t// in\n    tag_242:\n        /* \"#utility.yul\":12680:12835   */\n      swap3\n      swap2\n      pop\n      pop\n      jump\t// out\n        /* \"#utility.yul\":12841:13186   */\n    tag_66:\n        /* \"#utility.yul\":12908:12914   */\n      0x00\n        /* \"#utility.yul\":12957:12959   */\n      0x20\n        /* \"#utility.yul\":12945:12954   */\n      dup3\n        /* \"#utility.yul\":12936:12943   */\n      dup5\n        /* \"#utility.yul\":12932:12955   */\n      sub\n        /* \"#utility.yul\":12928:12960   */\n      slt\n        /* \"#utility.yul\":12925:13044   */\n      iszero\n      tag_244\n      jumpi\n        /* \"#utility.yul\":12963:13042   */\n      tag_245\n      tag_80\n      jump\t// in\n    tag_245:\n        /* \"#utility.yul\":12925:13044   */\n    tag_244:\n        /* \"#utility.yul\":13083:13084   */\n      0x00\n        /* \"#utility.yul\":13108:13169   */\n      tag_246\n        /* \"#utility.yul\":13161:13168   */\n      dup5\n        /* \"#utility.yul\":13152:13158   */\n      dup3\n        /* \"#utility.yul\":13141:13150   */\n      dup6\n        /* \"#utility.yul\":13137:13159   */\n      add\n        /* \"#utility.yul\":13108:13169   */\n      tag_111\n      jump\t// in\n    tag_246:\n        /* \"#utility.yul\":13098:13169   */\n      swap2\n      pop\n        /* \"#utility.yul\":13054:13179   */\n      pop\n        /* \"#utility.yul\":12841:13186   */\n      swap3\n      swap2\n      pop\n      pop\n      jump\t// out\n        /* \"#utility.yul\":13192:13383   */\n    tag_78:\n        /* \"#utility.yul\":13232:13235   */\n      0x00\n        /* \"#utility.yul\":13251:13271   */\n      tag_248\n        /* \"#utility.yul\":13269:13270   */\n      dup3\n        /* \"#utility.yul\":13251:13271   */\n      tag_92\n      jump\t// in\n    tag_248:\n        /* \"#utility.yul\":13246:13271   */\n      swap2\n      pop\n        /* \"#utility.yul\":13285:13305   */\n      tag_249\n        /* \"#utility.yul\":13303:13304   */\n      dup4\n        /* \"#utility.yul\":13285:13305   */\n      tag_92\n      jump\t// in\n    tag_249:\n        /* \"#utility.yul\":13280:13305   */\n      swap3\n      pop\n        /* \"#utility.yul\":13328:13329   */\n      dup3\n        /* \"#utility.yul\":13325:13326   */\n      dup3\n        /* \"#utility.yul\":13321:13330   */\n      add\n        /* \"#utility.yul\":13314:13330   */\n      swap1\n      pop\n        /* \"#utility.yul\":13349:13352   */\n      dup1\n        /* \"#utility.yul\":13346:13347   */\n      dup3\n        /* \"#utility.yul\":13343:13353   */\n      gt\n        /* \"#utility.yul\":13340:13376   */\n      iszero\n      tag_250\n      jumpi\n        /* \"#utility.yul\":13356:13374   */\n      tag_251\n      tag_105\n      jump\t// in\n    tag_251:\n        /* \"#utility.yul\":13340:13376   */\n    tag_250:\n        /* \"#utility.yul\":13192:13383   */\n      swap3\n      swap2\n      pop\n      pop\n      jump\t// out\n\n    auxdata: 0xa264697066735822122093091d7b2563343d4cecb8834e63b5db7380becb6828bd4e27bc333cc713f17664736f6c634300081a0033\n}\n",
				"bytecode": {
					"linkReferences": {},
					"object": "6080604052348015600e575f80fd5b50610b548061001c5f395ff3fe608060405260043610610033575f3560e01c806341ed24a21461003757806377988cf81461005f578063ccb8c1e01461007b575b5f80fd5b348015610042575f80fd5b5061005d6004803603810190610058919061055e565b6100b7565b005b61007960048036038101906100749190610644565b6102bd565b005b348015610086575f80fd5b506100a1600480360381019061009c91906106c2565b6103fa565b6040516100ae9190610725565b60405180910390f35b8181905084849050146100ff576040517f08c379a00000000000000000000000000000000000000000000000000000000081526004016100f6906107be565b60405180910390fd5b5f8590505f61010e84846103fa565b9050808273ffffffffffffffffffffffffffffffffffffffff1663dd62ed3e33306040518363ffffffff1660e01b815260040161014c9291906107eb565b602060405180830381865afa158015610167573d5f803e3d5ffd5b505050506040513d601f19601f8201168201806040525081019061018b919061083c565b10156101cc576040517f08c379a00000000000000000000000000000000000000000000000000000000081526004016101c3906108b1565b60405180910390fd5b5f5b868690508160ff1610156102b3578273ffffffffffffffffffffffffffffffffffffffff166323b872dd3389898560ff1681811061020f5761020e6108cf565b5b905060200201602081019061022491906108fc565b88888660ff1681811061023a576102396108cf565b5b905060200201356040518463ffffffff1660e01b815260040161025f93929190610927565b6020604051808303815f875af115801561027b573d5f803e3d5ffd5b505050506040513d601f19601f8201168201806040525081019061029f9190610991565b5080806102ab906109f5565b9150506101ce565b5050505050505050565b818190508484905014610305576040517f08c379a00000000000000000000000000000000000000000000000000000000081526004016102fc906107be565b60405180910390fd5b5f61031083836103fa565b9050803414610354576040517f08c379a000000000000000000000000000000000000000000000000000000000815260040161034b90610a67565b60405180910390fd5b5f5b858590508110156103f257858582818110610374576103736108cf565b5b90506020020160208101906103899190610ac0565b73ffffffffffffffffffffffffffffffffffffffff166108fc8585848181106103b5576103b46108cf565b5b9050602002013590811502906040515f60405180830381858888f193505050501580156103e4573d5f803e3d5ffd5b508080600101915050610356565b505050505050565b5f805f90505b8383905081101561043f5783838281811061041e5761041d6108cf565b5b90506020020135826104309190610aeb565b91508080600101915050610400565b5092915050565b5f80fd5b5f80fd5b5f73ffffffffffffffffffffffffffffffffffffffff82169050919050565b5f6104778261044e565b9050919050565b6104878161046d565b8114610491575f80fd5b50565b5f813590506104a28161047e565b92915050565b5f80fd5b5f80fd5b5f80fd5b5f8083601f8401126104c9576104c86104a8565b5b8235905067ffffffffffffffff8111156104e6576104e56104ac565b5b602083019150836020820283011115610502576105016104b0565b5b9250929050565b5f8083601f84011261051e5761051d6104a8565b5b8235905067ffffffffffffffff81111561053b5761053a6104ac565b5b602083019150836020820283011115610557576105566104b0565b5b9250929050565b5f805f805f6060868803121561057757610576610446565b5b5f61058488828901610494565b955050602086013567ffffffffffffffff8111156105a5576105a461044a565b5b6105b1888289016104b4565b9450945050604086013567ffffffffffffffff8111156105d4576105d361044a565b5b6105e088828901610509565b92509250509295509295909350565b5f8083601f840112610604576106036104a8565b5b8235905067ffffffffffffffff811115610621576106206104ac565b5b60208301915083602082028301111561063d5761063c6104b0565b5b9250929050565b5f805f806040858703121561065c5761065b610446565b5b5f85013567ffffffffffffffff8111156106795761067861044a565b5b610685878288016105ef565b9450945050602085013567ffffffffffffffff8111156106a8576106a761044a565b5b6106b487828801610509565b925092505092959194509250565b5f80602083850312156106d8576106d7610446565b5b5f83013567ffffffffffffffff8111156106f5576106f461044a565b5b61070185828601610509565b92509250509250929050565b5f819050919050565b61071f8161070d565b82525050565b5f6020820190506107385f830184610716565b92915050565b5f82825260208201905092915050565b7f4c656e67746873206f662041646472657373657320616e6420416d6f756e74735f8201527f204e4f5420455155414c00000000000000000000000000000000000000000000602082015250565b5f6107a8602a8361073e565b91506107b38261074e565b604082019050919050565b5f6020820190508181035f8301526107d58161079c565b9050919050565b6107e58161046d565b82525050565b5f6040820190506107fe5f8301856107dc565b61080b60208301846107dc565b9392505050565b61081b8161070d565b8114610825575f80fd5b50565b5f8151905061083681610812565b92915050565b5f6020828403121561085157610850610446565b5b5f61085e84828501610828565b91505092915050565b7f4e65656420417070726f766520455243323020746f6b656e00000000000000005f82015250565b5f61089b60188361073e565b91506108a682610867565b602082019050919050565b5f6020820190508181035f8301526108c88161088f565b9050919050565b7f4e487b71000000000000000000000000000000000000000000000000000000005f52603260045260245ffd5b5f6020828403121561091157610910610446565b5b5f61091e84828501610494565b91505092915050565b5f60608201905061093a5f8301866107dc565b61094760208301856107dc565b6109546040830184610716565b949350505050565b5f8115159050919050565b6109708161095c565b811461097a575f80fd5b50565b5f8151905061098b81610967565b92915050565b5f602082840312156109a6576109a5610446565b5b5f6109b38482850161097d565b91505092915050565b7f4e487b71000000000000000000000000000000000000000000000000000000005f52601160045260245ffd5b5f60ff82169050919050565b5f6109ff826109e9565b915060ff8203610a1257610a116109bc565b5b600182019050919050565b7f5472616e7366657220616d6f756e74206572726f7200000000000000000000005f82015250565b5f610a5160158361073e565b9150610a5c82610a1d565b602082019050919050565b5f6020820190508181035f830152610a7e81610a45565b9050919050565b5f610a8f8261044e565b9050919050565b610a9f81610a85565b8114610aa9575f80fd5b50565b5f81359050610aba81610a96565b92915050565b5f60208284031215610ad557610ad4610446565b5b5f610ae284828501610aac565b91505092915050565b5f610af58261070d565b9150610b008361070d565b9250828201905080821115610b1857610b176109bc565b5b9291505056fea264697066735822122093091d7b2563343d4cecb8834e63b5db7380becb6828bd4e27bc333cc713f17664736f6c634300081a0033",
					"opcodes": "PUSH1 0x80 PUSH1 0x40 MSTORE CALLVALUE DUP1 ISZERO PUSH1 0xE JUMPI PUSH0 DUP1 REVERT JUMPDEST POP PUSH2 0xB54 DUP1 PUSH2 0x1C PUSH0 CODECOPY PUSH0 RETURN INVALID PUSH1 0x80 PUSH1 0x40 MSTORE PUSH1 0x4 CALLDATASIZE LT PUSH2 0x33 JUMPI PUSH0 CALLDATALOAD PUSH1 0xE0 SHR DUP1 PUSH4 0x41ED24A2 EQ PUSH2 0x37 JUMPI DUP1 PUSH4 0x77988CF8 EQ PUSH2 0x5F JUMPI DUP1 PUSH4 0xCCB8C1E0 EQ PUSH2 0x7B JUMPI JUMPDEST PUSH0 DUP1 REVERT JUMPDEST CALLVALUE DUP1 ISZERO PUSH2 0x42 JUMPI PUSH0 DUP1 REVERT JUMPDEST POP PUSH2 0x5D PUSH1 0x4 DUP1 CALLDATASIZE SUB DUP2 ADD SWAP1 PUSH2 0x58 SWAP2 SWAP1 PUSH2 0x55E JUMP JUMPDEST PUSH2 0xB7 JUMP JUMPDEST STOP JUMPDEST PUSH2 0x79 PUSH1 0x4 DUP1 CALLDATASIZE SUB DUP2 ADD SWAP1 PUSH2 0x74 SWAP2 SWAP1 PUSH2 0x644 JUMP JUMPDEST PUSH2 0x2BD JUMP JUMPDEST STOP JUMPDEST CALLVALUE DUP1 ISZERO PUSH2 0x86 JUMPI PUSH0 DUP1 REVERT JUMPDEST POP PUSH2 0xA1 PUSH1 0x4 DUP1 CALLDATASIZE SUB DUP2 ADD SWAP1 PUSH2 0x9C SWAP2 SWAP1 PUSH2 0x6C2 JUMP JUMPDEST PUSH2 0x3FA JUMP JUMPDEST PUSH1 0x40 MLOAD PUSH2 0xAE SWAP2 SWAP1 PUSH2 0x725 JUMP JUMPDEST PUSH1 0x40 MLOAD DUP1 SWAP2 SUB SWAP1 RETURN JUMPDEST DUP2 DUP2 SWAP1 POP DUP5 DUP5 SWAP1 POP EQ PUSH2 0xFF JUMPI PUSH1 0x40 MLOAD PUSH32 0x8C379A000000000000000000000000000000000000000000000000000000000 DUP2 MSTORE PUSH1 0x4 ADD PUSH2 0xF6 SWAP1 PUSH2 0x7BE JUMP JUMPDEST PUSH1 0x40 MLOAD DUP1 SWAP2 SUB SWAP1 REVERT JUMPDEST PUSH0 DUP6 SWAP1 POP PUSH0 PUSH2 0x10E DUP5 DUP5 PUSH2 0x3FA JUMP JUMPDEST SWAP1 POP DUP1 DUP3 PUSH20 0xFFFFFFFFFFFFFFFFFFFFFFFFFFFFFFFFFFFFFFFF AND PUSH4 0xDD62ED3E CALLER ADDRESS PUSH1 0x40 MLOAD DUP4 PUSH4 0xFFFFFFFF AND PUSH1 0xE0 SHL DUP2 MSTORE PUSH1 0x4 ADD PUSH2 0x14C SWAP3 SWAP2 SWAP1 PUSH2 0x7EB JUMP JUMPDEST PUSH1 0x20 PUSH1 0x40 MLOAD DUP1 DUP4 SUB DUP2 DUP7 GAS STATICCALL ISZERO DUP1 ISZERO PUSH2 0x167 JUMPI RETURNDATASIZE PUSH0 DUP1 RETURNDATACOPY RETURNDATASIZE PUSH0 REVERT JUMPDEST POP POP POP POP PUSH1 0x40 MLOAD RETURNDATASIZE PUSH1 0x1F NOT PUSH1 0x1F DUP3 ADD AND DUP3 ADD DUP1 PUSH1 0x40 MSTORE POP DUP2 ADD SWAP1 PUSH2 0x18B SWAP2 SWAP1 PUSH2 0x83C JUMP JUMPDEST LT ISZERO PUSH2 0x1CC JUMPI PUSH1 0x40 MLOAD PUSH32 0x8C379A000000000000000000000000000000000000000000000000000000000 DUP2 MSTORE PUSH1 0x4 ADD PUSH2 0x1C3 SWAP1 PUSH2 0x8B1 JUMP JUMPDEST PUSH1 0x40 MLOAD DUP1 SWAP2 SUB SWAP1 REVERT JUMPDEST PUSH0 JUMPDEST DUP7 DUP7 SWAP1 POP DUP2 PUSH1 0xFF AND LT ISZERO PUSH2 0x2B3 JUMPI DUP3 PUSH20 0xFFFFFFFFFFFFFFFFFFFFFFFFFFFFFFFFFFFFFFFF AND PUSH4 0x23B872DD CALLER DUP10 DUP10 DUP6 PUSH1 0xFF AND DUP2 DUP2 LT PUSH2 0x20F JUMPI PUSH2 0x20E PUSH2 0x8CF JUMP JUMPDEST JUMPDEST SWAP1 POP PUSH1 0x20 MUL ADD PUSH1 0x20 DUP2 ADD SWAP1 PUSH2 0x224 SWAP2 SWAP1 PUSH2 0x8FC JUMP JUMPDEST DUP9 DUP9 DUP7 PUSH1 0xFF AND DUP2 DUP2 LT PUSH2 0x23A JUMPI PUSH2 0x239 PUSH2 0x8CF JUMP JUMPDEST JUMPDEST SWAP1 POP PUSH1 0x20 MUL ADD CALLDATALOAD PUSH1 0x40 MLOAD DUP5 PUSH4 0xFFFFFFFF AND PUSH1 0xE0 SHL DUP2 MSTORE PUSH1 0x4 ADD PUSH2 0x25F SWAP4 SWAP3 SWAP2 SWAP1 PUSH2 0x927 JUMP JUMPDEST PUSH1 0x20 PUSH1 0x40 MLOAD DUP1 DUP4 SUB DUP2 PUSH0 DUP8 GAS CALL ISZERO DUP1 ISZERO PUSH2 0x27B JUMPI RETURNDATASIZE PUSH0 DUP1 RETURNDATACOPY RETURNDATASIZE PUSH0 REVERT JUMPDEST POP POP POP POP PUSH1 0x40 MLOAD RETURNDATASIZE PUSH1 0x1F NOT PUSH1 0x1F DUP3 ADD AND DUP3 ADD DUP1 PUSH1 0x40 MSTORE POP DUP2 ADD SWAP1 PUSH2 0x29F SWAP2 SWAP1 PUSH2 0x991 JUMP JUMPDEST POP DUP1 DUP1 PUSH2 0x2AB SWAP1 PUSH2 0x9F5 JUMP JUMPDEST SWAP2 POP POP PUSH2 0x1CE JUMP JUMPDEST POP POP POP POP POP POP POP POP JUMP JUMPDEST DUP2 DUP2 SWAP1 POP DUP5 DUP5 SWAP1 POP EQ PUSH2 0x305 JUMPI PUSH1 0x40 MLOAD PUSH32 0x8C379A000000000000000000000000000000000000000000000000000000000 DUP2 MSTORE PUSH1 0x4 ADD PUSH2 0x2FC SWAP1 PUSH2 0x7BE JUMP JUMPDEST PUSH1 0x40 MLOAD DUP1 SWAP2 SUB SWAP1 REVERT JUMPDEST PUSH0 PUSH2 0x310 DUP4 DUP4 PUSH2 0x3FA JUMP JUMPDEST SWAP1 POP DUP1 CALLVALUE EQ PUSH2 0x354 JUMPI PUSH1 0x40 MLOAD PUSH32 0x8C379A000000000000000000000000000000000000000000000000000000000 DUP2 MSTORE PUSH1 0x4 ADD PUSH2 0x34B SWAP1 PUSH2 0xA67 JUMP JUMPDEST PUSH1 0x40 MLOAD DUP1 SWAP2 SUB SWAP1 REVERT JUMPDEST PUSH0 JUMPDEST DUP6 DUP6 SWAP1 POP DUP2 LT ISZERO PUSH2 0x3F2 JUMPI DUP6 DUP6 DUP3 DUP2 DUP2 LT PUSH2 0x374 JUMPI PUSH2 0x373 PUSH2 0x8CF JUMP JUMPDEST JUMPDEST SWAP1 POP PUSH1 0x20 MUL ADD PUSH1 0x20 DUP2 ADD SWAP1 PUSH2 0x389 SWAP2 SWAP1 PUSH2 0xAC0 JUMP JUMPDEST PUSH20 0xFFFFFFFFFFFFFFFFFFFFFFFFFFFFFFFFFFFFFFFF AND PUSH2 0x8FC DUP6 DUP6 DUP5 DUP2 DUP2 LT PUSH2 0x3B5 JUMPI PUSH2 0x3B4 PUSH2 0x8CF JUMP JUMPDEST JUMPDEST SWAP1 POP PUSH1 0x20 MUL ADD CALLDATALOAD SWAP1 DUP2 ISZERO MUL SWAP1 PUSH1 0x40 MLOAD PUSH0 PUSH1 0x40 MLOAD DUP1 DUP4 SUB DUP2 DUP6 DUP9 DUP9 CALL SWAP4 POP POP POP POP ISZERO DUP1 ISZERO PUSH2 0x3E4 JUMPI RETURNDATASIZE PUSH0 DUP1 RETURNDATACOPY RETURNDATASIZE PUSH0 REVERT JUMPDEST POP DUP1 DUP1 PUSH1 0x1 ADD SWAP2 POP POP PUSH2 0x356 JUMP JUMPDEST POP POP POP POP POP POP JUMP JUMPDEST PUSH0 DUP1 PUSH0 SWAP1 POP JUMPDEST DUP4 DUP4 SWAP1 POP DUP2 LT ISZERO PUSH2 0x43F JUMPI DUP4 DUP4 DUP3 DUP2 DUP2 LT PUSH2 0x41E JUMPI PUSH2 0x41D PUSH2 0x8CF JUMP JUMPDEST JUMPDEST SWAP1 POP PUSH1 0x20 MUL ADD CALLDATALOAD DUP3 PUSH2 0x430 SWAP2 SWAP1 PUSH2 0xAEB JUMP JUMPDEST SWAP2 POP DUP1 DUP1 PUSH1 0x1 ADD SWAP2 POP POP PUSH2 0x400 JUMP JUMPDEST POP SWAP3 SWAP2 POP POP JUMP JUMPDEST PUSH0 DUP1 REVERT JUMPDEST PUSH0 DUP1 REVERT JUMPDEST PUSH0 PUSH20 0xFFFFFFFFFFFFFFFFFFFFFFFFFFFFFFFFFFFFFFFF DUP3 AND SWAP1 POP SWAP2 SWAP1 POP JUMP JUMPDEST PUSH0 PUSH2 0x477 DUP3 PUSH2 0x44E JUMP JUMPDEST SWAP1 POP SWAP2 SWAP1 POP JUMP JUMPDEST PUSH2 0x487 DUP2 PUSH2 0x46D JUMP JUMPDEST DUP2 EQ PUSH2 0x491 JUMPI PUSH0 DUP1 REVERT JUMPDEST POP JUMP JUMPDEST PUSH0 DUP2 CALLDATALOAD SWAP1 POP PUSH2 0x4A2 DUP2 PUSH2 0x47E JUMP JUMPDEST SWAP3 SWAP2 POP POP JUMP JUMPDEST PUSH0 DUP1 REVERT JUMPDEST PUSH0 DUP1 REVERT JUMPDEST PUSH0 DUP1 REVERT JUMPDEST PUSH0 DUP1 DUP4 PUSH1 0x1F DUP5 ADD SLT PUSH2 0x4C9 JUMPI PUSH2 0x4C8 PUSH2 0x4A8 JUMP JUMPDEST JUMPDEST DUP3 CALLDATALOAD SWAP1 POP PUSH8 0xFFFFFFFFFFFFFFFF DUP2 GT ISZERO PUSH2 0x4E6 JUMPI PUSH2 0x4E5 PUSH2 0x4AC JUMP JUMPDEST JUMPDEST PUSH1 0x20 DUP4 ADD SWAP2 POP DUP4 PUSH1 0x20 DUP3 MUL DUP4 ADD GT ISZERO PUSH2 0x502 JUMPI PUSH2 0x501 PUSH2 0x4B0 JUMP JUMPDEST JUMPDEST SWAP3 POP SWAP3 SWAP1 POP JUMP JUMPDEST PUSH0 DUP1 DUP4 PUSH1 0x1F DUP5 ADD SLT PUSH2 0x51E JUMPI PUSH2 0x51D PUSH2 0x4A8 JUMP JUMPDEST JUMPDEST DUP3 CALLDATALOAD SWAP1 POP PUSH8 0xFFFFFFFFFFFFFFFF DUP2 GT ISZERO PUSH2 0x53B JUMPI PUSH2 0x53A PUSH2 0x4AC JUMP JUMPDEST JUMPDEST PUSH1 0x20 DUP4 ADD SWAP2 POP DUP4 PUSH1 0x20 DUP3 MUL DUP4 ADD GT ISZERO PUSH2 0x557 JUMPI PUSH2 0x556 PUSH2 0x4B0 JUMP JUMPDEST JUMPDEST SWAP3 POP SWAP3 SWAP1 POP JUMP JUMPDEST PUSH0 DUP1 PUSH0 DUP1 PUSH0 PUSH1 0x60 DUP7 DUP9 SUB SLT ISZERO PUSH2 0x577 JUMPI PUSH2 0x576 PUSH2 0x446 JUMP JUMPDEST JUMPDEST PUSH0 PUSH2 0x584 DUP9 DUP3 DUP10 ADD PUSH2 0x494 JUMP JUMPDEST SWAP6 POP POP PUSH1 0x20 DUP7 ADD CALLDATALOAD PUSH8 0xFFFFFFFFFFFFFFFF DUP2 GT ISZERO PUSH2 0x5A5 JUMPI PUSH2 0x5A4 PUSH2 0x44A JUMP JUMPDEST JUMPDEST PUSH2 0x5B1 DUP9 DUP3 DUP10 ADD PUSH2 0x4B4 JUMP JUMPDEST SWAP5 POP SWAP5 POP POP PUSH1 0x40 DUP7 ADD CALLDATALOAD PUSH8 0xFFFFFFFFFFFFFFFF DUP2 GT ISZERO PUSH2 0x5D4 JUMPI PUSH2 0x5D3 PUSH2 0x44A JUMP JUMPDEST JUMPDEST PUSH2 0x5E0 DUP9 DUP3 DUP10 ADD PUSH2 0x509 JUMP JUMPDEST SWAP3 POP SWAP3 POP POP SWAP3 SWAP6 POP SWAP3 SWAP6 SWAP1 SWAP4 POP JUMP JUMPDEST PUSH0 DUP1 DUP4 PUSH1 0x1F DUP5 ADD SLT PUSH2 0x604 JUMPI PUSH2 0x603 PUSH2 0x4A8 JUMP JUMPDEST JUMPDEST DUP3 CALLDATALOAD SWAP1 POP PUSH8 0xFFFFFFFFFFFFFFFF DUP2 GT ISZERO PUSH2 0x621 JUMPI PUSH2 0x620 PUSH2 0x4AC JUMP JUMPDEST JUMPDEST PUSH1 0x20 DUP4 ADD SWAP2 POP DUP4 PUSH1 0x20 DUP3 MUL DUP4 ADD GT ISZERO PUSH2 0x63D JUMPI PUSH2 0x63C PUSH2 0x4B0 JUMP JUMPDEST JUMPDEST SWAP3 POP SWAP3 SWAP1 POP JUMP JUMPDEST PUSH0 DUP1 PUSH0 DUP1 PUSH1 0x40 DUP6 DUP8 SUB SLT ISZERO PUSH2 0x65C JUMPI PUSH2 0x65B PUSH2 0x446 JUMP JUMPDEST JUMPDEST PUSH0 DUP6 ADD CALLDATALOAD PUSH8 0xFFFFFFFFFFFFFFFF DUP2 GT ISZERO PUSH2 0x679 JUMPI PUSH2 0x678 PUSH2 0x44A JUMP JUMPDEST JUMPDEST PUSH2 0x685 DUP8 DUP3 DUP9 ADD PUSH2 0x5EF JUMP JUMPDEST SWAP5 POP SWAP5 POP POP PUSH1 0x20 DUP6 ADD CALLDATALOAD PUSH8 0xFFFFFFFFFFFFFFFF DUP2 GT ISZERO PUSH2 0x6A8 JUMPI PUSH2 0x6A7 PUSH2 0x44A JUMP JUMPDEST JUMPDEST PUSH2 0x6B4 DUP8 DUP3 DUP9 ADD PUSH2 0x509 JUMP JUMPDEST SWAP3 POP SWAP3 POP POP SWAP3 SWAP6 SWAP2 SWAP5 POP SWAP3 POP JUMP JUMPDEST PUSH0 DUP1 PUSH1 0x20 DUP4 DUP6 SUB SLT ISZERO PUSH2 0x6D8 JUMPI PUSH2 0x6D7 PUSH2 0x446 JUMP JUMPDEST JUMPDEST PUSH0 DUP4 ADD CALLDATALOAD PUSH8 0xFFFFFFFFFFFFFFFF DUP2 GT ISZERO PUSH2 0x6F5 JUMPI PUSH2 0x6F4 PUSH2 0x44A JUMP JUMPDEST JUMPDEST PUSH2 0x701 DUP6 DUP3 DUP7 ADD PUSH2 0x509 JUMP JUMPDEST SWAP3 POP SWAP3 POP POP SWAP3 POP SWAP3 SWAP1 POP JUMP JUMPDEST PUSH0 DUP2 SWAP1 POP SWAP2 SWAP1 POP JUMP JUMPDEST PUSH2 0x71F DUP2 PUSH2 0x70D JUMP JUMPDEST DUP3 MSTORE POP POP JUMP JUMPDEST PUSH0 PUSH1 0x20 DUP3 ADD SWAP1 POP PUSH2 0x738 PUSH0 DUP4 ADD DUP5 PUSH2 0x716 JUMP JUMPDEST SWAP3 SWAP2 POP POP JUMP JUMPDEST PUSH0 DUP3 DUP3 MSTORE PUSH1 0x20 DUP3 ADD SWAP1 POP SWAP3 SWAP2 POP POP JUMP JUMPDEST PUSH32 0x4C656E67746873206F662041646472657373657320616E6420416D6F756E7473 PUSH0 DUP3 ADD MSTORE PUSH32 0x204E4F5420455155414C00000000000000000000000000000000000000000000 PUSH1 0x20 DUP3 ADD MSTORE POP JUMP JUMPDEST PUSH0 PUSH2 0x7A8 PUSH1 0x2A DUP4 PUSH2 0x73E JUMP JUMPDEST SWAP2 POP PUSH2 0x7B3 DUP3 PUSH2 0x74E JUMP JUMPDEST PUSH1 0x40 DUP3 ADD SWAP1 POP SWAP2 SWAP1 POP JUMP JUMPDEST PUSH0 PUSH1 0x20 DUP3 ADD SWAP1 POP DUP2 DUP2 SUB PUSH0 DUP4 ADD MSTORE PUSH2 0x7D5 DUP2 PUSH2 0x79C JUMP JUMPDEST SWAP1 POP SWAP2 SWAP1 POP JUMP JUMPDEST PUSH2 0x7E5 DUP2 PUSH2 0x46D JUMP JUMPDEST DUP3 MSTORE POP POP JUMP JUMPDEST PUSH0 PUSH1 0x40 DUP3 ADD SWAP1 POP PUSH2 0x7FE PUSH0 DUP4 ADD DUP6 PUSH2 0x7DC JUMP JUMPDEST PUSH2 0x80B PUSH1 0x20 DUP4 ADD DUP5 PUSH2 0x7DC JUMP JUMPDEST SWAP4 SWAP3 POP POP POP JUMP JUMPDEST PUSH2 0x81B DUP2 PUSH2 0x70D JUMP JUMPDEST DUP2 EQ PUSH2 0x825 JUMPI PUSH0 DUP1 REVERT JUMPDEST POP JUMP JUMPDEST PUSH0 DUP2 MLOAD SWAP1 POP PUSH2 0x836 DUP2 PUSH2 0x812 JUMP JUMPDEST SWAP3 SWAP2 POP POP JUMP JUMPDEST PUSH0 PUSH1 0x20 DUP3 DUP5 SUB SLT ISZERO PUSH2 0x851 JUMPI PUSH2 0x850 PUSH2 0x446 JUMP JUMPDEST JUMPDEST PUSH0 PUSH2 0x85E DUP5 DUP3 DUP6 ADD PUSH2 0x828 JUMP JUMPDEST SWAP2 POP POP SWAP3 SWAP2 POP POP JUMP JUMPDEST PUSH32 0x4E65656420417070726F766520455243323020746F6B656E0000000000000000 PUSH0 DUP3 ADD MSTORE POP JUMP JUMPDEST PUSH0 PUSH2 0x89B PUSH1 0x18 DUP4 PUSH2 0x73E JUMP JUMPDEST SWAP2 POP PUSH2 0x8A6 DUP3 PUSH2 0x867 JUMP JUMPDEST PUSH1 0x20 DUP3 ADD SWAP1 POP SWAP2 SWAP1 POP JUMP JUMPDEST PUSH0 PUSH1 0x20 DUP3 ADD SWAP1 POP DUP2 DUP2 SUB PUSH0 DUP4 ADD MSTORE PUSH2 0x8C8 DUP2 PUSH2 0x88F JUMP JUMPDEST SWAP1 POP SWAP2 SWAP1 POP JUMP JUMPDEST PUSH32 0x4E487B7100000000000000000000000000000000000000000000000000000000 PUSH0 MSTORE PUSH1 0x32 PUSH1 0x4 MSTORE PUSH1 0x24 PUSH0 REVERT JUMPDEST PUSH0 PUSH1 0x20 DUP3 DUP5 SUB SLT ISZERO PUSH2 0x911 JUMPI PUSH2 0x910 PUSH2 0x446 JUMP JUMPDEST JUMPDEST PUSH0 PUSH2 0x91E DUP5 DUP3 DUP6 ADD PUSH2 0x494 JUMP JUMPDEST SWAP2 POP POP SWAP3 SWAP2 POP POP JUMP JUMPDEST PUSH0 PUSH1 0x60 DUP3 ADD SWAP1 POP PUSH2 0x93A PUSH0 DUP4 ADD DUP7 PUSH2 0x7DC JUMP JUMPDEST PUSH2 0x947 PUSH1 0x20 DUP4 ADD DUP6 PUSH2 0x7DC JUMP JUMPDEST PUSH2 0x954 PUSH1 0x40 DUP4 ADD DUP5 PUSH2 0x716 JUMP JUMPDEST SWAP5 SWAP4 POP POP POP POP JUMP JUMPDEST PUSH0 DUP2 ISZERO ISZERO SWAP1 POP SWAP2 SWAP1 POP JUMP JUMPDEST PUSH2 0x970 DUP2 PUSH2 0x95C JUMP JUMPDEST DUP2 EQ PUSH2 0x97A JUMPI PUSH0 DUP1 REVERT JUMPDEST POP JUMP JUMPDEST PUSH0 DUP2 MLOAD SWAP1 POP PUSH2 0x98B DUP2 PUSH2 0x967 JUMP JUMPDEST SWAP3 SWAP2 POP POP JUMP JUMPDEST PUSH0 PUSH1 0x20 DUP3 DUP5 SUB SLT ISZERO PUSH2 0x9A6 JUMPI PUSH2 0x9A5 PUSH2 0x446 JUMP JUMPDEST JUMPDEST PUSH0 PUSH2 0x9B3 DUP5 DUP3 DUP6 ADD PUSH2 0x97D JUMP JUMPDEST SWAP2 POP POP SWAP3 SWAP2 POP POP JUMP JUMPDEST PUSH32 0x4E487B7100000000000000000000000000000000000000000000000000000000 PUSH0 MSTORE PUSH1 0x11 PUSH1 0x4 MSTORE PUSH1 0x24 PUSH0 REVERT JUMPDEST PUSH0 PUSH1 0xFF DUP3 AND SWAP1 POP SWAP2 SWAP1 POP JUMP JUMPDEST PUSH0 PUSH2 0x9FF DUP3 PUSH2 0x9E9 JUMP JUMPDEST SWAP2 POP PUSH1 0xFF DUP3 SUB PUSH2 0xA12 JUMPI PUSH2 0xA11 PUSH2 0x9BC JUMP JUMPDEST JUMPDEST PUSH1 0x1 DUP3 ADD SWAP1 POP SWAP2 SWAP1 POP JUMP JUMPDEST PUSH32 0x5472616E7366657220616D6F756E74206572726F720000000000000000000000 PUSH0 DUP3 ADD MSTORE POP JUMP JUMPDEST PUSH0 PUSH2 0xA51 PUSH1 0x15 DUP4 PUSH2 0x73E JUMP JUMPDEST SWAP2 POP PUSH2 0xA5C DUP3 PUSH2 0xA1D JUMP JUMPDEST PUSH1 0x20 DUP3 ADD SWAP1 POP SWAP2 SWAP1 POP JUMP JUMPDEST PUSH0 PUSH1 0x20 DUP3 ADD SWAP1 POP DUP2 DUP2 SUB PUSH0 DUP4 ADD MSTORE PUSH2 0xA7E DUP2 PUSH2 0xA45 JUMP JUMPDEST SWAP1 POP SWAP2 SWAP1 POP JUMP JUMPDEST PUSH0 PUSH2 0xA8F DUP3 PUSH2 0x44E JUMP JUMPDEST SWAP1 POP SWAP2 SWAP1 POP JUMP JUMPDEST PUSH2 0xA9F DUP2 PUSH2 0xA85 JUMP JUMPDEST DUP2 EQ PUSH2 0xAA9 JUMPI PUSH0 DUP1 REVERT JUMPDEST POP JUMP JUMPDEST PUSH0 DUP2 CALLDATALOAD SWAP1 POP PUSH2 0xABA DUP2 PUSH2 0xA96 JUMP JUMPDEST SWAP3 SWAP2 POP POP JUMP JUMPDEST PUSH0 PUSH1 0x20 DUP3 DUP5 SUB SLT ISZERO PUSH2 0xAD5 JUMPI PUSH2 0xAD4 PUSH2 0x446 JUMP JUMPDEST JUMPDEST PUSH0 PUSH2 0xAE2 DUP5 DUP3 DUP6 ADD PUSH2 0xAAC JUMP JUMPDEST SWAP2 POP POP SWAP3 SWAP2 POP POP JUMP JUMPDEST PUSH0 PUSH2 0xAF5 DUP3 PUSH2 0x70D JUMP JUMPDEST SWAP2 POP PUSH2 0xB00 DUP4 PUSH2 0x70D JUMP JUMPDEST SWAP3 POP DUP3 DUP3 ADD SWAP1 POP DUP1 DUP3 GT ISZERO PUSH2 0xB18 JUMPI PUSH2 0xB17 PUSH2 0x9BC JUMP JUMPDEST JUMPDEST SWAP3 SWAP2 POP POP JUMP INVALID LOG2 PUSH5 0x6970667358 0x22 SLT KECCAK256 SWAP4 MULMOD SAR PUSH28 0x2563343D4CECB8834E63B5DB7380BECB6828BD4E27BC333CC713F176 PUSH5 0x736F6C6343 STOP ADDMOD BYTE STOP CALLER "
				},
				"gasEstimates": {
					"creation": {
						"codeDepositCost": "580000",
						"executionCost": "611",
						"totalCost": "580611"
					},
					"external": {
						"getSum(uint256[])": "infinite",
						"multiTransferETH(address[],uint256[])": "infinite",
						"multiTransferToken(address,address[],uint256[])": "infinite"
					}
				},
				"methodIdentifiers": {
					"getSum(uint256[])": "ccb8c1e0",
					"multiTransferETH(address[],uint256[])": "77988cf8",
					"multiTransferToken(address,address[],uint256[])": "41ed24a2"
				}
			},
			"storageLayout": {
				"storage": [],
				"types": null
			},
			"userdoc": {
				"kind": "user",
				"methods": {},
				"version": 1
			}
		}
	}
}