{
	"TimeLock.sol": {
		"TimeLock": {
			"abi": [
				{
					"inputs": [
						{
							"internalType": "uint256",
							"name": "_delay",
							"type": "uint256"
						}
					],
					"stateMutability": "nonpayable",
					"type": "constructor"
				},
				{
					"anonymous": false,
					"inputs": [
						{
							"indexed": true,
							"internalType": "bytes32",
							"name": "txHash",
							"type": "bytes32"
						},
						{
							"indexed": true,
							"internalType": "address",
							"name": "target",
							"type": "address"
						},
						{
							"indexed": false,
							"internalType": "uint256",
							"name": "value",
							"type": "uint256"
						},
						{
							"indexed": false,
							"internalType": "string",
							"name": "signature",
							"type": "string"
						},
						{
							"indexed": false,
							"internalType": "bytes",
							"name": "data",
							"type": "bytes"
						},
						{
							"indexed": false,
							"internalType": "uint256",
							"name": "executeTime",
							"type": "uint256"
						}
					],
					"name": "CancelTransaction",
					"type": "event"
				},
				{
					"anonymous": false,
					"inputs": [
						{
							"indexed": true,
							"internalType": "bytes32",
							"name": "txHash",
							"type": "bytes32"
						},
						{
							"indexed": true,
							"internalType": "address",
							"name": "target",
							"type": "address"
						},
						{
							"indexed": false,
							"internalType": "uint256",
							"name": "value",
							"type": "uint256"
						},
						{
							"indexed": false,
							"internalType": "string",
							"name": "signature",
							"type": "string"
						},
						{
							"indexed": false,
							"internalType": "bytes",
							"name": "data",
							"type": "bytes"
						},
						{
							"indexed": false,
							"internalType": "uint256",
							"name": "executeTime",
							"type": "uint256"
						}
					],
					"name": "ExecuteTransaction",
					"type": "event"
				},
				{
					"anonymous": false,
					"inputs": [
						{
							"indexed": true,
							"internalType": "address",
							"name": "newAdmin",
							"type": "address"
						}
					],
					"name": "NewAdmin",
					"type": "event"
				},
				{
					"anonymous": false,
					"inputs": [
						{
							"indexed": true,
							"internalType": "bytes32",
							"name": "txHash",
							"type": "bytes32"
						},
						{
							"indexed": true,
							"internalType": "address",
							"name": "target",
							"type": "address"
						},
						{
							"indexed": false,
							"internalType": "uint256",
							"name": "value",
							"type": "uint256"
						},
						{
							"indexed": false,
							"internalType": "string",
							"name": "signature",
							"type": "string"
						},
						{
							"indexed": false,
							"internalType": "bytes",
							"name": "data",
							"type": "bytes"
						},
						{
							"indexed": false,
							"internalType": "uint256",
							"name": "executeTime",
							"type": "uint256"
						}
					],
					"name": "QueueTransaction",
					"type": "event"
				},
				{
					"inputs": [],
					"name": "GRACE_PERIOD",
					"outputs": [
						{
							"internalType": "uint256",
							"name": "",
							"type": "uint256"
						}
					],
					"stateMutability": "view",
					"type": "function"
				},
				{
					"inputs": [],
					"name": "admin",
					"outputs": [
						{
							"internalType": "address",
							"name": "",
							"type": "address"
						}
					],
					"stateMutability": "view",
					"type": "function"
				},
				{
					"inputs": [
						{
							"internalType": "address",
							"name": "target",
							"type": "address"
						},
						{
							"internalType": "uint256",
							"name": "value",
							"type": "uint256"
						},
						{
							"internalType": "string",
							"name": "signature",
							"type": "string"
						},
						{
							"internalType": "bytes",
							"name": "data",
							"type": "bytes"
						},
						{
							"internalType": "uint256",
							"name": "executeTime",
							"type": "uint256"
						}
					],
					"name": "cancelTransaction",
					"outputs": [],
					"stateMutability": "nonpayable",
					"type": "function"
				},
				{
					"inputs": [
						{
							"internalType": "address",
							"name": "newAdmin",
							"type": "address"
						}
					],
					"name": "changeAdmin",
					"outputs": [],
					"stateMutability": "nonpayable",
					"type": "function"
				},
				{
					"inputs": [],
					"name": "delay",
					"outputs": [
						{
							"internalType": "uint256",
							"name": "",
							"type": "uint256"
						}
					],
					"stateMutability": "view",
					"type": "function"
				},
				{
					"inputs": [
						{
							"internalType": "address",
							"name": "target",
							"type": "address"
						},
						{
							"internalType": "uint256",
							"name": "value",
							"type": "uint256"
						},
						{
							"internalType": "string",
							"name": "signature",
							"type": "string"
						},
						{
							"internalType": "bytes",
							"name": "data",
							"type": "bytes"
						},
						{
							"internalType": "uint256",
							"name": "executeTime",
							"type": "uint256"
						}
					],
					"name": "executeTransaction",
					"outputs": [
						{
							"internalType": "bytes",
							"name": "",
							"type": "bytes"
						}
					],
					"stateMutability": "payable",
					"type": "function"
				},
				{
					"inputs": [],
					"name": "getBlockTimestamp",
					"outputs": [
						{
							"internalType": "uint256",
							"name": "",
							"type": "uint256"
						}
					],
					"stateMutability": "view",
					"type": "function"
				},
				{
					"inputs": [
						{
							"internalType": "address",
							"name": "target",
							"type": "address"
						},
						{
							"internalType": "uint256",
							"name": "value",
							"type": "uint256"
						},
						{
							"internalType": "string",
							"name": "signature",
							"type": "string"
						},
						{
							"internalType": "bytes",
							"name": "data",
							"type": "bytes"
						},
						{
							"internalType": "uint256",
							"name": "executeTime",
							"type": "uint256"
						}
					],
					"name": "getTxHash",
					"outputs": [
						{
							"internalType": "bytes32",
							"name": "",
							"type": "bytes32"
						}
					],
					"stateMutability": "pure",
					"type": "function"
				},
				{
					"inputs": [
						{
							"internalType": "address",
							"name": "target",
							"type": "address"
						},
						{
							"internalType": "uint256",
							"name": "value",
							"type": "uint256"
						},
						{
							"internalType": "string",
							"name": "signature",
							"type": "string"
						},
						{
							"internalType": "bytes",
							"name": "data",
							"type": "bytes"
						},
						{
							"internalType": "uint256",
							"name": "executeTime",
							"type": "uint256"
						}
					],
					"name": "queueTransaction",
					"outputs": [
						{
							"internalType": "bytes32",
							"name": "",
							"type": "bytes32"
						}
					],
					"stateMutability": "nonpayable",
					"type": "function"
				},
				{
					"inputs": [
						{
							"internalType": "bytes32",
							"name": "",
							"type": "bytes32"
						}
					],
					"name": "queuedTransactions",
					"outputs": [
						{
							"internalType": "bool",
							"name": "",
							"type": "bool"
						}
					],
					"stateMutability": "view",
					"type": "function"
				}
			],
			"devdoc": {
				"kind": "dev",
				"methods": {
					"cancelTransaction(address,uint256,string,bytes,uint256)": {
						"details": "取消特定交易。 要求：交易在时间锁队列中"
					},
					"changeAdmin(address)": {
						"details": "改变管理员地址，调用者必须是Timelock合约。"
					},
					"constructor": {
						"details": "构造函数，初始化交易锁定时间（秒）和管理员地址"
					},
					"queueTransaction(address,uint256,string,bytes,uint256)": {
						"details": "创建交易并添加到时间锁队列中。",
						"params": {
							"data": ": call data，里面是一些参数",
							"executeTime": ": 交易执行的区块链时间戳 要求：executeTime 大于 当前区块链时间戳+delay",
							"signature": ": 要调用的函数签名（function signature）",
							"target": ": 目标合约地址",
							"value": ": 发送eth数额"
						}
					}
				},
				"version": 1
			},
			"evm": {
				"assembly": "    /* \"TimeLock.sol\":3769:9464  contract TimeLock {... */\n  mstore(0x40, 0x80)\n    /* \"TimeLock.sol\":5239:5326  constructor(uint _delay) {... */\n  callvalue\n  dup1\n  iszero\n  tag_1\n  jumpi\n  0x00\n  dup1\n  revert\ntag_1:\n  pop\n  mload(0x40)\n  sub(codesize, bytecodeSize)\n  dup1\n  bytecodeSize\n  dup4\n  codecopy\n  dup2\n  dup2\n  add\n  0x40\n  mstore\n  dup2\n  add\n  swap1\n  tag_2\n  swap2\n  swap1\n  tag_3\n  jump\t// in\ntag_2:\n    /* \"TimeLock.sol\":5283:5289  _delay */\n  dup1\n    /* \"TimeLock.sol\":5275:5280  delay */\n  0x01\n    /* \"TimeLock.sol\":5275:5289  delay = _delay */\n  dup2\n  swap1\n  sstore\n  pop\n    /* \"TimeLock.sol\":5308:5318  msg.sender */\n  caller\n    /* \"TimeLock.sol\":5300:5305  admin */\n  0x00\n  dup1\n    /* \"TimeLock.sol\":5300:5318  admin = msg.sender */\n  0x0100\n  exp\n  dup2\n  sload\n  dup2\n  0xffffffffffffffffffffffffffffffffffffffff\n  mul\n  not\n  and\n  swap1\n  dup4\n  0xffffffffffffffffffffffffffffffffffffffff\n  and\n  mul\n  or\n  swap1\n  sstore\n  pop\n    /* \"TimeLock.sol\":5239:5326  constructor(uint _delay) {... */\n  pop\n    /* \"TimeLock.sol\":3769:9464  contract TimeLock {... */\n  jump(tag_6)\n    /* \"#utility.yul\":88:205   */\ntag_8:\n    /* \"#utility.yul\":197:198   */\n  0x00\n    /* \"#utility.yul\":194:195   */\n  dup1\n    /* \"#utility.yul\":187:199   */\n  revert\n    /* \"#utility.yul\":334:411   */\ntag_10:\n    /* \"#utility.yul\":371:378   */\n  0x00\n    /* \"#utility.yul\":400:405   */\n  dup2\n    /* \"#utility.yul\":389:405   */\n  swap1\n  pop\n    /* \"#utility.yul\":334:411   */\n  swap2\n  swap1\n  pop\n  jump\t// out\n    /* \"#utility.yul\":417:539   */\ntag_11:\n    /* \"#utility.yul\":490:514   */\n  tag_19\n    /* \"#utility.yul\":508:513   */\n  dup2\n    /* \"#utility.yul\":490:514   */\n  tag_10\n  jump\t// in\ntag_19:\n    /* \"#utility.yul\":483:488   */\n  dup2\n    /* \"#utility.yul\":480:515   */\n  eq\n    /* \"#utility.yul\":470:533   */\n  tag_20\n  jumpi\n    /* \"#utility.yul\":529:530   */\n  0x00\n    /* \"#utility.yul\":526:527   */\n  dup1\n    /* \"#utility.yul\":519:531   */\n  revert\n    /* \"#utility.yul\":470:533   */\ntag_20:\n    /* \"#utility.yul\":417:539   */\n  pop\n  jump\t// out\n    /* \"#utility.yul\":545:688   */\ntag_12:\n    /* \"#utility.yul\":602:607   */\n  0x00\n    /* \"#utility.yul\":633:639   */\n  dup2\n    /* \"#utility.yul\":627:640   */\n  mload\n    /* \"#utility.yul\":618:640   */\n  swap1\n  pop\n    /* \"#utility.yul\":649:682   */\n  tag_22\n    /* \"#utility.yul\":676:681   */\n  dup2\n    /* \"#utility.yul\":649:682   */\n  tag_11\n  jump\t// in\ntag_22:\n    /* \"#utility.yul\":545:688   */\n  swap3\n  swap2\n  pop\n  pop\n  jump\t// out\n    /* \"#utility.yul\":694:1045   */\ntag_3:\n    /* \"#utility.yul\":764:770   */\n  0x00\n    /* \"#utility.yul\":813:815   */\n  0x20\n    /* \"#utility.yul\":801:810   */\n  dup3\n    /* \"#utility.yul\":792:799   */\n  dup5\n    /* \"#utility.yul\":788:811   */\n  sub\n    /* \"#utility.yul\":784:816   */\n  slt\n    /* \"#utility.yul\":781:900   */\n  iszero\n  tag_24\n  jumpi\n    /* \"#utility.yul\":819:898   */\n  tag_25\n  tag_8\n  jump\t// in\ntag_25:\n    /* \"#utility.yul\":781:900   */\ntag_24:\n    /* \"#utility.yul\":939:940   */\n  0x00\n    /* \"#utility.yul\":964:1028   */\n  tag_26\n    /* \"#utility.yul\":1020:1027   */\n  dup5\n    /* \"#utility.yul\":1011:1017   */\n  dup3\n    /* \"#utility.yul\":1000:1009   */\n  dup6\n    /* \"#utility.yul\":996:1018   */\n  add\n    /* \"#utility.yul\":964:1028   */\n  tag_12\n  jump\t// in\ntag_26:\n    /* \"#utility.yul\":954:1028   */\n  swap2\n  pop\n    /* \"#utility.yul\":910:1038   */\n  pop\n    /* \"#utility.yul\":694:1045   */\n  swap3\n  swap2\n  pop\n  pop\n  jump\t// out\n    /* \"TimeLock.sol\":3769:9464  contract TimeLock {... */\ntag_6:\n  dataSize(sub_0)\n  dup1\n  dataOffset(sub_0)\n  0x00\n  codecopy\n  0x00\n  return\nstop\n\nsub_0: assembly {\n        /* \"TimeLock.sol\":3769:9464  contract TimeLock {... */\n      mstore(0x40, 0x80)\n      jumpi(tag_1, lt(calldatasize, 0x04))\n      shr(0xe0, calldataload(0x00))\n      dup1\n      0x796b89b9\n      gt\n      tag_12\n      jumpi\n      dup1\n      0x796b89b9\n      eq\n      tag_7\n      jumpi\n      dup1\n      0x8f283970\n      eq\n      tag_8\n      jumpi\n      dup1\n      0xc1a287e2\n      eq\n      tag_9\n      jumpi\n      dup1\n      0xf2b06537\n      eq\n      tag_10\n      jumpi\n      dup1\n      0xf851a440\n      eq\n      tag_11\n      jumpi\n      jump(tag_1)\n    tag_12:\n      dup1\n      0x04a71576\n      eq\n      tag_2\n      jumpi\n      dup1\n      0x0825f38f\n      eq\n      tag_3\n      jumpi\n      dup1\n      0x3a66f901\n      eq\n      tag_4\n      jumpi\n      dup1\n      0x591fcdfe\n      eq\n      tag_5\n      jumpi\n      dup1\n      0x6a42b8f8\n      eq\n      tag_6\n      jumpi\n    tag_1:\n      0x00\n      dup1\n      revert\n        /* \"TimeLock.sol\":9152:9459  function getTxHash(... */\n    tag_2:\n      callvalue\n      dup1\n      iszero\n      tag_13\n      jumpi\n      0x00\n      dup1\n      revert\n    tag_13:\n      pop\n      tag_14\n      0x04\n      dup1\n      calldatasize\n      sub\n      dup2\n      add\n      swap1\n      tag_15\n      swap2\n      swap1\n      tag_16\n      jump\t// in\n    tag_15:\n      tag_17\n      jump\t// in\n    tag_14:\n      mload(0x40)\n      tag_18\n      swap2\n      swap1\n      tag_19\n      jump\t// in\n    tag_18:\n      mload(0x40)\n      dup1\n      swap2\n      sub\n      swap1\n      return\n        /* \"TimeLock.sol\":7560:9144  function executeTransaction(... */\n    tag_3:\n      tag_20\n      0x04\n      dup1\n      calldatasize\n      sub\n      dup2\n      add\n      swap1\n      tag_21\n      swap2\n      swap1\n      tag_16\n      jump\t// in\n    tag_21:\n      tag_22\n      jump\t// in\n    tag_20:\n      mload(0x40)\n      tag_23\n      swap2\n      swap1\n      tag_24\n      jump\t// in\n    tag_23:\n      mload(0x40)\n      dup1\n      swap2\n      sub\n      swap1\n      return\n        /* \"TimeLock.sol\":6090:6795  function queueTransaction(address target, uint256 value, string memory signature, bytes memory data, uint256 executeTime) public onlyOwner returns (bytes32) {... */\n    tag_4:\n      callvalue\n      dup1\n      iszero\n      tag_25\n      jumpi\n      0x00\n      dup1\n      revert\n    tag_25:\n      pop\n      tag_26\n      0x04\n      dup1\n      calldatasize\n      sub\n      dup2\n      add\n      swap1\n      tag_27\n      swap2\n      swap1\n      tag_16\n      jump\t// in\n    tag_27:\n      tag_28\n      jump\t// in\n    tag_26:\n      mload(0x40)\n      tag_29\n      swap2\n      swap1\n      tag_19\n      jump\t// in\n    tag_29:\n      mload(0x40)\n      dup1\n      swap2\n      sub\n      swap1\n      return\n        /* \"TimeLock.sol\":6911:7550  function cancelTransaction(address target, uint256 value, string memory signature, bytes memory data, uint256 executeTime) public onlyOwner{... */\n    tag_5:\n      callvalue\n      dup1\n      iszero\n      tag_30\n      jumpi\n      0x00\n      dup1\n      revert\n    tag_30:\n      pop\n      tag_31\n      0x04\n      dup1\n      calldatasize\n      sub\n      dup2\n      add\n      swap1\n      tag_32\n      swap2\n      swap1\n      tag_16\n      jump\t// in\n    tag_32:\n      tag_33\n      jump\t// in\n    tag_31:\n      stop\n        /* \"TimeLock.sol\":4685:4702  uint public delay */\n    tag_6:\n      callvalue\n      dup1\n      iszero\n      tag_34\n      jumpi\n      0x00\n      dup1\n      revert\n    tag_34:\n      pop\n      tag_35\n      tag_36\n      jump\t// in\n    tag_35:\n      mload(0x40)\n      tag_37\n      swap2\n      swap1\n      tag_38\n      jump\t// in\n    tag_37:\n      mload(0x40)\n      dup1\n      swap2\n      sub\n      swap1\n      return\n        /* \"TimeLock.sol\":5558:5658  function getBlockTimestamp() public  view returns(uint256) {... */\n    tag_7:\n      callvalue\n      dup1\n      iszero\n      tag_39\n      jumpi\n      0x00\n      dup1\n      revert\n    tag_39:\n      pop\n      tag_40\n      tag_41\n      jump\t// in\n    tag_40:\n      mload(0x40)\n      tag_42\n      swap2\n      swap1\n      tag_38\n      jump\t// in\n    tag_42:\n      mload(0x40)\n      dup1\n      swap2\n      sub\n      swap1\n      return\n        /* \"TimeLock.sol\":5422:5550  function changeAdmin(address newAdmin) public onlyTimelock {... */\n    tag_8:\n      callvalue\n      dup1\n      iszero\n      tag_43\n      jumpi\n      0x00\n      dup1\n      revert\n    tag_43:\n      pop\n      tag_44\n      0x04\n      dup1\n      calldatasize\n      sub\n      dup2\n      add\n      swap1\n      tag_45\n      swap2\n      swap1\n      tag_46\n      jump\t// in\n    tag_45:\n      tag_47\n      jump\t// in\n    tag_44:\n      stop\n        /* \"TimeLock.sol\":4617:4659  uint public constant GRACE_PERIOD = 7 days */\n    tag_9:\n      callvalue\n      dup1\n      iszero\n      tag_48\n      jumpi\n      0x00\n      dup1\n      revert\n    tag_48:\n      pop\n      tag_49\n      tag_50\n      jump\t// in\n    tag_49:\n      mload(0x40)\n      tag_51\n      swap2\n      swap1\n      tag_38\n      jump\t// in\n    tag_51:\n      mload(0x40)\n      dup1\n      swap2\n      sub\n      swap1\n      return\n        /* \"TimeLock.sol\":4740:4790  mapping(bytes32 => bool) public queuedTransactions */\n    tag_10:\n      callvalue\n      dup1\n      iszero\n      tag_52\n      jumpi\n      0x00\n      dup1\n      revert\n    tag_52:\n      pop\n      tag_53\n      0x04\n      dup1\n      calldatasize\n      sub\n      dup2\n      add\n      swap1\n      tag_54\n      swap2\n      swap1\n      tag_55\n      jump\t// in\n    tag_54:\n      tag_56\n      jump\t// in\n    tag_53:\n      mload(0x40)\n      tag_57\n      swap2\n      swap1\n      tag_58\n      jump\t// in\n    tag_57:\n      mload(0x40)\n      dup1\n      swap2\n      sub\n      swap1\n      return\n        /* \"TimeLock.sol\":4571:4591  address public admin */\n    tag_11:\n      callvalue\n      dup1\n      iszero\n      tag_59\n      jumpi\n      0x00\n      dup1\n      revert\n    tag_59:\n      pop\n      tag_60\n      tag_61\n      jump\t// in\n    tag_60:\n      mload(0x40)\n      tag_62\n      swap2\n      swap1\n      tag_63\n      jump\t// in\n    tag_62:\n      mload(0x40)\n      dup1\n      swap2\n      sub\n      swap1\n      return\n        /* \"TimeLock.sol\":9152:9459  function getTxHash(... */\n    tag_17:\n        /* \"TimeLock.sol\":9334:9341  bytes32 */\n      0x00\n        /* \"TimeLock.sol\":9396:9402  target */\n      dup6\n        /* \"TimeLock.sol\":9404:9409  value */\n      dup6\n        /* \"TimeLock.sol\":9411:9420  signature */\n      dup6\n        /* \"TimeLock.sol\":9422:9426  data */\n      dup6\n        /* \"TimeLock.sol\":9428:9439  executeTime */\n      dup6\n        /* \"TimeLock.sol\":9385:9440  abi.encode(target, value, signature, data, executeTime) */\n      add(0x20, mload(0x40))\n      tag_65\n      swap6\n      swap5\n      swap4\n      swap3\n      swap2\n      swap1\n      tag_66\n      jump\t// in\n    tag_65:\n      mload(0x40)\n      0x20\n      dup2\n      dup4\n      sub\n      sub\n      dup2\n      mstore\n      swap1\n      0x40\n      mstore\n        /* \"TimeLock.sol\":9361:9451  keccak256(... */\n      dup1\n      mload\n      swap1\n      0x20\n      add\n      keccak256\n        /* \"TimeLock.sol\":9354:9451  return keccak256(... */\n      swap1\n      pop\n        /* \"TimeLock.sol\":9152:9459  function getTxHash(... */\n      swap6\n      swap5\n      pop\n      pop\n      pop\n      pop\n      pop\n      jump\t// out\n        /* \"TimeLock.sol\":7560:9144  function executeTransaction(... */\n    tag_22:\n        /* \"TimeLock.sol\":7772:7784  bytes memory */\n      0x60\n        /* \"TimeLock.sol\":4911:4916  admin */\n      0x00\n      dup1\n      sload\n      swap1\n      0x0100\n      exp\n      swap1\n      div\n      0xffffffffffffffffffffffffffffffffffffffff\n      and\n        /* \"TimeLock.sol\":4897:4916  msg.sender == admin */\n      0xffffffffffffffffffffffffffffffffffffffff\n      and\n        /* \"TimeLock.sol\":4897:4907  msg.sender */\n      caller\n        /* \"TimeLock.sol\":4897:4916  msg.sender == admin */\n      0xffffffffffffffffffffffffffffffffffffffff\n      and\n      eq\n        /* \"TimeLock.sol\":4889:4947  require(msg.sender == admin, \"TimeLock: caller not admin\") */\n      tag_68\n      jumpi\n      mload(0x40)\n      0x08c379a000000000000000000000000000000000000000000000000000000000\n      dup2\n      mstore\n      0x04\n      add\n      tag_69\n      swap1\n      tag_70\n      jump\t// in\n    tag_69:\n      mload(0x40)\n      dup1\n      swap2\n      sub\n      swap1\n      revert\n    tag_68:\n        /* \"TimeLock.sol\":7832:7846  bytes32 txHash */\n      0x00\n        /* \"TimeLock.sol\":7849:7903  getTxHash(target, value, signature, data, executeTime) */\n      tag_72\n        /* \"TimeLock.sol\":7859:7865  target */\n      dup8\n        /* \"TimeLock.sol\":7867:7872  value */\n      dup8\n        /* \"TimeLock.sol\":7874:7883  signature */\n      dup8\n        /* \"TimeLock.sol\":7885:7889  data */\n      dup8\n        /* \"TimeLock.sol\":7891:7902  executeTime */\n      dup8\n        /* \"TimeLock.sol\":7849:7858  getTxHash */\n      tag_17\n        /* \"TimeLock.sol\":7849:7903  getTxHash(target, value, signature, data, executeTime) */\n      jump\t// in\n    tag_72:\n        /* \"TimeLock.sol\":7832:7903  bytes32 txHash = getTxHash(target, value, signature, data, executeTime) */\n      swap1\n      pop\n        /* \"TimeLock.sol\":7965:7983  queuedTransactions */\n      0x02\n        /* \"TimeLock.sol\":7965:7991  queuedTransactions[txHash] */\n      0x00\n        /* \"TimeLock.sol\":7984:7990  txHash */\n      dup3\n        /* \"TimeLock.sol\":7965:7991  queuedTransactions[txHash] */\n      dup2\n      mstore\n      0x20\n      add\n      swap1\n      dup2\n      mstore\n      0x20\n      add\n      0x00\n      keccak256\n      0x00\n      swap1\n      sload\n      swap1\n      0x0100\n      exp\n      swap1\n      div\n      0xff\n      and\n        /* \"TimeLock.sol\":7957:8055  require(queuedTransactions[txHash], \"Timelock::executeTransaction Transaction hasn't been queued\") */\n      tag_73\n      jumpi\n      mload(0x40)\n      0x08c379a000000000000000000000000000000000000000000000000000000000\n      dup2\n      mstore\n      0x04\n      add\n      tag_74\n      swap1\n      tag_75\n      jump\t// in\n    tag_74:\n      mload(0x40)\n      dup1\n      swap2\n      sub\n      swap1\n      revert\n    tag_73:\n        /* \"TimeLock.sol\":8146:8157  executeTime */\n      dup3\n        /* \"TimeLock.sol\":8123:8142  getBlockTimestamp() */\n      tag_76\n        /* \"TimeLock.sol\":8123:8140  getBlockTimestamp */\n      tag_41\n        /* \"TimeLock.sol\":8123:8142  getBlockTimestamp() */\n      jump\t// in\n    tag_76:\n        /* \"TimeLock.sol\":8123:8157  getBlockTimestamp() >= executeTime */\n      lt\n      iszero\n        /* \"TimeLock.sol\":8115:8216  require(getBlockTimestamp() >= executeTime, \"Timelock::executeTransaction hasn't surpassed timelock\") */\n      tag_77\n      jumpi\n      mload(0x40)\n      0x08c379a000000000000000000000000000000000000000000000000000000000\n      dup2\n      mstore\n      0x04\n      add\n      tag_78\n      swap1\n      tag_79\n      jump\t// in\n    tag_78:\n      mload(0x40)\n      dup1\n      swap2\n      sub\n      swap1\n      revert\n    tag_77:\n        /* \"TimeLock.sol\":4653:4659  7 days */\n      0x093a80\n        /* \"TimeLock.sol\":8292:8303  executeTime */\n      dup4\n        /* \"TimeLock.sol\":8292:8318  executeTime + GRACE_PERIOD */\n      tag_80\n      swap2\n      swap1\n      tag_81\n      jump\t// in\n    tag_80:\n        /* \"TimeLock.sol\":8269:8288  getBlockTimestamp() */\n      tag_82\n        /* \"TimeLock.sol\":8269:8286  getBlockTimestamp */\n      tag_41\n        /* \"TimeLock.sol\":8269:8288  getBlockTimestamp() */\n      jump\t// in\n    tag_82:\n        /* \"TimeLock.sol\":8269:8318  getBlockTimestamp() <= executeTime + GRACE_PERIOD */\n      gt\n      iszero\n        /* \"TimeLock.sol\":8261:8374  require(getBlockTimestamp() <= executeTime + GRACE_PERIOD, \"Timelock::executeTransaction: Transaction is stale.\") */\n      tag_83\n      jumpi\n      mload(0x40)\n      0x08c379a000000000000000000000000000000000000000000000000000000000\n      dup2\n      mstore\n      0x04\n      add\n      tag_84\n      swap1\n      tag_85\n      jump\t// in\n    tag_84:\n      mload(0x40)\n      dup1\n      swap2\n      sub\n      swap1\n      revert\n    tag_83:\n        /* \"TimeLock.sol\":8450:8455  false */\n      0x00\n        /* \"TimeLock.sol\":8421:8439  queuedTransactions */\n      0x02\n        /* \"TimeLock.sol\":8421:8447  queuedTransactions[txHash] */\n      0x00\n        /* \"TimeLock.sol\":8440:8446  txHash */\n      dup4\n        /* \"TimeLock.sol\":8421:8447  queuedTransactions[txHash] */\n      dup2\n      mstore\n      0x20\n      add\n      swap1\n      dup2\n      mstore\n      0x20\n      add\n      0x00\n      keccak256\n      0x00\n        /* \"TimeLock.sol\":8421:8455  queuedTransactions[txHash] = false */\n      0x0100\n      exp\n      dup2\n      sload\n      dup2\n      0xff\n      mul\n      not\n      and\n      swap1\n      dup4\n      iszero\n      iszero\n      mul\n      or\n      swap1\n      sstore\n      pop\n        /* \"TimeLock.sol\":8495:8516  bytes memory callData */\n      0x60\n        /* \"TimeLock.sol\":8559:8560  0 */\n      0x00\n        /* \"TimeLock.sol\":8538:8547  signature */\n      dup7\n        /* \"TimeLock.sol\":8532:8555  bytes(signature).length */\n      mload\n        /* \"TimeLock.sol\":8532:8560  bytes(signature).length == 0 */\n      sub\n        /* \"TimeLock.sol\":8529:8737  if(bytes(signature).length == 0) {... */\n      tag_86\n      jumpi\n        /* \"TimeLock.sol\":8588:8592  data */\n      dup5\n        /* \"TimeLock.sol\":8577:8592  callData = data */\n      swap1\n      pop\n        /* \"TimeLock.sol\":8529:8737  if(bytes(signature).length == 0) {... */\n      jump(tag_87)\n    tag_86:\n        /* \"TimeLock.sol\":8706:8715  signature */\n      dup6\n        /* \"TimeLock.sol\":8690:8717  keccak256(bytes(signature)) */\n      dup1\n      mload\n      swap1\n      0x20\n      add\n      keccak256\n        /* \"TimeLock.sol\":8720:8724  data */\n      dup6\n        /* \"TimeLock.sol\":8666:8725  abi.encodePacked(bytes4(keccak256(bytes(signature))), data) */\n      add(0x20, mload(0x40))\n      tag_88\n      swap3\n      swap2\n      swap1\n      tag_89\n      jump\t// in\n    tag_88:\n      mload(0x40)\n      0x20\n      dup2\n      dup4\n      sub\n      sub\n      dup2\n      mstore\n      swap1\n      0x40\n      mstore\n        /* \"TimeLock.sol\":8655:8725  callData = abi.encodePacked(bytes4(keccak256(bytes(signature))), data) */\n      swap1\n      pop\n        /* \"TimeLock.sol\":8529:8737  if(bytes(signature).length == 0) {... */\n    tag_87:\n        /* \"TimeLock.sol\":8785:8797  bool success */\n      0x00\n        /* \"TimeLock.sol\":8799:8822  bytes memory returnData */\n      dup1\n        /* \"TimeLock.sol\":8826:8832  target */\n      dup10\n        /* \"TimeLock.sol\":8826:8837  target.call */\n      0xffffffffffffffffffffffffffffffffffffffff\n      and\n        /* \"TimeLock.sol\":8845:8850  value */\n      dup10\n        /* \"TimeLock.sol\":8852:8860  callData */\n      dup5\n        /* \"TimeLock.sol\":8826:8861  target.call{value: value}(callData) */\n      mload(0x40)\n      tag_90\n      swap2\n      swap1\n      tag_91\n      jump\t// in\n    tag_90:\n      0x00\n      mload(0x40)\n      dup1\n      dup4\n      sub\n      dup2\n      dup6\n      dup8\n      gas\n      call\n      swap3\n      pop\n      pop\n      pop\n      returndatasize\n      dup1\n      0x00\n      dup2\n      eq\n      tag_94\n      jumpi\n      mload(0x40)\n      swap2\n      pop\n      and(add(returndatasize, 0x3f), not(0x1f))\n      dup3\n      add\n      0x40\n      mstore\n      returndatasize\n      dup3\n      mstore\n      returndatasize\n      0x00\n      0x20\n      dup5\n      add\n      returndatacopy\n      jump(tag_93)\n    tag_94:\n      0x60\n      swap2\n      pop\n    tag_93:\n      pop\n        /* \"TimeLock.sol\":8784:8861  (bool success, bytes memory returnData) = target.call{value: value}(callData) */\n      swap2\n      pop\n      swap2\n      pop\n        /* \"TimeLock.sol\":8913:8920  success */\n      dup2\n        /* \"TimeLock.sol\":8905:8986  require(success, \"Timelock::executeTransaction: Transacation execution reverted\") */\n      tag_95\n      jumpi\n      mload(0x40)\n      0x08c379a000000000000000000000000000000000000000000000000000000000\n      dup2\n      mstore\n      0x04\n      add\n      tag_96\n      swap1\n      tag_97\n      jump\t// in\n    tag_96:\n      mload(0x40)\n      dup1\n      swap2\n      sub\n      swap1\n      revert\n    tag_95:\n        /* \"TimeLock.sol\":9062:9068  target */\n      dup10\n        /* \"TimeLock.sol\":9035:9106  ExecuteTransaction(txHash, target, value, signature, data, executeTime) */\n      0xffffffffffffffffffffffffffffffffffffffff\n      and\n        /* \"TimeLock.sol\":9054:9060  txHash */\n      dup5\n        /* \"TimeLock.sol\":9035:9106  ExecuteTransaction(txHash, target, value, signature, data, executeTime) */\n      0xa560e3198060a2f10670c1ec5b403077ea6ae93ca8de1c32b451dc1a943cd6e7\n        /* \"TimeLock.sol\":9070:9075  value */\n      dup12\n        /* \"TimeLock.sol\":9077:9086  signature */\n      dup12\n        /* \"TimeLock.sol\":9088:9092  data */\n      dup12\n        /* \"TimeLock.sol\":9094:9105  executeTime */\n      dup12\n        /* \"TimeLock.sol\":9035:9106  ExecuteTransaction(txHash, target, value, signature, data, executeTime) */\n      mload(0x40)\n      tag_98\n      swap5\n      swap4\n      swap3\n      swap2\n      swap1\n      tag_99\n      jump\t// in\n    tag_98:\n      mload(0x40)\n      dup1\n      swap2\n      sub\n      swap1\n      log3\n        /* \"TimeLock.sol\":9126:9136  returnData */\n      dup1\n        /* \"TimeLock.sol\":9119:9136  return returnData */\n      swap5\n      pop\n      pop\n      pop\n      pop\n      pop\n        /* \"TimeLock.sol\":7560:9144  function executeTransaction(... */\n      swap6\n      swap5\n      pop\n      pop\n      pop\n      pop\n      pop\n      jump\t// out\n        /* \"TimeLock.sol\":6090:6795  function queueTransaction(address target, uint256 value, string memory signature, bytes memory data, uint256 executeTime) public onlyOwner returns (bytes32) {... */\n    tag_28:\n        /* \"TimeLock.sol\":6238:6245  bytes32 */\n      0x00\n        /* \"TimeLock.sol\":4911:4916  admin */\n      dup1\n      0x00\n      swap1\n      sload\n      swap1\n      0x0100\n      exp\n      swap1\n      div\n      0xffffffffffffffffffffffffffffffffffffffff\n      and\n        /* \"TimeLock.sol\":4897:4916  msg.sender == admin */\n      0xffffffffffffffffffffffffffffffffffffffff\n      and\n        /* \"TimeLock.sol\":4897:4907  msg.sender */\n      caller\n        /* \"TimeLock.sol\":4897:4916  msg.sender == admin */\n      0xffffffffffffffffffffffffffffffffffffffff\n      and\n      eq\n        /* \"TimeLock.sol\":4889:4947  require(msg.sender == admin, \"TimeLock: caller not admin\") */\n      tag_101\n      jumpi\n      mload(0x40)\n      0x08c379a000000000000000000000000000000000000000000000000000000000\n      dup2\n      mstore\n      0x04\n      add\n      tag_102\n      swap1\n      tag_70\n      jump\t// in\n    tag_102:\n      mload(0x40)\n      dup1\n      swap2\n      sub\n      swap1\n      revert\n    tag_101:\n        /* \"TimeLock.sol\":6351:6356  delay */\n      sload(0x01)\n        /* \"TimeLock.sol\":6329:6348  getBlockTimestamp() */\n      tag_104\n        /* \"TimeLock.sol\":6329:6346  getBlockTimestamp */\n      tag_41\n        /* \"TimeLock.sol\":6329:6348  getBlockTimestamp() */\n      jump\t// in\n    tag_104:\n        /* \"TimeLock.sol\":6329:6356  getBlockTimestamp() + delay */\n      tag_105\n      swap2\n      swap1\n      tag_81\n      jump\t// in\n    tag_105:\n        /* \"TimeLock.sol\":6315:6326  executeTime */\n      dup3\n        /* \"TimeLock.sol\":6315:6356  executeTime > getBlockTimestamp() + delay */\n      gt\n        /* \"TimeLock.sol\":6307:6433  require(executeTime > getBlockTimestamp() + delay, \"Timelock::queueTransaction: Estimated execution time must satisfy delay.\") */\n      tag_106\n      jumpi\n      mload(0x40)\n      0x08c379a000000000000000000000000000000000000000000000000000000000\n      dup2\n      mstore\n      0x04\n      add\n      tag_107\n      swap1\n      tag_108\n      jump\t// in\n    tag_107:\n      mload(0x40)\n      dup1\n      swap2\n      sub\n      swap1\n      revert\n    tag_106:\n        /* \"TimeLock.sol\":6487:6501  bytes32 txHash */\n      0x00\n        /* \"TimeLock.sol\":6504:6558  getTxHash(target, value, signature, data, executeTime) */\n      tag_109\n        /* \"TimeLock.sol\":6514:6520  target */\n      dup8\n        /* \"TimeLock.sol\":6522:6527  value */\n      dup8\n        /* \"TimeLock.sol\":6529:6538  signature */\n      dup8\n        /* \"TimeLock.sol\":6540:6544  data */\n      dup8\n        /* \"TimeLock.sol\":6546:6557  executeTime */\n      dup8\n        /* \"TimeLock.sol\":6504:6513  getTxHash */\n      tag_17\n        /* \"TimeLock.sol\":6504:6558  getTxHash(target, value, signature, data, executeTime) */\n      jump\t// in\n    tag_109:\n        /* \"TimeLock.sol\":6487:6558  bytes32 txHash = getTxHash(target, value, signature, data, executeTime) */\n      swap1\n      pop\n        /* \"TimeLock.sol\":6647:6651  true */\n      0x01\n        /* \"TimeLock.sol\":6618:6636  queuedTransactions */\n      0x02\n        /* \"TimeLock.sol\":6618:6644  queuedTransactions[txHash] */\n      0x00\n        /* \"TimeLock.sol\":6637:6643  txHash */\n      dup4\n        /* \"TimeLock.sol\":6618:6644  queuedTransactions[txHash] */\n      dup2\n      mstore\n      0x20\n      add\n      swap1\n      dup2\n      mstore\n      0x20\n      add\n      0x00\n      keccak256\n      0x00\n        /* \"TimeLock.sol\":6618:6651  queuedTransactions[txHash] = true */\n      0x0100\n      exp\n      dup2\n      sload\n      dup2\n      0xff\n      mul\n      not\n      and\n      swap1\n      dup4\n      iszero\n      iszero\n      mul\n      or\n      swap1\n      sstore\n      pop\n        /* \"TimeLock.sol\":6719:6725  target */\n      dup7\n        /* \"TimeLock.sol\":6694:6763  QueueTransaction(txHash, target, value, signature, data, executeTime) */\n      0xffffffffffffffffffffffffffffffffffffffff\n      and\n        /* \"TimeLock.sol\":6711:6717  txHash */\n      dup2\n        /* \"TimeLock.sol\":6694:6763  QueueTransaction(txHash, target, value, signature, data, executeTime) */\n      0x76e2796dc3a81d57b0e8504b647febcbeeb5f4af818e164f11eef8131a6a763f\n        /* \"TimeLock.sol\":6727:6732  value */\n      dup9\n        /* \"TimeLock.sol\":6734:6743  signature */\n      dup9\n        /* \"TimeLock.sol\":6745:6749  data */\n      dup9\n        /* \"TimeLock.sol\":6751:6762  executeTime */\n      dup9\n        /* \"TimeLock.sol\":6694:6763  QueueTransaction(txHash, target, value, signature, data, executeTime) */\n      mload(0x40)\n      tag_110\n      swap5\n      swap4\n      swap3\n      swap2\n      swap1\n      tag_99\n      jump\t// in\n    tag_110:\n      mload(0x40)\n      dup1\n      swap2\n      sub\n      swap1\n      log3\n        /* \"TimeLock.sol\":6781:6787  txHash */\n      dup1\n        /* \"TimeLock.sol\":6774:6787  return txHash */\n      swap2\n      pop\n      pop\n        /* \"TimeLock.sol\":6090:6795  function queueTransaction(address target, uint256 value, string memory signature, bytes memory data, uint256 executeTime) public onlyOwner returns (bytes32) {... */\n      swap6\n      swap5\n      pop\n      pop\n      pop\n      pop\n      pop\n      jump\t// out\n        /* \"TimeLock.sol\":6911:7550  function cancelTransaction(address target, uint256 value, string memory signature, bytes memory data, uint256 executeTime) public onlyOwner{... */\n    tag_33:\n        /* \"TimeLock.sol\":4911:4916  admin */\n      0x00\n      dup1\n      sload\n      swap1\n      0x0100\n      exp\n      swap1\n      div\n      0xffffffffffffffffffffffffffffffffffffffff\n      and\n        /* \"TimeLock.sol\":4897:4916  msg.sender == admin */\n      0xffffffffffffffffffffffffffffffffffffffff\n      and\n        /* \"TimeLock.sol\":4897:4907  msg.sender */\n      caller\n        /* \"TimeLock.sol\":4897:4916  msg.sender == admin */\n      0xffffffffffffffffffffffffffffffffffffffff\n      and\n      eq\n        /* \"TimeLock.sol\":4889:4947  require(msg.sender == admin, \"TimeLock: caller not admin\") */\n      tag_112\n      jumpi\n      mload(0x40)\n      0x08c379a000000000000000000000000000000000000000000000000000000000\n      dup2\n      mstore\n      0x04\n      add\n      tag_113\n      swap1\n      tag_70\n      jump\t// in\n    tag_113:\n      mload(0x40)\n      dup1\n      swap2\n      sub\n      swap1\n      revert\n    tag_112:\n        /* \"TimeLock.sol\":7095:7109  bytes32 txHash */\n      0x00\n        /* \"TimeLock.sol\":7112:7166  getTxHash(target, value, signature, data, executeTime) */\n      tag_115\n        /* \"TimeLock.sol\":7122:7128  target */\n      dup7\n        /* \"TimeLock.sol\":7130:7135  value */\n      dup7\n        /* \"TimeLock.sol\":7137:7146  signature */\n      dup7\n        /* \"TimeLock.sol\":7148:7152  data */\n      dup7\n        /* \"TimeLock.sol\":7154:7165  executeTime */\n      dup7\n        /* \"TimeLock.sol\":7112:7121  getTxHash */\n      tag_17\n        /* \"TimeLock.sol\":7112:7166  getTxHash(target, value, signature, data, executeTime) */\n      jump\t// in\n    tag_115:\n        /* \"TimeLock.sol\":7095:7166  bytes32 txHash = getTxHash(target, value, signature, data, executeTime) */\n      swap1\n      pop\n        /* \"TimeLock.sol\":7231:7249  queuedTransactions */\n      0x02\n        /* \"TimeLock.sol\":7231:7257  queuedTransactions[txHash] */\n      0x00\n        /* \"TimeLock.sol\":7250:7256  txHash */\n      dup3\n        /* \"TimeLock.sol\":7231:7257  queuedTransactions[txHash] */\n      dup2\n      mstore\n      0x20\n      add\n      swap1\n      dup2\n      mstore\n      0x20\n      add\n      0x00\n      keccak256\n      0x00\n      swap1\n      sload\n      swap1\n      0x0100\n      exp\n      swap1\n      div\n      0xff\n      and\n        /* \"TimeLock.sol\":7223:7321  require(queuedTransactions[txHash], \"Timelock::cancelTransaction Transaction hasn't been queued.\") */\n      tag_116\n      jumpi\n      mload(0x40)\n      0x08c379a000000000000000000000000000000000000000000000000000000000\n      dup2\n      mstore\n      0x04\n      add\n      tag_117\n      swap1\n      tag_118\n      jump\t// in\n    tag_117:\n      mload(0x40)\n      dup1\n      swap2\n      sub\n      swap1\n      revert\n    tag_116:\n        /* \"TimeLock.sol\":7416:7421  false */\n      0x00\n        /* \"TimeLock.sol\":7387:7405  queuedTransactions */\n      0x02\n        /* \"TimeLock.sol\":7387:7413  queuedTransactions[txHash] */\n      0x00\n        /* \"TimeLock.sol\":7406:7412  txHash */\n      dup4\n        /* \"TimeLock.sol\":7387:7413  queuedTransactions[txHash] */\n      dup2\n      mstore\n      0x20\n      add\n      swap1\n      dup2\n      mstore\n      0x20\n      add\n      0x00\n      keccak256\n      0x00\n        /* \"TimeLock.sol\":7387:7421  queuedTransactions[txHash] = false */\n      0x0100\n      exp\n      dup2\n      sload\n      dup2\n      0xff\n      mul\n      not\n      and\n      swap1\n      dup4\n      iszero\n      iszero\n      mul\n      or\n      swap1\n      sstore\n      pop\n        /* \"TimeLock.sol\":7496:7502  target */\n      dup6\n        /* \"TimeLock.sol\":7470:7540  CancelTransaction(txHash, target, value, signature, data, executeTime) */\n      0xffffffffffffffffffffffffffffffffffffffff\n      and\n        /* \"TimeLock.sol\":7488:7494  txHash */\n      dup2\n        /* \"TimeLock.sol\":7470:7540  CancelTransaction(txHash, target, value, signature, data, executeTime) */\n      0x2fffc091a501fd91bfbff27141450d3acb40fb8e6d8382b243ec7a812a3aaf87\n        /* \"TimeLock.sol\":7504:7509  value */\n      dup8\n        /* \"TimeLock.sol\":7511:7520  signature */\n      dup8\n        /* \"TimeLock.sol\":7522:7526  data */\n      dup8\n        /* \"TimeLock.sol\":7528:7539  executeTime */\n      dup8\n        /* \"TimeLock.sol\":7470:7540  CancelTransaction(txHash, target, value, signature, data, executeTime) */\n      mload(0x40)\n      tag_119\n      swap5\n      swap4\n      swap3\n      swap2\n      swap1\n      tag_99\n      jump\t// in\n    tag_119:\n      mload(0x40)\n      dup1\n      swap2\n      sub\n      swap1\n      log3\n        /* \"TimeLock.sol\":7050:7550  {... */\n      pop\n        /* \"TimeLock.sol\":6911:7550  function cancelTransaction(address target, uint256 value, string memory signature, bytes memory data, uint256 executeTime) public onlyOwner{... */\n      pop\n      pop\n      pop\n      pop\n      pop\n      jump\t// out\n        /* \"TimeLock.sol\":4685:4702  uint public delay */\n    tag_36:\n      sload(0x01)\n      dup2\n      jump\t// out\n        /* \"TimeLock.sol\":5558:5658  function getBlockTimestamp() public  view returns(uint256) {... */\n    tag_41:\n        /* \"TimeLock.sol\":5608:5615  uint256 */\n      0x00\n        /* \"TimeLock.sol\":5635:5650  block.timestamp */\n      timestamp\n        /* \"TimeLock.sol\":5628:5650  return block.timestamp */\n      swap1\n      pop\n        /* \"TimeLock.sol\":5558:5658  function getBlockTimestamp() public  view returns(uint256) {... */\n      swap1\n      jump\t// out\n        /* \"TimeLock.sol\":5422:5550  function changeAdmin(address newAdmin) public onlyTimelock {... */\n    tag_47:\n        /* \"TimeLock.sol\":5072:5076  this */\n      address\n        /* \"TimeLock.sol\":5050:5077  msg.sender == address(this) */\n      0xffffffffffffffffffffffffffffffffffffffff\n      and\n        /* \"TimeLock.sol\":5050:5060  msg.sender */\n      caller\n        /* \"TimeLock.sol\":5050:5077  msg.sender == address(this) */\n      0xffffffffffffffffffffffffffffffffffffffff\n      and\n      eq\n        /* \"TimeLock.sol\":5042:5111  require(msg.sender == address(this), \"Timelock: caller not Timelock\") */\n      tag_122\n      jumpi\n      mload(0x40)\n      0x08c379a000000000000000000000000000000000000000000000000000000000\n      dup2\n      mstore\n      0x04\n      add\n      tag_123\n      swap1\n      tag_124\n      jump\t// in\n    tag_123:\n      mload(0x40)\n      dup1\n      swap2\n      sub\n      swap1\n      revert\n    tag_122:\n        /* \"TimeLock.sol\":5500:5508  newAdmin */\n      dup1\n        /* \"TimeLock.sol\":5492:5497  admin */\n      0x00\n      dup1\n        /* \"TimeLock.sol\":5492:5508  admin = newAdmin */\n      0x0100\n      exp\n      dup2\n      sload\n      dup2\n      0xffffffffffffffffffffffffffffffffffffffff\n      mul\n      not\n      and\n      swap1\n      dup4\n      0xffffffffffffffffffffffffffffffffffffffff\n      and\n      mul\n      or\n      swap1\n      sstore\n      pop\n        /* \"TimeLock.sol\":5533:5541  newAdmin */\n      dup1\n        /* \"TimeLock.sol\":5524:5542  NewAdmin(newAdmin) */\n      0xffffffffffffffffffffffffffffffffffffffff\n      and\n      0x71614071b88dee5e0b2ae578a9dd7b2ebbe9ae832ba419dc0242cd065a290b6c\n      mload(0x40)\n      mload(0x40)\n      dup1\n      swap2\n      sub\n      swap1\n      log2\n        /* \"TimeLock.sol\":5422:5550  function changeAdmin(address newAdmin) public onlyTimelock {... */\n      pop\n      jump\t// out\n        /* \"TimeLock.sol\":4617:4659  uint public constant GRACE_PERIOD = 7 days */\n    tag_50:\n        /* \"TimeLock.sol\":4653:4659  7 days */\n      0x093a80\n        /* \"TimeLock.sol\":4617:4659  uint public constant GRACE_PERIOD = 7 days */\n      dup2\n      jump\t// out\n        /* \"TimeLock.sol\":4740:4790  mapping(bytes32 => bool) public queuedTransactions */\n    tag_56:\n      mstore(0x20, 0x02)\n      dup1\n      0x00\n      mstore\n      keccak256(0x00, 0x40)\n      0x00\n      swap2\n      pop\n      sload\n      swap1\n      0x0100\n      exp\n      swap1\n      div\n      0xff\n      and\n      dup2\n      jump\t// out\n        /* \"TimeLock.sol\":4571:4591  address public admin */\n    tag_61:\n      0x00\n      dup1\n      sload\n      swap1\n      0x0100\n      exp\n      swap1\n      div\n      0xffffffffffffffffffffffffffffffffffffffff\n      and\n      dup2\n      jump\t// out\n        /* \"#utility.yul\":7:82   */\n    tag_126:\n        /* \"#utility.yul\":40:46   */\n      0x00\n        /* \"#utility.yul\":73:75   */\n      0x40\n        /* \"#utility.yul\":67:76   */\n      mload\n        /* \"#utility.yul\":57:76   */\n      swap1\n      pop\n        /* \"#utility.yul\":7:82   */\n      swap1\n      jump\t// out\n        /* \"#utility.yul\":88:205   */\n    tag_127:\n        /* \"#utility.yul\":197:198   */\n      0x00\n        /* \"#utility.yul\":194:195   */\n      dup1\n        /* \"#utility.yul\":187:199   */\n      revert\n        /* \"#utility.yul\":211:328   */\n    tag_128:\n        /* \"#utility.yul\":320:321   */\n      0x00\n        /* \"#utility.yul\":317:318   */\n      dup1\n        /* \"#utility.yul\":310:322   */\n      revert\n        /* \"#utility.yul\":334:460   */\n    tag_129:\n        /* \"#utility.yul\":371:378   */\n      0x00\n        /* \"#utility.yul\":411:453   */\n      0xffffffffffffffffffffffffffffffffffffffff\n        /* \"#utility.yul\":404:409   */\n      dup3\n        /* \"#utility.yul\":400:454   */\n      and\n        /* \"#utility.yul\":389:454   */\n      swap1\n      pop\n        /* \"#utility.yul\":334:460   */\n      swap2\n      swap1\n      pop\n      jump\t// out\n        /* \"#utility.yul\":466:562   */\n    tag_130:\n        /* \"#utility.yul\":503:510   */\n      0x00\n        /* \"#utility.yul\":532:556   */\n      tag_192\n        /* \"#utility.yul\":550:555   */\n      dup3\n        /* \"#utility.yul\":532:556   */\n      tag_129\n      jump\t// in\n    tag_192:\n        /* \"#utility.yul\":521:556   */\n      swap1\n      pop\n        /* \"#utility.yul\":466:562   */\n      swap2\n      swap1\n      pop\n      jump\t// out\n        /* \"#utility.yul\":568:690   */\n    tag_131:\n        /* \"#utility.yul\":641:665   */\n      tag_194\n        /* \"#utility.yul\":659:664   */\n      dup2\n        /* \"#utility.yul\":641:665   */\n      tag_130\n      jump\t// in\n    tag_194:\n        /* \"#utility.yul\":634:639   */\n      dup2\n        /* \"#utility.yul\":631:666   */\n      eq\n        /* \"#utility.yul\":621:684   */\n      tag_195\n      jumpi\n        /* \"#utility.yul\":680:681   */\n      0x00\n        /* \"#utility.yul\":677:678   */\n      dup1\n        /* \"#utility.yul\":670:682   */\n      revert\n        /* \"#utility.yul\":621:684   */\n    tag_195:\n        /* \"#utility.yul\":568:690   */\n      pop\n      jump\t// out\n        /* \"#utility.yul\":696:835   */\n    tag_132:\n        /* \"#utility.yul\":742:747   */\n      0x00\n        /* \"#utility.yul\":780:786   */\n      dup2\n        /* \"#utility.yul\":767:787   */\n      calldataload\n        /* \"#utility.yul\":758:787   */\n      swap1\n      pop\n        /* \"#utility.yul\":796:829   */\n      tag_197\n        /* \"#utility.yul\":823:828   */\n      dup2\n        /* \"#utility.yul\":796:829   */\n      tag_131\n      jump\t// in\n    tag_197:\n        /* \"#utility.yul\":696:835   */\n      swap3\n      swap2\n      pop\n      pop\n      jump\t// out\n        /* \"#utility.yul\":841:918   */\n    tag_133:\n        /* \"#utility.yul\":878:885   */\n      0x00\n        /* \"#utility.yul\":907:912   */\n      dup2\n        /* \"#utility.yul\":896:912   */\n      swap1\n      pop\n        /* \"#utility.yul\":841:918   */\n      swap2\n      swap1\n      pop\n      jump\t// out\n        /* \"#utility.yul\":924:1046   */\n    tag_134:\n        /* \"#utility.yul\":997:1021   */\n      tag_200\n        /* \"#utility.yul\":1015:1020   */\n      dup2\n        /* \"#utility.yul\":997:1021   */\n      tag_133\n      jump\t// in\n    tag_200:\n        /* \"#utility.yul\":990:995   */\n      dup2\n        /* \"#utility.yul\":987:1022   */\n      eq\n        /* \"#utility.yul\":977:1040   */\n      tag_201\n      jumpi\n        /* \"#utility.yul\":1036:1037   */\n      0x00\n        /* \"#utility.yul\":1033:1034   */\n      dup1\n        /* \"#utility.yul\":1026:1038   */\n      revert\n        /* \"#utility.yul\":977:1040   */\n    tag_201:\n        /* \"#utility.yul\":924:1046   */\n      pop\n      jump\t// out\n        /* \"#utility.yul\":1052:1191   */\n    tag_135:\n        /* \"#utility.yul\":1098:1103   */\n      0x00\n        /* \"#utility.yul\":1136:1142   */\n      dup2\n        /* \"#utility.yul\":1123:1143   */\n      calldataload\n        /* \"#utility.yul\":1114:1143   */\n      swap1\n      pop\n        /* \"#utility.yul\":1152:1185   */\n      tag_203\n        /* \"#utility.yul\":1179:1184   */\n      dup2\n        /* \"#utility.yul\":1152:1185   */\n      tag_134\n      jump\t// in\n    tag_203:\n        /* \"#utility.yul\":1052:1191   */\n      swap3\n      swap2\n      pop\n      pop\n      jump\t// out\n        /* \"#utility.yul\":1197:1314   */\n    tag_136:\n        /* \"#utility.yul\":1306:1307   */\n      0x00\n        /* \"#utility.yul\":1303:1304   */\n      dup1\n        /* \"#utility.yul\":1296:1308   */\n      revert\n        /* \"#utility.yul\":1320:1437   */\n    tag_137:\n        /* \"#utility.yul\":1429:1430   */\n      0x00\n        /* \"#utility.yul\":1426:1427   */\n      dup1\n        /* \"#utility.yul\":1419:1431   */\n      revert\n        /* \"#utility.yul\":1443:1545   */\n    tag_138:\n        /* \"#utility.yul\":1484:1490   */\n      0x00\n        /* \"#utility.yul\":1535:1537   */\n      0x1f\n        /* \"#utility.yul\":1531:1538   */\n      not\n        /* \"#utility.yul\":1526:1528   */\n      0x1f\n        /* \"#utility.yul\":1519:1524   */\n      dup4\n        /* \"#utility.yul\":1515:1529   */\n      add\n        /* \"#utility.yul\":1511:1539   */\n      and\n        /* \"#utility.yul\":1501:1539   */\n      swap1\n      pop\n        /* \"#utility.yul\":1443:1545   */\n      swap2\n      swap1\n      pop\n      jump\t// out\n        /* \"#utility.yul\":1551:1731   */\n    tag_139:\n        /* \"#utility.yul\":1599:1676   */\n      0x4e487b7100000000000000000000000000000000000000000000000000000000\n        /* \"#utility.yul\":1596:1597   */\n      0x00\n        /* \"#utility.yul\":1589:1677   */\n      mstore\n        /* \"#utility.yul\":1696:1700   */\n      0x41\n        /* \"#utility.yul\":1693:1694   */\n      0x04\n        /* \"#utility.yul\":1686:1701   */\n      mstore\n        /* \"#utility.yul\":1720:1724   */\n      0x24\n        /* \"#utility.yul\":1717:1718   */\n      0x00\n        /* \"#utility.yul\":1710:1725   */\n      revert\n        /* \"#utility.yul\":1737:2018   */\n    tag_140:\n        /* \"#utility.yul\":1820:1847   */\n      tag_209\n        /* \"#utility.yul\":1842:1846   */\n      dup3\n        /* \"#utility.yul\":1820:1847   */\n      tag_138\n      jump\t// in\n    tag_209:\n        /* \"#utility.yul\":1812:1818   */\n      dup2\n        /* \"#utility.yul\":1808:1848   */\n      add\n        /* \"#utility.yul\":1950:1956   */\n      dup2\n        /* \"#utility.yul\":1938:1948   */\n      dup2\n        /* \"#utility.yul\":1935:1957   */\n      lt\n        /* \"#utility.yul\":1914:1932   */\n      0xffffffffffffffff\n        /* \"#utility.yul\":1902:1912   */\n      dup3\n        /* \"#utility.yul\":1899:1933   */\n      gt\n        /* \"#utility.yul\":1896:1958   */\n      or\n        /* \"#utility.yul\":1893:1981   */\n      iszero\n      tag_210\n      jumpi\n        /* \"#utility.yul\":1961:1979   */\n      tag_211\n      tag_139\n      jump\t// in\n    tag_211:\n        /* \"#utility.yul\":1893:1981   */\n    tag_210:\n        /* \"#utility.yul\":2001:2011   */\n      dup1\n        /* \"#utility.yul\":1997:1999   */\n      0x40\n        /* \"#utility.yul\":1990:2012   */\n      mstore\n        /* \"#utility.yul\":1780:2018   */\n      pop\n        /* \"#utility.yul\":1737:2018   */\n      pop\n      pop\n      jump\t// out\n        /* \"#utility.yul\":2024:2153   */\n    tag_141:\n        /* \"#utility.yul\":2058:2064   */\n      0x00\n        /* \"#utility.yul\":2085:2105   */\n      tag_213\n      tag_126\n      jump\t// in\n    tag_213:\n        /* \"#utility.yul\":2075:2105   */\n      swap1\n      pop\n        /* \"#utility.yul\":2114:2147   */\n      tag_214\n        /* \"#utility.yul\":2142:2146   */\n      dup3\n        /* \"#utility.yul\":2134:2140   */\n      dup3\n        /* \"#utility.yul\":2114:2147   */\n      tag_140\n      jump\t// in\n    tag_214:\n        /* \"#utility.yul\":2024:2153   */\n      swap2\n      swap1\n      pop\n      jump\t// out\n        /* \"#utility.yul\":2159:2467   */\n    tag_142:\n        /* \"#utility.yul\":2221:2225   */\n      0x00\n        /* \"#utility.yul\":2311:2329   */\n      0xffffffffffffffff\n        /* \"#utility.yul\":2303:2309   */\n      dup3\n        /* \"#utility.yul\":2300:2330   */\n      gt\n        /* \"#utility.yul\":2297:2353   */\n      iszero\n      tag_216\n      jumpi\n        /* \"#utility.yul\":2333:2351   */\n      tag_217\n      tag_139\n      jump\t// in\n    tag_217:\n        /* \"#utility.yul\":2297:2353   */\n    tag_216:\n        /* \"#utility.yul\":2371:2400   */\n      tag_218\n        /* \"#utility.yul\":2393:2399   */\n      dup3\n        /* \"#utility.yul\":2371:2400   */\n      tag_138\n      jump\t// in\n    tag_218:\n        /* \"#utility.yul\":2363:2400   */\n      swap1\n      pop\n        /* \"#utility.yul\":2455:2459   */\n      0x20\n        /* \"#utility.yul\":2449:2453   */\n      dup2\n        /* \"#utility.yul\":2445:2460   */\n      add\n        /* \"#utility.yul\":2437:2460   */\n      swap1\n      pop\n        /* \"#utility.yul\":2159:2467   */\n      swap2\n      swap1\n      pop\n      jump\t// out\n        /* \"#utility.yul\":2473:2621   */\n    tag_143:\n        /* \"#utility.yul\":2571:2577   */\n      dup3\n        /* \"#utility.yul\":2566:2569   */\n      dup2\n        /* \"#utility.yul\":2561:2564   */\n      dup4\n        /* \"#utility.yul\":2548:2578   */\n      calldatacopy\n        /* \"#utility.yul\":2612:2613   */\n      0x00\n        /* \"#utility.yul\":2603:2609   */\n      dup4\n        /* \"#utility.yul\":2598:2601   */\n      dup4\n        /* \"#utility.yul\":2594:2610   */\n      add\n        /* \"#utility.yul\":2587:2614   */\n      mstore\n        /* \"#utility.yul\":2473:2621   */\n      pop\n      pop\n      pop\n      jump\t// out\n        /* \"#utility.yul\":2627:3052   */\n    tag_144:\n        /* \"#utility.yul\":2705:2710   */\n      0x00\n        /* \"#utility.yul\":2730:2796   */\n      tag_221\n        /* \"#utility.yul\":2746:2795   */\n      tag_222\n        /* \"#utility.yul\":2788:2794   */\n      dup5\n        /* \"#utility.yul\":2746:2795   */\n      tag_142\n      jump\t// in\n    tag_222:\n        /* \"#utility.yul\":2730:2796   */\n      tag_141\n      jump\t// in\n    tag_221:\n        /* \"#utility.yul\":2721:2796   */\n      swap1\n      pop\n        /* \"#utility.yul\":2819:2825   */\n      dup3\n        /* \"#utility.yul\":2812:2817   */\n      dup2\n        /* \"#utility.yul\":2805:2826   */\n      mstore\n        /* \"#utility.yul\":2857:2861   */\n      0x20\n        /* \"#utility.yul\":2850:2855   */\n      dup2\n        /* \"#utility.yul\":2846:2862   */\n      add\n        /* \"#utility.yul\":2895:2898   */\n      dup5\n        /* \"#utility.yul\":2886:2892   */\n      dup5\n        /* \"#utility.yul\":2881:2884   */\n      dup5\n        /* \"#utility.yul\":2877:2893   */\n      add\n        /* \"#utility.yul\":2874:2899   */\n      gt\n        /* \"#utility.yul\":2871:2983   */\n      iszero\n      tag_223\n      jumpi\n        /* \"#utility.yul\":2902:2981   */\n      tag_224\n      tag_137\n      jump\t// in\n    tag_224:\n        /* \"#utility.yul\":2871:2983   */\n    tag_223:\n        /* \"#utility.yul\":2992:3046   */\n      tag_225\n        /* \"#utility.yul\":3039:3045   */\n      dup5\n        /* \"#utility.yul\":3034:3037   */\n      dup3\n        /* \"#utility.yul\":3029:3032   */\n      dup6\n        /* \"#utility.yul\":2992:3046   */\n      tag_143\n      jump\t// in\n    tag_225:\n        /* \"#utility.yul\":2711:3052   */\n      pop\n        /* \"#utility.yul\":2627:3052   */\n      swap4\n      swap3\n      pop\n      pop\n      pop\n      jump\t// out\n        /* \"#utility.yul\":3072:3412   */\n    tag_145:\n        /* \"#utility.yul\":3128:3133   */\n      0x00\n        /* \"#utility.yul\":3177:3180   */\n      dup3\n        /* \"#utility.yul\":3170:3174   */\n      0x1f\n        /* \"#utility.yul\":3162:3168   */\n      dup4\n        /* \"#utility.yul\":3158:3175   */\n      add\n        /* \"#utility.yul\":3154:3181   */\n      slt\n        /* \"#utility.yul\":3144:3266   */\n      tag_227\n      jumpi\n        /* \"#utility.yul\":3185:3264   */\n      tag_228\n      tag_136\n      jump\t// in\n    tag_228:\n        /* \"#utility.yul\":3144:3266   */\n    tag_227:\n        /* \"#utility.yul\":3302:3308   */\n      dup2\n        /* \"#utility.yul\":3289:3309   */\n      calldataload\n        /* \"#utility.yul\":3327:3406   */\n      tag_229\n        /* \"#utility.yul\":3402:3405   */\n      dup5\n        /* \"#utility.yul\":3394:3400   */\n      dup3\n        /* \"#utility.yul\":3387:3391   */\n      0x20\n        /* \"#utility.yul\":3379:3385   */\n      dup7\n        /* \"#utility.yul\":3375:3392   */\n      add\n        /* \"#utility.yul\":3327:3406   */\n      tag_144\n      jump\t// in\n    tag_229:\n        /* \"#utility.yul\":3318:3406   */\n      swap2\n      pop\n        /* \"#utility.yul\":3134:3412   */\n      pop\n        /* \"#utility.yul\":3072:3412   */\n      swap3\n      swap2\n      pop\n      pop\n      jump\t// out\n        /* \"#utility.yul\":3418:3725   */\n    tag_146:\n        /* \"#utility.yul\":3479:3483   */\n      0x00\n        /* \"#utility.yul\":3569:3587   */\n      0xffffffffffffffff\n        /* \"#utility.yul\":3561:3567   */\n      dup3\n        /* \"#utility.yul\":3558:3588   */\n      gt\n        /* \"#utility.yul\":3555:3611   */\n      iszero\n      tag_231\n      jumpi\n        /* \"#utility.yul\":3591:3609   */\n      tag_232\n      tag_139\n      jump\t// in\n    tag_232:\n        /* \"#utility.yul\":3555:3611   */\n    tag_231:\n        /* \"#utility.yul\":3629:3658   */\n      tag_233\n        /* \"#utility.yul\":3651:3657   */\n      dup3\n        /* \"#utility.yul\":3629:3658   */\n      tag_138\n      jump\t// in\n    tag_233:\n        /* \"#utility.yul\":3621:3658   */\n      swap1\n      pop\n        /* \"#utility.yul\":3713:3717   */\n      0x20\n        /* \"#utility.yul\":3707:3711   */\n      dup2\n        /* \"#utility.yul\":3703:3718   */\n      add\n        /* \"#utility.yul\":3695:3718   */\n      swap1\n      pop\n        /* \"#utility.yul\":3418:3725   */\n      swap2\n      swap1\n      pop\n      jump\t// out\n        /* \"#utility.yul\":3731:4154   */\n    tag_147:\n        /* \"#utility.yul\":3808:3813   */\n      0x00\n        /* \"#utility.yul\":3833:3898   */\n      tag_235\n        /* \"#utility.yul\":3849:3897   */\n      tag_236\n        /* \"#utility.yul\":3890:3896   */\n      dup5\n        /* \"#utility.yul\":3849:3897   */\n      tag_146\n      jump\t// in\n    tag_236:\n        /* \"#utility.yul\":3833:3898   */\n      tag_141\n      jump\t// in\n    tag_235:\n        /* \"#utility.yul\":3824:3898   */\n      swap1\n      pop\n        /* \"#utility.yul\":3921:3927   */\n      dup3\n        /* \"#utility.yul\":3914:3919   */\n      dup2\n        /* \"#utility.yul\":3907:3928   */\n      mstore\n        /* \"#utility.yul\":3959:3963   */\n      0x20\n        /* \"#utility.yul\":3952:3957   */\n      dup2\n        /* \"#utility.yul\":3948:3964   */\n      add\n        /* \"#utility.yul\":3997:4000   */\n      dup5\n        /* \"#utility.yul\":3988:3994   */\n      dup5\n        /* \"#utility.yul\":3983:3986   */\n      dup5\n        /* \"#utility.yul\":3979:3995   */\n      add\n        /* \"#utility.yul\":3976:4001   */\n      gt\n        /* \"#utility.yul\":3973:4085   */\n      iszero\n      tag_237\n      jumpi\n        /* \"#utility.yul\":4004:4083   */\n      tag_238\n      tag_137\n      jump\t// in\n    tag_238:\n        /* \"#utility.yul\":3973:4085   */\n    tag_237:\n        /* \"#utility.yul\":4094:4148   */\n      tag_239\n        /* \"#utility.yul\":4141:4147   */\n      dup5\n        /* \"#utility.yul\":4136:4139   */\n      dup3\n        /* \"#utility.yul\":4131:4134   */\n      dup6\n        /* \"#utility.yul\":4094:4148   */\n      tag_143\n      jump\t// in\n    tag_239:\n        /* \"#utility.yul\":3814:4154   */\n      pop\n        /* \"#utility.yul\":3731:4154   */\n      swap4\n      swap3\n      pop\n      pop\n      pop\n      jump\t// out\n        /* \"#utility.yul\":4173:4511   */\n    tag_148:\n        /* \"#utility.yul\":4228:4233   */\n      0x00\n        /* \"#utility.yul\":4277:4280   */\n      dup3\n        /* \"#utility.yul\":4270:4274   */\n      0x1f\n        /* \"#utility.yul\":4262:4268   */\n      dup4\n        /* \"#utility.yul\":4258:4275   */\n      add\n        /* \"#utility.yul\":4254:4281   */\n      slt\n        /* \"#utility.yul\":4244:4366   */\n      tag_241\n      jumpi\n        /* \"#utility.yul\":4285:4364   */\n      tag_242\n      tag_136\n      jump\t// in\n    tag_242:\n        /* \"#utility.yul\":4244:4366   */\n    tag_241:\n        /* \"#utility.yul\":4402:4408   */\n      dup2\n        /* \"#utility.yul\":4389:4409   */\n      calldataload\n        /* \"#utility.yul\":4427:4505   */\n      tag_243\n        /* \"#utility.yul\":4501:4504   */\n      dup5\n        /* \"#utility.yul\":4493:4499   */\n      dup3\n        /* \"#utility.yul\":4486:4490   */\n      0x20\n        /* \"#utility.yul\":4478:4484   */\n      dup7\n        /* \"#utility.yul\":4474:4491   */\n      add\n        /* \"#utility.yul\":4427:4505   */\n      tag_147\n      jump\t// in\n    tag_243:\n        /* \"#utility.yul\":4418:4505   */\n      swap2\n      pop\n        /* \"#utility.yul\":4234:4511   */\n      pop\n        /* \"#utility.yul\":4173:4511   */\n      swap3\n      swap2\n      pop\n      pop\n      jump\t// out\n        /* \"#utility.yul\":4517:5786   */\n    tag_16:\n        /* \"#utility.yul\":4631:4637   */\n      0x00\n        /* \"#utility.yul\":4639:4645   */\n      dup1\n        /* \"#utility.yul\":4647:4653   */\n      0x00\n        /* \"#utility.yul\":4655:4661   */\n      dup1\n        /* \"#utility.yul\":4663:4669   */\n      0x00\n        /* \"#utility.yul\":4712:4715   */\n      0xa0\n        /* \"#utility.yul\":4700:4709   */\n      dup7\n        /* \"#utility.yul\":4691:4698   */\n      dup9\n        /* \"#utility.yul\":4687:4710   */\n      sub\n        /* \"#utility.yul\":4683:4716   */\n      slt\n        /* \"#utility.yul\":4680:4800   */\n      iszero\n      tag_245\n      jumpi\n        /* \"#utility.yul\":4719:4798   */\n      tag_246\n      tag_127\n      jump\t// in\n    tag_246:\n        /* \"#utility.yul\":4680:4800   */\n    tag_245:\n        /* \"#utility.yul\":4839:4840   */\n      0x00\n        /* \"#utility.yul\":4864:4917   */\n      tag_247\n        /* \"#utility.yul\":4909:4916   */\n      dup9\n        /* \"#utility.yul\":4900:4906   */\n      dup3\n        /* \"#utility.yul\":4889:4898   */\n      dup10\n        /* \"#utility.yul\":4885:4907   */\n      add\n        /* \"#utility.yul\":4864:4917   */\n      tag_132\n      jump\t// in\n    tag_247:\n        /* \"#utility.yul\":4854:4917   */\n      swap6\n      pop\n        /* \"#utility.yul\":4810:4927   */\n      pop\n        /* \"#utility.yul\":4966:4968   */\n      0x20\n        /* \"#utility.yul\":4992:5045   */\n      tag_248\n        /* \"#utility.yul\":5037:5044   */\n      dup9\n        /* \"#utility.yul\":5028:5034   */\n      dup3\n        /* \"#utility.yul\":5017:5026   */\n      dup10\n        /* \"#utility.yul\":5013:5035   */\n      add\n        /* \"#utility.yul\":4992:5045   */\n      tag_135\n      jump\t// in\n    tag_248:\n        /* \"#utility.yul\":4982:5045   */\n      swap5\n      pop\n        /* \"#utility.yul\":4937:5055   */\n      pop\n        /* \"#utility.yul\":5122:5124   */\n      0x40\n        /* \"#utility.yul\":5111:5120   */\n      dup7\n        /* \"#utility.yul\":5107:5125   */\n      add\n        /* \"#utility.yul\":5094:5126   */\n      calldataload\n        /* \"#utility.yul\":5153:5171   */\n      0xffffffffffffffff\n        /* \"#utility.yul\":5145:5151   */\n      dup2\n        /* \"#utility.yul\":5142:5172   */\n      gt\n        /* \"#utility.yul\":5139:5256   */\n      iszero\n      tag_249\n      jumpi\n        /* \"#utility.yul\":5175:5254   */\n      tag_250\n      tag_128\n      jump\t// in\n    tag_250:\n        /* \"#utility.yul\":5139:5256   */\n    tag_249:\n        /* \"#utility.yul\":5280:5343   */\n      tag_251\n        /* \"#utility.yul\":5335:5342   */\n      dup9\n        /* \"#utility.yul\":5326:5332   */\n      dup3\n        /* \"#utility.yul\":5315:5324   */\n      dup10\n        /* \"#utility.yul\":5311:5333   */\n      add\n        /* \"#utility.yul\":5280:5343   */\n      tag_145\n      jump\t// in\n    tag_251:\n        /* \"#utility.yul\":5270:5343   */\n      swap4\n      pop\n        /* \"#utility.yul\":5065:5353   */\n      pop\n        /* \"#utility.yul\":5420:5422   */\n      0x60\n        /* \"#utility.yul\":5409:5418   */\n      dup7\n        /* \"#utility.yul\":5405:5423   */\n      add\n        /* \"#utility.yul\":5392:5424   */\n      calldataload\n        /* \"#utility.yul\":5451:5469   */\n      0xffffffffffffffff\n        /* \"#utility.yul\":5443:5449   */\n      dup2\n        /* \"#utility.yul\":5440:5470   */\n      gt\n        /* \"#utility.yul\":5437:5554   */\n      iszero\n      tag_252\n      jumpi\n        /* \"#utility.yul\":5473:5552   */\n      tag_253\n      tag_128\n      jump\t// in\n    tag_253:\n        /* \"#utility.yul\":5437:5554   */\n    tag_252:\n        /* \"#utility.yul\":5578:5640   */\n      tag_254\n        /* \"#utility.yul\":5632:5639   */\n      dup9\n        /* \"#utility.yul\":5623:5629   */\n      dup3\n        /* \"#utility.yul\":5612:5621   */\n      dup10\n        /* \"#utility.yul\":5608:5630   */\n      add\n        /* \"#utility.yul\":5578:5640   */\n      tag_148\n      jump\t// in\n    tag_254:\n        /* \"#utility.yul\":5568:5640   */\n      swap3\n      pop\n        /* \"#utility.yul\":5363:5650   */\n      pop\n        /* \"#utility.yul\":5689:5692   */\n      0x80\n        /* \"#utility.yul\":5716:5769   */\n      tag_255\n        /* \"#utility.yul\":5761:5768   */\n      dup9\n        /* \"#utility.yul\":5752:5758   */\n      dup3\n        /* \"#utility.yul\":5741:5750   */\n      dup10\n        /* \"#utility.yul\":5737:5759   */\n      add\n        /* \"#utility.yul\":5716:5769   */\n      tag_135\n      jump\t// in\n    tag_255:\n        /* \"#utility.yul\":5706:5769   */\n      swap2\n      pop\n        /* \"#utility.yul\":5660:5779   */\n      pop\n        /* \"#utility.yul\":4517:5786   */\n      swap3\n      swap6\n      pop\n      swap3\n      swap6\n      swap1\n      swap4\n      pop\n      jump\t// out\n        /* \"#utility.yul\":5792:5869   */\n    tag_149:\n        /* \"#utility.yul\":5829:5836   */\n      0x00\n        /* \"#utility.yul\":5858:5863   */\n      dup2\n        /* \"#utility.yul\":5847:5863   */\n      swap1\n      pop\n        /* \"#utility.yul\":5792:5869   */\n      swap2\n      swap1\n      pop\n      jump\t// out\n        /* \"#utility.yul\":5875:5993   */\n    tag_150:\n        /* \"#utility.yul\":5962:5986   */\n      tag_258\n        /* \"#utility.yul\":5980:5985   */\n      dup2\n        /* \"#utility.yul\":5962:5986   */\n      tag_149\n      jump\t// in\n    tag_258:\n        /* \"#utility.yul\":5957:5960   */\n      dup3\n        /* \"#utility.yul\":5950:5987   */\n      mstore\n        /* \"#utility.yul\":5875:5993   */\n      pop\n      pop\n      jump\t// out\n        /* \"#utility.yul\":5999:6221   */\n    tag_19:\n        /* \"#utility.yul\":6092:6096   */\n      0x00\n        /* \"#utility.yul\":6130:6132   */\n      0x20\n        /* \"#utility.yul\":6119:6128   */\n      dup3\n        /* \"#utility.yul\":6115:6133   */\n      add\n        /* \"#utility.yul\":6107:6133   */\n      swap1\n      pop\n        /* \"#utility.yul\":6143:6214   */\n      tag_260\n        /* \"#utility.yul\":6211:6212   */\n      0x00\n        /* \"#utility.yul\":6200:6209   */\n      dup4\n        /* \"#utility.yul\":6196:6213   */\n      add\n        /* \"#utility.yul\":6187:6193   */\n      dup5\n        /* \"#utility.yul\":6143:6214   */\n      tag_150\n      jump\t// in\n    tag_260:\n        /* \"#utility.yul\":5999:6221   */\n      swap3\n      swap2\n      pop\n      pop\n      jump\t// out\n        /* \"#utility.yul\":6227:6325   */\n    tag_151:\n        /* \"#utility.yul\":6278:6284   */\n      0x00\n        /* \"#utility.yul\":6312:6317   */\n      dup2\n        /* \"#utility.yul\":6306:6318   */\n      mload\n        /* \"#utility.yul\":6296:6318   */\n      swap1\n      pop\n        /* \"#utility.yul\":6227:6325   */\n      swap2\n      swap1\n      pop\n      jump\t// out\n        /* \"#utility.yul\":6331:6499   */\n    tag_152:\n        /* \"#utility.yul\":6414:6425   */\n      0x00\n        /* \"#utility.yul\":6448:6454   */\n      dup3\n        /* \"#utility.yul\":6443:6446   */\n      dup3\n        /* \"#utility.yul\":6436:6455   */\n      mstore\n        /* \"#utility.yul\":6488:6492   */\n      0x20\n        /* \"#utility.yul\":6483:6486   */\n      dup3\n        /* \"#utility.yul\":6479:6493   */\n      add\n        /* \"#utility.yul\":6464:6493   */\n      swap1\n      pop\n        /* \"#utility.yul\":6331:6499   */\n      swap3\n      swap2\n      pop\n      pop\n      jump\t// out\n        /* \"#utility.yul\":6505:6644   */\n    tag_153:\n        /* \"#utility.yul\":6594:6600   */\n      dup3\n        /* \"#utility.yul\":6589:6592   */\n      dup2\n        /* \"#utility.yul\":6584:6587   */\n      dup4\n        /* \"#utility.yul\":6578:6601   */\n      mcopy\n        /* \"#utility.yul\":6635:6636   */\n      0x00\n        /* \"#utility.yul\":6626:6632   */\n      dup4\n        /* \"#utility.yul\":6621:6624   */\n      dup4\n        /* \"#utility.yul\":6617:6633   */\n      add\n        /* \"#utility.yul\":6610:6637   */\n      mstore\n        /* \"#utility.yul\":6505:6644   */\n      pop\n      pop\n      pop\n      jump\t// out\n        /* \"#utility.yul\":6650:7023   */\n    tag_154:\n        /* \"#utility.yul\":6736:6739   */\n      0x00\n        /* \"#utility.yul\":6764:6802   */\n      tag_265\n        /* \"#utility.yul\":6796:6801   */\n      dup3\n        /* \"#utility.yul\":6764:6802   */\n      tag_151\n      jump\t// in\n    tag_265:\n        /* \"#utility.yul\":6818:6888   */\n      tag_266\n        /* \"#utility.yul\":6881:6887   */\n      dup2\n        /* \"#utility.yul\":6876:6879   */\n      dup6\n        /* \"#utility.yul\":6818:6888   */\n      tag_152\n      jump\t// in\n    tag_266:\n        /* \"#utility.yul\":6811:6888   */\n      swap4\n      pop\n        /* \"#utility.yul\":6897:6962   */\n      tag_267\n        /* \"#utility.yul\":6955:6961   */\n      dup2\n        /* \"#utility.yul\":6950:6953   */\n      dup6\n        /* \"#utility.yul\":6943:6947   */\n      0x20\n        /* \"#utility.yul\":6936:6941   */\n      dup7\n        /* \"#utility.yul\":6932:6948   */\n      add\n        /* \"#utility.yul\":6897:6962   */\n      tag_153\n      jump\t// in\n    tag_267:\n        /* \"#utility.yul\":6987:7016   */\n      tag_268\n        /* \"#utility.yul\":7009:7015   */\n      dup2\n        /* \"#utility.yul\":6987:7016   */\n      tag_138\n      jump\t// in\n    tag_268:\n        /* \"#utility.yul\":6982:6985   */\n      dup5\n        /* \"#utility.yul\":6978:7017   */\n      add\n        /* \"#utility.yul\":6971:7017   */\n      swap2\n      pop\n        /* \"#utility.yul\":6740:7023   */\n      pop\n        /* \"#utility.yul\":6650:7023   */\n      swap3\n      swap2\n      pop\n      pop\n      jump\t// out\n        /* \"#utility.yul\":7029:7338   */\n    tag_24:\n        /* \"#utility.yul\":7140:7144   */\n      0x00\n        /* \"#utility.yul\":7178:7180   */\n      0x20\n        /* \"#utility.yul\":7167:7176   */\n      dup3\n        /* \"#utility.yul\":7163:7181   */\n      add\n        /* \"#utility.yul\":7155:7181   */\n      swap1\n      pop\n        /* \"#utility.yul\":7227:7236   */\n      dup2\n        /* \"#utility.yul\":7221:7225   */\n      dup2\n        /* \"#utility.yul\":7217:7237   */\n      sub\n        /* \"#utility.yul\":7213:7214   */\n      0x00\n        /* \"#utility.yul\":7202:7211   */\n      dup4\n        /* \"#utility.yul\":7198:7215   */\n      add\n        /* \"#utility.yul\":7191:7238   */\n      mstore\n        /* \"#utility.yul\":7255:7331   */\n      tag_270\n        /* \"#utility.yul\":7326:7330   */\n      dup2\n        /* \"#utility.yul\":7317:7323   */\n      dup5\n        /* \"#utility.yul\":7255:7331   */\n      tag_154\n      jump\t// in\n    tag_270:\n        /* \"#utility.yul\":7247:7331   */\n      swap1\n      pop\n        /* \"#utility.yul\":7029:7338   */\n      swap3\n      swap2\n      pop\n      pop\n      jump\t// out\n        /* \"#utility.yul\":7344:7462   */\n    tag_155:\n        /* \"#utility.yul\":7431:7455   */\n      tag_272\n        /* \"#utility.yul\":7449:7454   */\n      dup2\n        /* \"#utility.yul\":7431:7455   */\n      tag_133\n      jump\t// in\n    tag_272:\n        /* \"#utility.yul\":7426:7429   */\n      dup3\n        /* \"#utility.yul\":7419:7456   */\n      mstore\n        /* \"#utility.yul\":7344:7462   */\n      pop\n      pop\n      jump\t// out\n        /* \"#utility.yul\":7468:7690   */\n    tag_38:\n        /* \"#utility.yul\":7561:7565   */\n      0x00\n        /* \"#utility.yul\":7599:7601   */\n      0x20\n        /* \"#utility.yul\":7588:7597   */\n      dup3\n        /* \"#utility.yul\":7584:7602   */\n      add\n        /* \"#utility.yul\":7576:7602   */\n      swap1\n      pop\n        /* \"#utility.yul\":7612:7683   */\n      tag_274\n        /* \"#utility.yul\":7680:7681   */\n      0x00\n        /* \"#utility.yul\":7669:7678   */\n      dup4\n        /* \"#utility.yul\":7665:7682   */\n      add\n        /* \"#utility.yul\":7656:7662   */\n      dup5\n        /* \"#utility.yul\":7612:7683   */\n      tag_155\n      jump\t// in\n    tag_274:\n        /* \"#utility.yul\":7468:7690   */\n      swap3\n      swap2\n      pop\n      pop\n      jump\t// out\n        /* \"#utility.yul\":7696:8025   */\n    tag_46:\n        /* \"#utility.yul\":7755:7761   */\n      0x00\n        /* \"#utility.yul\":7804:7806   */\n      0x20\n        /* \"#utility.yul\":7792:7801   */\n      dup3\n        /* \"#utility.yul\":7783:7790   */\n      dup5\n        /* \"#utility.yul\":7779:7802   */\n      sub\n        /* \"#utility.yul\":7775:7807   */\n      slt\n        /* \"#utility.yul\":7772:7891   */\n      iszero\n      tag_276\n      jumpi\n        /* \"#utility.yul\":7810:7889   */\n      tag_277\n      tag_127\n      jump\t// in\n    tag_277:\n        /* \"#utility.yul\":7772:7891   */\n    tag_276:\n        /* \"#utility.yul\":7930:7931   */\n      0x00\n        /* \"#utility.yul\":7955:8008   */\n      tag_278\n        /* \"#utility.yul\":8000:8007   */\n      dup5\n        /* \"#utility.yul\":7991:7997   */\n      dup3\n        /* \"#utility.yul\":7980:7989   */\n      dup6\n        /* \"#utility.yul\":7976:7998   */\n      add\n        /* \"#utility.yul\":7955:8008   */\n      tag_132\n      jump\t// in\n    tag_278:\n        /* \"#utility.yul\":7945:8008   */\n      swap2\n      pop\n        /* \"#utility.yul\":7901:8018   */\n      pop\n        /* \"#utility.yul\":7696:8025   */\n      swap3\n      swap2\n      pop\n      pop\n      jump\t// out\n        /* \"#utility.yul\":8031:8153   */\n    tag_156:\n        /* \"#utility.yul\":8104:8128   */\n      tag_280\n        /* \"#utility.yul\":8122:8127   */\n      dup2\n        /* \"#utility.yul\":8104:8128   */\n      tag_149\n      jump\t// in\n    tag_280:\n        /* \"#utility.yul\":8097:8102   */\n      dup2\n        /* \"#utility.yul\":8094:8129   */\n      eq\n        /* \"#utility.yul\":8084:8147   */\n      tag_281\n      jumpi\n        /* \"#utility.yul\":8143:8144   */\n      0x00\n        /* \"#utility.yul\":8140:8141   */\n      dup1\n        /* \"#utility.yul\":8133:8145   */\n      revert\n        /* \"#utility.yul\":8084:8147   */\n    tag_281:\n        /* \"#utility.yul\":8031:8153   */\n      pop\n      jump\t// out\n        /* \"#utility.yul\":8159:8298   */\n    tag_157:\n        /* \"#utility.yul\":8205:8210   */\n      0x00\n        /* \"#utility.yul\":8243:8249   */\n      dup2\n        /* \"#utility.yul\":8230:8250   */\n      calldataload\n        /* \"#utility.yul\":8221:8250   */\n      swap1\n      pop\n        /* \"#utility.yul\":8259:8292   */\n      tag_283\n        /* \"#utility.yul\":8286:8291   */\n      dup2\n        /* \"#utility.yul\":8259:8292   */\n      tag_156\n      jump\t// in\n    tag_283:\n        /* \"#utility.yul\":8159:8298   */\n      swap3\n      swap2\n      pop\n      pop\n      jump\t// out\n        /* \"#utility.yul\":8304:8633   */\n    tag_55:\n        /* \"#utility.yul\":8363:8369   */\n      0x00\n        /* \"#utility.yul\":8412:8414   */\n      0x20\n        /* \"#utility.yul\":8400:8409   */\n      dup3\n        /* \"#utility.yul\":8391:8398   */\n      dup5\n        /* \"#utility.yul\":8387:8410   */\n      sub\n        /* \"#utility.yul\":8383:8415   */\n      slt\n        /* \"#utility.yul\":8380:8499   */\n      iszero\n      tag_285\n      jumpi\n        /* \"#utility.yul\":8418:8497   */\n      tag_286\n      tag_127\n      jump\t// in\n    tag_286:\n        /* \"#utility.yul\":8380:8499   */\n    tag_285:\n        /* \"#utility.yul\":8538:8539   */\n      0x00\n        /* \"#utility.yul\":8563:8616   */\n      tag_287\n        /* \"#utility.yul\":8608:8615   */\n      dup5\n        /* \"#utility.yul\":8599:8605   */\n      dup3\n        /* \"#utility.yul\":8588:8597   */\n      dup6\n        /* \"#utility.yul\":8584:8606   */\n      add\n        /* \"#utility.yul\":8563:8616   */\n      tag_157\n      jump\t// in\n    tag_287:\n        /* \"#utility.yul\":8553:8616   */\n      swap2\n      pop\n        /* \"#utility.yul\":8509:8626   */\n      pop\n        /* \"#utility.yul\":8304:8633   */\n      swap3\n      swap2\n      pop\n      pop\n      jump\t// out\n        /* \"#utility.yul\":8639:8729   */\n    tag_158:\n        /* \"#utility.yul\":8673:8680   */\n      0x00\n        /* \"#utility.yul\":8716:8721   */\n      dup2\n        /* \"#utility.yul\":8709:8722   */\n      iszero\n        /* \"#utility.yul\":8702:8723   */\n      iszero\n        /* \"#utility.yul\":8691:8723   */\n      swap1\n      pop\n        /* \"#utility.yul\":8639:8729   */\n      swap2\n      swap1\n      pop\n      jump\t// out\n        /* \"#utility.yul\":8735:8844   */\n    tag_159:\n        /* \"#utility.yul\":8816:8837   */\n      tag_290\n        /* \"#utility.yul\":8831:8836   */\n      dup2\n        /* \"#utility.yul\":8816:8837   */\n      tag_158\n      jump\t// in\n    tag_290:\n        /* \"#utility.yul\":8811:8814   */\n      dup3\n        /* \"#utility.yul\":8804:8838   */\n      mstore\n        /* \"#utility.yul\":8735:8844   */\n      pop\n      pop\n      jump\t// out\n        /* \"#utility.yul\":8850:9060   */\n    tag_58:\n        /* \"#utility.yul\":8937:8941   */\n      0x00\n        /* \"#utility.yul\":8975:8977   */\n      0x20\n        /* \"#utility.yul\":8964:8973   */\n      dup3\n        /* \"#utility.yul\":8960:8978   */\n      add\n        /* \"#utility.yul\":8952:8978   */\n      swap1\n      pop\n        /* \"#utility.yul\":8988:9053   */\n      tag_292\n        /* \"#utility.yul\":9050:9051   */\n      0x00\n        /* \"#utility.yul\":9039:9048   */\n      dup4\n        /* \"#utility.yul\":9035:9052   */\n      add\n        /* \"#utility.yul\":9026:9032   */\n      dup5\n        /* \"#utility.yul\":8988:9053   */\n      tag_159\n      jump\t// in\n    tag_292:\n        /* \"#utility.yul\":8850:9060   */\n      swap3\n      swap2\n      pop\n      pop\n      jump\t// out\n        /* \"#utility.yul\":9066:9184   */\n    tag_160:\n        /* \"#utility.yul\":9153:9177   */\n      tag_294\n        /* \"#utility.yul\":9171:9176   */\n      dup2\n        /* \"#utility.yul\":9153:9177   */\n      tag_130\n      jump\t// in\n    tag_294:\n        /* \"#utility.yul\":9148:9151   */\n      dup3\n        /* \"#utility.yul\":9141:9178   */\n      mstore\n        /* \"#utility.yul\":9066:9184   */\n      pop\n      pop\n      jump\t// out\n        /* \"#utility.yul\":9190:9412   */\n    tag_63:\n        /* \"#utility.yul\":9283:9287   */\n      0x00\n        /* \"#utility.yul\":9321:9323   */\n      0x20\n        /* \"#utility.yul\":9310:9319   */\n      dup3\n        /* \"#utility.yul\":9306:9324   */\n      add\n        /* \"#utility.yul\":9298:9324   */\n      swap1\n      pop\n        /* \"#utility.yul\":9334:9405   */\n      tag_296\n        /* \"#utility.yul\":9402:9403   */\n      0x00\n        /* \"#utility.yul\":9391:9400   */\n      dup4\n        /* \"#utility.yul\":9387:9404   */\n      add\n        /* \"#utility.yul\":9378:9384   */\n      dup5\n        /* \"#utility.yul\":9334:9405   */\n      tag_160\n      jump\t// in\n    tag_296:\n        /* \"#utility.yul\":9190:9412   */\n      swap3\n      swap2\n      pop\n      pop\n      jump\t// out\n        /* \"#utility.yul\":9418:9517   */\n    tag_161:\n        /* \"#utility.yul\":9470:9476   */\n      0x00\n        /* \"#utility.yul\":9504:9509   */\n      dup2\n        /* \"#utility.yul\":9498:9510   */\n      mload\n        /* \"#utility.yul\":9488:9510   */\n      swap1\n      pop\n        /* \"#utility.yul\":9418:9517   */\n      swap2\n      swap1\n      pop\n      jump\t// out\n        /* \"#utility.yul\":9523:9692   */\n    tag_162:\n        /* \"#utility.yul\":9607:9618   */\n      0x00\n        /* \"#utility.yul\":9641:9647   */\n      dup3\n        /* \"#utility.yul\":9636:9639   */\n      dup3\n        /* \"#utility.yul\":9629:9648   */\n      mstore\n        /* \"#utility.yul\":9681:9685   */\n      0x20\n        /* \"#utility.yul\":9676:9679   */\n      dup3\n        /* \"#utility.yul\":9672:9686   */\n      add\n        /* \"#utility.yul\":9657:9686   */\n      swap1\n      pop\n        /* \"#utility.yul\":9523:9692   */\n      swap3\n      swap2\n      pop\n      pop\n      jump\t// out\n        /* \"#utility.yul\":9698:10075   */\n    tag_163:\n        /* \"#utility.yul\":9786:9789   */\n      0x00\n        /* \"#utility.yul\":9814:9853   */\n      tag_300\n        /* \"#utility.yul\":9847:9852   */\n      dup3\n        /* \"#utility.yul\":9814:9853   */\n      tag_161\n      jump\t// in\n    tag_300:\n        /* \"#utility.yul\":9869:9940   */\n      tag_301\n        /* \"#utility.yul\":9933:9939   */\n      dup2\n        /* \"#utility.yul\":9928:9931   */\n      dup6\n        /* \"#utility.yul\":9869:9940   */\n      tag_162\n      jump\t// in\n    tag_301:\n        /* \"#utility.yul\":9862:9940   */\n      swap4\n      pop\n        /* \"#utility.yul\":9949:10014   */\n      tag_302\n        /* \"#utility.yul\":10007:10013   */\n      dup2\n        /* \"#utility.yul\":10002:10005   */\n      dup6\n        /* \"#utility.yul\":9995:9999   */\n      0x20\n        /* \"#utility.yul\":9988:9993   */\n      dup7\n        /* \"#utility.yul\":9984:10000   */\n      add\n        /* \"#utility.yul\":9949:10014   */\n      tag_153\n      jump\t// in\n    tag_302:\n        /* \"#utility.yul\":10039:10068   */\n      tag_303\n        /* \"#utility.yul\":10061:10067   */\n      dup2\n        /* \"#utility.yul\":10039:10068   */\n      tag_138\n      jump\t// in\n    tag_303:\n        /* \"#utility.yul\":10034:10037   */\n      dup5\n        /* \"#utility.yul\":10030:10069   */\n      add\n        /* \"#utility.yul\":10023:10069   */\n      swap2\n      pop\n        /* \"#utility.yul\":9790:10075   */\n      pop\n        /* \"#utility.yul\":9698:10075   */\n      swap3\n      swap2\n      pop\n      pop\n      jump\t// out\n        /* \"#utility.yul\":10081:10923   */\n    tag_66:\n        /* \"#utility.yul\":10324:10328   */\n      0x00\n        /* \"#utility.yul\":10362:10365   */\n      0xa0\n        /* \"#utility.yul\":10351:10360   */\n      dup3\n        /* \"#utility.yul\":10347:10366   */\n      add\n        /* \"#utility.yul\":10339:10366   */\n      swap1\n      pop\n        /* \"#utility.yul\":10376:10447   */\n      tag_305\n        /* \"#utility.yul\":10444:10445   */\n      0x00\n        /* \"#utility.yul\":10433:10442   */\n      dup4\n        /* \"#utility.yul\":10429:10446   */\n      add\n        /* \"#utility.yul\":10420:10426   */\n      dup9\n        /* \"#utility.yul\":10376:10447   */\n      tag_160\n      jump\t// in\n    tag_305:\n        /* \"#utility.yul\":10457:10529   */\n      tag_306\n        /* \"#utility.yul\":10525:10527   */\n      0x20\n        /* \"#utility.yul\":10514:10523   */\n      dup4\n        /* \"#utility.yul\":10510:10528   */\n      add\n        /* \"#utility.yul\":10501:10507   */\n      dup8\n        /* \"#utility.yul\":10457:10529   */\n      tag_155\n      jump\t// in\n    tag_306:\n        /* \"#utility.yul\":10576:10585   */\n      dup2\n        /* \"#utility.yul\":10570:10574   */\n      dup2\n        /* \"#utility.yul\":10566:10586   */\n      sub\n        /* \"#utility.yul\":10561:10563   */\n      0x40\n        /* \"#utility.yul\":10550:10559   */\n      dup4\n        /* \"#utility.yul\":10546:10564   */\n      add\n        /* \"#utility.yul\":10539:10587   */\n      mstore\n        /* \"#utility.yul\":10604:10682   */\n      tag_307\n        /* \"#utility.yul\":10677:10681   */\n      dup2\n        /* \"#utility.yul\":10668:10674   */\n      dup7\n        /* \"#utility.yul\":10604:10682   */\n      tag_163\n      jump\t// in\n    tag_307:\n        /* \"#utility.yul\":10596:10682   */\n      swap1\n      pop\n        /* \"#utility.yul\":10729:10738   */\n      dup2\n        /* \"#utility.yul\":10723:10727   */\n      dup2\n        /* \"#utility.yul\":10719:10739   */\n      sub\n        /* \"#utility.yul\":10714:10716   */\n      0x60\n        /* \"#utility.yul\":10703:10712   */\n      dup4\n        /* \"#utility.yul\":10699:10717   */\n      add\n        /* \"#utility.yul\":10692:10740   */\n      mstore\n        /* \"#utility.yul\":10757:10833   */\n      tag_308\n        /* \"#utility.yul\":10828:10832   */\n      dup2\n        /* \"#utility.yul\":10819:10825   */\n      dup6\n        /* \"#utility.yul\":10757:10833   */\n      tag_154\n      jump\t// in\n    tag_308:\n        /* \"#utility.yul\":10749:10833   */\n      swap1\n      pop\n        /* \"#utility.yul\":10843:10916   */\n      tag_309\n        /* \"#utility.yul\":10911:10914   */\n      0x80\n        /* \"#utility.yul\":10900:10909   */\n      dup4\n        /* \"#utility.yul\":10896:10915   */\n      add\n        /* \"#utility.yul\":10887:10893   */\n      dup5\n        /* \"#utility.yul\":10843:10916   */\n      tag_155\n      jump\t// in\n    tag_309:\n        /* \"#utility.yul\":10081:10923   */\n      swap7\n      swap6\n      pop\n      pop\n      pop\n      pop\n      pop\n      pop\n      jump\t// out\n        /* \"#utility.yul\":10929:11105   */\n    tag_164:\n        /* \"#utility.yul\":11069:11097   */\n      0x54696d654c6f636b3a2063616c6c6572206e6f742061646d696e000000000000\n        /* \"#utility.yul\":11065:11066   */\n      0x00\n        /* \"#utility.yul\":11057:11063   */\n      dup3\n        /* \"#utility.yul\":11053:11067   */\n      add\n        /* \"#utility.yul\":11046:11098   */\n      mstore\n        /* \"#utility.yul\":10929:11105   */\n      pop\n      jump\t// out\n        /* \"#utility.yul\":11111:11477   */\n    tag_165:\n        /* \"#utility.yul\":11253:11256   */\n      0x00\n        /* \"#utility.yul\":11274:11341   */\n      tag_312\n        /* \"#utility.yul\":11338:11340   */\n      0x1a\n        /* \"#utility.yul\":11333:11336   */\n      dup4\n        /* \"#utility.yul\":11274:11341   */\n      tag_162\n      jump\t// in\n    tag_312:\n        /* \"#utility.yul\":11267:11341   */\n      swap2\n      pop\n        /* \"#utility.yul\":11350:11443   */\n      tag_313\n        /* \"#utility.yul\":11439:11442   */\n      dup3\n        /* \"#utility.yul\":11350:11443   */\n      tag_164\n      jump\t// in\n    tag_313:\n        /* \"#utility.yul\":11468:11470   */\n      0x20\n        /* \"#utility.yul\":11463:11466   */\n      dup3\n        /* \"#utility.yul\":11459:11471   */\n      add\n        /* \"#utility.yul\":11452:11471   */\n      swap1\n      pop\n        /* \"#utility.yul\":11111:11477   */\n      swap2\n      swap1\n      pop\n      jump\t// out\n        /* \"#utility.yul\":11483:11902   */\n    tag_70:\n        /* \"#utility.yul\":11649:11653   */\n      0x00\n        /* \"#utility.yul\":11687:11689   */\n      0x20\n        /* \"#utility.yul\":11676:11685   */\n      dup3\n        /* \"#utility.yul\":11672:11690   */\n      add\n        /* \"#utility.yul\":11664:11690   */\n      swap1\n      pop\n        /* \"#utility.yul\":11736:11745   */\n      dup2\n        /* \"#utility.yul\":11730:11734   */\n      dup2\n        /* \"#utility.yul\":11726:11746   */\n      sub\n        /* \"#utility.yul\":11722:11723   */\n      0x00\n        /* \"#utility.yul\":11711:11720   */\n      dup4\n        /* \"#utility.yul\":11707:11724   */\n      add\n        /* \"#utility.yul\":11700:11747   */\n      mstore\n        /* \"#utility.yul\":11764:11895   */\n      tag_315\n        /* \"#utility.yul\":11890:11894   */\n      dup2\n        /* \"#utility.yul\":11764:11895   */\n      tag_165\n      jump\t// in\n    tag_315:\n        /* \"#utility.yul\":11756:11895   */\n      swap1\n      pop\n        /* \"#utility.yul\":11483:11902   */\n      swap2\n      swap1\n      pop\n      jump\t// out\n        /* \"#utility.yul\":11908:12154   */\n    tag_166:\n        /* \"#utility.yul\":12048:12082   */\n      0x54696d656c6f636b3a3a657865637574655472616e73616374696f6e20547261\n        /* \"#utility.yul\":12044:12045   */\n      0x00\n        /* \"#utility.yul\":12036:12042   */\n      dup3\n        /* \"#utility.yul\":12032:12046   */\n      add\n        /* \"#utility.yul\":12025:12083   */\n      mstore\n        /* \"#utility.yul\":12117:12146   */\n      0x6e73616374696f6e206861736e2774206265656e207175657565640000000000\n        /* \"#utility.yul\":12112:12114   */\n      0x20\n        /* \"#utility.yul\":12104:12110   */\n      dup3\n        /* \"#utility.yul\":12100:12115   */\n      add\n        /* \"#utility.yul\":12093:12147   */\n      mstore\n        /* \"#utility.yul\":11908:12154   */\n      pop\n      jump\t// out\n        /* \"#utility.yul\":12160:12526   */\n    tag_167:\n        /* \"#utility.yul\":12302:12305   */\n      0x00\n        /* \"#utility.yul\":12323:12390   */\n      tag_318\n        /* \"#utility.yul\":12387:12389   */\n      0x3b\n        /* \"#utility.yul\":12382:12385   */\n      dup4\n        /* \"#utility.yul\":12323:12390   */\n      tag_162\n      jump\t// in\n    tag_318:\n        /* \"#utility.yul\":12316:12390   */\n      swap2\n      pop\n        /* \"#utility.yul\":12399:12492   */\n      tag_319\n        /* \"#utility.yul\":12488:12491   */\n      dup3\n        /* \"#utility.yul\":12399:12492   */\n      tag_166\n      jump\t// in\n    tag_319:\n        /* \"#utility.yul\":12517:12519   */\n      0x40\n        /* \"#utility.yul\":12512:12515   */\n      dup3\n        /* \"#utility.yul\":12508:12520   */\n      add\n        /* \"#utility.yul\":12501:12520   */\n      swap1\n      pop\n        /* \"#utility.yul\":12160:12526   */\n      swap2\n      swap1\n      pop\n      jump\t// out\n        /* \"#utility.yul\":12532:12951   */\n    tag_75:\n        /* \"#utility.yul\":12698:12702   */\n      0x00\n        /* \"#utility.yul\":12736:12738   */\n      0x20\n        /* \"#utility.yul\":12725:12734   */\n      dup3\n        /* \"#utility.yul\":12721:12739   */\n      add\n        /* \"#utility.yul\":12713:12739   */\n      swap1\n      pop\n        /* \"#utility.yul\":12785:12794   */\n      dup2\n        /* \"#utility.yul\":12779:12783   */\n      dup2\n        /* \"#utility.yul\":12775:12795   */\n      sub\n        /* \"#utility.yul\":12771:12772   */\n      0x00\n        /* \"#utility.yul\":12760:12769   */\n      dup4\n        /* \"#utility.yul\":12756:12773   */\n      add\n        /* \"#utility.yul\":12749:12796   */\n      mstore\n        /* \"#utility.yul\":12813:12944   */\n      tag_321\n        /* \"#utility.yul\":12939:12943   */\n      dup2\n        /* \"#utility.yul\":12813:12944   */\n      tag_167\n      jump\t// in\n    tag_321:\n        /* \"#utility.yul\":12805:12944   */\n      swap1\n      pop\n        /* \"#utility.yul\":12532:12951   */\n      swap2\n      swap1\n      pop\n      jump\t// out\n        /* \"#utility.yul\":12957:13198   */\n    tag_168:\n        /* \"#utility.yul\":13097:13131   */\n      0x54696d656c6f636b3a3a657865637574655472616e73616374696f6e20686173\n        /* \"#utility.yul\":13093:13094   */\n      0x00\n        /* \"#utility.yul\":13085:13091   */\n      dup3\n        /* \"#utility.yul\":13081:13095   */\n      add\n        /* \"#utility.yul\":13074:13132   */\n      mstore\n        /* \"#utility.yul\":13166:13190   */\n      0x6e2774207375727061737365642074696d656c6f636b00000000000000000000\n        /* \"#utility.yul\":13161:13163   */\n      0x20\n        /* \"#utility.yul\":13153:13159   */\n      dup3\n        /* \"#utility.yul\":13149:13164   */\n      add\n        /* \"#utility.yul\":13142:13191   */\n      mstore\n        /* \"#utility.yul\":12957:13198   */\n      pop\n      jump\t// out\n        /* \"#utility.yul\":13204:13570   */\n    tag_169:\n        /* \"#utility.yul\":13346:13349   */\n      0x00\n        /* \"#utility.yul\":13367:13434   */\n      tag_324\n        /* \"#utility.yul\":13431:13433   */\n      0x36\n        /* \"#utility.yul\":13426:13429   */\n      dup4\n        /* \"#utility.yul\":13367:13434   */\n      tag_162\n      jump\t// in\n    tag_324:\n        /* \"#utility.yul\":13360:13434   */\n      swap2\n      pop\n        /* \"#utility.yul\":13443:13536   */\n      tag_325\n        /* \"#utility.yul\":13532:13535   */\n      dup3\n        /* \"#utility.yul\":13443:13536   */\n      tag_168\n      jump\t// in\n    tag_325:\n        /* \"#utility.yul\":13561:13563   */\n      0x40\n        /* \"#utility.yul\":13556:13559   */\n      dup3\n        /* \"#utility.yul\":13552:13564   */\n      add\n        /* \"#utility.yul\":13545:13564   */\n      swap1\n      pop\n        /* \"#utility.yul\":13204:13570   */\n      swap2\n      swap1\n      pop\n      jump\t// out\n        /* \"#utility.yul\":13576:13995   */\n    tag_79:\n        /* \"#utility.yul\":13742:13746   */\n      0x00\n        /* \"#utility.yul\":13780:13782   */\n      0x20\n        /* \"#utility.yul\":13769:13778   */\n      dup3\n        /* \"#utility.yul\":13765:13783   */\n      add\n        /* \"#utility.yul\":13757:13783   */\n      swap1\n      pop\n        /* \"#utility.yul\":13829:13838   */\n      dup2\n        /* \"#utility.yul\":13823:13827   */\n      dup2\n        /* \"#utility.yul\":13819:13839   */\n      sub\n        /* \"#utility.yul\":13815:13816   */\n      0x00\n        /* \"#utility.yul\":13804:13813   */\n      dup4\n        /* \"#utility.yul\":13800:13817   */\n      add\n        /* \"#utility.yul\":13793:13840   */\n      mstore\n        /* \"#utility.yul\":13857:13988   */\n      tag_327\n        /* \"#utility.yul\":13983:13987   */\n      dup2\n        /* \"#utility.yul\":13857:13988   */\n      tag_169\n      jump\t// in\n    tag_327:\n        /* \"#utility.yul\":13849:13988   */\n      swap1\n      pop\n        /* \"#utility.yul\":13576:13995   */\n      swap2\n      swap1\n      pop\n      jump\t// out\n        /* \"#utility.yul\":14001:14181   */\n    tag_170:\n        /* \"#utility.yul\":14049:14126   */\n      0x4e487b7100000000000000000000000000000000000000000000000000000000\n        /* \"#utility.yul\":14046:14047   */\n      0x00\n        /* \"#utility.yul\":14039:14127   */\n      mstore\n        /* \"#utility.yul\":14146:14150   */\n      0x11\n        /* \"#utility.yul\":14143:14144   */\n      0x04\n        /* \"#utility.yul\":14136:14151   */\n      mstore\n        /* \"#utility.yul\":14170:14174   */\n      0x24\n        /* \"#utility.yul\":14167:14168   */\n      0x00\n        /* \"#utility.yul\":14160:14175   */\n      revert\n        /* \"#utility.yul\":14187:14378   */\n    tag_81:\n        /* \"#utility.yul\":14227:14230   */\n      0x00\n        /* \"#utility.yul\":14246:14266   */\n      tag_330\n        /* \"#utility.yul\":14264:14265   */\n      dup3\n        /* \"#utility.yul\":14246:14266   */\n      tag_133\n      jump\t// in\n    tag_330:\n        /* \"#utility.yul\":14241:14266   */\n      swap2\n      pop\n        /* \"#utility.yul\":14280:14300   */\n      tag_331\n        /* \"#utility.yul\":14298:14299   */\n      dup4\n        /* \"#utility.yul\":14280:14300   */\n      tag_133\n      jump\t// in\n    tag_331:\n        /* \"#utility.yul\":14275:14300   */\n      swap3\n      pop\n        /* \"#utility.yul\":14323:14324   */\n      dup3\n        /* \"#utility.yul\":14320:14321   */\n      dup3\n        /* \"#utility.yul\":14316:14325   */\n      add\n        /* \"#utility.yul\":14309:14325   */\n      swap1\n      pop\n        /* \"#utility.yul\":14344:14347   */\n      dup1\n        /* \"#utility.yul\":14341:14342   */\n      dup3\n        /* \"#utility.yul\":14338:14348   */\n      gt\n        /* \"#utility.yul\":14335:14371   */\n      iszero\n      tag_332\n      jumpi\n        /* \"#utility.yul\":14351:14369   */\n      tag_333\n      tag_170\n      jump\t// in\n    tag_333:\n        /* \"#utility.yul\":14335:14371   */\n    tag_332:\n        /* \"#utility.yul\":14187:14378   */\n      swap3\n      swap2\n      pop\n      pop\n      jump\t// out\n        /* \"#utility.yul\":14384:14622   */\n    tag_171:\n        /* \"#utility.yul\":14524:14558   */\n      0x54696d656c6f636b3a3a657865637574655472616e73616374696f6e3a205472\n        /* \"#utility.yul\":14520:14521   */\n      0x00\n        /* \"#utility.yul\":14512:14518   */\n      dup3\n        /* \"#utility.yul\":14508:14522   */\n      add\n        /* \"#utility.yul\":14501:14559   */\n      mstore\n        /* \"#utility.yul\":14593:14614   */\n      0x616e73616374696f6e206973207374616c652e00000000000000000000000000\n        /* \"#utility.yul\":14588:14590   */\n      0x20\n        /* \"#utility.yul\":14580:14586   */\n      dup3\n        /* \"#utility.yul\":14576:14591   */\n      add\n        /* \"#utility.yul\":14569:14615   */\n      mstore\n        /* \"#utility.yul\":14384:14622   */\n      pop\n      jump\t// out\n        /* \"#utility.yul\":14628:14994   */\n    tag_172:\n        /* \"#utility.yul\":14770:14773   */\n      0x00\n        /* \"#utility.yul\":14791:14858   */\n      tag_336\n        /* \"#utility.yul\":14855:14857   */\n      0x33\n        /* \"#utility.yul\":14850:14853   */\n      dup4\n        /* \"#utility.yul\":14791:14858   */\n      tag_162\n      jump\t// in\n    tag_336:\n        /* \"#utility.yul\":14784:14858   */\n      swap2\n      pop\n        /* \"#utility.yul\":14867:14960   */\n      tag_337\n        /* \"#utility.yul\":14956:14959   */\n      dup3\n        /* \"#utility.yul\":14867:14960   */\n      tag_171\n      jump\t// in\n    tag_337:\n        /* \"#utility.yul\":14985:14987   */\n      0x40\n        /* \"#utility.yul\":14980:14983   */\n      dup3\n        /* \"#utility.yul\":14976:14988   */\n      add\n        /* \"#utility.yul\":14969:14988   */\n      swap1\n      pop\n        /* \"#utility.yul\":14628:14994   */\n      swap2\n      swap1\n      pop\n      jump\t// out\n        /* \"#utility.yul\":15000:15419   */\n    tag_85:\n        /* \"#utility.yul\":15166:15170   */\n      0x00\n        /* \"#utility.yul\":15204:15206   */\n      0x20\n        /* \"#utility.yul\":15193:15202   */\n      dup3\n        /* \"#utility.yul\":15189:15207   */\n      add\n        /* \"#utility.yul\":15181:15207   */\n      swap1\n      pop\n        /* \"#utility.yul\":15253:15262   */\n      dup2\n        /* \"#utility.yul\":15247:15251   */\n      dup2\n        /* \"#utility.yul\":15243:15263   */\n      sub\n        /* \"#utility.yul\":15239:15240   */\n      0x00\n        /* \"#utility.yul\":15228:15237   */\n      dup4\n        /* \"#utility.yul\":15224:15241   */\n      add\n        /* \"#utility.yul\":15217:15264   */\n      mstore\n        /* \"#utility.yul\":15281:15412   */\n      tag_339\n        /* \"#utility.yul\":15407:15411   */\n      dup2\n        /* \"#utility.yul\":15281:15412   */\n      tag_172\n      jump\t// in\n    tag_339:\n        /* \"#utility.yul\":15273:15412   */\n      swap1\n      pop\n        /* \"#utility.yul\":15000:15419   */\n      swap2\n      swap1\n      pop\n      jump\t// out\n        /* \"#utility.yul\":15425:15574   */\n    tag_173:\n        /* \"#utility.yul\":15461:15468   */\n      0x00\n        /* \"#utility.yul\":15501:15567   */\n      0xffffffff00000000000000000000000000000000000000000000000000000000\n        /* \"#utility.yul\":15494:15499   */\n      dup3\n        /* \"#utility.yul\":15490:15568   */\n      and\n        /* \"#utility.yul\":15479:15568   */\n      swap1\n      pop\n        /* \"#utility.yul\":15425:15574   */\n      swap2\n      swap1\n      pop\n      jump\t// out\n        /* \"#utility.yul\":15580:15658   */\n    tag_174:\n        /* \"#utility.yul\":15618:15625   */\n      0x00\n        /* \"#utility.yul\":15647:15652   */\n      dup2\n        /* \"#utility.yul\":15636:15652   */\n      swap1\n      pop\n        /* \"#utility.yul\":15580:15658   */\n      swap2\n      swap1\n      pop\n      jump\t// out\n        /* \"#utility.yul\":15664:15817   */\n    tag_175:\n        /* \"#utility.yul\":15767:15810   */\n      tag_343\n        /* \"#utility.yul\":15786:15809   */\n      tag_344\n        /* \"#utility.yul\":15803:15808   */\n      dup3\n        /* \"#utility.yul\":15786:15809   */\n      tag_173\n      jump\t// in\n    tag_344:\n        /* \"#utility.yul\":15767:15810   */\n      tag_174\n      jump\t// in\n    tag_343:\n        /* \"#utility.yul\":15762:15765   */\n      dup3\n        /* \"#utility.yul\":15755:15811   */\n      mstore\n        /* \"#utility.yul\":15664:15817   */\n      pop\n      pop\n      jump\t// out\n        /* \"#utility.yul\":15823:15970   */\n    tag_176:\n        /* \"#utility.yul\":15924:15935   */\n      0x00\n        /* \"#utility.yul\":15961:15964   */\n      dup2\n        /* \"#utility.yul\":15946:15964   */\n      swap1\n      pop\n        /* \"#utility.yul\":15823:15970   */\n      swap3\n      swap2\n      pop\n      pop\n      jump\t// out\n        /* \"#utility.yul\":15976:16362   */\n    tag_177:\n        /* \"#utility.yul\":16080:16083   */\n      0x00\n        /* \"#utility.yul\":16108:16146   */\n      tag_347\n        /* \"#utility.yul\":16140:16145   */\n      dup3\n        /* \"#utility.yul\":16108:16146   */\n      tag_151\n      jump\t// in\n    tag_347:\n        /* \"#utility.yul\":16162:16250   */\n      tag_348\n        /* \"#utility.yul\":16243:16249   */\n      dup2\n        /* \"#utility.yul\":16238:16241   */\n      dup6\n        /* \"#utility.yul\":16162:16250   */\n      tag_176\n      jump\t// in\n    tag_348:\n        /* \"#utility.yul\":16155:16250   */\n      swap4\n      pop\n        /* \"#utility.yul\":16259:16324   */\n      tag_349\n        /* \"#utility.yul\":16317:16323   */\n      dup2\n        /* \"#utility.yul\":16312:16315   */\n      dup6\n        /* \"#utility.yul\":16305:16309   */\n      0x20\n        /* \"#utility.yul\":16298:16303   */\n      dup7\n        /* \"#utility.yul\":16294:16310   */\n      add\n        /* \"#utility.yul\":16259:16324   */\n      tag_153\n      jump\t// in\n    tag_349:\n        /* \"#utility.yul\":16349:16355   */\n      dup1\n        /* \"#utility.yul\":16344:16347   */\n      dup5\n        /* \"#utility.yul\":16340:16356   */\n      add\n        /* \"#utility.yul\":16333:16356   */\n      swap2\n      pop\n        /* \"#utility.yul\":16084:16362   */\n      pop\n        /* \"#utility.yul\":15976:16362   */\n      swap3\n      swap2\n      pop\n      pop\n      jump\t// out\n        /* \"#utility.yul\":16368:16775   */\n    tag_89:\n        /* \"#utility.yul\":16524:16527   */\n      0x00\n        /* \"#utility.yul\":16539:16612   */\n      tag_351\n        /* \"#utility.yul\":16608:16611   */\n      dup3\n        /* \"#utility.yul\":16599:16605   */\n      dup6\n        /* \"#utility.yul\":16539:16612   */\n      tag_175\n      jump\t// in\n    tag_351:\n        /* \"#utility.yul\":16637:16638   */\n      0x04\n        /* \"#utility.yul\":16632:16635   */\n      dup3\n        /* \"#utility.yul\":16628:16639   */\n      add\n        /* \"#utility.yul\":16621:16639   */\n      swap2\n      pop\n        /* \"#utility.yul\":16656:16749   */\n      tag_352\n        /* \"#utility.yul\":16745:16748   */\n      dup3\n        /* \"#utility.yul\":16736:16742   */\n      dup5\n        /* \"#utility.yul\":16656:16749   */\n      tag_177\n      jump\t// in\n    tag_352:\n        /* \"#utility.yul\":16649:16749   */\n      swap2\n      pop\n        /* \"#utility.yul\":16766:16769   */\n      dup2\n        /* \"#utility.yul\":16759:16769   */\n      swap1\n      pop\n        /* \"#utility.yul\":16368:16775   */\n      swap4\n      swap3\n      pop\n      pop\n      pop\n      jump\t// out\n        /* \"#utility.yul\":16781:17052   */\n    tag_91:\n        /* \"#utility.yul\":16911:16914   */\n      0x00\n        /* \"#utility.yul\":16933:17026   */\n      tag_354\n        /* \"#utility.yul\":17022:17025   */\n      dup3\n        /* \"#utility.yul\":17013:17019   */\n      dup5\n        /* \"#utility.yul\":16933:17026   */\n      tag_177\n      jump\t// in\n    tag_354:\n        /* \"#utility.yul\":16926:17026   */\n      swap2\n      pop\n        /* \"#utility.yul\":17043:17046   */\n      dup2\n        /* \"#utility.yul\":17036:17046   */\n      swap1\n      pop\n        /* \"#utility.yul\":16781:17052   */\n      swap3\n      swap2\n      pop\n      pop\n      jump\t// out\n        /* \"#utility.yul\":17058:17306   */\n    tag_178:\n        /* \"#utility.yul\":17198:17232   */\n      0x54696d656c6f636b3a3a657865637574655472616e73616374696f6e3a205472\n        /* \"#utility.yul\":17194:17195   */\n      0x00\n        /* \"#utility.yul\":17186:17192   */\n      dup3\n        /* \"#utility.yul\":17182:17196   */\n      add\n        /* \"#utility.yul\":17175:17233   */\n      mstore\n        /* \"#utility.yul\":17267:17298   */\n      0x616e7361636174696f6e20657865637574696f6e207265766572746564000000\n        /* \"#utility.yul\":17262:17264   */\n      0x20\n        /* \"#utility.yul\":17254:17260   */\n      dup3\n        /* \"#utility.yul\":17250:17265   */\n      add\n        /* \"#utility.yul\":17243:17299   */\n      mstore\n        /* \"#utility.yul\":17058:17306   */\n      pop\n      jump\t// out\n        /* \"#utility.yul\":17312:17678   */\n    tag_179:\n        /* \"#utility.yul\":17454:17457   */\n      0x00\n        /* \"#utility.yul\":17475:17542   */\n      tag_357\n        /* \"#utility.yul\":17539:17541   */\n      0x3d\n        /* \"#utility.yul\":17534:17537   */\n      dup4\n        /* \"#utility.yul\":17475:17542   */\n      tag_162\n      jump\t// in\n    tag_357:\n        /* \"#utility.yul\":17468:17542   */\n      swap2\n      pop\n        /* \"#utility.yul\":17551:17644   */\n      tag_358\n        /* \"#utility.yul\":17640:17643   */\n      dup3\n        /* \"#utility.yul\":17551:17644   */\n      tag_178\n      jump\t// in\n    tag_358:\n        /* \"#utility.yul\":17669:17671   */\n      0x40\n        /* \"#utility.yul\":17664:17667   */\n      dup3\n        /* \"#utility.yul\":17660:17672   */\n      add\n        /* \"#utility.yul\":17653:17672   */\n      swap1\n      pop\n        /* \"#utility.yul\":17312:17678   */\n      swap2\n      swap1\n      pop\n      jump\t// out\n        /* \"#utility.yul\":17684:18103   */\n    tag_97:\n        /* \"#utility.yul\":17850:17854   */\n      0x00\n        /* \"#utility.yul\":17888:17890   */\n      0x20\n        /* \"#utility.yul\":17877:17886   */\n      dup3\n        /* \"#utility.yul\":17873:17891   */\n      add\n        /* \"#utility.yul\":17865:17891   */\n      swap1\n      pop\n        /* \"#utility.yul\":17937:17946   */\n      dup2\n        /* \"#utility.yul\":17931:17935   */\n      dup2\n        /* \"#utility.yul\":17927:17947   */\n      sub\n        /* \"#utility.yul\":17923:17924   */\n      0x00\n        /* \"#utility.yul\":17912:17921   */\n      dup4\n        /* \"#utility.yul\":17908:17925   */\n      add\n        /* \"#utility.yul\":17901:17948   */\n      mstore\n        /* \"#utility.yul\":17965:18096   */\n      tag_360\n        /* \"#utility.yul\":18091:18095   */\n      dup2\n        /* \"#utility.yul\":17965:18096   */\n      tag_179\n      jump\t// in\n    tag_360:\n        /* \"#utility.yul\":17957:18096   */\n      swap1\n      pop\n        /* \"#utility.yul\":17684:18103   */\n      swap2\n      swap1\n      pop\n      jump\t// out\n        /* \"#utility.yul\":18109:18840   */\n    tag_99:\n        /* \"#utility.yul\":18324:18328   */\n      0x00\n        /* \"#utility.yul\":18362:18365   */\n      0x80\n        /* \"#utility.yul\":18351:18360   */\n      dup3\n        /* \"#utility.yul\":18347:18366   */\n      add\n        /* \"#utility.yul\":18339:18366   */\n      swap1\n      pop\n        /* \"#utility.yul\":18376:18447   */\n      tag_362\n        /* \"#utility.yul\":18444:18445   */\n      0x00\n        /* \"#utility.yul\":18433:18442   */\n      dup4\n        /* \"#utility.yul\":18429:18446   */\n      add\n        /* \"#utility.yul\":18420:18426   */\n      dup8\n        /* \"#utility.yul\":18376:18447   */\n      tag_155\n      jump\t// in\n    tag_362:\n        /* \"#utility.yul\":18494:18503   */\n      dup2\n        /* \"#utility.yul\":18488:18492   */\n      dup2\n        /* \"#utility.yul\":18484:18504   */\n      sub\n        /* \"#utility.yul\":18479:18481   */\n      0x20\n        /* \"#utility.yul\":18468:18477   */\n      dup4\n        /* \"#utility.yul\":18464:18482   */\n      add\n        /* \"#utility.yul\":18457:18505   */\n      mstore\n        /* \"#utility.yul\":18522:18600   */\n      tag_363\n        /* \"#utility.yul\":18595:18599   */\n      dup2\n        /* \"#utility.yul\":18586:18592   */\n      dup7\n        /* \"#utility.yul\":18522:18600   */\n      tag_163\n      jump\t// in\n    tag_363:\n        /* \"#utility.yul\":18514:18600   */\n      swap1\n      pop\n        /* \"#utility.yul\":18647:18656   */\n      dup2\n        /* \"#utility.yul\":18641:18645   */\n      dup2\n        /* \"#utility.yul\":18637:18657   */\n      sub\n        /* \"#utility.yul\":18632:18634   */\n      0x40\n        /* \"#utility.yul\":18621:18630   */\n      dup4\n        /* \"#utility.yul\":18617:18635   */\n      add\n        /* \"#utility.yul\":18610:18658   */\n      mstore\n        /* \"#utility.yul\":18675:18751   */\n      tag_364\n        /* \"#utility.yul\":18746:18750   */\n      dup2\n        /* \"#utility.yul\":18737:18743   */\n      dup6\n        /* \"#utility.yul\":18675:18751   */\n      tag_154\n      jump\t// in\n    tag_364:\n        /* \"#utility.yul\":18667:18751   */\n      swap1\n      pop\n        /* \"#utility.yul\":18761:18833   */\n      tag_365\n        /* \"#utility.yul\":18829:18831   */\n      0x60\n        /* \"#utility.yul\":18818:18827   */\n      dup4\n        /* \"#utility.yul\":18814:18832   */\n      add\n        /* \"#utility.yul\":18805:18811   */\n      dup5\n        /* \"#utility.yul\":18761:18833   */\n      tag_155\n      jump\t// in\n    tag_365:\n        /* \"#utility.yul\":18109:18840   */\n      swap6\n      swap5\n      pop\n      pop\n      pop\n      pop\n      pop\n      jump\t// out\n        /* \"#utility.yul\":18846:19142   */\n    tag_180:\n        /* \"#utility.yul\":18986:19020   */\n      0x54696d656c6f636b3a3a71756575655472616e73616374696f6e3a2045737469\n        /* \"#utility.yul\":18982:18983   */\n      0x00\n        /* \"#utility.yul\":18974:18980   */\n      dup3\n        /* \"#utility.yul\":18970:18984   */\n      add\n        /* \"#utility.yul\":18963:19021   */\n      mstore\n        /* \"#utility.yul\":19055:19089   */\n      0x6d6174656420657865637574696f6e2074696d65206d75737420736174697366\n        /* \"#utility.yul\":19050:19052   */\n      0x20\n        /* \"#utility.yul\":19042:19048   */\n      dup3\n        /* \"#utility.yul\":19038:19053   */\n      add\n        /* \"#utility.yul\":19031:19090   */\n      mstore\n        /* \"#utility.yul\":19124:19134   */\n      0x792064656c61792e000000000000000000000000000000000000000000000000\n        /* \"#utility.yul\":19119:19121   */\n      0x40\n        /* \"#utility.yul\":19111:19117   */\n      dup3\n        /* \"#utility.yul\":19107:19122   */\n      add\n        /* \"#utility.yul\":19100:19135   */\n      mstore\n        /* \"#utility.yul\":18846:19142   */\n      pop\n      jump\t// out\n        /* \"#utility.yul\":19148:19514   */\n    tag_181:\n        /* \"#utility.yul\":19290:19293   */\n      0x00\n        /* \"#utility.yul\":19311:19378   */\n      tag_368\n        /* \"#utility.yul\":19375:19377   */\n      0x48\n        /* \"#utility.yul\":19370:19373   */\n      dup4\n        /* \"#utility.yul\":19311:19378   */\n      tag_162\n      jump\t// in\n    tag_368:\n        /* \"#utility.yul\":19304:19378   */\n      swap2\n      pop\n        /* \"#utility.yul\":19387:19480   */\n      tag_369\n        /* \"#utility.yul\":19476:19479   */\n      dup3\n        /* \"#utility.yul\":19387:19480   */\n      tag_180\n      jump\t// in\n    tag_369:\n        /* \"#utility.yul\":19505:19507   */\n      0x60\n        /* \"#utility.yul\":19500:19503   */\n      dup3\n        /* \"#utility.yul\":19496:19508   */\n      add\n        /* \"#utility.yul\":19489:19508   */\n      swap1\n      pop\n        /* \"#utility.yul\":19148:19514   */\n      swap2\n      swap1\n      pop\n      jump\t// out\n        /* \"#utility.yul\":19520:19939   */\n    tag_108:\n        /* \"#utility.yul\":19686:19690   */\n      0x00\n        /* \"#utility.yul\":19724:19726   */\n      0x20\n        /* \"#utility.yul\":19713:19722   */\n      dup3\n        /* \"#utility.yul\":19709:19727   */\n      add\n        /* \"#utility.yul\":19701:19727   */\n      swap1\n      pop\n        /* \"#utility.yul\":19773:19782   */\n      dup2\n        /* \"#utility.yul\":19767:19771   */\n      dup2\n        /* \"#utility.yul\":19763:19783   */\n      sub\n        /* \"#utility.yul\":19759:19760   */\n      0x00\n        /* \"#utility.yul\":19748:19757   */\n      dup4\n        /* \"#utility.yul\":19744:19761   */\n      add\n        /* \"#utility.yul\":19737:19784   */\n      mstore\n        /* \"#utility.yul\":19801:19932   */\n      tag_371\n        /* \"#utility.yul\":19927:19931   */\n      dup2\n        /* \"#utility.yul\":19801:19932   */\n      tag_181\n      jump\t// in\n    tag_371:\n        /* \"#utility.yul\":19793:19932   */\n      swap1\n      pop\n        /* \"#utility.yul\":19520:19939   */\n      swap2\n      swap1\n      pop\n      jump\t// out\n        /* \"#utility.yul\":19945:20191   */\n    tag_182:\n        /* \"#utility.yul\":20085:20119   */\n      0x54696d656c6f636b3a3a63616e63656c5472616e73616374696f6e205472616e\n        /* \"#utility.yul\":20081:20082   */\n      0x00\n        /* \"#utility.yul\":20073:20079   */\n      dup3\n        /* \"#utility.yul\":20069:20083   */\n      add\n        /* \"#utility.yul\":20062:20120   */\n      mstore\n        /* \"#utility.yul\":20154:20183   */\n      0x73616374696f6e206861736e2774206265656e207175657565642e0000000000\n        /* \"#utility.yul\":20149:20151   */\n      0x20\n        /* \"#utility.yul\":20141:20147   */\n      dup3\n        /* \"#utility.yul\":20137:20152   */\n      add\n        /* \"#utility.yul\":20130:20184   */\n      mstore\n        /* \"#utility.yul\":19945:20191   */\n      pop\n      jump\t// out\n        /* \"#utility.yul\":20197:20563   */\n    tag_183:\n        /* \"#utility.yul\":20339:20342   */\n      0x00\n        /* \"#utility.yul\":20360:20427   */\n      tag_374\n        /* \"#utility.yul\":20424:20426   */\n      0x3b\n        /* \"#utility.yul\":20419:20422   */\n      dup4\n        /* \"#utility.yul\":20360:20427   */\n      tag_162\n      jump\t// in\n    tag_374:\n        /* \"#utility.yul\":20353:20427   */\n      swap2\n      pop\n        /* \"#utility.yul\":20436:20529   */\n      tag_375\n        /* \"#utility.yul\":20525:20528   */\n      dup3\n        /* \"#utility.yul\":20436:20529   */\n      tag_182\n      jump\t// in\n    tag_375:\n        /* \"#utility.yul\":20554:20556   */\n      0x40\n        /* \"#utility.yul\":20549:20552   */\n      dup3\n        /* \"#utility.yul\":20545:20557   */\n      add\n        /* \"#utility.yul\":20538:20557   */\n      swap1\n      pop\n        /* \"#utility.yul\":20197:20563   */\n      swap2\n      swap1\n      pop\n      jump\t// out\n        /* \"#utility.yul\":20569:20988   */\n    tag_118:\n        /* \"#utility.yul\":20735:20739   */\n      0x00\n        /* \"#utility.yul\":20773:20775   */\n      0x20\n        /* \"#utility.yul\":20762:20771   */\n      dup3\n        /* \"#utility.yul\":20758:20776   */\n      add\n        /* \"#utility.yul\":20750:20776   */\n      swap1\n      pop\n        /* \"#utility.yul\":20822:20831   */\n      dup2\n        /* \"#utility.yul\":20816:20820   */\n      dup2\n        /* \"#utility.yul\":20812:20832   */\n      sub\n        /* \"#utility.yul\":20808:20809   */\n      0x00\n        /* \"#utility.yul\":20797:20806   */\n      dup4\n        /* \"#utility.yul\":20793:20810   */\n      add\n        /* \"#utility.yul\":20786:20833   */\n      mstore\n        /* \"#utility.yul\":20850:20981   */\n      tag_377\n        /* \"#utility.yul\":20976:20980   */\n      dup2\n        /* \"#utility.yul\":20850:20981   */\n      tag_183\n      jump\t// in\n    tag_377:\n        /* \"#utility.yul\":20842:20981   */\n      swap1\n      pop\n        /* \"#utility.yul\":20569:20988   */\n      swap2\n      swap1\n      pop\n      jump\t// out\n        /* \"#utility.yul\":20994:21173   */\n    tag_184:\n        /* \"#utility.yul\":21134:21165   */\n      0x54696d656c6f636b3a2063616c6c6572206e6f742054696d656c6f636b000000\n        /* \"#utility.yul\":21130:21131   */\n      0x00\n        /* \"#utility.yul\":21122:21128   */\n      dup3\n        /* \"#utility.yul\":21118:21132   */\n      add\n        /* \"#utility.yul\":21111:21166   */\n      mstore\n        /* \"#utility.yul\":20994:21173   */\n      pop\n      jump\t// out\n        /* \"#utility.yul\":21179:21545   */\n    tag_185:\n        /* \"#utility.yul\":21321:21324   */\n      0x00\n        /* \"#utility.yul\":21342:21409   */\n      tag_380\n        /* \"#utility.yul\":21406:21408   */\n      0x1d\n        /* \"#utility.yul\":21401:21404   */\n      dup4\n        /* \"#utility.yul\":21342:21409   */\n      tag_162\n      jump\t// in\n    tag_380:\n        /* \"#utility.yul\":21335:21409   */\n      swap2\n      pop\n        /* \"#utility.yul\":21418:21511   */\n      tag_381\n        /* \"#utility.yul\":21507:21510   */\n      dup3\n        /* \"#utility.yul\":21418:21511   */\n      tag_184\n      jump\t// in\n    tag_381:\n        /* \"#utility.yul\":21536:21538   */\n      0x20\n        /* \"#utility.yul\":21531:21534   */\n      dup3\n        /* \"#utility.yul\":21527:21539   */\n      add\n        /* \"#utility.yul\":21520:21539   */\n      swap1\n      pop\n        /* \"#utility.yul\":21179:21545   */\n      swap2\n      swap1\n      pop\n      jump\t// out\n        /* \"#utility.yul\":21551:21970   */\n    tag_124:\n        /* \"#utility.yul\":21717:21721   */\n      0x00\n        /* \"#utility.yul\":21755:21757   */\n      0x20\n        /* \"#utility.yul\":21744:21753   */\n      dup3\n        /* \"#utility.yul\":21740:21758   */\n      add\n        /* \"#utility.yul\":21732:21758   */\n      swap1\n      pop\n        /* \"#utility.yul\":21804:21813   */\n      dup2\n        /* \"#utility.yul\":21798:21802   */\n      dup2\n        /* \"#utility.yul\":21794:21814   */\n      sub\n        /* \"#utility.yul\":21790:21791   */\n      0x00\n        /* \"#utility.yul\":21779:21788   */\n      dup4\n        /* \"#utility.yul\":21775:21792   */\n      add\n        /* \"#utility.yul\":21768:21815   */\n      mstore\n        /* \"#utility.yul\":21832:21963   */\n      tag_383\n        /* \"#utility.yul\":21958:21962   */\n      dup2\n        /* \"#utility.yul\":21832:21963   */\n      tag_185\n      jump\t// in\n    tag_383:\n        /* \"#utility.yul\":21824:21963   */\n      swap1\n      pop\n        /* \"#utility.yul\":21551:21970   */\n      swap2\n      swap1\n      pop\n      jump\t// out\n\n    auxdata: 0xa264697066735822122042c9891fc8ec9d295622ac4468ca69f38cd1ab12abf0fa0f09c52bc46a5c416e64736f6c634300081a0033\n}\n",
				"bytecode": {
					"linkReferences": {},
					"object": "6080604052348015600e575f80fd5b506040516116633803806116638339818101604052810190602e919060ab565b80600181905550335f806101000a81548173ffffffffffffffffffffffffffffffffffffffff021916908373ffffffffffffffffffffffffffffffffffffffff1602179055505060d1565b5f80fd5b5f819050919050565b608d81607d565b81146096575f80fd5b50565b5f8151905060a5816086565b92915050565b5f6020828403121560bd5760bc6079565b5b5f60c8848285016099565b91505092915050565b611585806100de5f395ff3fe608060405260043610610090575f3560e01c8063796b89b911610058578063796b89b91461018e5780638f283970146101b8578063c1a287e2146101e0578063f2b065371461020a578063f851a4401461024657610090565b806304a71576146100945780630825f38f146100d05780633a66f90114610100578063591fcdfe1461013c5780636a42b8f814610164575b5f80fd5b34801561009f575f80fd5b506100ba60048036038101906100b59190610c7e565b610270565b6040516100c79190610d45565b60405180910390f35b6100ea60048036038101906100e59190610c7e565b6102ab565b6040516100f79190610dbe565b60405180910390f35b34801561010b575f80fd5b5061012660048036038101906101219190610c7e565b6105c0565b6040516101339190610d45565b60405180910390f35b348015610147575f80fd5b50610162600480360381019061015d9190610c7e565b610740565b005b34801561016f575f80fd5b506101786108bf565b6040516101859190610ded565b60405180910390f35b348015610199575f80fd5b506101a26108c5565b6040516101af9190610ded565b60405180910390f35b3480156101c3575f80fd5b506101de60048036038101906101d99190610e06565b6108cc565b005b3480156101eb575f80fd5b506101f46109bf565b6040516102019190610ded565b60405180910390f35b348015610215575f80fd5b50610230600480360381019061022b9190610e5b565b6109c6565b60405161023d9190610ea0565b60405180910390f35b348015610251575f80fd5b5061025a6109e3565b6040516102679190610ec8565b60405180910390f35b5f858585858560405160200161028a959493929190610f33565b60405160208183030381529060405280519060200120905095945050505050565b60605f8054906101000a900473ffffffffffffffffffffffffffffffffffffffff1673ffffffffffffffffffffffffffffffffffffffff163373ffffffffffffffffffffffffffffffffffffffff161461033a576040517f08c379a000000000000000000000000000000000000000000000000000000000815260040161033190610fdc565b60405180910390fd5b5f6103488787878787610270565b905060025f8281526020019081526020015f205f9054906101000a900460ff166103a7576040517f08c379a000000000000000000000000000000000000000000000000000000000815260040161039e9061106a565b60405180910390fd5b826103b06108c5565b10156103f1576040517f08c379a00000000000000000000000000000000000000000000000000000000081526004016103e8906110f8565b60405180910390fd5b62093a80836104009190611143565b6104086108c5565b1115610449576040517f08c379a0000000000000000000000000000000000000000000000000000000008152600401610440906111e6565b60405180910390fd5b5f60025f8381526020019081526020015f205f6101000a81548160ff02191690831515021790555060605f865103610483578490506104af565b85805190602001208560405160200161049d929190611289565b60405160208183030381529060405290505b5f808973ffffffffffffffffffffffffffffffffffffffff1689846040516104d791906112b0565b5f6040518083038185875af1925050503d805f8114610511576040519150601f19603f3d011682016040523d82523d5f602084013e610516565b606091505b50915091508161055b576040517f08c379a000000000000000000000000000000000000000000000000000000000815260040161055290611336565b60405180910390fd5b8973ffffffffffffffffffffffffffffffffffffffff16847fa560e3198060a2f10670c1ec5b403077ea6ae93ca8de1c32b451dc1a943cd6e78b8b8b8b6040516105a89493929190611354565b60405180910390a38094505050505095945050505050565b5f805f9054906101000a900473ffffffffffffffffffffffffffffffffffffffff1673ffffffffffffffffffffffffffffffffffffffff163373ffffffffffffffffffffffffffffffffffffffff161461064f576040517f08c379a000000000000000000000000000000000000000000000000000000000815260040161064690610fdc565b60405180910390fd5b60015461065a6108c5565b6106649190611143565b82116106a5576040517f08c379a000000000000000000000000000000000000000000000000000000000815260040161069c9061143b565b60405180910390fd5b5f6106b38787878787610270565b9050600160025f8381526020019081526020015f205f6101000a81548160ff0219169083151502179055508673ffffffffffffffffffffffffffffffffffffffff16817f76e2796dc3a81d57b0e8504b647febcbeeb5f4af818e164f11eef8131a6a763f8888888860405161072b9493929190611354565b60405180910390a38091505095945050505050565b5f8054906101000a900473ffffffffffffffffffffffffffffffffffffffff1673ffffffffffffffffffffffffffffffffffffffff163373ffffffffffffffffffffffffffffffffffffffff16146107cd576040517f08c379a00000000000000000000000000000000000000000000000000000000081526004016107c490610fdc565b60405180910390fd5b5f6107db8686868686610270565b905060025f8281526020019081526020015f205f9054906101000a900460ff1661083a576040517f08c379a0000000000000000000000000000000000000000000000000000000008152600401610831906114c9565b60405180910390fd5b5f60025f8381526020019081526020015f205f6101000a81548160ff0219169083151502179055508573ffffffffffffffffffffffffffffffffffffffff16817f2fffc091a501fd91bfbff27141450d3acb40fb8e6d8382b243ec7a812a3aaf87878787876040516108af9493929190611354565b60405180910390a3505050505050565b60015481565b5f42905090565b3073ffffffffffffffffffffffffffffffffffffffff163373ffffffffffffffffffffffffffffffffffffffff161461093a576040517f08c379a000000000000000000000000000000000000000000000000000000000815260040161093190611531565b60405180910390fd5b805f806101000a81548173ffffffffffffffffffffffffffffffffffffffff021916908373ffffffffffffffffffffffffffffffffffffffff1602179055508073ffffffffffffffffffffffffffffffffffffffff167f71614071b88dee5e0b2ae578a9dd7b2ebbe9ae832ba419dc0242cd065a290b6c60405160405180910390a250565b62093a8081565b6002602052805f5260405f205f915054906101000a900460ff1681565b5f8054906101000a900473ffffffffffffffffffffffffffffffffffffffff1681565b5f604051905090565b5f80fd5b5f80fd5b5f73ffffffffffffffffffffffffffffffffffffffff82169050919050565b5f610a4082610a17565b9050919050565b610a5081610a36565b8114610a5a575f80fd5b50565b5f81359050610a6b81610a47565b92915050565b5f819050919050565b610a8381610a71565b8114610a8d575f80fd5b50565b5f81359050610a9e81610a7a565b92915050565b5f80fd5b5f80fd5b5f601f19601f8301169050919050565b7f4e487b71000000000000000000000000000000000000000000000000000000005f52604160045260245ffd5b610af282610aac565b810181811067ffffffffffffffff82111715610b1157610b10610abc565b5b80604052505050565b5f610b23610a06565b9050610b2f8282610ae9565b919050565b5f67ffffffffffffffff821115610b4e57610b4d610abc565b5b610b5782610aac565b9050602081019050919050565b828183375f83830152505050565b5f610b84610b7f84610b34565b610b1a565b905082815260208101848484011115610ba057610b9f610aa8565b5b610bab848285610b64565b509392505050565b5f82601f830112610bc757610bc6610aa4565b5b8135610bd7848260208601610b72565b91505092915050565b5f67ffffffffffffffff821115610bfa57610bf9610abc565b5b610c0382610aac565b9050602081019050919050565b5f610c22610c1d84610be0565b610b1a565b905082815260208101848484011115610c3e57610c3d610aa8565b5b610c49848285610b64565b509392505050565b5f82601f830112610c6557610c64610aa4565b5b8135610c75848260208601610c10565b91505092915050565b5f805f805f60a08688031215610c9757610c96610a0f565b5b5f610ca488828901610a5d565b9550506020610cb588828901610a90565b945050604086013567ffffffffffffffff811115610cd657610cd5610a13565b5b610ce288828901610bb3565b935050606086013567ffffffffffffffff811115610d0357610d02610a13565b5b610d0f88828901610c51565b9250506080610d2088828901610a90565b9150509295509295909350565b5f819050919050565b610d3f81610d2d565b82525050565b5f602082019050610d585f830184610d36565b92915050565b5f81519050919050565b5f82825260208201905092915050565b8281835e5f83830152505050565b5f610d9082610d5e565b610d9a8185610d68565b9350610daa818560208601610d78565b610db381610aac565b840191505092915050565b5f6020820190508181035f830152610dd68184610d86565b905092915050565b610de781610a71565b82525050565b5f602082019050610e005f830184610dde565b92915050565b5f60208284031215610e1b57610e1a610a0f565b5b5f610e2884828501610a5d565b91505092915050565b610e3a81610d2d565b8114610e44575f80fd5b50565b5f81359050610e5581610e31565b92915050565b5f60208284031215610e7057610e6f610a0f565b5b5f610e7d84828501610e47565b91505092915050565b5f8115159050919050565b610e9a81610e86565b82525050565b5f602082019050610eb35f830184610e91565b92915050565b610ec281610a36565b82525050565b5f602082019050610edb5f830184610eb9565b92915050565b5f81519050919050565b5f82825260208201905092915050565b5f610f0582610ee1565b610f0f8185610eeb565b9350610f1f818560208601610d78565b610f2881610aac565b840191505092915050565b5f60a082019050610f465f830188610eb9565b610f536020830187610dde565b8181036040830152610f658186610efb565b90508181036060830152610f798185610d86565b9050610f886080830184610dde565b9695505050505050565b7f54696d654c6f636b3a2063616c6c6572206e6f742061646d696e0000000000005f82015250565b5f610fc6601a83610eeb565b9150610fd182610f92565b602082019050919050565b5f6020820190508181035f830152610ff381610fba565b9050919050565b7f54696d656c6f636b3a3a657865637574655472616e73616374696f6e205472615f8201527f6e73616374696f6e206861736e2774206265656e207175657565640000000000602082015250565b5f611054603b83610eeb565b915061105f82610ffa565b604082019050919050565b5f6020820190508181035f83015261108181611048565b9050919050565b7f54696d656c6f636b3a3a657865637574655472616e73616374696f6e206861735f8201527f6e2774207375727061737365642074696d656c6f636b00000000000000000000602082015250565b5f6110e2603683610eeb565b91506110ed82611088565b604082019050919050565b5f6020820190508181035f83015261110f816110d6565b9050919050565b7f4e487b71000000000000000000000000000000000000000000000000000000005f52601160045260245ffd5b5f61114d82610a71565b915061115883610a71565b92508282019050808211156111705761116f611116565b5b92915050565b7f54696d656c6f636b3a3a657865637574655472616e73616374696f6e3a2054725f8201527f616e73616374696f6e206973207374616c652e00000000000000000000000000602082015250565b5f6111d0603383610eeb565b91506111db82611176565b604082019050919050565b5f6020820190508181035f8301526111fd816111c4565b9050919050565b5f7fffffffff0000000000000000000000000000000000000000000000000000000082169050919050565b5f819050919050565b61124961124482611204565b61122f565b82525050565b5f81905092915050565b5f61126382610d5e565b61126d818561124f565b935061127d818560208601610d78565b80840191505092915050565b5f6112948285611238565b6004820191506112a48284611259565b91508190509392505050565b5f6112bb8284611259565b915081905092915050565b7f54696d656c6f636b3a3a657865637574655472616e73616374696f6e3a2054725f8201527f616e7361636174696f6e20657865637574696f6e207265766572746564000000602082015250565b5f611320603d83610eeb565b915061132b826112c6565b604082019050919050565b5f6020820190508181035f83015261134d81611314565b9050919050565b5f6080820190506113675f830187610dde565b81810360208301526113798186610efb565b9050818103604083015261138d8185610d86565b905061139c6060830184610dde565b95945050505050565b7f54696d656c6f636b3a3a71756575655472616e73616374696f6e3a20457374695f8201527f6d6174656420657865637574696f6e2074696d65206d7573742073617469736660208201527f792064656c61792e000000000000000000000000000000000000000000000000604082015250565b5f611425604883610eeb565b9150611430826113a5565b606082019050919050565b5f6020820190508181035f83015261145281611419565b9050919050565b7f54696d656c6f636b3a3a63616e63656c5472616e73616374696f6e205472616e5f8201527f73616374696f6e206861736e2774206265656e207175657565642e0000000000602082015250565b5f6114b3603b83610eeb565b91506114be82611459565b604082019050919050565b5f6020820190508181035f8301526114e0816114a7565b9050919050565b7f54696d656c6f636b3a2063616c6c6572206e6f742054696d656c6f636b0000005f82015250565b5f61151b601d83610eeb565b9150611526826114e7565b602082019050919050565b5f6020820190508181035f8301526115488161150f565b905091905056fea264697066735822122042c9891fc8ec9d295622ac4468ca69f38cd1ab12abf0fa0f09c52bc46a5c416e64736f6c634300081a0033",
					"opcodes": "PUSH1 0x80 PUSH1 0x40 MSTORE CALLVALUE DUP1 ISZERO PUSH1 0xE JUMPI PUSH0 DUP1 REVERT JUMPDEST POP PUSH1 0x40 MLOAD PUSH2 0x1663 CODESIZE SUB DUP1 PUSH2 0x1663 DUP4 CODECOPY DUP2 DUP2 ADD PUSH1 0x40 MSTORE DUP2 ADD SWAP1 PUSH1 0x2E SWAP2 SWAP1 PUSH1 0xAB JUMP JUMPDEST DUP1 PUSH1 0x1 DUP2 SWAP1 SSTORE POP CALLER PUSH0 DUP1 PUSH2 0x100 EXP DUP2 SLOAD DUP2 PUSH20 0xFFFFFFFFFFFFFFFFFFFFFFFFFFFFFFFFFFFFFFFF MUL NOT AND SWAP1 DUP4 PUSH20 0xFFFFFFFFFFFFFFFFFFFFFFFFFFFFFFFFFFFFFFFF AND MUL OR SWAP1 SSTORE POP POP PUSH1 0xD1 JUMP JUMPDEST PUSH0 DUP1 REVERT JUMPDEST PUSH0 DUP2 SWAP1 POP SWAP2 SWAP1 POP JUMP JUMPDEST PUSH1 0x8D DUP2 PUSH1 0x7D JUMP JUMPDEST DUP2 EQ PUSH1 0x96 JUMPI PUSH0 DUP1 REVERT JUMPDEST POP JUMP JUMPDEST PUSH0 DUP2 MLOAD SWAP1 POP PUSH1 0xA5 DUP2 PUSH1 0x86 JUMP JUMPDEST SWAP3 SWAP2 POP POP JUMP JUMPDEST PUSH0 PUSH1 0x20 DUP3 DUP5 SUB SLT ISZERO PUSH1 0xBD JUMPI PUSH1 0xBC PUSH1 0x79 JUMP JUMPDEST JUMPDEST PUSH0 PUSH1 0xC8 DUP5 DUP3 DUP6 ADD PUSH1 0x99 JUMP JUMPDEST SWAP2 POP POP SWAP3 SWAP2 POP POP JUMP JUMPDEST PUSH2 0x1585 DUP1 PUSH2 0xDE PUSH0 CODECOPY PUSH0 RETURN INVALID PUSH1 0x80 PUSH1 0x40 MSTORE PUSH1 0x4 CALLDATASIZE LT PUSH2 0x90 JUMPI PUSH0 CALLDATALOAD PUSH1 0xE0 SHR DUP1 PUSH4 0x796B89B9 GT PUSH2 0x58 JUMPI DUP1 PUSH4 0x796B89B9 EQ PUSH2 0x18E JUMPI DUP1 PUSH4 0x8F283970 EQ PUSH2 0x1B8 JUMPI DUP1 PUSH4 0xC1A287E2 EQ PUSH2 0x1E0 JUMPI DUP1 PUSH4 0xF2B06537 EQ PUSH2 0x20A JUMPI DUP1 PUSH4 0xF851A440 EQ PUSH2 0x246 JUMPI PUSH2 0x90 JUMP JUMPDEST DUP1 PUSH4 0x4A71576 EQ PUSH2 0x94 JUMPI DUP1 PUSH4 0x825F38F EQ PUSH2 0xD0 JUMPI DUP1 PUSH4 0x3A66F901 EQ PUSH2 0x100 JUMPI DUP1 PUSH4 0x591FCDFE EQ PUSH2 0x13C JUMPI DUP1 PUSH4 0x6A42B8F8 EQ PUSH2 0x164 JUMPI JUMPDEST PUSH0 DUP1 REVERT JUMPDEST CALLVALUE DUP1 ISZERO PUSH2 0x9F JUMPI PUSH0 DUP1 REVERT JUMPDEST POP PUSH2 0xBA PUSH1 0x4 DUP1 CALLDATASIZE SUB DUP2 ADD SWAP1 PUSH2 0xB5 SWAP2 SWAP1 PUSH2 0xC7E JUMP JUMPDEST PUSH2 0x270 JUMP JUMPDEST PUSH1 0x40 MLOAD PUSH2 0xC7 SWAP2 SWAP1 PUSH2 0xD45 JUMP JUMPDEST PUSH1 0x40 MLOAD DUP1 SWAP2 SUB SWAP1 RETURN JUMPDEST PUSH2 0xEA PUSH1 0x4 DUP1 CALLDATASIZE SUB DUP2 ADD SWAP1 PUSH2 0xE5 SWAP2 SWAP1 PUSH2 0xC7E JUMP JUMPDEST PUSH2 0x2AB JUMP JUMPDEST PUSH1 0x40 MLOAD PUSH2 0xF7 SWAP2 SWAP1 PUSH2 0xDBE JUMP JUMPDEST PUSH1 0x40 MLOAD DUP1 SWAP2 SUB SWAP1 RETURN JUMPDEST CALLVALUE DUP1 ISZERO PUSH2 0x10B JUMPI PUSH0 DUP1 REVERT JUMPDEST POP PUSH2 0x126 PUSH1 0x4 DUP1 CALLDATASIZE SUB DUP2 ADD SWAP1 PUSH2 0x121 SWAP2 SWAP1 PUSH2 0xC7E JUMP JUMPDEST PUSH2 0x5C0 JUMP JUMPDEST PUSH1 0x40 MLOAD PUSH2 0x133 SWAP2 SWAP1 PUSH2 0xD45 JUMP JUMPDEST PUSH1 0x40 MLOAD DUP1 SWAP2 SUB SWAP1 RETURN JUMPDEST CALLVALUE DUP1 ISZERO PUSH2 0x147 JUMPI PUSH0 DUP1 REVERT JUMPDEST POP PUSH2 0x162 PUSH1 0x4 DUP1 CALLDATASIZE SUB DUP2 ADD SWAP1 PUSH2 0x15D SWAP2 SWAP1 PUSH2 0xC7E JUMP JUMPDEST PUSH2 0x740 JUMP JUMPDEST STOP JUMPDEST CALLVALUE DUP1 ISZERO PUSH2 0x16F JUMPI PUSH0 DUP1 REVERT JUMPDEST POP PUSH2 0x178 PUSH2 0x8BF JUMP JUMPDEST PUSH1 0x40 MLOAD PUSH2 0x185 SWAP2 SWAP1 PUSH2 0xDED JUMP JUMPDEST PUSH1 0x40 MLOAD DUP1 SWAP2 SUB SWAP1 RETURN JUMPDEST CALLVALUE DUP1 ISZERO PUSH2 0x199 JUMPI PUSH0 DUP1 REVERT JUMPDEST POP PUSH2 0x1A2 PUSH2 0x8C5 JUMP JUMPDEST PUSH1 0x40 MLOAD PUSH2 0x1AF SWAP2 SWAP1 PUSH2 0xDED JUMP JUMPDEST PUSH1 0x40 MLOAD DUP1 SWAP2 SUB SWAP1 RETURN JUMPDEST CALLVALUE DUP1 ISZERO PUSH2 0x1C3 JUMPI PUSH0 DUP1 REVERT JUMPDEST POP PUSH2 0x1DE PUSH1 0x4 DUP1 CALLDATASIZE SUB DUP2 ADD SWAP1 PUSH2 0x1D9 SWAP2 SWAP1 PUSH2 0xE06 JUMP JUMPDEST PUSH2 0x8CC JUMP JUMPDEST STOP JUMPDEST CALLVALUE DUP1 ISZERO PUSH2 0x1EB JUMPI PUSH0 DUP1 REVERT JUMPDEST POP PUSH2 0x1F4 PUSH2 0x9BF JUMP JUMPDEST PUSH1 0x40 MLOAD PUSH2 0x201 SWAP2 SWAP1 PUSH2 0xDED JUMP JUMPDEST PUSH1 0x40 MLOAD DUP1 SWAP2 SUB SWAP1 RETURN JUMPDEST CALLVALUE DUP1 ISZERO PUSH2 0x215 JUMPI PUSH0 DUP1 REVERT JUMPDEST POP PUSH2 0x230 PUSH1 0x4 DUP1 CALLDATASIZE SUB DUP2 ADD SWAP1 PUSH2 0x22B SWAP2 SWAP1 PUSH2 0xE5B JUMP JUMPDEST PUSH2 0x9C6 JUMP JUMPDEST PUSH1 0x40 MLOAD PUSH2 0x23D SWAP2 SWAP1 PUSH2 0xEA0 JUMP JUMPDEST PUSH1 0x40 MLOAD DUP1 SWAP2 SUB SWAP1 RETURN JUMPDEST CALLVALUE DUP1 ISZERO PUSH2 0x251 JUMPI PUSH0 DUP1 REVERT JUMPDEST POP PUSH2 0x25A PUSH2 0x9E3 JUMP JUMPDEST PUSH1 0x40 MLOAD PUSH2 0x267 SWAP2 SWAP1 PUSH2 0xEC8 JUMP JUMPDEST PUSH1 0x40 MLOAD DUP1 SWAP2 SUB SWAP1 RETURN JUMPDEST PUSH0 DUP6 DUP6 DUP6 DUP6 DUP6 PUSH1 0x40 MLOAD PUSH1 0x20 ADD PUSH2 0x28A SWAP6 SWAP5 SWAP4 SWAP3 SWAP2 SWAP1 PUSH2 0xF33 JUMP JUMPDEST PUSH1 0x40 MLOAD PUSH1 0x20 DUP2 DUP4 SUB SUB DUP2 MSTORE SWAP1 PUSH1 0x40 MSTORE DUP1 MLOAD SWAP1 PUSH1 0x20 ADD KECCAK256 SWAP1 POP SWAP6 SWAP5 POP POP POP POP POP JUMP JUMPDEST PUSH1 0x60 PUSH0 DUP1 SLOAD SWAP1 PUSH2 0x100 EXP SWAP1 DIV PUSH20 0xFFFFFFFFFFFFFFFFFFFFFFFFFFFFFFFFFFFFFFFF AND PUSH20 0xFFFFFFFFFFFFFFFFFFFFFFFFFFFFFFFFFFFFFFFF AND CALLER PUSH20 0xFFFFFFFFFFFFFFFFFFFFFFFFFFFFFFFFFFFFFFFF AND EQ PUSH2 0x33A JUMPI PUSH1 0x40 MLOAD PUSH32 0x8C379A000000000000000000000000000000000000000000000000000000000 DUP2 MSTORE PUSH1 0x4 ADD PUSH2 0x331 SWAP1 PUSH2 0xFDC JUMP JUMPDEST PUSH1 0x40 MLOAD DUP1 SWAP2 SUB SWAP1 REVERT JUMPDEST PUSH0 PUSH2 0x348 DUP8 DUP8 DUP8 DUP8 DUP8 PUSH2 0x270 JUMP JUMPDEST SWAP1 POP PUSH1 0x2 PUSH0 DUP3 DUP2 MSTORE PUSH1 0x20 ADD SWAP1 DUP2 MSTORE PUSH1 0x20 ADD PUSH0 KECCAK256 PUSH0 SWAP1 SLOAD SWAP1 PUSH2 0x100 EXP SWAP1 DIV PUSH1 0xFF AND PUSH2 0x3A7 JUMPI PUSH1 0x40 MLOAD PUSH32 0x8C379A000000000000000000000000000000000000000000000000000000000 DUP2 MSTORE PUSH1 0x4 ADD PUSH2 0x39E SWAP1 PUSH2 0x106A JUMP JUMPDEST PUSH1 0x40 MLOAD DUP1 SWAP2 SUB SWAP1 REVERT JUMPDEST DUP3 PUSH2 0x3B0 PUSH2 0x8C5 JUMP JUMPDEST LT ISZERO PUSH2 0x3F1 JUMPI PUSH1 0x40 MLOAD PUSH32 0x8C379A000000000000000000000000000000000000000000000000000000000 DUP2 MSTORE PUSH1 0x4 ADD PUSH2 0x3E8 SWAP1 PUSH2 0x10F8 JUMP JUMPDEST PUSH1 0x40 MLOAD DUP1 SWAP2 SUB SWAP1 REVERT JUMPDEST PUSH3 0x93A80 DUP4 PUSH2 0x400 SWAP2 SWAP1 PUSH2 0x1143 JUMP JUMPDEST PUSH2 0x408 PUSH2 0x8C5 JUMP JUMPDEST GT ISZERO PUSH2 0x449 JUMPI PUSH1 0x40 MLOAD PUSH32 0x8C379A000000000000000000000000000000000000000000000000000000000 DUP2 MSTORE PUSH1 0x4 ADD PUSH2 0x440 SWAP1 PUSH2 0x11E6 JUMP JUMPDEST PUSH1 0x40 MLOAD DUP1 SWAP2 SUB SWAP1 REVERT JUMPDEST PUSH0 PUSH1 0x2 PUSH0 DUP4 DUP2 MSTORE PUSH1 0x20 ADD SWAP1 DUP2 MSTORE PUSH1 0x20 ADD PUSH0 KECCAK256 PUSH0 PUSH2 0x100 EXP DUP2 SLOAD DUP2 PUSH1 0xFF MUL NOT AND SWAP1 DUP4 ISZERO ISZERO MUL OR SWAP1 SSTORE POP PUSH1 0x60 PUSH0 DUP7 MLOAD SUB PUSH2 0x483 JUMPI DUP5 SWAP1 POP PUSH2 0x4AF JUMP JUMPDEST DUP6 DUP1 MLOAD SWAP1 PUSH1 0x20 ADD KECCAK256 DUP6 PUSH1 0x40 MLOAD PUSH1 0x20 ADD PUSH2 0x49D SWAP3 SWAP2 SWAP1 PUSH2 0x1289 JUMP JUMPDEST PUSH1 0x40 MLOAD PUSH1 0x20 DUP2 DUP4 SUB SUB DUP2 MSTORE SWAP1 PUSH1 0x40 MSTORE SWAP1 POP JUMPDEST PUSH0 DUP1 DUP10 PUSH20 0xFFFFFFFFFFFFFFFFFFFFFFFFFFFFFFFFFFFFFFFF AND DUP10 DUP5 PUSH1 0x40 MLOAD PUSH2 0x4D7 SWAP2 SWAP1 PUSH2 0x12B0 JUMP JUMPDEST PUSH0 PUSH1 0x40 MLOAD DUP1 DUP4 SUB DUP2 DUP6 DUP8 GAS CALL SWAP3 POP POP POP RETURNDATASIZE DUP1 PUSH0 DUP2 EQ PUSH2 0x511 JUMPI PUSH1 0x40 MLOAD SWAP2 POP PUSH1 0x1F NOT PUSH1 0x3F RETURNDATASIZE ADD AND DUP3 ADD PUSH1 0x40 MSTORE RETURNDATASIZE DUP3 MSTORE RETURNDATASIZE PUSH0 PUSH1 0x20 DUP5 ADD RETURNDATACOPY PUSH2 0x516 JUMP JUMPDEST PUSH1 0x60 SWAP2 POP JUMPDEST POP SWAP2 POP SWAP2 POP DUP2 PUSH2 0x55B JUMPI PUSH1 0x40 MLOAD PUSH32 0x8C379A000000000000000000000000000000000000000000000000000000000 DUP2 MSTORE PUSH1 0x4 ADD PUSH2 0x552 SWAP1 PUSH2 0x1336 JUMP JUMPDEST PUSH1 0x40 MLOAD DUP1 SWAP2 SUB SWAP1 REVERT JUMPDEST DUP10 PUSH20 0xFFFFFFFFFFFFFFFFFFFFFFFFFFFFFFFFFFFFFFFF AND DUP5 PUSH32 0xA560E3198060A2F10670C1EC5B403077EA6AE93CA8DE1C32B451DC1A943CD6E7 DUP12 DUP12 DUP12 DUP12 PUSH1 0x40 MLOAD PUSH2 0x5A8 SWAP5 SWAP4 SWAP3 SWAP2 SWAP1 PUSH2 0x1354 JUMP JUMPDEST PUSH1 0x40 MLOAD DUP1 SWAP2 SUB SWAP1 LOG3 DUP1 SWAP5 POP POP POP POP POP SWAP6 SWAP5 POP POP POP POP POP JUMP JUMPDEST PUSH0 DUP1 PUSH0 SWAP1 SLOAD SWAP1 PUSH2 0x100 EXP SWAP1 DIV PUSH20 0xFFFFFFFFFFFFFFFFFFFFFFFFFFFFFFFFFFFFFFFF AND PUSH20 0xFFFFFFFFFFFFFFFFFFFFFFFFFFFFFFFFFFFFFFFF AND CALLER PUSH20 0xFFFFFFFFFFFFFFFFFFFFFFFFFFFFFFFFFFFFFFFF AND EQ PUSH2 0x64F JUMPI PUSH1 0x40 MLOAD PUSH32 0x8C379A000000000000000000000000000000000000000000000000000000000 DUP2 MSTORE PUSH1 0x4 ADD PUSH2 0x646 SWAP1 PUSH2 0xFDC JUMP JUMPDEST PUSH1 0x40 MLOAD DUP1 SWAP2 SUB SWAP1 REVERT JUMPDEST PUSH1 0x1 SLOAD PUSH2 0x65A PUSH2 0x8C5 JUMP JUMPDEST PUSH2 0x664 SWAP2 SWAP1 PUSH2 0x1143 JUMP JUMPDEST DUP3 GT PUSH2 0x6A5 JUMPI PUSH1 0x40 MLOAD PUSH32 0x8C379A000000000000000000000000000000000000000000000000000000000 DUP2 MSTORE PUSH1 0x4 ADD PUSH2 0x69C SWAP1 PUSH2 0x143B JUMP JUMPDEST PUSH1 0x40 MLOAD DUP1 SWAP2 SUB SWAP1 REVERT JUMPDEST PUSH0 PUSH2 0x6B3 DUP8 DUP8 DUP8 DUP8 DUP8 PUSH2 0x270 JUMP JUMPDEST SWAP1 POP PUSH1 0x1 PUSH1 0x2 PUSH0 DUP4 DUP2 MSTORE PUSH1 0x20 ADD SWAP1 DUP2 MSTORE PUSH1 0x20 ADD PUSH0 KECCAK256 PUSH0 PUSH2 0x100 EXP DUP2 SLOAD DUP2 PUSH1 0xFF MUL NOT AND SWAP1 DUP4 ISZERO ISZERO MUL OR SWAP1 SSTORE POP DUP7 PUSH20 0xFFFFFFFFFFFFFFFFFFFFFFFFFFFFFFFFFFFFFFFF AND DUP2 PUSH32 0x76E2796DC3A81D57B0E8504B647FEBCBEEB5F4AF818E164F11EEF8131A6A763F DUP9 DUP9 DUP9 DUP9 PUSH1 0x40 MLOAD PUSH2 0x72B SWAP5 SWAP4 SWAP3 SWAP2 SWAP1 PUSH2 0x1354 JUMP JUMPDEST PUSH1 0x40 MLOAD DUP1 SWAP2 SUB SWAP1 LOG3 DUP1 SWAP2 POP POP SWAP6 SWAP5 POP POP POP POP POP JUMP JUMPDEST PUSH0 DUP1 SLOAD SWAP1 PUSH2 0x100 EXP SWAP1 DIV PUSH20 0xFFFFFFFFFFFFFFFFFFFFFFFFFFFFFFFFFFFFFFFF AND PUSH20 0xFFFFFFFFFFFFFFFFFFFFFFFFFFFFFFFFFFFFFFFF AND CALLER PUSH20 0xFFFFFFFFFFFFFFFFFFFFFFFFFFFFFFFFFFFFFFFF AND EQ PUSH2 0x7CD JUMPI PUSH1 0x40 MLOAD PUSH32 0x8C379A000000000000000000000000000000000000000000000000000000000 DUP2 MSTORE PUSH1 0x4 ADD PUSH2 0x7C4 SWAP1 PUSH2 0xFDC JUMP JUMPDEST PUSH1 0x40 MLOAD DUP1 SWAP2 SUB SWAP1 REVERT JUMPDEST PUSH0 PUSH2 0x7DB DUP7 DUP7 DUP7 DUP7 DUP7 PUSH2 0x270 JUMP JUMPDEST SWAP1 POP PUSH1 0x2 PUSH0 DUP3 DUP2 MSTORE PUSH1 0x20 ADD SWAP1 DUP2 MSTORE PUSH1 0x20 ADD PUSH0 KECCAK256 PUSH0 SWAP1 SLOAD SWAP1 PUSH2 0x100 EXP SWAP1 DIV PUSH1 0xFF AND PUSH2 0x83A JUMPI PUSH1 0x40 MLOAD PUSH32 0x8C379A000000000000000000000000000000000000000000000000000000000 DUP2 MSTORE PUSH1 0x4 ADD PUSH2 0x831 SWAP1 PUSH2 0x14C9 JUMP JUMPDEST PUSH1 0x40 MLOAD DUP1 SWAP2 SUB SWAP1 REVERT JUMPDEST PUSH0 PUSH1 0x2 PUSH0 DUP4 DUP2 MSTORE PUSH1 0x20 ADD SWAP1 DUP2 MSTORE PUSH1 0x20 ADD PUSH0 KECCAK256 PUSH0 PUSH2 0x100 EXP DUP2 SLOAD DUP2 PUSH1 0xFF MUL NOT AND SWAP1 DUP4 ISZERO ISZERO MUL OR SWAP1 SSTORE POP DUP6 PUSH20 0xFFFFFFFFFFFFFFFFFFFFFFFFFFFFFFFFFFFFFFFF AND DUP2 PUSH32 0x2FFFC091A501FD91BFBFF27141450D3ACB40FB8E6D8382B243EC7A812A3AAF87 DUP8 DUP8 DUP8 DUP8 PUSH1 0x40 MLOAD PUSH2 0x8AF SWAP5 SWAP4 SWAP3 SWAP2 SWAP1 PUSH2 0x1354 JUMP JUMPDEST PUSH1 0x40 MLOAD DUP1 SWAP2 SUB SWAP1 LOG3 POP POP POP POP POP POP JUMP JUMPDEST PUSH1 0x1 SLOAD DUP2 JUMP JUMPDEST PUSH0 TIMESTAMP SWAP1 POP SWAP1 JUMP JUMPDEST ADDRESS PUSH20 0xFFFFFFFFFFFFFFFFFFFFFFFFFFFFFFFFFFFFFFFF AND CALLER PUSH20 0xFFFFFFFFFFFFFFFFFFFFFFFFFFFFFFFFFFFFFFFF AND EQ PUSH2 0x93A JUMPI PUSH1 0x40 MLOAD PUSH32 0x8C379A000000000000000000000000000000000000000000000000000000000 DUP2 MSTORE PUSH1 0x4 ADD PUSH2 0x931 SWAP1 PUSH2 0x1531 JUMP JUMPDEST PUSH1 0x40 MLOAD DUP1 SWAP2 SUB SWAP1 REVERT JUMPDEST DUP1 PUSH0 DUP1 PUSH2 0x100 EXP DUP2 SLOAD DUP2 PUSH20 0xFFFFFFFFFFFFFFFFFFFFFFFFFFFFFFFFFFFFFFFF MUL NOT AND SWAP1 DUP4 PUSH20 0xFFFFFFFFFFFFFFFFFFFFFFFFFFFFFFFFFFFFFFFF AND MUL OR SWAP1 SSTORE POP DUP1 PUSH20 0xFFFFFFFFFFFFFFFFFFFFFFFFFFFFFFFFFFFFFFFF AND PUSH32 0x71614071B88DEE5E0B2AE578A9DD7B2EBBE9AE832BA419DC0242CD065A290B6C PUSH1 0x40 MLOAD PUSH1 0x40 MLOAD DUP1 SWAP2 SUB SWAP1 LOG2 POP JUMP JUMPDEST PUSH3 0x93A80 DUP2 JUMP JUMPDEST PUSH1 0x2 PUSH1 0x20 MSTORE DUP1 PUSH0 MSTORE PUSH1 0x40 PUSH0 KECCAK256 PUSH0 SWAP2 POP SLOAD SWAP1 PUSH2 0x100 EXP SWAP1 DIV PUSH1 0xFF AND DUP2 JUMP JUMPDEST PUSH0 DUP1 SLOAD SWAP1 PUSH2 0x100 EXP SWAP1 DIV PUSH20 0xFFFFFFFFFFFFFFFFFFFFFFFFFFFFFFFFFFFFFFFF AND DUP2 JUMP JUMPDEST PUSH0 PUSH1 0x40 MLOAD SWAP1 POP SWAP1 JUMP JUMPDEST PUSH0 DUP1 REVERT JUMPDEST PUSH0 DUP1 REVERT JUMPDEST PUSH0 PUSH20 0xFFFFFFFFFFFFFFFFFFFFFFFFFFFFFFFFFFFFFFFF DUP3 AND SWAP1 POP SWAP2 SWAP1 POP JUMP JUMPDEST PUSH0 PUSH2 0xA40 DUP3 PUSH2 0xA17 JUMP JUMPDEST SWAP1 POP SWAP2 SWAP1 POP JUMP JUMPDEST PUSH2 0xA50 DUP2 PUSH2 0xA36 JUMP JUMPDEST DUP2 EQ PUSH2 0xA5A JUMPI PUSH0 DUP1 REVERT JUMPDEST POP JUMP JUMPDEST PUSH0 DUP2 CALLDATALOAD SWAP1 POP PUSH2 0xA6B DUP2 PUSH2 0xA47 JUMP JUMPDEST SWAP3 SWAP2 POP POP JUMP JUMPDEST PUSH0 DUP2 SWAP1 POP SWAP2 SWAP1 POP JUMP JUMPDEST PUSH2 0xA83 DUP2 PUSH2 0xA71 JUMP JUMPDEST DUP2 EQ PUSH2 0xA8D JUMPI PUSH0 DUP1 REVERT JUMPDEST POP JUMP JUMPDEST PUSH0 DUP2 CALLDATALOAD SWAP1 POP PUSH2 0xA9E DUP2 PUSH2 0xA7A JUMP JUMPDEST SWAP3 SWAP2 POP POP JUMP JUMPDEST PUSH0 DUP1 REVERT JUMPDEST PUSH0 DUP1 REVERT JUMPDEST PUSH0 PUSH1 0x1F NOT PUSH1 0x1F DUP4 ADD AND SWAP1 POP SWAP2 SWAP1 POP JUMP JUMPDEST PUSH32 0x4E487B7100000000000000000000000000000000000000000000000000000000 PUSH0 MSTORE PUSH1 0x41 PUSH1 0x4 MSTORE PUSH1 0x24 PUSH0 REVERT JUMPDEST PUSH2 0xAF2 DUP3 PUSH2 0xAAC JUMP JUMPDEST DUP2 ADD DUP2 DUP2 LT PUSH8 0xFFFFFFFFFFFFFFFF DUP3 GT OR ISZERO PUSH2 0xB11 JUMPI PUSH2 0xB10 PUSH2 0xABC JUMP JUMPDEST JUMPDEST DUP1 PUSH1 0x40 MSTORE POP POP POP JUMP JUMPDEST PUSH0 PUSH2 0xB23 PUSH2 0xA06 JUMP JUMPDEST SWAP1 POP PUSH2 0xB2F DUP3 DUP3 PUSH2 0xAE9 JUMP JUMPDEST SWAP2 SWAP1 POP JUMP JUMPDEST PUSH0 PUSH8 0xFFFFFFFFFFFFFFFF DUP3 GT ISZERO PUSH2 0xB4E JUMPI PUSH2 0xB4D PUSH2 0xABC JUMP JUMPDEST JUMPDEST PUSH2 0xB57 DUP3 PUSH2 0xAAC JUMP JUMPDEST SWAP1 POP PUSH1 0x20 DUP2 ADD SWAP1 POP SWAP2 SWAP1 POP JUMP JUMPDEST DUP3 DUP2 DUP4 CALLDATACOPY PUSH0 DUP4 DUP4 ADD MSTORE POP POP POP JUMP JUMPDEST PUSH0 PUSH2 0xB84 PUSH2 0xB7F DUP5 PUSH2 0xB34 JUMP JUMPDEST PUSH2 0xB1A JUMP JUMPDEST SWAP1 POP DUP3 DUP2 MSTORE PUSH1 0x20 DUP2 ADD DUP5 DUP5 DUP5 ADD GT ISZERO PUSH2 0xBA0 JUMPI PUSH2 0xB9F PUSH2 0xAA8 JUMP JUMPDEST JUMPDEST PUSH2 0xBAB DUP5 DUP3 DUP6 PUSH2 0xB64 JUMP JUMPDEST POP SWAP4 SWAP3 POP POP POP JUMP JUMPDEST PUSH0 DUP3 PUSH1 0x1F DUP4 ADD SLT PUSH2 0xBC7 JUMPI PUSH2 0xBC6 PUSH2 0xAA4 JUMP JUMPDEST JUMPDEST DUP2 CALLDATALOAD PUSH2 0xBD7 DUP5 DUP3 PUSH1 0x20 DUP7 ADD PUSH2 0xB72 JUMP JUMPDEST SWAP2 POP POP SWAP3 SWAP2 POP POP JUMP JUMPDEST PUSH0 PUSH8 0xFFFFFFFFFFFFFFFF DUP3 GT ISZERO PUSH2 0xBFA JUMPI PUSH2 0xBF9 PUSH2 0xABC JUMP JUMPDEST JUMPDEST PUSH2 0xC03 DUP3 PUSH2 0xAAC JUMP JUMPDEST SWAP1 POP PUSH1 0x20 DUP2 ADD SWAP1 POP SWAP2 SWAP1 POP JUMP JUMPDEST PUSH0 PUSH2 0xC22 PUSH2 0xC1D DUP5 PUSH2 0xBE0 JUMP JUMPDEST PUSH2 0xB1A JUMP JUMPDEST SWAP1 POP DUP3 DUP2 MSTORE PUSH1 0x20 DUP2 ADD DUP5 DUP5 DUP5 ADD GT ISZERO PUSH2 0xC3E JUMPI PUSH2 0xC3D PUSH2 0xAA8 JUMP JUMPDEST JUMPDEST PUSH2 0xC49 DUP5 DUP3 DUP6 PUSH2 0xB64 JUMP JUMPDEST POP SWAP4 SWAP3 POP POP POP JUMP JUMPDEST PUSH0 DUP3 PUSH1 0x1F DUP4 ADD SLT PUSH2 0xC65 JUMPI PUSH2 0xC64 PUSH2 0xAA4 JUMP JUMPDEST JUMPDEST DUP2 CALLDATALOAD PUSH2 0xC75 DUP5 DUP3 PUSH1 0x20 DUP7 ADD PUSH2 0xC10 JUMP JUMPDEST SWAP2 POP POP SWAP3 SWAP2 POP POP JUMP JUMPDEST PUSH0 DUP1 PUSH0 DUP1 PUSH0 PUSH1 0xA0 DUP7 DUP9 SUB SLT ISZERO PUSH2 0xC97 JUMPI PUSH2 0xC96 PUSH2 0xA0F JUMP JUMPDEST JUMPDEST PUSH0 PUSH2 0xCA4 DUP9 DUP3 DUP10 ADD PUSH2 0xA5D JUMP JUMPDEST SWAP6 POP POP PUSH1 0x20 PUSH2 0xCB5 DUP9 DUP3 DUP10 ADD PUSH2 0xA90 JUMP JUMPDEST SWAP5 POP POP PUSH1 0x40 DUP7 ADD CALLDATALOAD PUSH8 0xFFFFFFFFFFFFFFFF DUP2 GT ISZERO PUSH2 0xCD6 JUMPI PUSH2 0xCD5 PUSH2 0xA13 JUMP JUMPDEST JUMPDEST PUSH2 0xCE2 DUP9 DUP3 DUP10 ADD PUSH2 0xBB3 JUMP JUMPDEST SWAP4 POP POP PUSH1 0x60 DUP7 ADD CALLDATALOAD PUSH8 0xFFFFFFFFFFFFFFFF DUP2 GT ISZERO PUSH2 0xD03 JUMPI PUSH2 0xD02 PUSH2 0xA13 JUMP JUMPDEST JUMPDEST PUSH2 0xD0F DUP9 DUP3 DUP10 ADD PUSH2 0xC51 JUMP JUMPDEST SWAP3 POP POP PUSH1 0x80 PUSH2 0xD20 DUP9 DUP3 DUP10 ADD PUSH2 0xA90 JUMP JUMPDEST SWAP2 POP POP SWAP3 SWAP6 POP SWAP3 SWAP6 SWAP1 SWAP4 POP JUMP JUMPDEST PUSH0 DUP2 SWAP1 POP SWAP2 SWAP1 POP JUMP JUMPDEST PUSH2 0xD3F DUP2 PUSH2 0xD2D JUMP JUMPDEST DUP3 MSTORE POP POP JUMP JUMPDEST PUSH0 PUSH1 0x20 DUP3 ADD SWAP1 POP PUSH2 0xD58 PUSH0 DUP4 ADD DUP5 PUSH2 0xD36 JUMP JUMPDEST SWAP3 SWAP2 POP POP JUMP JUMPDEST PUSH0 DUP2 MLOAD SWAP1 POP SWAP2 SWAP1 POP JUMP JUMPDEST PUSH0 DUP3 DUP3 MSTORE PUSH1 0x20 DUP3 ADD SWAP1 POP SWAP3 SWAP2 POP POP JUMP JUMPDEST DUP3 DUP2 DUP4 MCOPY PUSH0 DUP4 DUP4 ADD MSTORE POP POP POP JUMP JUMPDEST PUSH0 PUSH2 0xD90 DUP3 PUSH2 0xD5E JUMP JUMPDEST PUSH2 0xD9A DUP2 DUP6 PUSH2 0xD68 JUMP JUMPDEST SWAP4 POP PUSH2 0xDAA DUP2 DUP6 PUSH1 0x20 DUP7 ADD PUSH2 0xD78 JUMP JUMPDEST PUSH2 0xDB3 DUP2 PUSH2 0xAAC JUMP JUMPDEST DUP5 ADD SWAP2 POP POP SWAP3 SWAP2 POP POP JUMP JUMPDEST PUSH0 PUSH1 0x20 DUP3 ADD SWAP1 POP DUP2 DUP2 SUB PUSH0 DUP4 ADD MSTORE PUSH2 0xDD6 DUP2 DUP5 PUSH2 0xD86 JUMP JUMPDEST SWAP1 POP SWAP3 SWAP2 POP POP JUMP JUMPDEST PUSH2 0xDE7 DUP2 PUSH2 0xA71 JUMP JUMPDEST DUP3 MSTORE POP POP JUMP JUMPDEST PUSH0 PUSH1 0x20 DUP3 ADD SWAP1 POP PUSH2 0xE00 PUSH0 DUP4 ADD DUP5 PUSH2 0xDDE JUMP JUMPDEST SWAP3 SWAP2 POP POP JUMP JUMPDEST PUSH0 PUSH1 0x20 DUP3 DUP5 SUB SLT ISZERO PUSH2 0xE1B JUMPI PUSH2 0xE1A PUSH2 0xA0F JUMP JUMPDEST JUMPDEST PUSH0 PUSH2 0xE28 DUP5 DUP3 DUP6 ADD PUSH2 0xA5D JUMP JUMPDEST SWAP2 POP POP SWAP3 SWAP2 POP POP JUMP JUMPDEST PUSH2 0xE3A DUP2 PUSH2 0xD2D JUMP JUMPDEST DUP2 EQ PUSH2 0xE44 JUMPI PUSH0 DUP1 REVERT JUMPDEST POP JUMP JUMPDEST PUSH0 DUP2 CALLDATALOAD SWAP1 POP PUSH2 0xE55 DUP2 PUSH2 0xE31 JUMP JUMPDEST SWAP3 SWAP2 POP POP JUMP JUMPDEST PUSH0 PUSH1 0x20 DUP3 DUP5 SUB SLT ISZERO PUSH2 0xE70 JUMPI PUSH2 0xE6F PUSH2 0xA0F JUMP JUMPDEST JUMPDEST PUSH0 PUSH2 0xE7D DUP5 DUP3 DUP6 ADD PUSH2 0xE47 JUMP JUMPDEST SWAP2 POP POP SWAP3 SWAP2 POP POP JUMP JUMPDEST PUSH0 DUP2 ISZERO ISZERO SWAP1 POP SWAP2 SWAP1 POP JUMP JUMPDEST PUSH2 0xE9A DUP2 PUSH2 0xE86 JUMP JUMPDEST DUP3 MSTORE POP POP JUMP JUMPDEST PUSH0 PUSH1 0x20 DUP3 ADD SWAP1 POP PUSH2 0xEB3 PUSH0 DUP4 ADD DUP5 PUSH2 0xE91 JUMP JUMPDEST SWAP3 SWAP2 POP POP JUMP JUMPDEST PUSH2 0xEC2 DUP2 PUSH2 0xA36 JUMP JUMPDEST DUP3 MSTORE POP POP JUMP JUMPDEST PUSH0 PUSH1 0x20 DUP3 ADD SWAP1 POP PUSH2 0xEDB PUSH0 DUP4 ADD DUP5 PUSH2 0xEB9 JUMP JUMPDEST SWAP3 SWAP2 POP POP JUMP JUMPDEST PUSH0 DUP2 MLOAD SWAP1 POP SWAP2 SWAP1 POP JUMP JUMPDEST PUSH0 DUP3 DUP3 MSTORE PUSH1 0x20 DUP3 ADD SWAP1 POP SWAP3 SWAP2 POP POP JUMP JUMPDEST PUSH0 PUSH2 0xF05 DUP3 PUSH2 0xEE1 JUMP JUMPDEST PUSH2 0xF0F DUP2 DUP6 PUSH2 0xEEB JUMP JUMPDEST SWAP4 POP PUSH2 0xF1F DUP2 DUP6 PUSH1 0x20 DUP7 ADD PUSH2 0xD78 JUMP JUMPDEST PUSH2 0xF28 DUP2 PUSH2 0xAAC JUMP JUMPDEST DUP5 ADD SWAP2 POP POP SWAP3 SWAP2 POP POP JUMP JUMPDEST PUSH0 PUSH1 0xA0 DUP3 ADD SWAP1 POP PUSH2 0xF46 PUSH0 DUP4 ADD DUP9 PUSH2 0xEB9 JUMP JUMPDEST PUSH2 0xF53 PUSH1 0x20 DUP4 ADD DUP8 PUSH2 0xDDE JUMP JUMPDEST DUP2 DUP2 SUB PUSH1 0x40 DUP4 ADD MSTORE PUSH2 0xF65 DUP2 DUP7 PUSH2 0xEFB JUMP JUMPDEST SWAP1 POP DUP2 DUP2 SUB PUSH1 0x60 DUP4 ADD MSTORE PUSH2 0xF79 DUP2 DUP6 PUSH2 0xD86 JUMP JUMPDEST SWAP1 POP PUSH2 0xF88 PUSH1 0x80 DUP4 ADD DUP5 PUSH2 0xDDE JUMP JUMPDEST SWAP7 SWAP6 POP POP POP POP POP POP JUMP JUMPDEST PUSH32 0x54696D654C6F636B3A2063616C6C6572206E6F742061646D696E000000000000 PUSH0 DUP3 ADD MSTORE POP JUMP JUMPDEST PUSH0 PUSH2 0xFC6 PUSH1 0x1A DUP4 PUSH2 0xEEB JUMP JUMPDEST SWAP2 POP PUSH2 0xFD1 DUP3 PUSH2 0xF92 JUMP JUMPDEST PUSH1 0x20 DUP3 ADD SWAP1 POP SWAP2 SWAP1 POP JUMP JUMPDEST PUSH0 PUSH1 0x20 DUP3 ADD SWAP1 POP DUP2 DUP2 SUB PUSH0 DUP4 ADD MSTORE PUSH2 0xFF3 DUP2 PUSH2 0xFBA JUMP JUMPDEST SWAP1 POP SWAP2 SWAP1 POP JUMP JUMPDEST PUSH32 0x54696D656C6F636B3A3A657865637574655472616E73616374696F6E20547261 PUSH0 DUP3 ADD MSTORE PUSH32 0x6E73616374696F6E206861736E2774206265656E207175657565640000000000 PUSH1 0x20 DUP3 ADD MSTORE POP JUMP JUMPDEST PUSH0 PUSH2 0x1054 PUSH1 0x3B DUP4 PUSH2 0xEEB JUMP JUMPDEST SWAP2 POP PUSH2 0x105F DUP3 PUSH2 0xFFA JUMP JUMPDEST PUSH1 0x40 DUP3 ADD SWAP1 POP SWAP2 SWAP1 POP JUMP JUMPDEST PUSH0 PUSH1 0x20 DUP3 ADD SWAP1 POP DUP2 DUP2 SUB PUSH0 DUP4 ADD MSTORE PUSH2 0x1081 DUP2 PUSH2 0x1048 JUMP JUMPDEST SWAP1 POP SWAP2 SWAP1 POP JUMP JUMPDEST PUSH32 0x54696D656C6F636B3A3A657865637574655472616E73616374696F6E20686173 PUSH0 DUP3 ADD MSTORE PUSH32 0x6E2774207375727061737365642074696D656C6F636B00000000000000000000 PUSH1 0x20 DUP3 ADD MSTORE POP JUMP JUMPDEST PUSH0 PUSH2 0x10E2 PUSH1 0x36 DUP4 PUSH2 0xEEB JUMP JUMPDEST SWAP2 POP PUSH2 0x10ED DUP3 PUSH2 0x1088 JUMP JUMPDEST PUSH1 0x40 DUP3 ADD SWAP1 POP SWAP2 SWAP1 POP JUMP JUMPDEST PUSH0 PUSH1 0x20 DUP3 ADD SWAP1 POP DUP2 DUP2 SUB PUSH0 DUP4 ADD MSTORE PUSH2 0x110F DUP2 PUSH2 0x10D6 JUMP JUMPDEST SWAP1 POP SWAP2 SWAP1 POP JUMP JUMPDEST PUSH32 0x4E487B7100000000000000000000000000000000000000000000000000000000 PUSH0 MSTORE PUSH1 0x11 PUSH1 0x4 MSTORE PUSH1 0x24 PUSH0 REVERT JUMPDEST PUSH0 PUSH2 0x114D DUP3 PUSH2 0xA71 JUMP JUMPDEST SWAP2 POP PUSH2 0x1158 DUP4 PUSH2 0xA71 JUMP JUMPDEST SWAP3 POP DUP3 DUP3 ADD SWAP1 POP DUP1 DUP3 GT ISZERO PUSH2 0x1170 JUMPI PUSH2 0x116F PUSH2 0x1116 JUMP JUMPDEST JUMPDEST SWAP3 SWAP2 POP POP JUMP JUMPDEST PUSH32 0x54696D656C6F636B3A3A657865637574655472616E73616374696F6E3A205472 PUSH0 DUP3 ADD MSTORE PUSH32 0x616E73616374696F6E206973207374616C652E00000000000000000000000000 PUSH1 0x20 DUP3 ADD MSTORE POP JUMP JUMPDEST PUSH0 PUSH2 0x11D0 PUSH1 0x33 DUP4 PUSH2 0xEEB JUMP JUMPDEST SWAP2 POP PUSH2 0x11DB DUP3 PUSH2 0x1176 JUMP JUMPDEST PUSH1 0x40 DUP3 ADD SWAP1 POP SWAP2 SWAP1 POP JUMP JUMPDEST PUSH0 PUSH1 0x20 DUP3 ADD SWAP1 POP DUP2 DUP2 SUB PUSH0 DUP4 ADD MSTORE PUSH2 0x11FD DUP2 PUSH2 0x11C4 JUMP JUMPDEST SWAP1 POP SWAP2 SWAP1 POP JUMP JUMPDEST PUSH0 PUSH32 0xFFFFFFFF00000000000000000000000000000000000000000000000000000000 DUP3 AND SWAP1 POP SWAP2 SWAP1 POP JUMP JUMPDEST PUSH0 DUP2 SWAP1 POP SWAP2 SWAP1 POP JUMP JUMPDEST PUSH2 0x1249 PUSH2 0x1244 DUP3 PUSH2 0x1204 JUMP JUMPDEST PUSH2 0x122F JUMP JUMPDEST DUP3 MSTORE POP POP JUMP JUMPDEST PUSH0 DUP2 SWAP1 POP SWAP3 SWAP2 POP POP JUMP JUMPDEST PUSH0 PUSH2 0x1263 DUP3 PUSH2 0xD5E JUMP JUMPDEST PUSH2 0x126D DUP2 DUP6 PUSH2 0x124F JUMP JUMPDEST SWAP4 POP PUSH2 0x127D DUP2 DUP6 PUSH1 0x20 DUP7 ADD PUSH2 0xD78 JUMP JUMPDEST DUP1 DUP5 ADD SWAP2 POP POP SWAP3 SWAP2 POP POP JUMP JUMPDEST PUSH0 PUSH2 0x1294 DUP3 DUP6 PUSH2 0x1238 JUMP JUMPDEST PUSH1 0x4 DUP3 ADD SWAP2 POP PUSH2 0x12A4 DUP3 DUP5 PUSH2 0x1259 JUMP JUMPDEST SWAP2 POP DUP2 SWAP1 POP SWAP4 SWAP3 POP POP POP JUMP JUMPDEST PUSH0 PUSH2 0x12BB DUP3 DUP5 PUSH2 0x1259 JUMP JUMPDEST SWAP2 POP DUP2 SWAP1 POP SWAP3 SWAP2 POP POP JUMP JUMPDEST PUSH32 0x54696D656C6F636B3A3A657865637574655472616E73616374696F6E3A205472 PUSH0 DUP3 ADD MSTORE PUSH32 0x616E7361636174696F6E20657865637574696F6E207265766572746564000000 PUSH1 0x20 DUP3 ADD MSTORE POP JUMP JUMPDEST PUSH0 PUSH2 0x1320 PUSH1 0x3D DUP4 PUSH2 0xEEB JUMP JUMPDEST SWAP2 POP PUSH2 0x132B DUP3 PUSH2 0x12C6 JUMP JUMPDEST PUSH1 0x40 DUP3 ADD SWAP1 POP SWAP2 SWAP1 POP JUMP JUMPDEST PUSH0 PUSH1 0x20 DUP3 ADD SWAP1 POP DUP2 DUP2 SUB PUSH0 DUP4 ADD MSTORE PUSH2 0x134D DUP2 PUSH2 0x1314 JUMP JUMPDEST SWAP1 POP SWAP2 SWAP1 POP JUMP JUMPDEST PUSH0 PUSH1 0x80 DUP3 ADD SWAP1 POP PUSH2 0x1367 PUSH0 DUP4 ADD DUP8 PUSH2 0xDDE JUMP JUMPDEST DUP2 DUP2 SUB PUSH1 0x20 DUP4 ADD MSTORE PUSH2 0x1379 DUP2 DUP7 PUSH2 0xEFB JUMP JUMPDEST SWAP1 POP DUP2 DUP2 SUB PUSH1 0x40 DUP4 ADD MSTORE PUSH2 0x138D DUP2 DUP6 PUSH2 0xD86 JUMP JUMPDEST SWAP1 POP PUSH2 0x139C PUSH1 0x60 DUP4 ADD DUP5 PUSH2 0xDDE JUMP JUMPDEST SWAP6 SWAP5 POP POP POP POP POP JUMP JUMPDEST PUSH32 0x54696D656C6F636B3A3A71756575655472616E73616374696F6E3A2045737469 PUSH0 DUP3 ADD MSTORE PUSH32 0x6D6174656420657865637574696F6E2074696D65206D75737420736174697366 PUSH1 0x20 DUP3 ADD MSTORE PUSH32 0x792064656C61792E000000000000000000000000000000000000000000000000 PUSH1 0x40 DUP3 ADD MSTORE POP JUMP JUMPDEST PUSH0 PUSH2 0x1425 PUSH1 0x48 DUP4 PUSH2 0xEEB JUMP JUMPDEST SWAP2 POP PUSH2 0x1430 DUP3 PUSH2 0x13A5 JUMP JUMPDEST PUSH1 0x60 DUP3 ADD SWAP1 POP SWAP2 SWAP1 POP JUMP JUMPDEST PUSH0 PUSH1 0x20 DUP3 ADD SWAP1 POP DUP2 DUP2 SUB PUSH0 DUP4 ADD MSTORE PUSH2 0x1452 DUP2 PUSH2 0x1419 JUMP JUMPDEST SWAP1 POP SWAP2 SWAP1 POP JUMP JUMPDEST PUSH32 0x54696D656C6F636B3A3A63616E63656C5472616E73616374696F6E205472616E PUSH0 DUP3 ADD MSTORE PUSH32 0x73616374696F6E206861736E2774206265656E207175657565642E0000000000 PUSH1 0x20 DUP3 ADD MSTORE POP JUMP JUMPDEST PUSH0 PUSH2 0x14B3 PUSH1 0x3B DUP4 PUSH2 0xEEB JUMP JUMPDEST SWAP2 POP PUSH2 0x14BE DUP3 PUSH2 0x1459 JUMP JUMPDEST PUSH1 0x40 DUP3 ADD SWAP1 POP SWAP2 SWAP1 POP JUMP JUMPDEST PUSH0 PUSH1 0x20 DUP3 ADD SWAP1 POP DUP2 DUP2 SUB PUSH0 DUP4 ADD MSTORE PUSH2 0x14E0 DUP2 PUSH2 0x14A7 JUMP JUMPDEST SWAP1 POP SWAP2 SWAP1 POP JUMP JUMPDEST PUSH32 0x54696D656C6F636B3A2063616C6C6572206E6F742054696D656C6F636B000000 PUSH0 DUP3 ADD MSTORE POP JUMP JUMPDEST PUSH0 PUSH2 0x151B PUSH1 0x1D DUP4 PUSH2 0xEEB JUMP JUMPDEST SWAP2 POP PUSH2 0x1526 DUP3 PUSH2 0x14E7 JUMP JUMPDEST PUSH1 0x20 DUP3 ADD SWAP1 POP SWAP2 SWAP1 POP JUMP JUMPDEST PUSH0 PUSH1 0x20 DUP3 ADD SWAP1 POP DUP2 DUP2 SUB PUSH0 DUP4 ADD MSTORE PUSH2 0x1548 DUP2 PUSH2 0x150F JUMP JUMPDEST SWAP1 POP SWAP2 SWAP1 POP JUMP INVALID LOG2 PUSH5 0x6970667358 0x22 SLT KECCAK256 TIMESTAMP 0xC9 DUP10 0x1F 0xC8 0xEC SWAP14 0x29 JUMP 0x22 0xAC PREVRANDAO PUSH9 0xCA69F38CD1AB12ABF0 STATICCALL 0xF MULMOD 0xC5 0x2B 0xC4 PUSH11 0x5C416E64736F6C63430008 BYTE STOP CALLER "
				},
				"gasEstimates": {
					"creation": {
						"codeDepositCost": "1101800",
						"executionCost": "infinite",
						"totalCost": "infinite"
					},
					"external": {
						"GRACE_PERIOD()": "369",
						"admin()": "2593",
						"cancelTransaction(address,uint256,string,bytes,uint256)": "infinite",
						"changeAdmin(address)": "25931",
						"delay()": "2514",
						"executeTransaction(address,uint256,string,bytes,uint256)": "infinite",
						"getBlockTimestamp()": "331",
						"getTxHash(address,uint256,string,bytes,uint256)": "infinite",
						"queueTransaction(address,uint256,string,bytes,uint256)": "infinite",
						"queuedTransactions(bytes32)": "2851"
					}
				},
				"methodIdentifiers": {
					"GRACE_PERIOD()": "c1a287e2",
					"admin()": "f851a440",
					"cancelTransaction(address,uint256,string,bytes,uint256)": "591fcdfe",
					"changeAdmin(address)": "8f283970",
					"delay()": "6a42b8f8",
					"executeTransaction(address,uint256,string,bytes,uint256)": "0825f38f",
					"getBlockTimestamp()": "796b89b9",
					"getTxHash(address,uint256,string,bytes,uint256)": "04a71576",
					"queueTransaction(address,uint256,string,bytes,uint256)": "3a66f901",
					"queuedTransactions(bytes32)": "f2b06537"
				}
			},
			"storageLayout": {
				"storage": [
					{
						"astId": 48,
						"contract": "TimeLock.sol:TimeLock",
						"label": "admin",
						"offset": 0,
						"slot": "0",
						"type": "t_address"
					},
					{
						"astId": 53,
						"contract": "TimeLock.sol:TimeLock",
						"label": "delay",
						"offset": 0,
						"slot": "1",
						"type": "t_uint256"
					},
					{
						"astId": 57,
						"contract": "TimeLock.sol:TimeLock",
						"label": "queuedTransactions",
						"offset": 0,
						"slot": "2",
						"type": "t_mapping(t_bytes32,t_bool)"
					}
				],
				"types": {
					"t_address": {
						"encoding": "inplace",
						"label": "address",
						"numberOfBytes": "20"
					},
					"t_bool": {
						"encoding": "inplace",
						"label": "bool",
						"numberOfBytes": "1"
					},
					"t_bytes32": {
						"encoding": "inplace",
						"label": "bytes32",
						"numberOfBytes": "32"
					},
					"t_mapping(t_bytes32,t_bool)": {
						"encoding": "mapping",
						"key": "t_bytes32",
						"label": "mapping(bytes32 => bool)",
						"numberOfBytes": "32",
						"value": "t_bool"
					},
					"t_uint256": {
						"encoding": "inplace",
						"label": "uint256",
						"numberOfBytes": "32"
					}
				}
			},
			"userdoc": {
				"kind": "user",
				"methods": {},
				"version": 1
			}
		}
	}
}