{
	"data": {
		"bytecode": {
			"linkReferences": {
				"Strings.sol": {
					"Strings": [
						{
							"length": 20,
							"start": 2266
						}
					]
				}
			},
			"object": "608060405234801561000f575f80fd5b506040518060400160405280600881526020017f42415943313135350000000000000000000000000000000000000000000000008152506040518060400160405280600881526020017f4241594331313535000000000000000000000000000000000000000000000000815250815f908161008a91906102dc565b50806001908161009a91906102dc565b5050506103ab565b5f81519050919050565b7f4e487b71000000000000000000000000000000000000000000000000000000005f52604160045260245ffd5b7f4e487b71000000000000000000000000000000000000000000000000000000005f52602260045260245ffd5b5f600282049050600182168061011d57607f821691505b6020821081036101305761012f6100d9565b5b50919050565b5f819050815f5260205f209050919050565b5f6020601f8301049050919050565b5f82821b905092915050565b5f600883026101927fffffffffffffffffffffffffffffffffffffffffffffffffffffffffffffffff82610157565b61019c8683610157565b95508019841693508086168417925050509392505050565b5f819050919050565b5f819050919050565b5f6101e06101db6101d6846101b4565b6101bd565b6101b4565b9050919050565b5f819050919050565b6101f9836101c6565b61020d610205826101e7565b848454610163565b825550505050565b5f90565b610221610215565b61022c8184846101f0565b505050565b5b8181101561024f576102445f82610219565b600181019050610232565b5050565b601f8211156102945761026581610136565b61026e84610148565b8101602085101561027d578190505b61029161028985610148565b830182610231565b50505b505050565b5f82821c905092915050565b5f6102b45f1984600802610299565b1980831691505092915050565b5f6102cc83836102a5565b9150826002028217905092915050565b6102e5826100a2565b67ffffffffffffffff8111156102fe576102fd6100ac565b5b6103088254610106565b610313828285610253565b5f60209050601f831160018114610344575f8415610332578287015190505b61033c85826102c1565b8655506103a3565b601f19841661035286610136565b5f5b8281101561037957848901518255600182019150602085019450602081019050610354565b868310156103965784890151610392601f8916826102a5565b8355505b6001600288020188555050505b505050505050565b612c16806103b85f395ff3fe608060405234801561000f575f80fd5b50600436106100b1575f3560e01c80634e1273f41161006f5780634e1273f41461019b57806395d89b41146101cb578063a22cb465146101e9578063d81d0a1514610205578063e985e9c514610221578063f242432a14610251576100b1565b8062fdd58e146100b557806301ffc9a7146100e557806306fdde03146101155780630e89341c14610133578063156e29f6146101635780632eb2c2d61461017f575b5f80fd5b6100cf60048036038101906100ca9190611841565b61026d565b6040516100dc919061188e565b60405180910390f35b6100ff60048036038101906100fa91906118fc565b610331565b60405161010c9190611941565b60405180910390f35b61011d61046a565b60405161012a91906119ca565b60405180910390f35b61014d600480360381019061014891906119ea565b6104f5565b60405161015a91906119ca565b60405180910390f35b61017d60048036038101906101789190611a15565b6105c3565b005b61019960048036038101906101949190611c55565b610626565b005b6101b560048036038101906101b09190611de0565b61098d565b6040516101c29190611f0d565b60405180910390f35b6101d3610a9e565b6040516101e091906119ca565b60405180910390f35b61020360048036038101906101fe9190611f57565b610b2a565b005b61021f600480360381019061021a9190611f95565b610c90565b005b61023b6004803603810190610236919061201d565b610d26565b6040516102489190611941565b60405180910390f35b61026b6004803603810190610266919061205b565b610db4565b005b5f8073ffffffffffffffffffffffffffffffffffffffff168373ffffffffffffffffffffffffffffffffffffffff16036102dc576040517f08c379a00000000000000000000000000000000000000000000000000000000081526004016102d39061215e565b60405180910390fd5b60025f8381526020019081526020015f205f8473ffffffffffffffffffffffffffffffffffffffff1673ffffffffffffffffffffffffffffffffffffffff1681526020019081526020015f2054905092915050565b5f7fd9b67a26000000000000000000000000000000000000000000000000000000007bffffffffffffffffffffffffffffffffffffffffffffffffffffffff1916827bffffffffffffffffffffffffffffffffffffffffffffffffffffffff191614806103fb57507f0e89341c000000000000000000000000000000000000000000000000000000007bffffffffffffffffffffffffffffffffffffffffffffffffffffffff1916827bffffffffffffffffffffffffffffffffffffffffffffffffffffffff1916145b8061046357507f01ffc9a7000000000000000000000000000000000000000000000000000000007bffffffffffffffffffffffffffffffffffffffffffffffffffffffff1916827bffffffffffffffffffffffffffffffffffffffffffffffffffffffff1916145b9050919050565b5f8054610476906121a9565b80601f01602080910402602001604051908101604052809291908181526020018280546104a2906121a9565b80156104ed5780601f106104c4576101008083540402835291602001916104ed565b820191905f5260205f20905b8154815290600101906020018083116104d057829003601f168201915b505050505081565b60605f610500611082565b90505f81511161051e5760405180602001604052805f8152506105bb565b808373__$3ebfd403dd5e707cd4ab529244fde782a8$__636900a3ae90916040518263ffffffff1660e01b815260040161055891906121e8565b5f60405180830381865af4158015610572573d5f803e3d5ffd5b505050506040513d5f823e3d601f19601f8201168201806040525081019061059a919061229f565b6040516020016105ab929190612320565b6040516020818303038152906040525b915050919050565b6127108210610607576040517f08c379a00000000000000000000000000000000000000000000000000000000081526004016105fe9061238d565b60405180910390fd5b61062183838360405180602001604052805f8152506110a2565b505050565b5f3390508073ffffffffffffffffffffffffffffffffffffffff168673ffffffffffffffffffffffffffffffffffffffff16148061066a57506106698682610d26565b5b6106a9576040517f08c379a00000000000000000000000000000000000000000000000000000000081526004016106a09061241b565b60405180910390fd5b82518451146106ed576040517f08c379a00000000000000000000000000000000000000000000000000000000081526004016106e4906124a9565b60405180910390fd5b5f73ffffffffffffffffffffffffffffffffffffffff168573ffffffffffffffffffffffffffffffffffffffff160361075b576040517f08c379a000000000000000000000000000000000000000000000000000000000815260040161075290612537565b60405180910390fd5b5f5b84518110156108f8575f85828151811061077a57610779612555565b5b602002602001015190505f85838151811061079857610797612555565b5b602002602001015190505f60025f8481526020019081526020015f205f8b73ffffffffffffffffffffffffffffffffffffffff1673ffffffffffffffffffffffffffffffffffffffff1681526020019081526020015f2054905081811015610835576040517f08c379a000000000000000000000000000000000000000000000000000000000815260040161082c906125f2565b60405180910390fd5b81810360025f8581526020019081526020015f205f8c73ffffffffffffffffffffffffffffffffffffffff1673ffffffffffffffffffffffffffffffffffffffff1681526020019081526020015f20819055508160025f8581526020019081526020015f205f8b73ffffffffffffffffffffffffffffffffffffffff1673ffffffffffffffffffffffffffffffffffffffff1681526020019081526020015f205f8282546108e3919061263d565b9250508190555050505080600101905061075d565b508473ffffffffffffffffffffffffffffffffffffffff168673ffffffffffffffffffffffffffffffffffffffff168273ffffffffffffffffffffffffffffffffffffffff167f4a39dc06d4c0dbc64b70af90fd698a233a518aa5d07e595d983b8c0526c8f7fb878760405161096f929190612670565b60405180910390a4610985818787878787611209565b505050505050565b606081518351146109d3576040517f08c379a00000000000000000000000000000000000000000000000000000000081526004016109ca90612715565b60405180910390fd5b5f835167ffffffffffffffff8111156109ef576109ee611a69565b5b604051908082528060200260200182016040528015610a1d5781602001602082028036833780820191505090505b5090505f5b8451811015610a9357610a69858281518110610a4157610a40612555565b5b6020026020010151858381518110610a5c57610a5b612555565b5b602002602001015161026d565b828281518110610a7c57610a7b612555565b5b602002602001018181525050806001019050610a22565b508091505092915050565b60018054610aab906121a9565b80601f0160208091040260200160405190810160405280929190818152602001828054610ad7906121a9565b8015610b225780601f10610af957610100808354040283529160200191610b22565b820191905f5260205f20905b815481529060010190602001808311610b0557829003601f168201915b505050505081565b8173ffffffffffffffffffffffffffffffffffffffff163373ffffffffffffffffffffffffffffffffffffffff1603610b98576040517f08c379a0000000000000000000000000000000000000000000000000000000008152600401610b8f906127a3565b60405180910390fd5b8060035f3373ffffffffffffffffffffffffffffffffffffffff1673ffffffffffffffffffffffffffffffffffffffff1681526020019081526020015f205f8473ffffffffffffffffffffffffffffffffffffffff1673ffffffffffffffffffffffffffffffffffffffff1681526020019081526020015f205f6101000a81548160ff0219169083151502179055508173ffffffffffffffffffffffffffffffffffffffff163373ffffffffffffffffffffffffffffffffffffffff167f17307eab39ab6107e8899845ad3d59bd9653f200f220920489ca2b5937696c3183604051610c849190611941565b60405180910390a35050565b5f5b8251811015610d0657612710838281518110610cb157610cb0612555565b5b602002602001015110610cf9576040517f08c379a0000000000000000000000000000000000000000000000000000000008152600401610cf09061238d565b60405180910390fd5b8080600101915050610c92565b50610d2183838360405180602001604052805f8152506113da565b505050565b5f60035f8473ffffffffffffffffffffffffffffffffffffffff1673ffffffffffffffffffffffffffffffffffffffff1681526020019081526020015f205f8373ffffffffffffffffffffffffffffffffffffffff1673ffffffffffffffffffffffffffffffffffffffff1681526020019081526020015f205f9054906101000a900460ff16905092915050565b5f3390508073ffffffffffffffffffffffffffffffffffffffff168673ffffffffffffffffffffffffffffffffffffffff161480610df85750610df78682610d26565b5b610e37576040517f08c379a0000000000000000000000000000000000000000000000000000000008152600401610e2e9061241b565b60405180910390fd5b5f73ffffffffffffffffffffffffffffffffffffffff168573ffffffffffffffffffffffffffffffffffffffff1603610ea5576040517f08c379a0000000000000000000000000000000000000000000000000000000008152600401610e9c90612537565b60405180910390fd5b5f60025f8681526020019081526020015f205f8873ffffffffffffffffffffffffffffffffffffffff1673ffffffffffffffffffffffffffffffffffffffff1681526020019081526020015f2054905083811015610f38576040517f08c379a0000000000000000000000000000000000000000000000000000000008152600401610f2f906125f2565b60405180910390fd5b83810360025f8781526020019081526020015f205f8973ffffffffffffffffffffffffffffffffffffffff1673ffffffffffffffffffffffffffffffffffffffff1681526020019081526020015f20819055508360025f8781526020019081526020015f205f8873ffffffffffffffffffffffffffffffffffffffff1673ffffffffffffffffffffffffffffffffffffffff1681526020019081526020015f205f828254610fe6919061263d565b925050819055508573ffffffffffffffffffffffffffffffffffffffff168773ffffffffffffffffffffffffffffffffffffffff168373ffffffffffffffffffffffffffffffffffffffff167fc3d58168c5ae7397731d063d5bbf3d657854427343f4c083240f7aacaa2d0f6288886040516110639291906127c1565b60405180910390a46110798288888888886115d2565b50505050505050565b6060604051806060016040528060368152602001612bab60369139905090565b5f73ffffffffffffffffffffffffffffffffffffffff168473ffffffffffffffffffffffffffffffffffffffff1603611110576040517f08c379a000000000000000000000000000000000000000000000000000000000815260040161110790612858565b60405180910390fd5b5f3390508260025f8681526020019081526020015f205f8773ffffffffffffffffffffffffffffffffffffffff1673ffffffffffffffffffffffffffffffffffffffff1681526020019081526020015f205f82825461116f919061263d565b925050819055508473ffffffffffffffffffffffffffffffffffffffff165f73ffffffffffffffffffffffffffffffffffffffff168273ffffffffffffffffffffffffffffffffffffffff167fc3d58168c5ae7397731d063d5bbf3d657854427343f4c083240f7aacaa2d0f6287876040516111ec9291906127c1565b60405180910390a4611202815f878787876115d2565b5050505050565b5f8473ffffffffffffffffffffffffffffffffffffffff163b11156113d2578373ffffffffffffffffffffffffffffffffffffffff1663bc197c8187878686866040518663ffffffff1660e01b81526004016112699594939291906128d7565b6020604051808303815f875af19250505080156112a457506040513d601f19601f820116820180604052508101906112a19190612951565b60015b611349576112b0612988565b806308c379a00361130c57506112c46129a7565b806112cf575061130e565b806040517f08c379a000000000000000000000000000000000000000000000000000000000815260040161130391906119ca565b60405180910390fd5b505b6040517f08c379a000000000000000000000000000000000000000000000000000000000815260040161134090612aa6565b60405180910390fd5b63bc197c8160e01b7bffffffffffffffffffffffffffffffffffffffffffffffffffffffff1916817bffffffffffffffffffffffffffffffffffffffffffffffffffffffff1916146113d0576040517f08c379a00000000000000000000000000000000000000000000000000000000081526004016113c790612b34565b60405180910390fd5b505b505050505050565b5f73ffffffffffffffffffffffffffffffffffffffff168473ffffffffffffffffffffffffffffffffffffffff1603611448576040517f08c379a000000000000000000000000000000000000000000000000000000000815260040161143f90612858565b60405180910390fd5b815183511461148c576040517f08c379a0000000000000000000000000000000000000000000000000000000008152600401611483906124a9565b60405180910390fd5b5f3390505f5b845181101561153e578381815181106114ae576114ad612555565b5b602002602001015160025f8784815181106114cc576114cb612555565b5b602002602001015181526020019081526020015f205f8873ffffffffffffffffffffffffffffffffffffffff1673ffffffffffffffffffffffffffffffffffffffff1681526020019081526020015f205f82825461152a919061263d565b925050819055508080600101915050611492565b508473ffffffffffffffffffffffffffffffffffffffff165f73ffffffffffffffffffffffffffffffffffffffff168273ffffffffffffffffffffffffffffffffffffffff167f4a39dc06d4c0dbc64b70af90fd698a233a518aa5d07e595d983b8c0526c8f7fb87876040516115b5929190612670565b60405180910390a46115cb815f87878787611209565b5050505050565b5f8473ffffffffffffffffffffffffffffffffffffffff163b111561179b578373ffffffffffffffffffffffffffffffffffffffff1663f23a6e6187878686866040518663ffffffff1660e01b8152600401611632959493929190612b52565b6020604051808303815f875af192505050801561166d57506040513d601f19601f8201168201806040525081019061166a9190612951565b60015b61171257611679612988565b806308c379a0036116d5575061168d6129a7565b8061169857506116d7565b806040517f08c379a00000000000000000000000000000000000000000000000000000000081526004016116cc91906119ca565b60405180910390fd5b505b6040517f08c379a000000000000000000000000000000000000000000000000000000000815260040161170990612aa6565b60405180910390fd5b63f23a6e6160e01b7bffffffffffffffffffffffffffffffffffffffffffffffffffffffff1916817bffffffffffffffffffffffffffffffffffffffffffffffffffffffff191614611799576040517f08c379a000000000000000000000000000000000000000000000000000000000815260040161179090612b34565b60405180910390fd5b505b505050505050565b5f604051905090565b5f80fd5b5f80fd5b5f73ffffffffffffffffffffffffffffffffffffffff82169050919050565b5f6117dd826117b4565b9050919050565b6117ed816117d3565b81146117f7575f80fd5b50565b5f81359050611808816117e4565b92915050565b5f819050919050565b6118208161180e565b811461182a575f80fd5b50565b5f8135905061183b81611817565b92915050565b5f8060408385031215611857576118566117ac565b5b5f611864858286016117fa565b92505060206118758582860161182d565b9150509250929050565b6118888161180e565b82525050565b5f6020820190506118a15f83018461187f565b92915050565b5f7fffffffff0000000000000000000000000000000000000000000000000000000082169050919050565b6118db816118a7565b81146118e5575f80fd5b50565b5f813590506118f6816118d2565b92915050565b5f60208284031215611911576119106117ac565b5b5f61191e848285016118e8565b91505092915050565b5f8115159050919050565b61193b81611927565b82525050565b5f6020820190506119545f830184611932565b92915050565b5f81519050919050565b5f82825260208201905092915050565b8281835e5f83830152505050565b5f601f19601f8301169050919050565b5f61199c8261195a565b6119a68185611964565b93506119b6818560208601611974565b6119bf81611982565b840191505092915050565b5f6020820190508181035f8301526119e28184611992565b905092915050565b5f602082840312156119ff576119fe6117ac565b5b5f611a0c8482850161182d565b91505092915050565b5f805f60608486031215611a2c57611a2b6117ac565b5b5f611a39868287016117fa565b9350506020611a4a8682870161182d565b9250506040611a5b8682870161182d565b9150509250925092565b5f80fd5b7f4e487b71000000000000000000000000000000000000000000000000000000005f52604160045260245ffd5b611a9f82611982565b810181811067ffffffffffffffff82111715611abe57611abd611a69565b5b80604052505050565b5f611ad06117a3565b9050611adc8282611a96565b919050565b5f67ffffffffffffffff821115611afb57611afa611a69565b5b602082029050602081019050919050565b5f80fd5b5f611b22611b1d84611ae1565b611ac7565b90508083825260208201905060208402830185811115611b4557611b44611b0c565b5b835b81811015611b6e5780611b5a888261182d565b845260208401935050602081019050611b47565b5050509392505050565b5f82601f830112611b8c57611b8b611a65565b5b8135611b9c848260208601611b10565b91505092915050565b5f80fd5b5f67ffffffffffffffff821115611bc357611bc2611a69565b5b611bcc82611982565b9050602081019050919050565b828183375f83830152505050565b5f611bf9611bf484611ba9565b611ac7565b905082815260208101848484011115611c1557611c14611ba5565b5b611c20848285611bd9565b509392505050565b5f82601f830112611c3c57611c3b611a65565b5b8135611c4c848260208601611be7565b91505092915050565b5f805f805f60a08688031215611c6e57611c6d6117ac565b5b5f611c7b888289016117fa565b9550506020611c8c888289016117fa565b945050604086013567ffffffffffffffff811115611cad57611cac6117b0565b5b611cb988828901611b78565b935050606086013567ffffffffffffffff811115611cda57611cd96117b0565b5b611ce688828901611b78565b925050608086013567ffffffffffffffff811115611d0757611d066117b0565b5b611d1388828901611c28565b9150509295509295909350565b5f67ffffffffffffffff821115611d3a57611d39611a69565b5b602082029050602081019050919050565b5f611d5d611d5884611d20565b611ac7565b90508083825260208201905060208402830185811115611d8057611d7f611b0c565b5b835b81811015611da95780611d9588826117fa565b845260208401935050602081019050611d82565b5050509392505050565b5f82601f830112611dc757611dc6611a65565b5b8135611dd7848260208601611d4b565b91505092915050565b5f8060408385031215611df657611df56117ac565b5b5f83013567ffffffffffffffff811115611e1357611e126117b0565b5b611e1f85828601611db3565b925050602083013567ffffffffffffffff811115611e4057611e3f6117b0565b5b611e4c85828601611b78565b9150509250929050565b5f81519050919050565b5f82825260208201905092915050565b5f819050602082019050919050565b611e888161180e565b82525050565b5f611e998383611e7f565b60208301905092915050565b5f602082019050919050565b5f611ebb82611e56565b611ec58185611e60565b9350611ed083611e70565b805f5b83811015611f00578151611ee78882611e8e565b9750611ef283611ea5565b925050600181019050611ed3565b5085935050505092915050565b5f6020820190508181035f830152611f258184611eb1565b905092915050565b611f3681611927565b8114611f40575f80fd5b50565b5f81359050611f5181611f2d565b92915050565b5f8060408385031215611f6d57611f6c6117ac565b5b5f611f7a858286016117fa565b9250506020611f8b85828601611f43565b9150509250929050565b5f805f60608486031215611fac57611fab6117ac565b5b5f611fb9868287016117fa565b935050602084013567ffffffffffffffff811115611fda57611fd96117b0565b5b611fe686828701611b78565b925050604084013567ffffffffffffffff811115612007576120066117b0565b5b61201386828701611b78565b9150509250925092565b5f8060408385031215612033576120326117ac565b5b5f612040858286016117fa565b9250506020612051858286016117fa565b9150509250929050565b5f805f805f60a08688031215612074576120736117ac565b5b5f612081888289016117fa565b9550506020612092888289016117fa565b94505060406120a38882890161182d565b93505060606120b48882890161182d565b925050608086013567ffffffffffffffff8111156120d5576120d46117b0565b5b6120e188828901611c28565b9150509295509295909350565b7f455243313135353a2061646472657373207a65726f206973206e6f74206120765f8201527f616c6964206f776e657200000000000000000000000000000000000000000000602082015250565b5f612148602a83611964565b9150612153826120ee565b604082019050919050565b5f6020820190508181035f8301526121758161213c565b9050919050565b7f4e487b71000000000000000000000000000000000000000000000000000000005f52602260045260245ffd5b5f60028204905060018216806121c057607f821691505b6020821081036121d3576121d261217c565b5b50919050565b6121e28161180e565b82525050565b5f6020820190506121fb5f8301846121d9565b92915050565b5f67ffffffffffffffff82111561221b5761221a611a69565b5b61222482611982565b9050602081019050919050565b5f61224361223e84612201565b611ac7565b90508281526020810184848401111561225f5761225e611ba5565b5b61226a848285611974565b509392505050565b5f82601f83011261228657612285611a65565b5b8151612296848260208601612231565b91505092915050565b5f602082840312156122b4576122b36117ac565b5b5f82015167ffffffffffffffff8111156122d1576122d06117b0565b5b6122dd84828501612272565b91505092915050565b5f81905092915050565b5f6122fa8261195a565b61230481856122e6565b9350612314818560208601611974565b80840191505092915050565b5f61232b82856122f0565b915061233782846122f0565b91508190509392505050565b7f6964206f766572666c6f770000000000000000000000000000000000000000005f82015250565b5f612377600b83611964565b915061238282612343565b602082019050919050565b5f6020820190508181035f8301526123a48161236b565b9050919050565b7f455243313135353a2063616c6c6572206973206e6f7420746f6b656e206f776e5f8201527f6572206e6f7220617070726f7665640000000000000000000000000000000000602082015250565b5f612405602f83611964565b9150612410826123ab565b604082019050919050565b5f6020820190508181035f830152612432816123f9565b9050919050565b7f455243313135353a2069647320616e6420616d6f756e7473206c656e677468205f8201527f6d69736d61746368000000000000000000000000000000000000000000000000602082015250565b5f612493602883611964565b915061249e82612439565b604082019050919050565b5f6020820190508181035f8301526124c081612487565b9050919050565b7f455243313135353a207472616e7366657220746f20746865207a65726f2061645f8201527f6472657373000000000000000000000000000000000000000000000000000000602082015250565b5f612521602583611964565b915061252c826124c7565b604082019050919050565b5f6020820190508181035f83015261254e81612515565b9050919050565b7f4e487b71000000000000000000000000000000000000000000000000000000005f52603260045260245ffd5b7f455243313135353a20696e73756666696369656e742062616c616e636520666f5f8201527f72207472616e7366657200000000000000000000000000000000000000000000602082015250565b5f6125dc602a83611964565b91506125e782612582565b604082019050919050565b5f6020820190508181035f830152612609816125d0565b9050919050565b7f4e487b71000000000000000000000000000000000000000000000000000000005f52601160045260245ffd5b5f6126478261180e565b91506126528361180e565b925082820190508082111561266a57612669612610565b5b92915050565b5f6040820190508181035f8301526126888185611eb1565b9050818103602083015261269c8184611eb1565b90509392505050565b7f455243313135353a206163636f756e747320616e6420696473206c656e6774685f8201527f206d69736d617463680000000000000000000000000000000000000000000000602082015250565b5f6126ff602983611964565b915061270a826126a5565b604082019050919050565b5f6020820190508181035f83015261272c816126f3565b9050919050565b7f455243313135353a2073657474696e6720617070726f76616c207374617475735f8201527f20666f722073656c660000000000000000000000000000000000000000000000602082015250565b5f61278d602983611964565b915061279882612733565b604082019050919050565b5f6020820190508181035f8301526127ba81612781565b9050919050565b5f6040820190506127d45f83018561187f565b6127e1602083018461187f565b9392505050565b7f455243313135353a206d696e7420746f20746865207a65726f206164647265735f8201527f7300000000000000000000000000000000000000000000000000000000000000602082015250565b5f612842602183611964565b915061284d826127e8565b604082019050919050565b5f6020820190508181035f83015261286f81612836565b9050919050565b61287f816117d3565b82525050565b5f81519050919050565b5f82825260208201905092915050565b5f6128a982612885565b6128b3818561288f565b93506128c3818560208601611974565b6128cc81611982565b840191505092915050565b5f60a0820190506128ea5f830188612876565b6128f76020830187612876565b81810360408301526129098186611eb1565b9050818103606083015261291d8185611eb1565b90508181036080830152612931818461289f565b90509695505050505050565b5f8151905061294b816118d2565b92915050565b5f60208284031215612966576129656117ac565b5b5f6129738482850161293d565b91505092915050565b5f8160e01c9050919050565b5f60033d11156129a45760045f803e6129a15f5161297c565b90505b90565b5f60443d10612a33576129b86117a3565b60043d036004823e80513d602482011167ffffffffffffffff821117156129e0575050612a33565b808201805167ffffffffffffffff8111156129fe5750505050612a33565b80602083010160043d038501811115612a1b575050505050612a33565b612a2a82602001850186611a96565b82955050505050505b90565b7f455243313135353a207472616e7366657220746f206e6f6e2d455243313135355f8201527f526563656976657220696d706c656d656e746572000000000000000000000000602082015250565b5f612a90603483611964565b9150612a9b82612a36565b604082019050919050565b5f6020820190508181035f830152612abd81612a84565b9050919050565b7f455243313135353a204552433131353552656365697665722072656a656374655f8201527f6420746f6b656e73000000000000000000000000000000000000000000000000602082015250565b5f612b1e602883611964565b9150612b2982612ac4565b604082019050919050565b5f6020820190508181035f830152612b4b81612b12565b9050919050565b5f60a082019050612b655f830188612876565b612b726020830187612876565b612b7f604083018661187f565b612b8c606083018561187f565b8181036080830152612b9e818461289f565b9050969550505050505056fe697066733a2f2f516d65536a53696e4870506e6d586d73704d6a776958794e367a533445397a63636172694752336a7863615774712fa2646970667358221220564a9bfd4c6667ea2dc9e263246f694d86a0db0fdc89e44232ebd5f31575ea5364736f6c634300081a0033",
			"opcodes": "PUSH1 0x80 PUSH1 0x40 MSTORE CALLVALUE DUP1 ISZERO PUSH2 0xF JUMPI PUSH0 DUP1 REVERT JUMPDEST POP PUSH1 0x40 MLOAD DUP1 PUSH1 0x40 ADD PUSH1 0x40 MSTORE DUP1 PUSH1 0x8 DUP2 MSTORE PUSH1 0x20 ADD PUSH32 0x4241594331313535000000000000000000000000000000000000000000000000 DUP2 MSTORE POP PUSH1 0x40 MLOAD DUP1 PUSH1 0x40 ADD PUSH1 0x40 MSTORE DUP1 PUSH1 0x8 DUP2 MSTORE PUSH1 0x20 ADD PUSH32 0x4241594331313535000000000000000000000000000000000000000000000000 DUP2 MSTORE POP DUP2 PUSH0 SWAP1 DUP2 PUSH2 0x8A SWAP2 SWAP1 PUSH2 0x2DC JUMP JUMPDEST POP DUP1 PUSH1 0x1 SWAP1 DUP2 PUSH2 0x9A SWAP2 SWAP1 PUSH2 0x2DC JUMP JUMPDEST POP POP POP PUSH2 0x3AB JUMP JUMPDEST PUSH0 DUP2 MLOAD SWAP1 POP SWAP2 SWAP1 POP JUMP JUMPDEST PUSH32 0x4E487B7100000000000000000000000000000000000000000000000000000000 PUSH0 MSTORE PUSH1 0x41 PUSH1 0x4 MSTORE PUSH1 0x24 PUSH0 REVERT JUMPDEST PUSH32 0x4E487B7100000000000000000000000000000000000000000000000000000000 PUSH0 MSTORE PUSH1 0x22 PUSH1 0x4 MSTORE PUSH1 0x24 PUSH0 REVERT JUMPDEST PUSH0 PUSH1 0x2 DUP3 DIV SWAP1 POP PUSH1 0x1 DUP3 AND DUP1 PUSH2 0x11D JUMPI PUSH1 0x7F DUP3 AND SWAP2 POP JUMPDEST PUSH1 0x20 DUP3 LT DUP2 SUB PUSH2 0x130 JUMPI PUSH2 0x12F PUSH2 0xD9 JUMP JUMPDEST JUMPDEST POP SWAP2 SWAP1 POP JUMP JUMPDEST PUSH0 DUP2 SWAP1 POP DUP2 PUSH0 MSTORE PUSH1 0x20 PUSH0 KECCAK256 SWAP1 POP SWAP2 SWAP1 POP JUMP JUMPDEST PUSH0 PUSH1 0x20 PUSH1 0x1F DUP4 ADD DIV SWAP1 POP SWAP2 SWAP1 POP JUMP JUMPDEST PUSH0 DUP3 DUP3 SHL SWAP1 POP SWAP3 SWAP2 POP POP JUMP JUMPDEST PUSH0 PUSH1 0x8 DUP4 MUL PUSH2 0x192 PUSH32 0xFFFFFFFFFFFFFFFFFFFFFFFFFFFFFFFFFFFFFFFFFFFFFFFFFFFFFFFFFFFFFFFF DUP3 PUSH2 0x157 JUMP JUMPDEST PUSH2 0x19C DUP7 DUP4 PUSH2 0x157 JUMP JUMPDEST SWAP6 POP DUP1 NOT DUP5 AND SWAP4 POP DUP1 DUP7 AND DUP5 OR SWAP3 POP POP POP SWAP4 SWAP3 POP POP POP JUMP JUMPDEST PUSH0 DUP2 SWAP1 POP SWAP2 SWAP1 POP JUMP JUMPDEST PUSH0 DUP2 SWAP1 POP SWAP2 SWAP1 POP JUMP JUMPDEST PUSH0 PUSH2 0x1E0 PUSH2 0x1DB PUSH2 0x1D6 DUP5 PUSH2 0x1B4 JUMP JUMPDEST PUSH2 0x1BD JUMP JUMPDEST PUSH2 0x1B4 JUMP JUMPDEST SWAP1 POP SWAP2 SWAP1 POP JUMP JUMPDEST PUSH0 DUP2 SWAP1 POP SWAP2 SWAP1 POP JUMP JUMPDEST PUSH2 0x1F9 DUP4 PUSH2 0x1C6 JUMP JUMPDEST PUSH2 0x20D PUSH2 0x205 DUP3 PUSH2 0x1E7 JUMP JUMPDEST DUP5 DUP5 SLOAD PUSH2 0x163 JUMP JUMPDEST DUP3 SSTORE POP POP POP POP JUMP JUMPDEST PUSH0 SWAP1 JUMP JUMPDEST PUSH2 0x221 PUSH2 0x215 JUMP JUMPDEST PUSH2 0x22C DUP2 DUP5 DUP5 PUSH2 0x1F0 JUMP JUMPDEST POP POP POP JUMP JUMPDEST JUMPDEST DUP2 DUP2 LT ISZERO PUSH2 0x24F JUMPI PUSH2 0x244 PUSH0 DUP3 PUSH2 0x219 JUMP JUMPDEST PUSH1 0x1 DUP2 ADD SWAP1 POP PUSH2 0x232 JUMP JUMPDEST POP POP JUMP JUMPDEST PUSH1 0x1F DUP3 GT ISZERO PUSH2 0x294 JUMPI PUSH2 0x265 DUP2 PUSH2 0x136 JUMP JUMPDEST PUSH2 0x26E DUP5 PUSH2 0x148 JUMP JUMPDEST DUP2 ADD PUSH1 0x20 DUP6 LT ISZERO PUSH2 0x27D JUMPI DUP2 SWAP1 POP JUMPDEST PUSH2 0x291 PUSH2 0x289 DUP6 PUSH2 0x148 JUMP JUMPDEST DUP4 ADD DUP3 PUSH2 0x231 JUMP JUMPDEST POP POP JUMPDEST POP POP POP JUMP JUMPDEST PUSH0 DUP3 DUP3 SHR SWAP1 POP SWAP3 SWAP2 POP POP JUMP JUMPDEST PUSH0 PUSH2 0x2B4 PUSH0 NOT DUP5 PUSH1 0x8 MUL PUSH2 0x299 JUMP JUMPDEST NOT DUP1 DUP4 AND SWAP2 POP POP SWAP3 SWAP2 POP POP JUMP JUMPDEST PUSH0 PUSH2 0x2CC DUP4 DUP4 PUSH2 0x2A5 JUMP JUMPDEST SWAP2 POP DUP3 PUSH1 0x2 MUL DUP3 OR SWAP1 POP SWAP3 SWAP2 POP POP JUMP JUMPDEST PUSH2 0x2E5 DUP3 PUSH2 0xA2 JUMP JUMPDEST PUSH8 0xFFFFFFFFFFFFFFFF DUP2 GT ISZERO PUSH2 0x2FE JUMPI PUSH2 0x2FD PUSH2 0xAC JUMP JUMPDEST JUMPDEST PUSH2 0x308 DUP3 SLOAD PUSH2 0x106 JUMP JUMPDEST PUSH2 0x313 DUP3 DUP3 DUP6 PUSH2 0x253 JUMP JUMPDEST PUSH0 PUSH1 0x20 SWAP1 POP PUSH1 0x1F DUP4 GT PUSH1 0x1 DUP2 EQ PUSH2 0x344 JUMPI PUSH0 DUP5 ISZERO PUSH2 0x332 JUMPI DUP3 DUP8 ADD MLOAD SWAP1 POP JUMPDEST PUSH2 0x33C DUP6 DUP3 PUSH2 0x2C1 JUMP JUMPDEST DUP7 SSTORE POP PUSH2 0x3A3 JUMP JUMPDEST PUSH1 0x1F NOT DUP5 AND PUSH2 0x352 DUP7 PUSH2 0x136 JUMP JUMPDEST PUSH0 JUMPDEST DUP3 DUP2 LT ISZERO PUSH2 0x379 JUMPI DUP5 DUP10 ADD MLOAD DUP3 SSTORE PUSH1 0x1 DUP3 ADD SWAP2 POP PUSH1 0x20 DUP6 ADD SWAP5 POP PUSH1 0x20 DUP2 ADD SWAP1 POP PUSH2 0x354 JUMP JUMPDEST DUP7 DUP4 LT ISZERO PUSH2 0x396 JUMPI DUP5 DUP10 ADD MLOAD PUSH2 0x392 PUSH1 0x1F DUP10 AND DUP3 PUSH2 0x2A5 JUMP JUMPDEST DUP4 SSTORE POP JUMPDEST PUSH1 0x1 PUSH1 0x2 DUP9 MUL ADD DUP9 SSTORE POP POP POP JUMPDEST POP POP POP POP POP POP JUMP JUMPDEST PUSH2 0x2C16 DUP1 PUSH2 0x3B8 PUSH0 CODECOPY PUSH0 RETURN INVALID PUSH1 0x80 PUSH1 0x40 MSTORE CALLVALUE DUP1 ISZERO PUSH2 0xF JUMPI PUSH0 DUP1 REVERT JUMPDEST POP PUSH1 0x4 CALLDATASIZE LT PUSH2 0xB1 JUMPI PUSH0 CALLDATALOAD PUSH1 0xE0 SHR DUP1 PUSH4 0x4E1273F4 GT PUSH2 0x6F JUMPI DUP1 PUSH4 0x4E1273F4 EQ PUSH2 0x19B JUMPI DUP1 PUSH4 0x95D89B41 EQ PUSH2 0x1CB JUMPI DUP1 PUSH4 0xA22CB465 EQ PUSH2 0x1E9 JUMPI DUP1 PUSH4 0xD81D0A15 EQ PUSH2 0x205 JUMPI DUP1 PUSH4 0xE985E9C5 EQ PUSH2 0x221 JUMPI DUP1 PUSH4 0xF242432A EQ PUSH2 0x251 JUMPI PUSH2 0xB1 JUMP JUMPDEST DUP1 PUSH3 0xFDD58E EQ PUSH2 0xB5 JUMPI DUP1 PUSH4 0x1FFC9A7 EQ PUSH2 0xE5 JUMPI DUP1 PUSH4 0x6FDDE03 EQ PUSH2 0x115 JUMPI DUP1 PUSH4 0xE89341C EQ PUSH2 0x133 JUMPI DUP1 PUSH4 0x156E29F6 EQ PUSH2 0x163 JUMPI DUP1 PUSH4 0x2EB2C2D6 EQ PUSH2 0x17F JUMPI JUMPDEST PUSH0 DUP1 REVERT JUMPDEST PUSH2 0xCF PUSH1 0x4 DUP1 CALLDATASIZE SUB DUP2 ADD SWAP1 PUSH2 0xCA SWAP2 SWAP1 PUSH2 0x1841 JUMP JUMPDEST PUSH2 0x26D JUMP JUMPDEST PUSH1 0x40 MLOAD PUSH2 0xDC SWAP2 SWAP1 PUSH2 0x188E JUMP JUMPDEST PUSH1 0x40 MLOAD DUP1 SWAP2 SUB SWAP1 RETURN JUMPDEST PUSH2 0xFF PUSH1 0x4 DUP1 CALLDATASIZE SUB DUP2 ADD SWAP1 PUSH2 0xFA SWAP2 SWAP1 PUSH2 0x18FC JUMP JUMPDEST PUSH2 0x331 JUMP JUMPDEST PUSH1 0x40 MLOAD PUSH2 0x10C SWAP2 SWAP1 PUSH2 0x1941 JUMP JUMPDEST PUSH1 0x40 MLOAD DUP1 SWAP2 SUB SWAP1 RETURN JUMPDEST PUSH2 0x11D PUSH2 0x46A JUMP JUMPDEST PUSH1 0x40 MLOAD PUSH2 0x12A SWAP2 SWAP1 PUSH2 0x19CA JUMP JUMPDEST PUSH1 0x40 MLOAD DUP1 SWAP2 SUB SWAP1 RETURN JUMPDEST PUSH2 0x14D PUSH1 0x4 DUP1 CALLDATASIZE SUB DUP2 ADD SWAP1 PUSH2 0x148 SWAP2 SWAP1 PUSH2 0x19EA JUMP JUMPDEST PUSH2 0x4F5 JUMP JUMPDEST PUSH1 0x40 MLOAD PUSH2 0x15A SWAP2 SWAP1 PUSH2 0x19CA JUMP JUMPDEST PUSH1 0x40 MLOAD DUP1 SWAP2 SUB SWAP1 RETURN JUMPDEST PUSH2 0x17D PUSH1 0x4 DUP1 CALLDATASIZE SUB DUP2 ADD SWAP1 PUSH2 0x178 SWAP2 SWAP1 PUSH2 0x1A15 JUMP JUMPDEST PUSH2 0x5C3 JUMP JUMPDEST STOP JUMPDEST PUSH2 0x199 PUSH1 0x4 DUP1 CALLDATASIZE SUB DUP2 ADD SWAP1 PUSH2 0x194 SWAP2 SWAP1 PUSH2 0x1C55 JUMP JUMPDEST PUSH2 0x626 JUMP JUMPDEST STOP JUMPDEST PUSH2 0x1B5 PUSH1 0x4 DUP1 CALLDATASIZE SUB DUP2 ADD SWAP1 PUSH2 0x1B0 SWAP2 SWAP1 PUSH2 0x1DE0 JUMP JUMPDEST PUSH2 0x98D JUMP JUMPDEST PUSH1 0x40 MLOAD PUSH2 0x1C2 SWAP2 SWAP1 PUSH2 0x1F0D JUMP JUMPDEST PUSH1 0x40 MLOAD DUP1 SWAP2 SUB SWAP1 RETURN JUMPDEST PUSH2 0x1D3 PUSH2 0xA9E JUMP JUMPDEST PUSH1 0x40 MLOAD PUSH2 0x1E0 SWAP2 SWAP1 PUSH2 0x19CA JUMP JUMPDEST PUSH1 0x40 MLOAD DUP1 SWAP2 SUB SWAP1 RETURN JUMPDEST PUSH2 0x203 PUSH1 0x4 DUP1 CALLDATASIZE SUB DUP2 ADD SWAP1 PUSH2 0x1FE SWAP2 SWAP1 PUSH2 0x1F57 JUMP JUMPDEST PUSH2 0xB2A JUMP JUMPDEST STOP JUMPDEST PUSH2 0x21F PUSH1 0x4 DUP1 CALLDATASIZE SUB DUP2 ADD SWAP1 PUSH2 0x21A SWAP2 SWAP1 PUSH2 0x1F95 JUMP JUMPDEST PUSH2 0xC90 JUMP JUMPDEST STOP JUMPDEST PUSH2 0x23B PUSH1 0x4 DUP1 CALLDATASIZE SUB DUP2 ADD SWAP1 PUSH2 0x236 SWAP2 SWAP1 PUSH2 0x201D JUMP JUMPDEST PUSH2 0xD26 JUMP JUMPDEST PUSH1 0x40 MLOAD PUSH2 0x248 SWAP2 SWAP1 PUSH2 0x1941 JUMP JUMPDEST PUSH1 0x40 MLOAD DUP1 SWAP2 SUB SWAP1 RETURN JUMPDEST PUSH2 0x26B PUSH1 0x4 DUP1 CALLDATASIZE SUB DUP2 ADD SWAP1 PUSH2 0x266 SWAP2 SWAP1 PUSH2 0x205B JUMP JUMPDEST PUSH2 0xDB4 JUMP JUMPDEST STOP JUMPDEST PUSH0 DUP1 PUSH20 0xFFFFFFFFFFFFFFFFFFFFFFFFFFFFFFFFFFFFFFFF AND DUP4 PUSH20 0xFFFFFFFFFFFFFFFFFFFFFFFFFFFFFFFFFFFFFFFF AND SUB PUSH2 0x2DC JUMPI PUSH1 0x40 MLOAD PUSH32 0x8C379A000000000000000000000000000000000000000000000000000000000 DUP2 MSTORE PUSH1 0x4 ADD PUSH2 0x2D3 SWAP1 PUSH2 0x215E JUMP JUMPDEST PUSH1 0x40 MLOAD DUP1 SWAP2 SUB SWAP1 REVERT JUMPDEST PUSH1 0x2 PUSH0 DUP4 DUP2 MSTORE PUSH1 0x20 ADD SWAP1 DUP2 MSTORE PUSH1 0x20 ADD PUSH0 KECCAK256 PUSH0 DUP5 PUSH20 0xFFFFFFFFFFFFFFFFFFFFFFFFFFFFFFFFFFFFFFFF AND PUSH20 0xFFFFFFFFFFFFFFFFFFFFFFFFFFFFFFFFFFFFFFFF AND DUP2 MSTORE PUSH1 0x20 ADD SWAP1 DUP2 MSTORE PUSH1 0x20 ADD PUSH0 KECCAK256 SLOAD SWAP1 POP SWAP3 SWAP2 POP POP JUMP JUMPDEST PUSH0 PUSH32 0xD9B67A2600000000000000000000000000000000000000000000000000000000 PUSH28 0xFFFFFFFFFFFFFFFFFFFFFFFFFFFFFFFFFFFFFFFFFFFFFFFFFFFFFFFF NOT AND DUP3 PUSH28 0xFFFFFFFFFFFFFFFFFFFFFFFFFFFFFFFFFFFFFFFFFFFFFFFFFFFFFFFF NOT AND EQ DUP1 PUSH2 0x3FB JUMPI POP PUSH32 0xE89341C00000000000000000000000000000000000000000000000000000000 PUSH28 0xFFFFFFFFFFFFFFFFFFFFFFFFFFFFFFFFFFFFFFFFFFFFFFFFFFFFFFFF NOT AND DUP3 PUSH28 0xFFFFFFFFFFFFFFFFFFFFFFFFFFFFFFFFFFFFFFFFFFFFFFFFFFFFFFFF NOT AND EQ JUMPDEST DUP1 PUSH2 0x463 JUMPI POP PUSH32 0x1FFC9A700000000000000000000000000000000000000000000000000000000 PUSH28 0xFFFFFFFFFFFFFFFFFFFFFFFFFFFFFFFFFFFFFFFFFFFFFFFFFFFFFFFF NOT AND DUP3 PUSH28 0xFFFFFFFFFFFFFFFFFFFFFFFFFFFFFFFFFFFFFFFFFFFFFFFFFFFFFFFF NOT AND EQ JUMPDEST SWAP1 POP SWAP2 SWAP1 POP JUMP JUMPDEST PUSH0 DUP1 SLOAD PUSH2 0x476 SWAP1 PUSH2 0x21A9 JUMP JUMPDEST DUP1 PUSH1 0x1F ADD PUSH1 0x20 DUP1 SWAP2 DIV MUL PUSH1 0x20 ADD PUSH1 0x40 MLOAD SWAP1 DUP2 ADD PUSH1 0x40 MSTORE DUP1 SWAP3 SWAP2 SWAP1 DUP2 DUP2 MSTORE PUSH1 0x20 ADD DUP3 DUP1 SLOAD PUSH2 0x4A2 SWAP1 PUSH2 0x21A9 JUMP JUMPDEST DUP1 ISZERO PUSH2 0x4ED JUMPI DUP1 PUSH1 0x1F LT PUSH2 0x4C4 JUMPI PUSH2 0x100 DUP1 DUP4 SLOAD DIV MUL DUP4 MSTORE SWAP2 PUSH1 0x20 ADD SWAP2 PUSH2 0x4ED JUMP JUMPDEST DUP3 ADD SWAP2 SWAP1 PUSH0 MSTORE PUSH1 0x20 PUSH0 KECCAK256 SWAP1 JUMPDEST DUP2 SLOAD DUP2 MSTORE SWAP1 PUSH1 0x1 ADD SWAP1 PUSH1 0x20 ADD DUP1 DUP4 GT PUSH2 0x4D0 JUMPI DUP3 SWAP1 SUB PUSH1 0x1F AND DUP3 ADD SWAP2 JUMPDEST POP POP POP POP POP DUP2 JUMP JUMPDEST PUSH1 0x60 PUSH0 PUSH2 0x500 PUSH2 0x1082 JUMP JUMPDEST SWAP1 POP PUSH0 DUP2 MLOAD GT PUSH2 0x51E JUMPI PUSH1 0x40 MLOAD DUP1 PUSH1 0x20 ADD PUSH1 0x40 MSTORE DUP1 PUSH0 DUP2 MSTORE POP PUSH2 0x5BB JUMP JUMPDEST DUP1 DUP4 PUSH20 0x0 PUSH4 0x6900A3AE SWAP1 SWAP2 PUSH1 0x40 MLOAD DUP3 PUSH4 0xFFFFFFFF AND PUSH1 0xE0 SHL DUP2 MSTORE PUSH1 0x4 ADD PUSH2 0x558 SWAP2 SWAP1 PUSH2 0x21E8 JUMP JUMPDEST PUSH0 PUSH1 0x40 MLOAD DUP1 DUP4 SUB DUP2 DUP7 GAS DELEGATECALL ISZERO DUP1 ISZERO PUSH2 0x572 JUMPI RETURNDATASIZE PUSH0 DUP1 RETURNDATACOPY RETURNDATASIZE PUSH0 REVERT JUMPDEST POP POP POP POP PUSH1 0x40 MLOAD RETURNDATASIZE PUSH0 DUP3 RETURNDATACOPY RETURNDATASIZE PUSH1 0x1F NOT PUSH1 0x1F DUP3 ADD AND DUP3 ADD DUP1 PUSH1 0x40 MSTORE POP DUP2 ADD SWAP1 PUSH2 0x59A SWAP2 SWAP1 PUSH2 0x229F JUMP JUMPDEST PUSH1 0x40 MLOAD PUSH1 0x20 ADD PUSH2 0x5AB SWAP3 SWAP2 SWAP1 PUSH2 0x2320 JUMP JUMPDEST PUSH1 0x40 MLOAD PUSH1 0x20 DUP2 DUP4 SUB SUB DUP2 MSTORE SWAP1 PUSH1 0x40 MSTORE JUMPDEST SWAP2 POP POP SWAP2 SWAP1 POP JUMP JUMPDEST PUSH2 0x2710 DUP3 LT PUSH2 0x607 JUMPI PUSH1 0x40 MLOAD PUSH32 0x8C379A000000000000000000000000000000000000000000000000000000000 DUP2 MSTORE PUSH1 0x4 ADD PUSH2 0x5FE SWAP1 PUSH2 0x238D JUMP JUMPDEST PUSH1 0x40 MLOAD DUP1 SWAP2 SUB SWAP1 REVERT JUMPDEST PUSH2 0x621 DUP4 DUP4 DUP4 PUSH1 0x40 MLOAD DUP1 PUSH1 0x20 ADD PUSH1 0x40 MSTORE DUP1 PUSH0 DUP2 MSTORE POP PUSH2 0x10A2 JUMP JUMPDEST POP POP POP JUMP JUMPDEST PUSH0 CALLER SWAP1 POP DUP1 PUSH20 0xFFFFFFFFFFFFFFFFFFFFFFFFFFFFFFFFFFFFFFFF AND DUP7 PUSH20 0xFFFFFFFFFFFFFFFFFFFFFFFFFFFFFFFFFFFFFFFF AND EQ DUP1 PUSH2 0x66A JUMPI POP PUSH2 0x669 DUP7 DUP3 PUSH2 0xD26 JUMP JUMPDEST JUMPDEST PUSH2 0x6A9 JUMPI PUSH1 0x40 MLOAD PUSH32 0x8C379A000000000000000000000000000000000000000000000000000000000 DUP2 MSTORE PUSH1 0x4 ADD PUSH2 0x6A0 SWAP1 PUSH2 0x241B JUMP JUMPDEST PUSH1 0x40 MLOAD DUP1 SWAP2 SUB SWAP1 REVERT JUMPDEST DUP3 MLOAD DUP5 MLOAD EQ PUSH2 0x6ED JUMPI PUSH1 0x40 MLOAD PUSH32 0x8C379A000000000000000000000000000000000000000000000000000000000 DUP2 MSTORE PUSH1 0x4 ADD PUSH2 0x6E4 SWAP1 PUSH2 0x24A9 JUMP JUMPDEST PUSH1 0x40 MLOAD DUP1 SWAP2 SUB SWAP1 REVERT JUMPDEST PUSH0 PUSH20 0xFFFFFFFFFFFFFFFFFFFFFFFFFFFFFFFFFFFFFFFF AND DUP6 PUSH20 0xFFFFFFFFFFFFFFFFFFFFFFFFFFFFFFFFFFFFFFFF AND SUB PUSH2 0x75B JUMPI PUSH1 0x40 MLOAD PUSH32 0x8C379A000000000000000000000000000000000000000000000000000000000 DUP2 MSTORE PUSH1 0x4 ADD PUSH2 0x752 SWAP1 PUSH2 0x2537 JUMP JUMPDEST PUSH1 0x40 MLOAD DUP1 SWAP2 SUB SWAP1 REVERT JUMPDEST PUSH0 JUMPDEST DUP5 MLOAD DUP2 LT ISZERO PUSH2 0x8F8 JUMPI PUSH0 DUP6 DUP3 DUP2 MLOAD DUP2 LT PUSH2 0x77A JUMPI PUSH2 0x779 PUSH2 0x2555 JUMP JUMPDEST JUMPDEST PUSH1 0x20 MUL PUSH1 0x20 ADD ADD MLOAD SWAP1 POP PUSH0 DUP6 DUP4 DUP2 MLOAD DUP2 LT PUSH2 0x798 JUMPI PUSH2 0x797 PUSH2 0x2555 JUMP JUMPDEST JUMPDEST PUSH1 0x20 MUL PUSH1 0x20 ADD ADD MLOAD SWAP1 POP PUSH0 PUSH1 0x2 PUSH0 DUP5 DUP2 MSTORE PUSH1 0x20 ADD SWAP1 DUP2 MSTORE PUSH1 0x20 ADD PUSH0 KECCAK256 PUSH0 DUP12 PUSH20 0xFFFFFFFFFFFFFFFFFFFFFFFFFFFFFFFFFFFFFFFF AND PUSH20 0xFFFFFFFFFFFFFFFFFFFFFFFFFFFFFFFFFFFFFFFF AND DUP2 MSTORE PUSH1 0x20 ADD SWAP1 DUP2 MSTORE PUSH1 0x20 ADD PUSH0 KECCAK256 SLOAD SWAP1 POP DUP2 DUP2 LT ISZERO PUSH2 0x835 JUMPI PUSH1 0x40 MLOAD PUSH32 0x8C379A000000000000000000000000000000000000000000000000000000000 DUP2 MSTORE PUSH1 0x4 ADD PUSH2 0x82C SWAP1 PUSH2 0x25F2 JUMP JUMPDEST PUSH1 0x40 MLOAD DUP1 SWAP2 SUB SWAP1 REVERT JUMPDEST DUP2 DUP2 SUB PUSH1 0x2 PUSH0 DUP6 DUP2 MSTORE PUSH1 0x20 ADD SWAP1 DUP2 MSTORE PUSH1 0x20 ADD PUSH0 KECCAK256 PUSH0 DUP13 PUSH20 0xFFFFFFFFFFFFFFFFFFFFFFFFFFFFFFFFFFFFFFFF AND PUSH20 0xFFFFFFFFFFFFFFFFFFFFFFFFFFFFFFFFFFFFFFFF AND DUP2 MSTORE PUSH1 0x20 ADD SWAP1 DUP2 MSTORE PUSH1 0x20 ADD PUSH0 KECCAK256 DUP2 SWAP1 SSTORE POP DUP2 PUSH1 0x2 PUSH0 DUP6 DUP2 MSTORE PUSH1 0x20 ADD SWAP1 DUP2 MSTORE PUSH1 0x20 ADD PUSH0 KECCAK256 PUSH0 DUP12 PUSH20 0xFFFFFFFFFFFFFFFFFFFFFFFFFFFFFFFFFFFFFFFF AND PUSH20 0xFFFFFFFFFFFFFFFFFFFFFFFFFFFFFFFFFFFFFFFF AND DUP2 MSTORE PUSH1 0x20 ADD SWAP1 DUP2 MSTORE PUSH1 0x20 ADD PUSH0 KECCAK256 PUSH0 DUP3 DUP3 SLOAD PUSH2 0x8E3 SWAP2 SWAP1 PUSH2 0x263D JUMP JUMPDEST SWAP3 POP POP DUP2 SWAP1 SSTORE POP POP POP POP DUP1 PUSH1 0x1 ADD SWAP1 POP PUSH2 0x75D JUMP JUMPDEST POP DUP5 PUSH20 0xFFFFFFFFFFFFFFFFFFFFFFFFFFFFFFFFFFFFFFFF AND DUP7 PUSH20 0xFFFFFFFFFFFFFFFFFFFFFFFFFFFFFFFFFFFFFFFF AND DUP3 PUSH20 0xFFFFFFFFFFFFFFFFFFFFFFFFFFFFFFFFFFFFFFFF AND PUSH32 0x4A39DC06D4C0DBC64B70AF90FD698A233A518AA5D07E595D983B8C0526C8F7FB DUP8 DUP8 PUSH1 0x40 MLOAD PUSH2 0x96F SWAP3 SWAP2 SWAP1 PUSH2 0x2670 JUMP JUMPDEST PUSH1 0x40 MLOAD DUP1 SWAP2 SUB SWAP1 LOG4 PUSH2 0x985 DUP2 DUP8 DUP8 DUP8 DUP8 DUP8 PUSH2 0x1209 JUMP JUMPDEST POP POP POP POP POP POP JUMP JUMPDEST PUSH1 0x60 DUP2 MLOAD DUP4 MLOAD EQ PUSH2 0x9D3 JUMPI PUSH1 0x40 MLOAD PUSH32 0x8C379A000000000000000000000000000000000000000000000000000000000 DUP2 MSTORE PUSH1 0x4 ADD PUSH2 0x9CA SWAP1 PUSH2 0x2715 JUMP JUMPDEST PUSH1 0x40 MLOAD DUP1 SWAP2 SUB SWAP1 REVERT JUMPDEST PUSH0 DUP4 MLOAD PUSH8 0xFFFFFFFFFFFFFFFF DUP2 GT ISZERO PUSH2 0x9EF JUMPI PUSH2 0x9EE PUSH2 0x1A69 JUMP JUMPDEST JUMPDEST PUSH1 0x40 MLOAD SWAP1 DUP1 DUP3 MSTORE DUP1 PUSH1 0x20 MUL PUSH1 0x20 ADD DUP3 ADD PUSH1 0x40 MSTORE DUP1 ISZERO PUSH2 0xA1D JUMPI DUP2 PUSH1 0x20 ADD PUSH1 0x20 DUP3 MUL DUP1 CALLDATASIZE DUP4 CALLDATACOPY DUP1 DUP3 ADD SWAP2 POP POP SWAP1 POP JUMPDEST POP SWAP1 POP PUSH0 JUMPDEST DUP5 MLOAD DUP2 LT ISZERO PUSH2 0xA93 JUMPI PUSH2 0xA69 DUP6 DUP3 DUP2 MLOAD DUP2 LT PUSH2 0xA41 JUMPI PUSH2 0xA40 PUSH2 0x2555 JUMP JUMPDEST JUMPDEST PUSH1 0x20 MUL PUSH1 0x20 ADD ADD MLOAD DUP6 DUP4 DUP2 MLOAD DUP2 LT PUSH2 0xA5C JUMPI PUSH2 0xA5B PUSH2 0x2555 JUMP JUMPDEST JUMPDEST PUSH1 0x20 MUL PUSH1 0x20 ADD ADD MLOAD PUSH2 0x26D JUMP JUMPDEST DUP3 DUP3 DUP2 MLOAD DUP2 LT PUSH2 0xA7C JUMPI PUSH2 0xA7B PUSH2 0x2555 JUMP JUMPDEST JUMPDEST PUSH1 0x20 MUL PUSH1 0x20 ADD ADD DUP2 DUP2 MSTORE POP POP DUP1 PUSH1 0x1 ADD SWAP1 POP PUSH2 0xA22 JUMP JUMPDEST POP DUP1 SWAP2 POP POP SWAP3 SWAP2 POP POP JUMP JUMPDEST PUSH1 0x1 DUP1 SLOAD PUSH2 0xAAB SWAP1 PUSH2 0x21A9 JUMP JUMPDEST DUP1 PUSH1 0x1F ADD PUSH1 0x20 DUP1 SWAP2 DIV MUL PUSH1 0x20 ADD PUSH1 0x40 MLOAD SWAP1 DUP2 ADD PUSH1 0x40 MSTORE DUP1 SWAP3 SWAP2 SWAP1 DUP2 DUP2 MSTORE PUSH1 0x20 ADD DUP3 DUP1 SLOAD PUSH2 0xAD7 SWAP1 PUSH2 0x21A9 JUMP JUMPDEST DUP1 ISZERO PUSH2 0xB22 JUMPI DUP1 PUSH1 0x1F LT PUSH2 0xAF9 JUMPI PUSH2 0x100 DUP1 DUP4 SLOAD DIV MUL DUP4 MSTORE SWAP2 PUSH1 0x20 ADD SWAP2 PUSH2 0xB22 JUMP JUMPDEST DUP3 ADD SWAP2 SWAP1 PUSH0 MSTORE PUSH1 0x20 PUSH0 KECCAK256 SWAP1 JUMPDEST DUP2 SLOAD DUP2 MSTORE SWAP1 PUSH1 0x1 ADD SWAP1 PUSH1 0x20 ADD DUP1 DUP4 GT PUSH2 0xB05 JUMPI DUP3 SWAP1 SUB PUSH1 0x1F AND DUP3 ADD SWAP2 JUMPDEST POP POP POP POP POP DUP2 JUMP JUMPDEST DUP2 PUSH20 0xFFFFFFFFFFFFFFFFFFFFFFFFFFFFFFFFFFFFFFFF AND CALLER PUSH20 0xFFFFFFFFFFFFFFFFFFFFFFFFFFFFFFFFFFFFFFFF AND SUB PUSH2 0xB98 JUMPI PUSH1 0x40 MLOAD PUSH32 0x8C379A000000000000000000000000000000000000000000000000000000000 DUP2 MSTORE PUSH1 0x4 ADD PUSH2 0xB8F SWAP1 PUSH2 0x27A3 JUMP JUMPDEST PUSH1 0x40 MLOAD DUP1 SWAP2 SUB SWAP1 REVERT JUMPDEST DUP1 PUSH1 0x3 PUSH0 CALLER PUSH20 0xFFFFFFFFFFFFFFFFFFFFFFFFFFFFFFFFFFFFFFFF AND PUSH20 0xFFFFFFFFFFFFFFFFFFFFFFFFFFFFFFFFFFFFFFFF AND DUP2 MSTORE PUSH1 0x20 ADD SWAP1 DUP2 MSTORE PUSH1 0x20 ADD PUSH0 KECCAK256 PUSH0 DUP5 PUSH20 0xFFFFFFFFFFFFFFFFFFFFFFFFFFFFFFFFFFFFFFFF AND PUSH20 0xFFFFFFFFFFFFFFFFFFFFFFFFFFFFFFFFFFFFFFFF AND DUP2 MSTORE PUSH1 0x20 ADD SWAP1 DUP2 MSTORE PUSH1 0x20 ADD PUSH0 KECCAK256 PUSH0 PUSH2 0x100 EXP DUP2 SLOAD DUP2 PUSH1 0xFF MUL NOT AND SWAP1 DUP4 ISZERO ISZERO MUL OR SWAP1 SSTORE POP DUP2 PUSH20 0xFFFFFFFFFFFFFFFFFFFFFFFFFFFFFFFFFFFFFFFF AND CALLER PUSH20 0xFFFFFFFFFFFFFFFFFFFFFFFFFFFFFFFFFFFFFFFF AND PUSH32 0x17307EAB39AB6107E8899845AD3D59BD9653F200F220920489CA2B5937696C31 DUP4 PUSH1 0x40 MLOAD PUSH2 0xC84 SWAP2 SWAP1 PUSH2 0x1941 JUMP JUMPDEST PUSH1 0x40 MLOAD DUP1 SWAP2 SUB SWAP1 LOG3 POP POP JUMP JUMPDEST PUSH0 JUMPDEST DUP3 MLOAD DUP2 LT ISZERO PUSH2 0xD06 JUMPI PUSH2 0x2710 DUP4 DUP3 DUP2 MLOAD DUP2 LT PUSH2 0xCB1 JUMPI PUSH2 0xCB0 PUSH2 0x2555 JUMP JUMPDEST JUMPDEST PUSH1 0x20 MUL PUSH1 0x20 ADD ADD MLOAD LT PUSH2 0xCF9 JUMPI PUSH1 0x40 MLOAD PUSH32 0x8C379A000000000000000000000000000000000000000000000000000000000 DUP2 MSTORE PUSH1 0x4 ADD PUSH2 0xCF0 SWAP1 PUSH2 0x238D JUMP JUMPDEST PUSH1 0x40 MLOAD DUP1 SWAP2 SUB SWAP1 REVERT JUMPDEST DUP1 DUP1 PUSH1 0x1 ADD SWAP2 POP POP PUSH2 0xC92 JUMP JUMPDEST POP PUSH2 0xD21 DUP4 DUP4 DUP4 PUSH1 0x40 MLOAD DUP1 PUSH1 0x20 ADD PUSH1 0x40 MSTORE DUP1 PUSH0 DUP2 MSTORE POP PUSH2 0x13DA JUMP JUMPDEST POP POP POP JUMP JUMPDEST PUSH0 PUSH1 0x3 PUSH0 DUP5 PUSH20 0xFFFFFFFFFFFFFFFFFFFFFFFFFFFFFFFFFFFFFFFF AND PUSH20 0xFFFFFFFFFFFFFFFFFFFFFFFFFFFFFFFFFFFFFFFF AND DUP2 MSTORE PUSH1 0x20 ADD SWAP1 DUP2 MSTORE PUSH1 0x20 ADD PUSH0 KECCAK256 PUSH0 DUP4 PUSH20 0xFFFFFFFFFFFFFFFFFFFFFFFFFFFFFFFFFFFFFFFF AND PUSH20 0xFFFFFFFFFFFFFFFFFFFFFFFFFFFFFFFFFFFFFFFF AND DUP2 MSTORE PUSH1 0x20 ADD SWAP1 DUP2 MSTORE PUSH1 0x20 ADD PUSH0 KECCAK256 PUSH0 SWAP1 SLOAD SWAP1 PUSH2 0x100 EXP SWAP1 DIV PUSH1 0xFF AND SWAP1 POP SWAP3 SWAP2 POP POP JUMP JUMPDEST PUSH0 CALLER SWAP1 POP DUP1 PUSH20 0xFFFFFFFFFFFFFFFFFFFFFFFFFFFFFFFFFFFFFFFF AND DUP7 PUSH20 0xFFFFFFFFFFFFFFFFFFFFFFFFFFFFFFFFFFFFFFFF AND EQ DUP1 PUSH2 0xDF8 JUMPI POP PUSH2 0xDF7 DUP7 DUP3 PUSH2 0xD26 JUMP JUMPDEST JUMPDEST PUSH2 0xE37 JUMPI PUSH1 0x40 MLOAD PUSH32 0x8C379A000000000000000000000000000000000000000000000000000000000 DUP2 MSTORE PUSH1 0x4 ADD PUSH2 0xE2E SWAP1 PUSH2 0x241B JUMP JUMPDEST PUSH1 0x40 MLOAD DUP1 SWAP2 SUB SWAP1 REVERT JUMPDEST PUSH0 PUSH20 0xFFFFFFFFFFFFFFFFFFFFFFFFFFFFFFFFFFFFFFFF AND DUP6 PUSH20 0xFFFFFFFFFFFFFFFFFFFFFFFFFFFFFFFFFFFFFFFF AND SUB PUSH2 0xEA5 JUMPI PUSH1 0x40 MLOAD PUSH32 0x8C379A000000000000000000000000000000000000000000000000000000000 DUP2 MSTORE PUSH1 0x4 ADD PUSH2 0xE9C SWAP1 PUSH2 0x2537 JUMP JUMPDEST PUSH1 0x40 MLOAD DUP1 SWAP2 SUB SWAP1 REVERT JUMPDEST PUSH0 PUSH1 0x2 PUSH0 DUP7 DUP2 MSTORE PUSH1 0x20 ADD SWAP1 DUP2 MSTORE PUSH1 0x20 ADD PUSH0 KECCAK256 PUSH0 DUP9 PUSH20 0xFFFFFFFFFFFFFFFFFFFFFFFFFFFFFFFFFFFFFFFF AND PUSH20 0xFFFFFFFFFFFFFFFFFFFFFFFFFFFFFFFFFFFFFFFF AND DUP2 MSTORE PUSH1 0x20 ADD SWAP1 DUP2 MSTORE PUSH1 0x20 ADD PUSH0 KECCAK256 SLOAD SWAP1 POP DUP4 DUP2 LT ISZERO PUSH2 0xF38 JUMPI PUSH1 0x40 MLOAD PUSH32 0x8C379A000000000000000000000000000000000000000000000000000000000 DUP2 MSTORE PUSH1 0x4 ADD PUSH2 0xF2F SWAP1 PUSH2 0x25F2 JUMP JUMPDEST PUSH1 0x40 MLOAD DUP1 SWAP2 SUB SWAP1 REVERT JUMPDEST DUP4 DUP2 SUB PUSH1 0x2 PUSH0 DUP8 DUP2 MSTORE PUSH1 0x20 ADD SWAP1 DUP2 MSTORE PUSH1 0x20 ADD PUSH0 KECCAK256 PUSH0 DUP10 PUSH20 0xFFFFFFFFFFFFFFFFFFFFFFFFFFFFFFFFFFFFFFFF AND PUSH20 0xFFFFFFFFFFFFFFFFFFFFFFFFFFFFFFFFFFFFFFFF AND DUP2 MSTORE PUSH1 0x20 ADD SWAP1 DUP2 MSTORE PUSH1 0x20 ADD PUSH0 KECCAK256 DUP2 SWAP1 SSTORE POP DUP4 PUSH1 0x2 PUSH0 DUP8 DUP2 MSTORE PUSH1 0x20 ADD SWAP1 DUP2 MSTORE PUSH1 0x20 ADD PUSH0 KECCAK256 PUSH0 DUP9 PUSH20 0xFFFFFFFFFFFFFFFFFFFFFFFFFFFFFFFFFFFFFFFF AND PUSH20 0xFFFFFFFFFFFFFFFFFFFFFFFFFFFFFFFFFFFFFFFF AND DUP2 MSTORE PUSH1 0x20 ADD SWAP1 DUP2 MSTORE PUSH1 0x20 ADD PUSH0 KECCAK256 PUSH0 DUP3 DUP3 SLOAD PUSH2 0xFE6 SWAP2 SWAP1 PUSH2 0x263D JUMP JUMPDEST SWAP3 POP POP DUP2 SWAP1 SSTORE POP DUP6 PUSH20 0xFFFFFFFFFFFFFFFFFFFFFFFFFFFFFFFFFFFFFFFF AND DUP8 PUSH20 0xFFFFFFFFFFFFFFFFFFFFFFFFFFFFFFFFFFFFFFFF AND DUP4 PUSH20 0xFFFFFFFFFFFFFFFFFFFFFFFFFFFFFFFFFFFFFFFF AND PUSH32 0xC3D58168C5AE7397731D063D5BBF3D657854427343F4C083240F7AACAA2D0F62 DUP9 DUP9 PUSH1 0x40 MLOAD PUSH2 0x1063 SWAP3 SWAP2 SWAP1 PUSH2 0x27C1 JUMP JUMPDEST PUSH1 0x40 MLOAD DUP1 SWAP2 SUB SWAP1 LOG4 PUSH2 0x1079 DUP3 DUP9 DUP9 DUP9 DUP9 DUP9 PUSH2 0x15D2 JUMP JUMPDEST POP POP POP POP POP POP POP JUMP JUMPDEST PUSH1 0x60 PUSH1 0x40 MLOAD DUP1 PUSH1 0x60 ADD PUSH1 0x40 MSTORE DUP1 PUSH1 0x36 DUP2 MSTORE PUSH1 0x20 ADD PUSH2 0x2BAB PUSH1 0x36 SWAP2 CODECOPY SWAP1 POP SWAP1 JUMP JUMPDEST PUSH0 PUSH20 0xFFFFFFFFFFFFFFFFFFFFFFFFFFFFFFFFFFFFFFFF AND DUP5 PUSH20 0xFFFFFFFFFFFFFFFFFFFFFFFFFFFFFFFFFFFFFFFF AND SUB PUSH2 0x1110 JUMPI PUSH1 0x40 MLOAD PUSH32 0x8C379A000000000000000000000000000000000000000000000000000000000 DUP2 MSTORE PUSH1 0x4 ADD PUSH2 0x1107 SWAP1 PUSH2 0x2858 JUMP JUMPDEST PUSH1 0x40 MLOAD DUP1 SWAP2 SUB SWAP1 REVERT JUMPDEST PUSH0 CALLER SWAP1 POP DUP3 PUSH1 0x2 PUSH0 DUP7 DUP2 MSTORE PUSH1 0x20 ADD SWAP1 DUP2 MSTORE PUSH1 0x20 ADD PUSH0 KECCAK256 PUSH0 DUP8 PUSH20 0xFFFFFFFFFFFFFFFFFFFFFFFFFFFFFFFFFFFFFFFF AND PUSH20 0xFFFFFFFFFFFFFFFFFFFFFFFFFFFFFFFFFFFFFFFF AND DUP2 MSTORE PUSH1 0x20 ADD SWAP1 DUP2 MSTORE PUSH1 0x20 ADD PUSH0 KECCAK256 PUSH0 DUP3 DUP3 SLOAD PUSH2 0x116F SWAP2 SWAP1 PUSH2 0x263D JUMP JUMPDEST SWAP3 POP POP DUP2 SWAP1 SSTORE POP DUP5 PUSH20 0xFFFFFFFFFFFFFFFFFFFFFFFFFFFFFFFFFFFFFFFF AND PUSH0 PUSH20 0xFFFFFFFFFFFFFFFFFFFFFFFFFFFFFFFFFFFFFFFF AND DUP3 PUSH20 0xFFFFFFFFFFFFFFFFFFFFFFFFFFFFFFFFFFFFFFFF AND PUSH32 0xC3D58168C5AE7397731D063D5BBF3D657854427343F4C083240F7AACAA2D0F62 DUP8 DUP8 PUSH1 0x40 MLOAD PUSH2 0x11EC SWAP3 SWAP2 SWAP1 PUSH2 0x27C1 JUMP JUMPDEST PUSH1 0x40 MLOAD DUP1 SWAP2 SUB SWAP1 LOG4 PUSH2 0x1202 DUP2 PUSH0 DUP8 DUP8 DUP8 DUP8 PUSH2 0x15D2 JUMP JUMPDEST POP POP POP POP POP JUMP JUMPDEST PUSH0 DUP5 PUSH20 0xFFFFFFFFFFFFFFFFFFFFFFFFFFFFFFFFFFFFFFFF AND EXTCODESIZE GT ISZERO PUSH2 0x13D2 JUMPI DUP4 PUSH20 0xFFFFFFFFFFFFFFFFFFFFFFFFFFFFFFFFFFFFFFFF AND PUSH4 0xBC197C81 DUP8 DUP8 DUP7 DUP7 DUP7 PUSH1 0x40 MLOAD DUP7 PUSH4 0xFFFFFFFF AND PUSH1 0xE0 SHL DUP2 MSTORE PUSH1 0x4 ADD PUSH2 0x1269 SWAP6 SWAP5 SWAP4 SWAP3 SWAP2 SWAP1 PUSH2 0x28D7 JUMP JUMPDEST PUSH1 0x20 PUSH1 0x40 MLOAD DUP1 DUP4 SUB DUP2 PUSH0 DUP8 GAS CALL SWAP3 POP POP POP DUP1 ISZERO PUSH2 0x12A4 JUMPI POP PUSH1 0x40 MLOAD RETURNDATASIZE PUSH1 0x1F NOT PUSH1 0x1F DUP3 ADD AND DUP3 ADD DUP1 PUSH1 0x40 MSTORE POP DUP2 ADD SWAP1 PUSH2 0x12A1 SWAP2 SWAP1 PUSH2 0x2951 JUMP JUMPDEST PUSH1 0x1 JUMPDEST PUSH2 0x1349 JUMPI PUSH2 0x12B0 PUSH2 0x2988 JUMP JUMPDEST DUP1 PUSH4 0x8C379A0 SUB PUSH2 0x130C JUMPI POP PUSH2 0x12C4 PUSH2 0x29A7 JUMP JUMPDEST DUP1 PUSH2 0x12CF JUMPI POP PUSH2 0x130E JUMP JUMPDEST DUP1 PUSH1 0x40 MLOAD PUSH32 0x8C379A000000000000000000000000000000000000000000000000000000000 DUP2 MSTORE PUSH1 0x4 ADD PUSH2 0x1303 SWAP2 SWAP1 PUSH2 0x19CA JUMP JUMPDEST PUSH1 0x40 MLOAD DUP1 SWAP2 SUB SWAP1 REVERT JUMPDEST POP JUMPDEST PUSH1 0x40 MLOAD PUSH32 0x8C379A000000000000000000000000000000000000000000000000000000000 DUP2 MSTORE PUSH1 0x4 ADD PUSH2 0x1340 SWAP1 PUSH2 0x2AA6 JUMP JUMPDEST PUSH1 0x40 MLOAD DUP1 SWAP2 SUB SWAP1 REVERT JUMPDEST PUSH4 0xBC197C81 PUSH1 0xE0 SHL PUSH28 0xFFFFFFFFFFFFFFFFFFFFFFFFFFFFFFFFFFFFFFFFFFFFFFFFFFFFFFFF NOT AND DUP2 PUSH28 0xFFFFFFFFFFFFFFFFFFFFFFFFFFFFFFFFFFFFFFFFFFFFFFFFFFFFFFFF NOT AND EQ PUSH2 0x13D0 JUMPI PUSH1 0x40 MLOAD PUSH32 0x8C379A000000000000000000000000000000000000000000000000000000000 DUP2 MSTORE PUSH1 0x4 ADD PUSH2 0x13C7 SWAP1 PUSH2 0x2B34 JUMP JUMPDEST PUSH1 0x40 MLOAD DUP1 SWAP2 SUB SWAP1 REVERT JUMPDEST POP JUMPDEST POP POP POP POP POP POP JUMP JUMPDEST PUSH0 PUSH20 0xFFFFFFFFFFFFFFFFFFFFFFFFFFFFFFFFFFFFFFFF AND DUP5 PUSH20 0xFFFFFFFFFFFFFFFFFFFFFFFFFFFFFFFFFFFFFFFF AND SUB PUSH2 0x1448 JUMPI PUSH1 0x40 MLOAD PUSH32 0x8C379A000000000000000000000000000000000000000000000000000000000 DUP2 MSTORE PUSH1 0x4 ADD PUSH2 0x143F SWAP1 PUSH2 0x2858 JUMP JUMPDEST PUSH1 0x40 MLOAD DUP1 SWAP2 SUB SWAP1 REVERT JUMPDEST DUP2 MLOAD DUP4 MLOAD EQ PUSH2 0x148C JUMPI PUSH1 0x40 MLOAD PUSH32 0x8C379A000000000000000000000000000000000000000000000000000000000 DUP2 MSTORE PUSH1 0x4 ADD PUSH2 0x1483 SWAP1 PUSH2 0x24A9 JUMP JUMPDEST PUSH1 0x40 MLOAD DUP1 SWAP2 SUB SWAP1 REVERT JUMPDEST PUSH0 CALLER SWAP1 POP PUSH0 JUMPDEST DUP5 MLOAD DUP2 LT ISZERO PUSH2 0x153E JUMPI DUP4 DUP2 DUP2 MLOAD DUP2 LT PUSH2 0x14AE JUMPI PUSH2 0x14AD PUSH2 0x2555 JUMP JUMPDEST JUMPDEST PUSH1 0x20 MUL PUSH1 0x20 ADD ADD MLOAD PUSH1 0x2 PUSH0 DUP8 DUP5 DUP2 MLOAD DUP2 LT PUSH2 0x14CC JUMPI PUSH2 0x14CB PUSH2 0x2555 JUMP JUMPDEST JUMPDEST PUSH1 0x20 MUL PUSH1 0x20 ADD ADD MLOAD DUP2 MSTORE PUSH1 0x20 ADD SWAP1 DUP2 MSTORE PUSH1 0x20 ADD PUSH0 KECCAK256 PUSH0 DUP9 PUSH20 0xFFFFFFFFFFFFFFFFFFFFFFFFFFFFFFFFFFFFFFFF AND PUSH20 0xFFFFFFFFFFFFFFFFFFFFFFFFFFFFFFFFFFFFFFFF AND DUP2 MSTORE PUSH1 0x20 ADD SWAP1 DUP2 MSTORE PUSH1 0x20 ADD PUSH0 KECCAK256 PUSH0 DUP3 DUP3 SLOAD PUSH2 0x152A SWAP2 SWAP1 PUSH2 0x263D JUMP JUMPDEST SWAP3 POP POP DUP2 SWAP1 SSTORE POP DUP1 DUP1 PUSH1 0x1 ADD SWAP2 POP POP PUSH2 0x1492 JUMP JUMPDEST POP DUP5 PUSH20 0xFFFFFFFFFFFFFFFFFFFFFFFFFFFFFFFFFFFFFFFF AND PUSH0 PUSH20 0xFFFFFFFFFFFFFFFFFFFFFFFFFFFFFFFFFFFFFFFF AND DUP3 PUSH20 0xFFFFFFFFFFFFFFFFFFFFFFFFFFFFFFFFFFFFFFFF AND PUSH32 0x4A39DC06D4C0DBC64B70AF90FD698A233A518AA5D07E595D983B8C0526C8F7FB DUP8 DUP8 PUSH1 0x40 MLOAD PUSH2 0x15B5 SWAP3 SWAP2 SWAP1 PUSH2 0x2670 JUMP JUMPDEST PUSH1 0x40 MLOAD DUP1 SWAP2 SUB SWAP1 LOG4 PUSH2 0x15CB DUP2 PUSH0 DUP8 DUP8 DUP8 DUP8 PUSH2 0x1209 JUMP JUMPDEST POP POP POP POP POP JUMP JUMPDEST PUSH0 DUP5 PUSH20 0xFFFFFFFFFFFFFFFFFFFFFFFFFFFFFFFFFFFFFFFF AND EXTCODESIZE GT ISZERO PUSH2 0x179B JUMPI DUP4 PUSH20 0xFFFFFFFFFFFFFFFFFFFFFFFFFFFFFFFFFFFFFFFF AND PUSH4 0xF23A6E61 DUP8 DUP8 DUP7 DUP7 DUP7 PUSH1 0x40 MLOAD DUP7 PUSH4 0xFFFFFFFF AND PUSH1 0xE0 SHL DUP2 MSTORE PUSH1 0x4 ADD PUSH2 0x1632 SWAP6 SWAP5 SWAP4 SWAP3 SWAP2 SWAP1 PUSH2 0x2B52 JUMP JUMPDEST PUSH1 0x20 PUSH1 0x40 MLOAD DUP1 DUP4 SUB DUP2 PUSH0 DUP8 GAS CALL SWAP3 POP POP POP DUP1 ISZERO PUSH2 0x166D JUMPI POP PUSH1 0x40 MLOAD RETURNDATASIZE PUSH1 0x1F NOT PUSH1 0x1F DUP3 ADD AND DUP3 ADD DUP1 PUSH1 0x40 MSTORE POP DUP2 ADD SWAP1 PUSH2 0x166A SWAP2 SWAP1 PUSH2 0x2951 JUMP JUMPDEST PUSH1 0x1 JUMPDEST PUSH2 0x1712 JUMPI PUSH2 0x1679 PUSH2 0x2988 JUMP JUMPDEST DUP1 PUSH4 0x8C379A0 SUB PUSH2 0x16D5 JUMPI POP PUSH2 0x168D PUSH2 0x29A7 JUMP JUMPDEST DUP1 PUSH2 0x1698 JUMPI POP PUSH2 0x16D7 JUMP JUMPDEST DUP1 PUSH1 0x40 MLOAD PUSH32 0x8C379A000000000000000000000000000000000000000000000000000000000 DUP2 MSTORE PUSH1 0x4 ADD PUSH2 0x16CC SWAP2 SWAP1 PUSH2 0x19CA JUMP JUMPDEST PUSH1 0x40 MLOAD DUP1 SWAP2 SUB SWAP1 REVERT JUMPDEST POP JUMPDEST PUSH1 0x40 MLOAD PUSH32 0x8C379A000000000000000000000000000000000000000000000000000000000 DUP2 MSTORE PUSH1 0x4 ADD PUSH2 0x1709 SWAP1 PUSH2 0x2AA6 JUMP JUMPDEST PUSH1 0x40 MLOAD DUP1 SWAP2 SUB SWAP1 REVERT JUMPDEST PUSH4 0xF23A6E61 PUSH1 0xE0 SHL PUSH28 0xFFFFFFFFFFFFFFFFFFFFFFFFFFFFFFFFFFFFFFFFFFFFFFFFFFFFFFFF NOT AND DUP2 PUSH28 0xFFFFFFFFFFFFFFFFFFFFFFFFFFFFFFFFFFFFFFFFFFFFFFFFFFFFFFFF NOT AND EQ PUSH2 0x1799 JUMPI PUSH1 0x40 MLOAD PUSH32 0x8C379A000000000000000000000000000000000000000000000000000000000 DUP2 MSTORE PUSH1 0x4 ADD PUSH2 0x1790 SWAP1 PUSH2 0x2B34 JUMP JUMPDEST PUSH1 0x40 MLOAD DUP1 SWAP2 SUB SWAP1 REVERT JUMPDEST POP JUMPDEST POP POP POP POP POP POP JUMP JUMPDEST PUSH0 PUSH1 0x40 MLOAD SWAP1 POP SWAP1 JUMP JUMPDEST PUSH0 DUP1 REVERT JUMPDEST PUSH0 DUP1 REVERT JUMPDEST PUSH0 PUSH20 0xFFFFFFFFFFFFFFFFFFFFFFFFFFFFFFFFFFFFFFFF DUP3 AND SWAP1 POP SWAP2 SWAP1 POP JUMP JUMPDEST PUSH0 PUSH2 0x17DD DUP3 PUSH2 0x17B4 JUMP JUMPDEST SWAP1 POP SWAP2 SWAP1 POP JUMP JUMPDEST PUSH2 0x17ED DUP2 PUSH2 0x17D3 JUMP JUMPDEST DUP2 EQ PUSH2 0x17F7 JUMPI PUSH0 DUP1 REVERT JUMPDEST POP JUMP JUMPDEST PUSH0 DUP2 CALLDATALOAD SWAP1 POP PUSH2 0x1808 DUP2 PUSH2 0x17E4 JUMP JUMPDEST SWAP3 SWAP2 POP POP JUMP JUMPDEST PUSH0 DUP2 SWAP1 POP SWAP2 SWAP1 POP JUMP JUMPDEST PUSH2 0x1820 DUP2 PUSH2 0x180E JUMP JUMPDEST DUP2 EQ PUSH2 0x182A JUMPI PUSH0 DUP1 REVERT JUMPDEST POP JUMP JUMPDEST PUSH0 DUP2 CALLDATALOAD SWAP1 POP PUSH2 0x183B DUP2 PUSH2 0x1817 JUMP JUMPDEST SWAP3 SWAP2 POP POP JUMP JUMPDEST PUSH0 DUP1 PUSH1 0x40 DUP4 DUP6 SUB SLT ISZERO PUSH2 0x1857 JUMPI PUSH2 0x1856 PUSH2 0x17AC JUMP JUMPDEST JUMPDEST PUSH0 PUSH2 0x1864 DUP6 DUP3 DUP7 ADD PUSH2 0x17FA JUMP JUMPDEST SWAP3 POP POP PUSH1 0x20 PUSH2 0x1875 DUP6 DUP3 DUP7 ADD PUSH2 0x182D JUMP JUMPDEST SWAP2 POP POP SWAP3 POP SWAP3 SWAP1 POP JUMP JUMPDEST PUSH2 0x1888 DUP2 PUSH2 0x180E JUMP JUMPDEST DUP3 MSTORE POP POP JUMP JUMPDEST PUSH0 PUSH1 0x20 DUP3 ADD SWAP1 POP PUSH2 0x18A1 PUSH0 DUP4 ADD DUP5 PUSH2 0x187F JUMP JUMPDEST SWAP3 SWAP2 POP POP JUMP JUMPDEST PUSH0 PUSH32 0xFFFFFFFF00000000000000000000000000000000000000000000000000000000 DUP3 AND SWAP1 POP SWAP2 SWAP1 POP JUMP JUMPDEST PUSH2 0x18DB DUP2 PUSH2 0x18A7 JUMP JUMPDEST DUP2 EQ PUSH2 0x18E5 JUMPI PUSH0 DUP1 REVERT JUMPDEST POP JUMP JUMPDEST PUSH0 DUP2 CALLDATALOAD SWAP1 POP PUSH2 0x18F6 DUP2 PUSH2 0x18D2 JUMP JUMPDEST SWAP3 SWAP2 POP POP JUMP JUMPDEST PUSH0 PUSH1 0x20 DUP3 DUP5 SUB SLT ISZERO PUSH2 0x1911 JUMPI PUSH2 0x1910 PUSH2 0x17AC JUMP JUMPDEST JUMPDEST PUSH0 PUSH2 0x191E DUP5 DUP3 DUP6 ADD PUSH2 0x18E8 JUMP JUMPDEST SWAP2 POP POP SWAP3 SWAP2 POP POP JUMP JUMPDEST PUSH0 DUP2 ISZERO ISZERO SWAP1 POP SWAP2 SWAP1 POP JUMP JUMPDEST PUSH2 0x193B DUP2 PUSH2 0x1927 JUMP JUMPDEST DUP3 MSTORE POP POP JUMP JUMPDEST PUSH0 PUSH1 0x20 DUP3 ADD SWAP1 POP PUSH2 0x1954 PUSH0 DUP4 ADD DUP5 PUSH2 0x1932 JUMP JUMPDEST SWAP3 SWAP2 POP POP JUMP JUMPDEST PUSH0 DUP2 MLOAD SWAP1 POP SWAP2 SWAP1 POP JUMP JUMPDEST PUSH0 DUP3 DUP3 MSTORE PUSH1 0x20 DUP3 ADD SWAP1 POP SWAP3 SWAP2 POP POP JUMP JUMPDEST DUP3 DUP2 DUP4 MCOPY PUSH0 DUP4 DUP4 ADD MSTORE POP POP POP JUMP JUMPDEST PUSH0 PUSH1 0x1F NOT PUSH1 0x1F DUP4 ADD AND SWAP1 POP SWAP2 SWAP1 POP JUMP JUMPDEST PUSH0 PUSH2 0x199C DUP3 PUSH2 0x195A JUMP JUMPDEST PUSH2 0x19A6 DUP2 DUP6 PUSH2 0x1964 JUMP JUMPDEST SWAP4 POP PUSH2 0x19B6 DUP2 DUP6 PUSH1 0x20 DUP7 ADD PUSH2 0x1974 JUMP JUMPDEST PUSH2 0x19BF DUP2 PUSH2 0x1982 JUMP JUMPDEST DUP5 ADD SWAP2 POP POP SWAP3 SWAP2 POP POP JUMP JUMPDEST PUSH0 PUSH1 0x20 DUP3 ADD SWAP1 POP DUP2 DUP2 SUB PUSH0 DUP4 ADD MSTORE PUSH2 0x19E2 DUP2 DUP5 PUSH2 0x1992 JUMP JUMPDEST SWAP1 POP SWAP3 SWAP2 POP POP JUMP JUMPDEST PUSH0 PUSH1 0x20 DUP3 DUP5 SUB SLT ISZERO PUSH2 0x19FF JUMPI PUSH2 0x19FE PUSH2 0x17AC JUMP JUMPDEST JUMPDEST PUSH0 PUSH2 0x1A0C DUP5 DUP3 DUP6 ADD PUSH2 0x182D JUMP JUMPDEST SWAP2 POP POP SWAP3 SWAP2 POP POP JUMP JUMPDEST PUSH0 DUP1 PUSH0 PUSH1 0x60 DUP5 DUP7 SUB SLT ISZERO PUSH2 0x1A2C JUMPI PUSH2 0x1A2B PUSH2 0x17AC JUMP JUMPDEST JUMPDEST PUSH0 PUSH2 0x1A39 DUP7 DUP3 DUP8 ADD PUSH2 0x17FA JUMP JUMPDEST SWAP4 POP POP PUSH1 0x20 PUSH2 0x1A4A DUP7 DUP3 DUP8 ADD PUSH2 0x182D JUMP JUMPDEST SWAP3 POP POP PUSH1 0x40 PUSH2 0x1A5B DUP7 DUP3 DUP8 ADD PUSH2 0x182D JUMP JUMPDEST SWAP2 POP POP SWAP3 POP SWAP3 POP SWAP3 JUMP JUMPDEST PUSH0 DUP1 REVERT JUMPDEST PUSH32 0x4E487B7100000000000000000000000000000000000000000000000000000000 PUSH0 MSTORE PUSH1 0x41 PUSH1 0x4 MSTORE PUSH1 0x24 PUSH0 REVERT JUMPDEST PUSH2 0x1A9F DUP3 PUSH2 0x1982 JUMP JUMPDEST DUP2 ADD DUP2 DUP2 LT PUSH8 0xFFFFFFFFFFFFFFFF DUP3 GT OR ISZERO PUSH2 0x1ABE JUMPI PUSH2 0x1ABD PUSH2 0x1A69 JUMP JUMPDEST JUMPDEST DUP1 PUSH1 0x40 MSTORE POP POP POP JUMP JUMPDEST PUSH0 PUSH2 0x1AD0 PUSH2 0x17A3 JUMP JUMPDEST SWAP1 POP PUSH2 0x1ADC DUP3 DUP3 PUSH2 0x1A96 JUMP JUMPDEST SWAP2 SWAP1 POP JUMP JUMPDEST PUSH0 PUSH8 0xFFFFFFFFFFFFFFFF DUP3 GT ISZERO PUSH2 0x1AFB JUMPI PUSH2 0x1AFA PUSH2 0x1A69 JUMP JUMPDEST JUMPDEST PUSH1 0x20 DUP3 MUL SWAP1 POP PUSH1 0x20 DUP2 ADD SWAP1 POP SWAP2 SWAP1 POP JUMP JUMPDEST PUSH0 DUP1 REVERT JUMPDEST PUSH0 PUSH2 0x1B22 PUSH2 0x1B1D DUP5 PUSH2 0x1AE1 JUMP JUMPDEST PUSH2 0x1AC7 JUMP JUMPDEST SWAP1 POP DUP1 DUP4 DUP3 MSTORE PUSH1 0x20 DUP3 ADD SWAP1 POP PUSH1 0x20 DUP5 MUL DUP4 ADD DUP6 DUP2 GT ISZERO PUSH2 0x1B45 JUMPI PUSH2 0x1B44 PUSH2 0x1B0C JUMP JUMPDEST JUMPDEST DUP4 JUMPDEST DUP2 DUP2 LT ISZERO PUSH2 0x1B6E JUMPI DUP1 PUSH2 0x1B5A DUP9 DUP3 PUSH2 0x182D JUMP JUMPDEST DUP5 MSTORE PUSH1 0x20 DUP5 ADD SWAP4 POP POP PUSH1 0x20 DUP2 ADD SWAP1 POP PUSH2 0x1B47 JUMP JUMPDEST POP POP POP SWAP4 SWAP3 POP POP POP JUMP JUMPDEST PUSH0 DUP3 PUSH1 0x1F DUP4 ADD SLT PUSH2 0x1B8C JUMPI PUSH2 0x1B8B PUSH2 0x1A65 JUMP JUMPDEST JUMPDEST DUP2 CALLDATALOAD PUSH2 0x1B9C DUP5 DUP3 PUSH1 0x20 DUP7 ADD PUSH2 0x1B10 JUMP JUMPDEST SWAP2 POP POP SWAP3 SWAP2 POP POP JUMP JUMPDEST PUSH0 DUP1 REVERT JUMPDEST PUSH0 PUSH8 0xFFFFFFFFFFFFFFFF DUP3 GT ISZERO PUSH2 0x1BC3 JUMPI PUSH2 0x1BC2 PUSH2 0x1A69 JUMP JUMPDEST JUMPDEST PUSH2 0x1BCC DUP3 PUSH2 0x1982 JUMP JUMPDEST SWAP1 POP PUSH1 0x20 DUP2 ADD SWAP1 POP SWAP2 SWAP1 POP JUMP JUMPDEST DUP3 DUP2 DUP4 CALLDATACOPY PUSH0 DUP4 DUP4 ADD MSTORE POP POP POP JUMP JUMPDEST PUSH0 PUSH2 0x1BF9 PUSH2 0x1BF4 DUP5 PUSH2 0x1BA9 JUMP JUMPDEST PUSH2 0x1AC7 JUMP JUMPDEST SWAP1 POP DUP3 DUP2 MSTORE PUSH1 0x20 DUP2 ADD DUP5 DUP5 DUP5 ADD GT ISZERO PUSH2 0x1C15 JUMPI PUSH2 0x1C14 PUSH2 0x1BA5 JUMP JUMPDEST JUMPDEST PUSH2 0x1C20 DUP5 DUP3 DUP6 PUSH2 0x1BD9 JUMP JUMPDEST POP SWAP4 SWAP3 POP POP POP JUMP JUMPDEST PUSH0 DUP3 PUSH1 0x1F DUP4 ADD SLT PUSH2 0x1C3C JUMPI PUSH2 0x1C3B PUSH2 0x1A65 JUMP JUMPDEST JUMPDEST DUP2 CALLDATALOAD PUSH2 0x1C4C DUP5 DUP3 PUSH1 0x20 DUP7 ADD PUSH2 0x1BE7 JUMP JUMPDEST SWAP2 POP POP SWAP3 SWAP2 POP POP JUMP JUMPDEST PUSH0 DUP1 PUSH0 DUP1 PUSH0 PUSH1 0xA0 DUP7 DUP9 SUB SLT ISZERO PUSH2 0x1C6E JUMPI PUSH2 0x1C6D PUSH2 0x17AC JUMP JUMPDEST JUMPDEST PUSH0 PUSH2 0x1C7B DUP9 DUP3 DUP10 ADD PUSH2 0x17FA JUMP JUMPDEST SWAP6 POP POP PUSH1 0x20 PUSH2 0x1C8C DUP9 DUP3 DUP10 ADD PUSH2 0x17FA JUMP JUMPDEST SWAP5 POP POP PUSH1 0x40 DUP7 ADD CALLDATALOAD PUSH8 0xFFFFFFFFFFFFFFFF DUP2 GT ISZERO PUSH2 0x1CAD JUMPI PUSH2 0x1CAC PUSH2 0x17B0 JUMP JUMPDEST JUMPDEST PUSH2 0x1CB9 DUP9 DUP3 DUP10 ADD PUSH2 0x1B78 JUMP JUMPDEST SWAP4 POP POP PUSH1 0x60 DUP7 ADD CALLDATALOAD PUSH8 0xFFFFFFFFFFFFFFFF DUP2 GT ISZERO PUSH2 0x1CDA JUMPI PUSH2 0x1CD9 PUSH2 0x17B0 JUMP JUMPDEST JUMPDEST PUSH2 0x1CE6 DUP9 DUP3 DUP10 ADD PUSH2 0x1B78 JUMP JUMPDEST SWAP3 POP POP PUSH1 0x80 DUP7 ADD CALLDATALOAD PUSH8 0xFFFFFFFFFFFFFFFF DUP2 GT ISZERO PUSH2 0x1D07 JUMPI PUSH2 0x1D06 PUSH2 0x17B0 JUMP JUMPDEST JUMPDEST PUSH2 0x1D13 DUP9 DUP3 DUP10 ADD PUSH2 0x1C28 JUMP JUMPDEST SWAP2 POP POP SWAP3 SWAP6 POP SWAP3 SWAP6 SWAP1 SWAP4 POP JUMP JUMPDEST PUSH0 PUSH8 0xFFFFFFFFFFFFFFFF DUP3 GT ISZERO PUSH2 0x1D3A JUMPI PUSH2 0x1D39 PUSH2 0x1A69 JUMP JUMPDEST JUMPDEST PUSH1 0x20 DUP3 MUL SWAP1 POP PUSH1 0x20 DUP2 ADD SWAP1 POP SWAP2 SWAP1 POP JUMP JUMPDEST PUSH0 PUSH2 0x1D5D PUSH2 0x1D58 DUP5 PUSH2 0x1D20 JUMP JUMPDEST PUSH2 0x1AC7 JUMP JUMPDEST SWAP1 POP DUP1 DUP4 DUP3 MSTORE PUSH1 0x20 DUP3 ADD SWAP1 POP PUSH1 0x20 DUP5 MUL DUP4 ADD DUP6 DUP2 GT ISZERO PUSH2 0x1D80 JUMPI PUSH2 0x1D7F PUSH2 0x1B0C JUMP JUMPDEST JUMPDEST DUP4 JUMPDEST DUP2 DUP2 LT ISZERO PUSH2 0x1DA9 JUMPI DUP1 PUSH2 0x1D95 DUP9 DUP3 PUSH2 0x17FA JUMP JUMPDEST DUP5 MSTORE PUSH1 0x20 DUP5 ADD SWAP4 POP POP PUSH1 0x20 DUP2 ADD SWAP1 POP PUSH2 0x1D82 JUMP JUMPDEST POP POP POP SWAP4 SWAP3 POP POP POP JUMP JUMPDEST PUSH0 DUP3 PUSH1 0x1F DUP4 ADD SLT PUSH2 0x1DC7 JUMPI PUSH2 0x1DC6 PUSH2 0x1A65 JUMP JUMPDEST JUMPDEST DUP2 CALLDATALOAD PUSH2 0x1DD7 DUP5 DUP3 PUSH1 0x20 DUP7 ADD PUSH2 0x1D4B JUMP JUMPDEST SWAP2 POP POP SWAP3 SWAP2 POP POP JUMP JUMPDEST PUSH0 DUP1 PUSH1 0x40 DUP4 DUP6 SUB SLT ISZERO PUSH2 0x1DF6 JUMPI PUSH2 0x1DF5 PUSH2 0x17AC JUMP JUMPDEST JUMPDEST PUSH0 DUP4 ADD CALLDATALOAD PUSH8 0xFFFFFFFFFFFFFFFF DUP2 GT ISZERO PUSH2 0x1E13 JUMPI PUSH2 0x1E12 PUSH2 0x17B0 JUMP JUMPDEST JUMPDEST PUSH2 0x1E1F DUP6 DUP3 DUP7 ADD PUSH2 0x1DB3 JUMP JUMPDEST SWAP3 POP POP PUSH1 0x20 DUP4 ADD CALLDATALOAD PUSH8 0xFFFFFFFFFFFFFFFF DUP2 GT ISZERO PUSH2 0x1E40 JUMPI PUSH2 0x1E3F PUSH2 0x17B0 JUMP JUMPDEST JUMPDEST PUSH2 0x1E4C DUP6 DUP3 DUP7 ADD PUSH2 0x1B78 JUMP JUMPDEST SWAP2 POP POP SWAP3 POP SWAP3 SWAP1 POP JUMP JUMPDEST PUSH0 DUP2 MLOAD SWAP1 POP SWAP2 SWAP1 POP JUMP JUMPDEST PUSH0 DUP3 DUP3 MSTORE PUSH1 0x20 DUP3 ADD SWAP1 POP SWAP3 SWAP2 POP POP JUMP JUMPDEST PUSH0 DUP2 SWAP1 POP PUSH1 0x20 DUP3 ADD SWAP1 POP SWAP2 SWAP1 POP JUMP JUMPDEST PUSH2 0x1E88 DUP2 PUSH2 0x180E JUMP JUMPDEST DUP3 MSTORE POP POP JUMP JUMPDEST PUSH0 PUSH2 0x1E99 DUP4 DUP4 PUSH2 0x1E7F JUMP JUMPDEST PUSH1 0x20 DUP4 ADD SWAP1 POP SWAP3 SWAP2 POP POP JUMP JUMPDEST PUSH0 PUSH1 0x20 DUP3 ADD SWAP1 POP SWAP2 SWAP1 POP JUMP JUMPDEST PUSH0 PUSH2 0x1EBB DUP3 PUSH2 0x1E56 JUMP JUMPDEST PUSH2 0x1EC5 DUP2 DUP6 PUSH2 0x1E60 JUMP JUMPDEST SWAP4 POP PUSH2 0x1ED0 DUP4 PUSH2 0x1E70 JUMP JUMPDEST DUP1 PUSH0 JUMPDEST DUP4 DUP2 LT ISZERO PUSH2 0x1F00 JUMPI DUP2 MLOAD PUSH2 0x1EE7 DUP9 DUP3 PUSH2 0x1E8E JUMP JUMPDEST SWAP8 POP PUSH2 0x1EF2 DUP4 PUSH2 0x1EA5 JUMP JUMPDEST SWAP3 POP POP PUSH1 0x1 DUP2 ADD SWAP1 POP PUSH2 0x1ED3 JUMP JUMPDEST POP DUP6 SWAP4 POP POP POP POP SWAP3 SWAP2 POP POP JUMP JUMPDEST PUSH0 PUSH1 0x20 DUP3 ADD SWAP1 POP DUP2 DUP2 SUB PUSH0 DUP4 ADD MSTORE PUSH2 0x1F25 DUP2 DUP5 PUSH2 0x1EB1 JUMP JUMPDEST SWAP1 POP SWAP3 SWAP2 POP POP JUMP JUMPDEST PUSH2 0x1F36 DUP2 PUSH2 0x1927 JUMP JUMPDEST DUP2 EQ PUSH2 0x1F40 JUMPI PUSH0 DUP1 REVERT JUMPDEST POP JUMP JUMPDEST PUSH0 DUP2 CALLDATALOAD SWAP1 POP PUSH2 0x1F51 DUP2 PUSH2 0x1F2D JUMP JUMPDEST SWAP3 SWAP2 POP POP JUMP JUMPDEST PUSH0 DUP1 PUSH1 0x40 DUP4 DUP6 SUB SLT ISZERO PUSH2 0x1F6D JUMPI PUSH2 0x1F6C PUSH2 0x17AC JUMP JUMPDEST JUMPDEST PUSH0 PUSH2 0x1F7A DUP6 DUP3 DUP7 ADD PUSH2 0x17FA JUMP JUMPDEST SWAP3 POP POP PUSH1 0x20 PUSH2 0x1F8B DUP6 DUP3 DUP7 ADD PUSH2 0x1F43 JUMP JUMPDEST SWAP2 POP POP SWAP3 POP SWAP3 SWAP1 POP JUMP JUMPDEST PUSH0 DUP1 PUSH0 PUSH1 0x60 DUP5 DUP7 SUB SLT ISZERO PUSH2 0x1FAC JUMPI PUSH2 0x1FAB PUSH2 0x17AC JUMP JUMPDEST JUMPDEST PUSH0 PUSH2 0x1FB9 DUP7 DUP3 DUP8 ADD PUSH2 0x17FA JUMP JUMPDEST SWAP4 POP POP PUSH1 0x20 DUP5 ADD CALLDATALOAD PUSH8 0xFFFFFFFFFFFFFFFF DUP2 GT ISZERO PUSH2 0x1FDA JUMPI PUSH2 0x1FD9 PUSH2 0x17B0 JUMP JUMPDEST JUMPDEST PUSH2 0x1FE6 DUP7 DUP3 DUP8 ADD PUSH2 0x1B78 JUMP JUMPDEST SWAP3 POP POP PUSH1 0x40 DUP5 ADD CALLDATALOAD PUSH8 0xFFFFFFFFFFFFFFFF DUP2 GT ISZERO PUSH2 0x2007 JUMPI PUSH2 0x2006 PUSH2 0x17B0 JUMP JUMPDEST JUMPDEST PUSH2 0x2013 DUP7 DUP3 DUP8 ADD PUSH2 0x1B78 JUMP JUMPDEST SWAP2 POP POP SWAP3 POP SWAP3 POP SWAP3 JUMP JUMPDEST PUSH0 DUP1 PUSH1 0x40 DUP4 DUP6 SUB SLT ISZERO PUSH2 0x2033 JUMPI PUSH2 0x2032 PUSH2 0x17AC JUMP JUMPDEST JUMPDEST PUSH0 PUSH2 0x2040 DUP6 DUP3 DUP7 ADD PUSH2 0x17FA JUMP JUMPDEST SWAP3 POP POP PUSH1 0x20 PUSH2 0x2051 DUP6 DUP3 DUP7 ADD PUSH2 0x17FA JUMP JUMPDEST SWAP2 POP POP SWAP3 POP SWAP3 SWAP1 POP JUMP JUMPDEST PUSH0 DUP1 PUSH0 DUP1 PUSH0 PUSH1 0xA0 DUP7 DUP9 SUB SLT ISZERO PUSH2 0x2074 JUMPI PUSH2 0x2073 PUSH2 0x17AC JUMP JUMPDEST JUMPDEST PUSH0 PUSH2 0x2081 DUP9 DUP3 DUP10 ADD PUSH2 0x17FA JUMP JUMPDEST SWAP6 POP POP PUSH1 0x20 PUSH2 0x2092 DUP9 DUP3 DUP10 ADD PUSH2 0x17FA JUMP JUMPDEST SWAP5 POP POP PUSH1 0x40 PUSH2 0x20A3 DUP9 DUP3 DUP10 ADD PUSH2 0x182D JUMP JUMPDEST SWAP4 POP POP PUSH1 0x60 PUSH2 0x20B4 DUP9 DUP3 DUP10 ADD PUSH2 0x182D JUMP JUMPDEST SWAP3 POP POP PUSH1 0x80 DUP7 ADD CALLDATALOAD PUSH8 0xFFFFFFFFFFFFFFFF DUP2 GT ISZERO PUSH2 0x20D5 JUMPI PUSH2 0x20D4 PUSH2 0x17B0 JUMP JUMPDEST JUMPDEST PUSH2 0x20E1 DUP9 DUP3 DUP10 ADD PUSH2 0x1C28 JUMP JUMPDEST SWAP2 POP POP SWAP3 SWAP6 POP SWAP3 SWAP6 SWAP1 SWAP4 POP JUMP JUMPDEST PUSH32 0x455243313135353A2061646472657373207A65726F206973206E6F7420612076 PUSH0 DUP3 ADD MSTORE PUSH32 0x616C6964206F776E657200000000000000000000000000000000000000000000 PUSH1 0x20 DUP3 ADD MSTORE POP JUMP JUMPDEST PUSH0 PUSH2 0x2148 PUSH1 0x2A DUP4 PUSH2 0x1964 JUMP JUMPDEST SWAP2 POP PUSH2 0x2153 DUP3 PUSH2 0x20EE JUMP JUMPDEST PUSH1 0x40 DUP3 ADD SWAP1 POP SWAP2 SWAP1 POP JUMP JUMPDEST PUSH0 PUSH1 0x20 DUP3 ADD SWAP1 POP DUP2 DUP2 SUB PUSH0 DUP4 ADD MSTORE PUSH2 0x2175 DUP2 PUSH2 0x213C JUMP JUMPDEST SWAP1 POP SWAP2 SWAP1 POP JUMP JUMPDEST PUSH32 0x4E487B7100000000000000000000000000000000000000000000000000000000 PUSH0 MSTORE PUSH1 0x22 PUSH1 0x4 MSTORE PUSH1 0x24 PUSH0 REVERT JUMPDEST PUSH0 PUSH1 0x2 DUP3 DIV SWAP1 POP PUSH1 0x1 DUP3 AND DUP1 PUSH2 0x21C0 JUMPI PUSH1 0x7F DUP3 AND SWAP2 POP JUMPDEST PUSH1 0x20 DUP3 LT DUP2 SUB PUSH2 0x21D3 JUMPI PUSH2 0x21D2 PUSH2 0x217C JUMP JUMPDEST JUMPDEST POP SWAP2 SWAP1 POP JUMP JUMPDEST PUSH2 0x21E2 DUP2 PUSH2 0x180E JUMP JUMPDEST DUP3 MSTORE POP POP JUMP JUMPDEST PUSH0 PUSH1 0x20 DUP3 ADD SWAP1 POP PUSH2 0x21FB PUSH0 DUP4 ADD DUP5 PUSH2 0x21D9 JUMP JUMPDEST SWAP3 SWAP2 POP POP JUMP JUMPDEST PUSH0 PUSH8 0xFFFFFFFFFFFFFFFF DUP3 GT ISZERO PUSH2 0x221B JUMPI PUSH2 0x221A PUSH2 0x1A69 JUMP JUMPDEST JUMPDEST PUSH2 0x2224 DUP3 PUSH2 0x1982 JUMP JUMPDEST SWAP1 POP PUSH1 0x20 DUP2 ADD SWAP1 POP SWAP2 SWAP1 POP JUMP JUMPDEST PUSH0 PUSH2 0x2243 PUSH2 0x223E DUP5 PUSH2 0x2201 JUMP JUMPDEST PUSH2 0x1AC7 JUMP JUMPDEST SWAP1 POP DUP3 DUP2 MSTORE PUSH1 0x20 DUP2 ADD DUP5 DUP5 DUP5 ADD GT ISZERO PUSH2 0x225F JUMPI PUSH2 0x225E PUSH2 0x1BA5 JUMP JUMPDEST JUMPDEST PUSH2 0x226A DUP5 DUP3 DUP6 PUSH2 0x1974 JUMP JUMPDEST POP SWAP4 SWAP3 POP POP POP JUMP JUMPDEST PUSH0 DUP3 PUSH1 0x1F DUP4 ADD SLT PUSH2 0x2286 JUMPI PUSH2 0x2285 PUSH2 0x1A65 JUMP JUMPDEST JUMPDEST DUP2 MLOAD PUSH2 0x2296 DUP5 DUP3 PUSH1 0x20 DUP7 ADD PUSH2 0x2231 JUMP JUMPDEST SWAP2 POP POP SWAP3 SWAP2 POP POP JUMP JUMPDEST PUSH0 PUSH1 0x20 DUP3 DUP5 SUB SLT ISZERO PUSH2 0x22B4 JUMPI PUSH2 0x22B3 PUSH2 0x17AC JUMP JUMPDEST JUMPDEST PUSH0 DUP3 ADD MLOAD PUSH8 0xFFFFFFFFFFFFFFFF DUP2 GT ISZERO PUSH2 0x22D1 JUMPI PUSH2 0x22D0 PUSH2 0x17B0 JUMP JUMPDEST JUMPDEST PUSH2 0x22DD DUP5 DUP3 DUP6 ADD PUSH2 0x2272 JUMP JUMPDEST SWAP2 POP POP SWAP3 SWAP2 POP POP JUMP JUMPDEST PUSH0 DUP2 SWAP1 POP SWAP3 SWAP2 POP POP JUMP JUMPDEST PUSH0 PUSH2 0x22FA DUP3 PUSH2 0x195A JUMP JUMPDEST PUSH2 0x2304 DUP2 DUP6 PUSH2 0x22E6 JUMP JUMPDEST SWAP4 POP PUSH2 0x2314 DUP2 DUP6 PUSH1 0x20 DUP7 ADD PUSH2 0x1974 JUMP JUMPDEST DUP1 DUP5 ADD SWAP2 POP POP SWAP3 SWAP2 POP POP JUMP JUMPDEST PUSH0 PUSH2 0x232B DUP3 DUP6 PUSH2 0x22F0 JUMP JUMPDEST SWAP2 POP PUSH2 0x2337 DUP3 DUP5 PUSH2 0x22F0 JUMP JUMPDEST SWAP2 POP DUP2 SWAP1 POP SWAP4 SWAP3 POP POP POP JUMP JUMPDEST PUSH32 0x6964206F766572666C6F77000000000000000000000000000000000000000000 PUSH0 DUP3 ADD MSTORE POP JUMP JUMPDEST PUSH0 PUSH2 0x2377 PUSH1 0xB DUP4 PUSH2 0x1964 JUMP JUMPDEST SWAP2 POP PUSH2 0x2382 DUP3 PUSH2 0x2343 JUMP JUMPDEST PUSH1 0x20 DUP3 ADD SWAP1 POP SWAP2 SWAP1 POP JUMP JUMPDEST PUSH0 PUSH1 0x20 DUP3 ADD SWAP1 POP DUP2 DUP2 SUB PUSH0 DUP4 ADD MSTORE PUSH2 0x23A4 DUP2 PUSH2 0x236B JUMP JUMPDEST SWAP1 POP SWAP2 SWAP1 POP JUMP JUMPDEST PUSH32 0x455243313135353A2063616C6C6572206973206E6F7420746F6B656E206F776E PUSH0 DUP3 ADD MSTORE PUSH32 0x6572206E6F7220617070726F7665640000000000000000000000000000000000 PUSH1 0x20 DUP3 ADD MSTORE POP JUMP JUMPDEST PUSH0 PUSH2 0x2405 PUSH1 0x2F DUP4 PUSH2 0x1964 JUMP JUMPDEST SWAP2 POP PUSH2 0x2410 DUP3 PUSH2 0x23AB JUMP JUMPDEST PUSH1 0x40 DUP3 ADD SWAP1 POP SWAP2 SWAP1 POP JUMP JUMPDEST PUSH0 PUSH1 0x20 DUP3 ADD SWAP1 POP DUP2 DUP2 SUB PUSH0 DUP4 ADD MSTORE PUSH2 0x2432 DUP2 PUSH2 0x23F9 JUMP JUMPDEST SWAP1 POP SWAP2 SWAP1 POP JUMP JUMPDEST PUSH32 0x455243313135353A2069647320616E6420616D6F756E7473206C656E67746820 PUSH0 DUP3 ADD MSTORE PUSH32 0x6D69736D61746368000000000000000000000000000000000000000000000000 PUSH1 0x20 DUP3 ADD MSTORE POP JUMP JUMPDEST PUSH0 PUSH2 0x2493 PUSH1 0x28 DUP4 PUSH2 0x1964 JUMP JUMPDEST SWAP2 POP PUSH2 0x249E DUP3 PUSH2 0x2439 JUMP JUMPDEST PUSH1 0x40 DUP3 ADD SWAP1 POP SWAP2 SWAP1 POP JUMP JUMPDEST PUSH0 PUSH1 0x20 DUP3 ADD SWAP1 POP DUP2 DUP2 SUB PUSH0 DUP4 ADD MSTORE PUSH2 0x24C0 DUP2 PUSH2 0x2487 JUMP JUMPDEST SWAP1 POP SWAP2 SWAP1 POP JUMP JUMPDEST PUSH32 0x455243313135353A207472616E7366657220746F20746865207A65726F206164 PUSH0 DUP3 ADD MSTORE PUSH32 0x6472657373000000000000000000000000000000000000000000000000000000 PUSH1 0x20 DUP3 ADD MSTORE POP JUMP JUMPDEST PUSH0 PUSH2 0x2521 PUSH1 0x25 DUP4 PUSH2 0x1964 JUMP JUMPDEST SWAP2 POP PUSH2 0x252C DUP3 PUSH2 0x24C7 JUMP JUMPDEST PUSH1 0x40 DUP3 ADD SWAP1 POP SWAP2 SWAP1 POP JUMP JUMPDEST PUSH0 PUSH1 0x20 DUP3 ADD SWAP1 POP DUP2 DUP2 SUB PUSH0 DUP4 ADD MSTORE PUSH2 0x254E DUP2 PUSH2 0x2515 JUMP JUMPDEST SWAP1 POP SWAP2 SWAP1 POP JUMP JUMPDEST PUSH32 0x4E487B7100000000000000000000000000000000000000000000000000000000 PUSH0 MSTORE PUSH1 0x32 PUSH1 0x4 MSTORE PUSH1 0x24 PUSH0 REVERT JUMPDEST PUSH32 0x455243313135353A20696E73756666696369656E742062616C616E636520666F PUSH0 DUP3 ADD MSTORE PUSH32 0x72207472616E7366657200000000000000000000000000000000000000000000 PUSH1 0x20 DUP3 ADD MSTORE POP JUMP JUMPDEST PUSH0 PUSH2 0x25DC PUSH1 0x2A DUP4 PUSH2 0x1964 JUMP JUMPDEST SWAP2 POP PUSH2 0x25E7 DUP3 PUSH2 0x2582 JUMP JUMPDEST PUSH1 0x40 DUP3 ADD SWAP1 POP SWAP2 SWAP1 POP JUMP JUMPDEST PUSH0 PUSH1 0x20 DUP3 ADD SWAP1 POP DUP2 DUP2 SUB PUSH0 DUP4 ADD MSTORE PUSH2 0x2609 DUP2 PUSH2 0x25D0 JUMP JUMPDEST SWAP1 POP SWAP2 SWAP1 POP JUMP JUMPDEST PUSH32 0x4E487B7100000000000000000000000000000000000000000000000000000000 PUSH0 MSTORE PUSH1 0x11 PUSH1 0x4 MSTORE PUSH1 0x24 PUSH0 REVERT JUMPDEST PUSH0 PUSH2 0x2647 DUP3 PUSH2 0x180E JUMP JUMPDEST SWAP2 POP PUSH2 0x2652 DUP4 PUSH2 0x180E JUMP JUMPDEST SWAP3 POP DUP3 DUP3 ADD SWAP1 POP DUP1 DUP3 GT ISZERO PUSH2 0x266A JUMPI PUSH2 0x2669 PUSH2 0x2610 JUMP JUMPDEST JUMPDEST SWAP3 SWAP2 POP POP JUMP JUMPDEST PUSH0 PUSH1 0x40 DUP3 ADD SWAP1 POP DUP2 DUP2 SUB PUSH0 DUP4 ADD MSTORE PUSH2 0x2688 DUP2 DUP6 PUSH2 0x1EB1 JUMP JUMPDEST SWAP1 POP DUP2 DUP2 SUB PUSH1 0x20 DUP4 ADD MSTORE PUSH2 0x269C DUP2 DUP5 PUSH2 0x1EB1 JUMP JUMPDEST SWAP1 POP SWAP4 SWAP3 POP POP POP JUMP JUMPDEST PUSH32 0x455243313135353A206163636F756E747320616E6420696473206C656E677468 PUSH0 DUP3 ADD MSTORE PUSH32 0x206D69736D617463680000000000000000000000000000000000000000000000 PUSH1 0x20 DUP3 ADD MSTORE POP JUMP JUMPDEST PUSH0 PUSH2 0x26FF PUSH1 0x29 DUP4 PUSH2 0x1964 JUMP JUMPDEST SWAP2 POP PUSH2 0x270A DUP3 PUSH2 0x26A5 JUMP JUMPDEST PUSH1 0x40 DUP3 ADD SWAP1 POP SWAP2 SWAP1 POP JUMP JUMPDEST PUSH0 PUSH1 0x20 DUP3 ADD SWAP1 POP DUP2 DUP2 SUB PUSH0 DUP4 ADD MSTORE PUSH2 0x272C DUP2 PUSH2 0x26F3 JUMP JUMPDEST SWAP1 POP SWAP2 SWAP1 POP JUMP JUMPDEST PUSH32 0x455243313135353A2073657474696E6720617070726F76616C20737461747573 PUSH0 DUP3 ADD MSTORE PUSH32 0x20666F722073656C660000000000000000000000000000000000000000000000 PUSH1 0x20 DUP3 ADD MSTORE POP JUMP JUMPDEST PUSH0 PUSH2 0x278D PUSH1 0x29 DUP4 PUSH2 0x1964 JUMP JUMPDEST SWAP2 POP PUSH2 0x2798 DUP3 PUSH2 0x2733 JUMP JUMPDEST PUSH1 0x40 DUP3 ADD SWAP1 POP SWAP2 SWAP1 POP JUMP JUMPDEST PUSH0 PUSH1 0x20 DUP3 ADD SWAP1 POP DUP2 DUP2 SUB PUSH0 DUP4 ADD MSTORE PUSH2 0x27BA DUP2 PUSH2 0x2781 JUMP JUMPDEST SWAP1 POP SWAP2 SWAP1 POP JUMP JUMPDEST PUSH0 PUSH1 0x40 DUP3 ADD SWAP1 POP PUSH2 0x27D4 PUSH0 DUP4 ADD DUP6 PUSH2 0x187F JUMP JUMPDEST PUSH2 0x27E1 PUSH1 0x20 DUP4 ADD DUP5 PUSH2 0x187F JUMP JUMPDEST SWAP4 SWAP3 POP POP POP JUMP JUMPDEST PUSH32 0x455243313135353A206D696E7420746F20746865207A65726F20616464726573 PUSH0 DUP3 ADD MSTORE PUSH32 0x7300000000000000000000000000000000000000000000000000000000000000 PUSH1 0x20 DUP3 ADD MSTORE POP JUMP JUMPDEST PUSH0 PUSH2 0x2842 PUSH1 0x21 DUP4 PUSH2 0x1964 JUMP JUMPDEST SWAP2 POP PUSH2 0x284D DUP3 PUSH2 0x27E8 JUMP JUMPDEST PUSH1 0x40 DUP3 ADD SWAP1 POP SWAP2 SWAP1 POP JUMP JUMPDEST PUSH0 PUSH1 0x20 DUP3 ADD SWAP1 POP DUP2 DUP2 SUB PUSH0 DUP4 ADD MSTORE PUSH2 0x286F DUP2 PUSH2 0x2836 JUMP JUMPDEST SWAP1 POP SWAP2 SWAP1 POP JUMP JUMPDEST PUSH2 0x287F DUP2 PUSH2 0x17D3 JUMP JUMPDEST DUP3 MSTORE POP POP JUMP JUMPDEST PUSH0 DUP2 MLOAD SWAP1 POP SWAP2 SWAP1 POP JUMP JUMPDEST PUSH0 DUP3 DUP3 MSTORE PUSH1 0x20 DUP3 ADD SWAP1 POP SWAP3 SWAP2 POP POP JUMP JUMPDEST PUSH0 PUSH2 0x28A9 DUP3 PUSH2 0x2885 JUMP JUMPDEST PUSH2 0x28B3 DUP2 DUP6 PUSH2 0x288F JUMP JUMPDEST SWAP4 POP PUSH2 0x28C3 DUP2 DUP6 PUSH1 0x20 DUP7 ADD PUSH2 0x1974 JUMP JUMPDEST PUSH2 0x28CC DUP2 PUSH2 0x1982 JUMP JUMPDEST DUP5 ADD SWAP2 POP POP SWAP3 SWAP2 POP POP JUMP JUMPDEST PUSH0 PUSH1 0xA0 DUP3 ADD SWAP1 POP PUSH2 0x28EA PUSH0 DUP4 ADD DUP9 PUSH2 0x2876 JUMP JUMPDEST PUSH2 0x28F7 PUSH1 0x20 DUP4 ADD DUP8 PUSH2 0x2876 JUMP JUMPDEST DUP2 DUP2 SUB PUSH1 0x40 DUP4 ADD MSTORE PUSH2 0x2909 DUP2 DUP7 PUSH2 0x1EB1 JUMP JUMPDEST SWAP1 POP DUP2 DUP2 SUB PUSH1 0x60 DUP4 ADD MSTORE PUSH2 0x291D DUP2 DUP6 PUSH2 0x1EB1 JUMP JUMPDEST SWAP1 POP DUP2 DUP2 SUB PUSH1 0x80 DUP4 ADD MSTORE PUSH2 0x2931 DUP2 DUP5 PUSH2 0x289F JUMP JUMPDEST SWAP1 POP SWAP7 SWAP6 POP POP POP POP POP POP JUMP JUMPDEST PUSH0 DUP2 MLOAD SWAP1 POP PUSH2 0x294B DUP2 PUSH2 0x18D2 JUMP JUMPDEST SWAP3 SWAP2 POP POP JUMP JUMPDEST PUSH0 PUSH1 0x20 DUP3 DUP5 SUB SLT ISZERO PUSH2 0x2966 JUMPI PUSH2 0x2965 PUSH2 0x17AC JUMP JUMPDEST JUMPDEST PUSH0 PUSH2 0x2973 DUP5 DUP3 DUP6 ADD PUSH2 0x293D JUMP JUMPDEST SWAP2 POP POP SWAP3 SWAP2 POP POP JUMP JUMPDEST PUSH0 DUP2 PUSH1 0xE0 SHR SWAP1 POP SWAP2 SWAP1 POP JUMP JUMPDEST PUSH0 PUSH1 0x3 RETURNDATASIZE GT ISZERO PUSH2 0x29A4 JUMPI PUSH1 0x4 PUSH0 DUP1 RETURNDATACOPY PUSH2 0x29A1 PUSH0 MLOAD PUSH2 0x297C JUMP JUMPDEST SWAP1 POP JUMPDEST SWAP1 JUMP JUMPDEST PUSH0 PUSH1 0x44 RETURNDATASIZE LT PUSH2 0x2A33 JUMPI PUSH2 0x29B8 PUSH2 0x17A3 JUMP JUMPDEST PUSH1 0x4 RETURNDATASIZE SUB PUSH1 0x4 DUP3 RETURNDATACOPY DUP1 MLOAD RETURNDATASIZE PUSH1 0x24 DUP3 ADD GT PUSH8 0xFFFFFFFFFFFFFFFF DUP3 GT OR ISZERO PUSH2 0x29E0 JUMPI POP POP PUSH2 0x2A33 JUMP JUMPDEST DUP1 DUP3 ADD DUP1 MLOAD PUSH8 0xFFFFFFFFFFFFFFFF DUP2 GT ISZERO PUSH2 0x29FE JUMPI POP POP POP POP PUSH2 0x2A33 JUMP JUMPDEST DUP1 PUSH1 0x20 DUP4 ADD ADD PUSH1 0x4 RETURNDATASIZE SUB DUP6 ADD DUP2 GT ISZERO PUSH2 0x2A1B JUMPI POP POP POP POP POP PUSH2 0x2A33 JUMP JUMPDEST PUSH2 0x2A2A DUP3 PUSH1 0x20 ADD DUP6 ADD DUP7 PUSH2 0x1A96 JUMP JUMPDEST DUP3 SWAP6 POP POP POP POP POP POP JUMPDEST SWAP1 JUMP JUMPDEST PUSH32 0x455243313135353A207472616E7366657220746F206E6F6E2D45524331313535 PUSH0 DUP3 ADD MSTORE PUSH32 0x526563656976657220696D706C656D656E746572000000000000000000000000 PUSH1 0x20 DUP3 ADD MSTORE POP JUMP JUMPDEST PUSH0 PUSH2 0x2A90 PUSH1 0x34 DUP4 PUSH2 0x1964 JUMP JUMPDEST SWAP2 POP PUSH2 0x2A9B DUP3 PUSH2 0x2A36 JUMP JUMPDEST PUSH1 0x40 DUP3 ADD SWAP1 POP SWAP2 SWAP1 POP JUMP JUMPDEST PUSH0 PUSH1 0x20 DUP3 ADD SWAP1 POP DUP2 DUP2 SUB PUSH0 DUP4 ADD MSTORE PUSH2 0x2ABD DUP2 PUSH2 0x2A84 JUMP JUMPDEST SWAP1 POP SWAP2 SWAP1 POP JUMP JUMPDEST PUSH32 0x455243313135353A204552433131353552656365697665722072656A65637465 PUSH0 DUP3 ADD MSTORE PUSH32 0x6420746F6B656E73000000000000000000000000000000000000000000000000 PUSH1 0x20 DUP3 ADD MSTORE POP JUMP JUMPDEST PUSH0 PUSH2 0x2B1E PUSH1 0x28 DUP4 PUSH2 0x1964 JUMP JUMPDEST SWAP2 POP PUSH2 0x2B29 DUP3 PUSH2 0x2AC4 JUMP JUMPDEST PUSH1 0x40 DUP3 ADD SWAP1 POP SWAP2 SWAP1 POP JUMP JUMPDEST PUSH0 PUSH1 0x20 DUP3 ADD SWAP1 POP DUP2 DUP2 SUB PUSH0 DUP4 ADD MSTORE PUSH2 0x2B4B DUP2 PUSH2 0x2B12 JUMP JUMPDEST SWAP1 POP SWAP2 SWAP1 POP JUMP JUMPDEST PUSH0 PUSH1 0xA0 DUP3 ADD SWAP1 POP PUSH2 0x2B65 PUSH0 DUP4 ADD DUP9 PUSH2 0x2876 JUMP JUMPDEST PUSH2 0x2B72 PUSH1 0x20 DUP4 ADD DUP8 PUSH2 0x2876 JUMP JUMPDEST PUSH2 0x2B7F PUSH1 0x40 DUP4 ADD DUP7 PUSH2 0x187F JUMP JUMPDEST PUSH2 0x2B8C PUSH1 0x60 DUP4 ADD DUP6 PUSH2 0x187F JUMP JUMPDEST DUP2 DUP2 SUB PUSH1 0x80 DUP4 ADD MSTORE PUSH2 0x2B9E DUP2 DUP5 PUSH2 0x289F JUMP JUMPDEST SWAP1 POP SWAP7 SWAP6 POP POP POP POP POP POP JUMP INVALID PUSH10 0x7066733A2F2F516D6553 PUSH11 0x53696E4870506E6D586D73 PUSH17 0x4D6A776958794E367A533445397A636361 PUSH19 0x694752336A7863615774712FA2646970667358 0x22 SLT KECCAK256 JUMP BLOBBASEFEE SWAP12 REVERT 0x4C PUSH7 0x67EA2DC9E26324 PUSH16 0x694D86A0DB0FDC89E44232EBD5F31575 0xEA MSTORE8 PUSH5 0x736F6C6343 STOP ADDMOD BYTE STOP CALLER "
		},
		"gasEstimates": {
			"creation": {
				"codeDepositCost": "2257200",
				"executionCost": "infinite",
				"totalCost": "infinite"
			},
			"external": {
				"balanceOf(address,uint256)": "infinite",
				"balanceOfBatch(address[],uint256[])": "infinite",
				"isApprovedForAll(address,address)": "infinite",
				"mint(address,uint256,uint256)": "infinite",
				"mintBatch(address,uint256[],uint256[])": "infinite",
				"name()": "infinite",
				"safeBatchTransferFrom(address,address,uint256[],uint256[],bytes)": "infinite",
				"safeTransferFrom(address,address,uint256,uint256,bytes)": "infinite",
				"setApprovalForAll(address,bool)": "infinite",
				"supportsInterface(bytes4)": "744",
				"symbol()": "infinite",
				"uri(uint256)": "infinite"
			},
			"internal": {
				"_baseURI()": "infinite"
			}
		},
		"methodIdentifiers": {
			"balanceOf(address,uint256)": "00fdd58e",
			"balanceOfBatch(address[],uint256[])": "4e1273f4",
			"isApprovedForAll(address,address)": "e985e9c5",
			"mint(address,uint256,uint256)": "156e29f6",
			"mintBatch(address,uint256[],uint256[])": "d81d0a15",
			"name()": "06fdde03",
			"safeBatchTransferFrom(address,address,uint256[],uint256[],bytes)": "2eb2c2d6",
			"safeTransferFrom(address,address,uint256,uint256,bytes)": "f242432a",
			"setApprovalForAll(address,bool)": "a22cb465",
			"supportsInterface(bytes4)": "01ffc9a7",
			"symbol()": "95d89b41",
			"uri(uint256)": "0e89341c"
		}
	},
	"abi": [
		{
			"inputs": [],
			"stateMutability": "nonpayable",
			"type": "constructor"
		},
		{
			"anonymous": false,
			"inputs": [
				{
					"indexed": true,
					"internalType": "address",
					"name": "account",
					"type": "address"
				},
				{
					"indexed": true,
					"internalType": "address",
					"name": "operator",
					"type": "address"
				},
				{
					"indexed": false,
					"internalType": "bool",
					"name": "approved",
					"type": "bool"
				}
			],
			"name": "ApprovalForAll",
			"type": "event"
		},
		{
			"anonymous": false,
			"inputs": [
				{
					"indexed": true,
					"internalType": "address",
					"name": "operator",
					"type": "address"
				},
				{
					"indexed": true,
					"internalType": "address",
					"name": "from",
					"type": "address"
				},
				{
					"indexed": true,
					"internalType": "address",
					"name": "to",
					"type": "address"
				},
				{
					"indexed": false,
					"internalType": "uint256[]",
					"name": "ids",
					"type": "uint256[]"
				},
				{
					"indexed": false,
					"internalType": "uint256[]",
					"name": "values",
					"type": "uint256[]"
				}
			],
			"name": "TransferBatch",
			"type": "event"
		},
		{
			"anonymous": false,
			"inputs": [
				{
					"indexed": true,
					"internalType": "address",
					"name": "operator",
					"type": "address"
				},
				{
					"indexed": true,
					"internalType": "address",
					"name": "from",
					"type": "address"
				},
				{
					"indexed": true,
					"internalType": "address",
					"name": "to",
					"type": "address"
				},
				{
					"indexed": false,
					"internalType": "uint256",
					"name": "id",
					"type": "uint256"
				},
				{
					"indexed": false,
					"internalType": "uint256",
					"name": "value",
					"type": "uint256"
				}
			],
			"name": "TransferSingle",
			"type": "event"
		},
		{
			"anonymous": false,
			"inputs": [
				{
					"indexed": false,
					"internalType": "string",
					"name": "value",
					"type": "string"
				},
				{
					"indexed": true,
					"internalType": "uint256",
					"name": "id",
					"type": "uint256"
				}
			],
			"name": "URI",
			"type": "event"
		},
		{
			"inputs": [
				{
					"internalType": "address",
					"name": "account",
					"type": "address"
				},
				{
					"internalType": "uint256",
					"name": "id",
					"type": "uint256"
				}
			],
			"name": "balanceOf",
			"outputs": [
				{
					"internalType": "uint256",
					"name": "",
					"type": "uint256"
				}
			],
			"stateMutability": "view",
			"type": "function"
		},
		{
			"inputs": [
				{
					"internalType": "address[]",
					"name": "accounts",
					"type": "address[]"
				},
				{
					"internalType": "uint256[]",
					"name": "ids",
					"type": "uint256[]"
				}
			],
			"name": "balanceOfBatch",
			"outputs": [
				{
					"internalType": "uint256[]",
					"name": "",
					"type": "uint256[]"
				}
			],
			"stateMutability": "view",
			"type": "function"
		},
		{
			"inputs": [
				{
					"internalType": "address",
					"name": "account",
					"type": "address"
				},
				{
					"internalType": "address",
					"name": "operator",
					"type": "address"
				}
			],
			"name": "isApprovedForAll",
			"outputs": [
				{
					"internalType": "bool",
					"name": "",
					"type": "bool"
				}
			],
			"stateMutability": "view",
			"type": "function"
		},
		{
			"inputs": [
				{
					"internalType": "address",
					"name": "to",
					"type": "address"
				},
				{
					"internalType": "uint256",
					"name": "id",
					"type": "uint256"
				},
				{
					"internalType": "uint256",
					"name": "amount",
					"type": "uint256"
				}
			],
			"name": "mint",
			"outputs": [],
			"stateMutability": "nonpayable",
			"type": "function"
		},
		{
			"inputs": [
				{
					"internalType": "address",
					"name": "to",
					"type": "address"
				},
				{
					"internalType": "uint256[]",
					"name": "ids",
					"type": "uint256[]"
				},
				{
					"internalType": "uint256[]",
					"name": "amounts",
					"type": "uint256[]"
				}
			],
			"name": "mintBatch",
			"outputs": [],
			"stateMutability": "nonpayable",
			"type": "function"
		},
		{
			"inputs": [],
			"name": "name",
			"outputs": [
				{
					"internalType": "string",
					"name": "",
					"type": "string"
				}
			],
			"stateMutability": "view",
			"type": "function"
		},
		{
			"inputs": [
				{
					"internalType": "address",
					"name": "from",
					"type": "address"
				},
				{
					"internalType": "address",
					"name": "to",
					"type": "address"
				},
				{
					"internalType": "uint256[]",
					"name": "ids",
					"type": "uint256[]"
				},
				{
					"internalType": "uint256[]",
					"name": "amounts",
					"type": "uint256[]"
				},
				{
					"internalType": "bytes",
					"name": "data",
					"type": "bytes"
				}
			],
			"name": "safeBatchTransferFrom",
			"outputs": [],
			"stateMutability": "nonpayable",
			"type": "function"
		},
		{
			"inputs": [
				{
					"internalType": "address",
					"name": "from",
					"type": "address"
				},
				{
					"internalType": "address",
					"name": "to",
					"type": "address"
				},
				{
					"internalType": "uint256",
					"name": "id",
					"type": "uint256"
				},
				{
					"internalType": "uint256",
					"name": "amount",
					"type": "uint256"
				},
				{
					"internalType": "bytes",
					"name": "data",
					"type": "bytes"
				}
			],
			"name": "safeTransferFrom",
			"outputs": [],
			"stateMutability": "nonpayable",
			"type": "function"
		},
		{
			"inputs": [
				{
					"internalType": "address",
					"name": "operator",
					"type": "address"
				},
				{
					"internalType": "bool",
					"name": "approved",
					"type": "bool"
				}
			],
			"name": "setApprovalForAll",
			"outputs": [],
			"stateMutability": "nonpayable",
			"type": "function"
		},
		{
			"inputs": [
				{
					"internalType": "bytes4",
					"name": "interfaceId",
					"type": "bytes4"
				}
			],
			"name": "supportsInterface",
			"outputs": [
				{
					"internalType": "bool",
					"name": "",
					"type": "bool"
				}
			],
			"stateMutability": "view",
			"type": "function"
		},
		{
			"inputs": [],
			"name": "symbol",
			"outputs": [
				{
					"internalType": "string",
					"name": "",
					"type": "string"
				}
			],
			"stateMutability": "view",
			"type": "function"
		},
		{
			"inputs": [
				{
					"internalType": "uint256",
					"name": "id",
					"type": "uint256"
				}
			],
			"name": "uri",
			"outputs": [
				{
					"internalType": "string",
					"name": "",
					"type": "string"
				}
			],
			"stateMutability": "view",
			"type": "function"
		}
	]
}