{
	"data": {
		"bytecode": {
			"linkReferences": {},
			"object": "6107b861004d600b8282823980515f1a6073146041577f4e487b71000000000000000000000000000000000000000000000000000000005f525f60045260245ffd5b305f52607381538281f3fe730000000000000000000000000000000000000000301460806040526004361061004a575f3560e01c8063512c91df1461004e578063823ac3731461007e578063918a15cf146100ae575b5f80fd5b610068600480360381019061006391906102d5565b6100de565b604051610075919061032b565b60405180910390f35b610098600480360381019061009391906104aa565b610110565b6040516100a59190610530565b60405180910390f35b6100c860048036038101906100c39190610549565b610152565b6040516100d5919061032b565b60405180910390f35b5f82826040516020016100f29291906105d9565b60405160208183030381529060405280519060200120905092915050565b5f8173ffffffffffffffffffffffffffffffffffffffff166101328585610181565b73ffffffffffffffffffffffffffffffffffffffff161490509392505050565b5f816040516020016101649190610678565b604051602081830303815290604052805190602001209050919050565b5f60418251146101c6576040517f08c379a00000000000000000000000000000000000000000000000000000000081526004016101bd906106f7565b60405180910390fd5b5f805f602085015192506040850151915060608501515f1a90506001868285856040515f8152602001604052604051610202949392919061073f565b6020604051602081039080840390855afa158015610222573d5f803e3d5ffd5b50505060206040510351935050505092915050565b5f604051905090565b5f80fd5b5f80fd5b5f73ffffffffffffffffffffffffffffffffffffffff82169050919050565b5f61027182610248565b9050919050565b61028181610267565b811461028b575f80fd5b50565b5f8135905061029c81610278565b92915050565b5f819050919050565b6102b4816102a2565b81146102be575f80fd5b50565b5f813590506102cf816102ab565b92915050565b5f80604083850312156102eb576102ea610240565b5b5f6102f88582860161028e565b9250506020610309858286016102c1565b9150509250929050565b5f819050919050565b61032581610313565b82525050565b5f60208201905061033e5f83018461031c565b92915050565b61034d81610313565b8114610357575f80fd5b50565b5f8135905061036881610344565b92915050565b5f80fd5b5f80fd5b5f601f19601f8301169050919050565b7f4e487b71000000000000000000000000000000000000000000000000000000005f52604160045260245ffd5b6103bc82610376565b810181811067ffffffffffffffff821117156103db576103da610386565b5b80604052505050565b5f6103ed610237565b90506103f982826103b3565b919050565b5f67ffffffffffffffff82111561041857610417610386565b5b61042182610376565b9050602081019050919050565b828183375f83830152505050565b5f61044e610449846103fe565b6103e4565b90508281526020810184848401111561046a57610469610372565b5b61047584828561042e565b509392505050565b5f82601f8301126104915761049061036e565b5b81356104a184826020860161043c565b91505092915050565b5f805f606084860312156104c1576104c0610240565b5b5f6104ce8682870161035a565b935050602084013567ffffffffffffffff8111156104ef576104ee610244565b5b6104fb8682870161047d565b925050604061050c8682870161028e565b9150509250925092565b5f8115159050919050565b61052a81610516565b82525050565b5f6020820190506105435f830184610521565b92915050565b5f6020828403121561055e5761055d610240565b5b5f61056b8482850161035a565b91505092915050565b5f8160601b9050919050565b5f61058a82610574565b9050919050565b5f61059b82610580565b9050919050565b6105b36105ae82610267565b610591565b82525050565b5f819050919050565b6105d36105ce826102a2565b6105b9565b82525050565b5f6105e482856105a2565b6014820191506105f482846105c2565b6020820191508190509392505050565b5f81905092915050565b7f19457468657265756d205369676e6564204d6573736167653a0a3332000000005f82015250565b5f610642601c83610604565b915061064d8261060e565b601c82019050919050565b5f819050919050565b61067261066d82610313565b610658565b82525050565b5f61068282610636565b915061068e8284610661565b60208201915081905092915050565b5f82825260208201905092915050565b7f696e76616c6964207369676e6174757265206c656e67746800000000000000005f82015250565b5f6106e160188361069d565b91506106ec826106ad565b602082019050919050565b5f6020820190508181035f83015261070e816106d5565b9050919050565b61071e81610313565b82525050565b5f60ff82169050919050565b61073981610724565b82525050565b5f6080820190506107525f830187610715565b61075f6020830186610730565b61076c6040830185610715565b6107796060830184610715565b9594505050505056fea264697066735822122055bea304c524145211875916393b7b903bcdb0bc2ac99df1f578f299249116f764736f6c634300081a0033",
			"opcodes": "PUSH2 0x7B8 PUSH2 0x4D PUSH1 0xB DUP3 DUP3 DUP3 CODECOPY DUP1 MLOAD PUSH0 BYTE PUSH1 0x73 EQ PUSH1 0x41 JUMPI PUSH32 0x4E487B7100000000000000000000000000000000000000000000000000000000 PUSH0 MSTORE PUSH0 PUSH1 0x4 MSTORE PUSH1 0x24 PUSH0 REVERT JUMPDEST ADDRESS PUSH0 MSTORE PUSH1 0x73 DUP2 MSTORE8 DUP3 DUP2 RETURN INVALID PUSH20 0x0 ADDRESS EQ PUSH1 0x80 PUSH1 0x40 MSTORE PUSH1 0x4 CALLDATASIZE LT PUSH2 0x4A JUMPI PUSH0 CALLDATALOAD PUSH1 0xE0 SHR DUP1 PUSH4 0x512C91DF EQ PUSH2 0x4E JUMPI DUP1 PUSH4 0x823AC373 EQ PUSH2 0x7E JUMPI DUP1 PUSH4 0x918A15CF EQ PUSH2 0xAE JUMPI JUMPDEST PUSH0 DUP1 REVERT JUMPDEST PUSH2 0x68 PUSH1 0x4 DUP1 CALLDATASIZE SUB DUP2 ADD SWAP1 PUSH2 0x63 SWAP2 SWAP1 PUSH2 0x2D5 JUMP JUMPDEST PUSH2 0xDE JUMP JUMPDEST PUSH1 0x40 MLOAD PUSH2 0x75 SWAP2 SWAP1 PUSH2 0x32B JUMP JUMPDEST PUSH1 0x40 MLOAD DUP1 SWAP2 SUB SWAP1 RETURN JUMPDEST PUSH2 0x98 PUSH1 0x4 DUP1 CALLDATASIZE SUB DUP2 ADD SWAP1 PUSH2 0x93 SWAP2 SWAP1 PUSH2 0x4AA JUMP JUMPDEST PUSH2 0x110 JUMP JUMPDEST PUSH1 0x40 MLOAD PUSH2 0xA5 SWAP2 SWAP1 PUSH2 0x530 JUMP JUMPDEST PUSH1 0x40 MLOAD DUP1 SWAP2 SUB SWAP1 RETURN JUMPDEST PUSH2 0xC8 PUSH1 0x4 DUP1 CALLDATASIZE SUB DUP2 ADD SWAP1 PUSH2 0xC3 SWAP2 SWAP1 PUSH2 0x549 JUMP JUMPDEST PUSH2 0x152 JUMP JUMPDEST PUSH1 0x40 MLOAD PUSH2 0xD5 SWAP2 SWAP1 PUSH2 0x32B JUMP JUMPDEST PUSH1 0x40 MLOAD DUP1 SWAP2 SUB SWAP1 RETURN JUMPDEST PUSH0 DUP3 DUP3 PUSH1 0x40 MLOAD PUSH1 0x20 ADD PUSH2 0xF2 SWAP3 SWAP2 SWAP1 PUSH2 0x5D9 JUMP JUMPDEST PUSH1 0x40 MLOAD PUSH1 0x20 DUP2 DUP4 SUB SUB DUP2 MSTORE SWAP1 PUSH1 0x40 MSTORE DUP1 MLOAD SWAP1 PUSH1 0x20 ADD KECCAK256 SWAP1 POP SWAP3 SWAP2 POP POP JUMP JUMPDEST PUSH0 DUP2 PUSH20 0xFFFFFFFFFFFFFFFFFFFFFFFFFFFFFFFFFFFFFFFF AND PUSH2 0x132 DUP6 DUP6 PUSH2 0x181 JUMP JUMPDEST PUSH20 0xFFFFFFFFFFFFFFFFFFFFFFFFFFFFFFFFFFFFFFFF AND EQ SWAP1 POP SWAP4 SWAP3 POP POP POP JUMP JUMPDEST PUSH0 DUP2 PUSH1 0x40 MLOAD PUSH1 0x20 ADD PUSH2 0x164 SWAP2 SWAP1 PUSH2 0x678 JUMP JUMPDEST PUSH1 0x40 MLOAD PUSH1 0x20 DUP2 DUP4 SUB SUB DUP2 MSTORE SWAP1 PUSH1 0x40 MSTORE DUP1 MLOAD SWAP1 PUSH1 0x20 ADD KECCAK256 SWAP1 POP SWAP2 SWAP1 POP JUMP JUMPDEST PUSH0 PUSH1 0x41 DUP3 MLOAD EQ PUSH2 0x1C6 JUMPI PUSH1 0x40 MLOAD PUSH32 0x8C379A000000000000000000000000000000000000000000000000000000000 DUP2 MSTORE PUSH1 0x4 ADD PUSH2 0x1BD SWAP1 PUSH2 0x6F7 JUMP JUMPDEST PUSH1 0x40 MLOAD DUP1 SWAP2 SUB SWAP1 REVERT JUMPDEST PUSH0 DUP1 PUSH0 PUSH1 0x20 DUP6 ADD MLOAD SWAP3 POP PUSH1 0x40 DUP6 ADD MLOAD SWAP2 POP PUSH1 0x60 DUP6 ADD MLOAD PUSH0 BYTE SWAP1 POP PUSH1 0x1 DUP7 DUP3 DUP6 DUP6 PUSH1 0x40 MLOAD PUSH0 DUP2 MSTORE PUSH1 0x20 ADD PUSH1 0x40 MSTORE PUSH1 0x40 MLOAD PUSH2 0x202 SWAP5 SWAP4 SWAP3 SWAP2 SWAP1 PUSH2 0x73F JUMP JUMPDEST PUSH1 0x20 PUSH1 0x40 MLOAD PUSH1 0x20 DUP2 SUB SWAP1 DUP1 DUP5 SUB SWAP1 DUP6 GAS STATICCALL ISZERO DUP1 ISZERO PUSH2 0x222 JUMPI RETURNDATASIZE PUSH0 DUP1 RETURNDATACOPY RETURNDATASIZE PUSH0 REVERT JUMPDEST POP POP POP PUSH1 0x20 PUSH1 0x40 MLOAD SUB MLOAD SWAP4 POP POP POP POP SWAP3 SWAP2 POP POP JUMP JUMPDEST PUSH0 PUSH1 0x40 MLOAD SWAP1 POP SWAP1 JUMP JUMPDEST PUSH0 DUP1 REVERT JUMPDEST PUSH0 DUP1 REVERT JUMPDEST PUSH0 PUSH20 0xFFFFFFFFFFFFFFFFFFFFFFFFFFFFFFFFFFFFFFFF DUP3 AND SWAP1 POP SWAP2 SWAP1 POP JUMP JUMPDEST PUSH0 PUSH2 0x271 DUP3 PUSH2 0x248 JUMP JUMPDEST SWAP1 POP SWAP2 SWAP1 POP JUMP JUMPDEST PUSH2 0x281 DUP2 PUSH2 0x267 JUMP JUMPDEST DUP2 EQ PUSH2 0x28B JUMPI PUSH0 DUP1 REVERT JUMPDEST POP JUMP JUMPDEST PUSH0 DUP2 CALLDATALOAD SWAP1 POP PUSH2 0x29C DUP2 PUSH2 0x278 JUMP JUMPDEST SWAP3 SWAP2 POP POP JUMP JUMPDEST PUSH0 DUP2 SWAP1 POP SWAP2 SWAP1 POP JUMP JUMPDEST PUSH2 0x2B4 DUP2 PUSH2 0x2A2 JUMP JUMPDEST DUP2 EQ PUSH2 0x2BE JUMPI PUSH0 DUP1 REVERT JUMPDEST POP JUMP JUMPDEST PUSH0 DUP2 CALLDATALOAD SWAP1 POP PUSH2 0x2CF DUP2 PUSH2 0x2AB JUMP JUMPDEST SWAP3 SWAP2 POP POP JUMP JUMPDEST PUSH0 DUP1 PUSH1 0x40 DUP4 DUP6 SUB SLT ISZERO PUSH2 0x2EB JUMPI PUSH2 0x2EA PUSH2 0x240 JUMP JUMPDEST JUMPDEST PUSH0 PUSH2 0x2F8 DUP6 DUP3 DUP7 ADD PUSH2 0x28E JUMP JUMPDEST SWAP3 POP POP PUSH1 0x20 PUSH2 0x309 DUP6 DUP3 DUP7 ADD PUSH2 0x2C1 JUMP JUMPDEST SWAP2 POP POP SWAP3 POP SWAP3 SWAP1 POP JUMP JUMPDEST PUSH0 DUP2 SWAP1 POP SWAP2 SWAP1 POP JUMP JUMPDEST PUSH2 0x325 DUP2 PUSH2 0x313 JUMP JUMPDEST DUP3 MSTORE POP POP JUMP JUMPDEST PUSH0 PUSH1 0x20 DUP3 ADD SWAP1 POP PUSH2 0x33E PUSH0 DUP4 ADD DUP5 PUSH2 0x31C JUMP JUMPDEST SWAP3 SWAP2 POP POP JUMP JUMPDEST PUSH2 0x34D DUP2 PUSH2 0x313 JUMP JUMPDEST DUP2 EQ PUSH2 0x357 JUMPI PUSH0 DUP1 REVERT JUMPDEST POP JUMP JUMPDEST PUSH0 DUP2 CALLDATALOAD SWAP1 POP PUSH2 0x368 DUP2 PUSH2 0x344 JUMP JUMPDEST SWAP3 SWAP2 POP POP JUMP JUMPDEST PUSH0 DUP1 REVERT JUMPDEST PUSH0 DUP1 REVERT JUMPDEST PUSH0 PUSH1 0x1F NOT PUSH1 0x1F DUP4 ADD AND SWAP1 POP SWAP2 SWAP1 POP JUMP JUMPDEST PUSH32 0x4E487B7100000000000000000000000000000000000000000000000000000000 PUSH0 MSTORE PUSH1 0x41 PUSH1 0x4 MSTORE PUSH1 0x24 PUSH0 REVERT JUMPDEST PUSH2 0x3BC DUP3 PUSH2 0x376 JUMP JUMPDEST DUP2 ADD DUP2 DUP2 LT PUSH8 0xFFFFFFFFFFFFFFFF DUP3 GT OR ISZERO PUSH2 0x3DB JUMPI PUSH2 0x3DA PUSH2 0x386 JUMP JUMPDEST JUMPDEST DUP1 PUSH1 0x40 MSTORE POP POP POP JUMP JUMPDEST PUSH0 PUSH2 0x3ED PUSH2 0x237 JUMP JUMPDEST SWAP1 POP PUSH2 0x3F9 DUP3 DUP3 PUSH2 0x3B3 JUMP JUMPDEST SWAP2 SWAP1 POP JUMP JUMPDEST PUSH0 PUSH8 0xFFFFFFFFFFFFFFFF DUP3 GT ISZERO PUSH2 0x418 JUMPI PUSH2 0x417 PUSH2 0x386 JUMP JUMPDEST JUMPDEST PUSH2 0x421 DUP3 PUSH2 0x376 JUMP JUMPDEST SWAP1 POP PUSH1 0x20 DUP2 ADD SWAP1 POP SWAP2 SWAP1 POP JUMP JUMPDEST DUP3 DUP2 DUP4 CALLDATACOPY PUSH0 DUP4 DUP4 ADD MSTORE POP POP POP JUMP JUMPDEST PUSH0 PUSH2 0x44E PUSH2 0x449 DUP5 PUSH2 0x3FE JUMP JUMPDEST PUSH2 0x3E4 JUMP JUMPDEST SWAP1 POP DUP3 DUP2 MSTORE PUSH1 0x20 DUP2 ADD DUP5 DUP5 DUP5 ADD GT ISZERO PUSH2 0x46A JUMPI PUSH2 0x469 PUSH2 0x372 JUMP JUMPDEST JUMPDEST PUSH2 0x475 DUP5 DUP3 DUP6 PUSH2 0x42E JUMP JUMPDEST POP SWAP4 SWAP3 POP POP POP JUMP JUMPDEST PUSH0 DUP3 PUSH1 0x1F DUP4 ADD SLT PUSH2 0x491 JUMPI PUSH2 0x490 PUSH2 0x36E JUMP JUMPDEST JUMPDEST DUP2 CALLDATALOAD PUSH2 0x4A1 DUP5 DUP3 PUSH1 0x20 DUP7 ADD PUSH2 0x43C JUMP JUMPDEST SWAP2 POP POP SWAP3 SWAP2 POP POP JUMP JUMPDEST PUSH0 DUP1 PUSH0 PUSH1 0x60 DUP5 DUP7 SUB SLT ISZERO PUSH2 0x4C1 JUMPI PUSH2 0x4C0 PUSH2 0x240 JUMP JUMPDEST JUMPDEST PUSH0 PUSH2 0x4CE DUP7 DUP3 DUP8 ADD PUSH2 0x35A JUMP JUMPDEST SWAP4 POP POP PUSH1 0x20 DUP5 ADD CALLDATALOAD PUSH8 0xFFFFFFFFFFFFFFFF DUP2 GT ISZERO PUSH2 0x4EF JUMPI PUSH2 0x4EE PUSH2 0x244 JUMP JUMPDEST JUMPDEST PUSH2 0x4FB DUP7 DUP3 DUP8 ADD PUSH2 0x47D JUMP JUMPDEST SWAP3 POP POP PUSH1 0x40 PUSH2 0x50C DUP7 DUP3 DUP8 ADD PUSH2 0x28E JUMP JUMPDEST SWAP2 POP POP SWAP3 POP SWAP3 POP SWAP3 JUMP JUMPDEST PUSH0 DUP2 ISZERO ISZERO SWAP1 POP SWAP2 SWAP1 POP JUMP JUMPDEST PUSH2 0x52A DUP2 PUSH2 0x516 JUMP JUMPDEST DUP3 MSTORE POP POP JUMP JUMPDEST PUSH0 PUSH1 0x20 DUP3 ADD SWAP1 POP PUSH2 0x543 PUSH0 DUP4 ADD DUP5 PUSH2 0x521 JUMP JUMPDEST SWAP3 SWAP2 POP POP JUMP JUMPDEST PUSH0 PUSH1 0x20 DUP3 DUP5 SUB SLT ISZERO PUSH2 0x55E JUMPI PUSH2 0x55D PUSH2 0x240 JUMP JUMPDEST JUMPDEST PUSH0 PUSH2 0x56B DUP5 DUP3 DUP6 ADD PUSH2 0x35A JUMP JUMPDEST SWAP2 POP POP SWAP3 SWAP2 POP POP JUMP JUMPDEST PUSH0 DUP2 PUSH1 0x60 SHL SWAP1 POP SWAP2 SWAP1 POP JUMP JUMPDEST PUSH0 PUSH2 0x58A DUP3 PUSH2 0x574 JUMP JUMPDEST SWAP1 POP SWAP2 SWAP1 POP JUMP JUMPDEST PUSH0 PUSH2 0x59B DUP3 PUSH2 0x580 JUMP JUMPDEST SWAP1 POP SWAP2 SWAP1 POP JUMP JUMPDEST PUSH2 0x5B3 PUSH2 0x5AE DUP3 PUSH2 0x267 JUMP JUMPDEST PUSH2 0x591 JUMP JUMPDEST DUP3 MSTORE POP POP JUMP JUMPDEST PUSH0 DUP2 SWAP1 POP SWAP2 SWAP1 POP JUMP JUMPDEST PUSH2 0x5D3 PUSH2 0x5CE DUP3 PUSH2 0x2A2 JUMP JUMPDEST PUSH2 0x5B9 JUMP JUMPDEST DUP3 MSTORE POP POP JUMP JUMPDEST PUSH0 PUSH2 0x5E4 DUP3 DUP6 PUSH2 0x5A2 JUMP JUMPDEST PUSH1 0x14 DUP3 ADD SWAP2 POP PUSH2 0x5F4 DUP3 DUP5 PUSH2 0x5C2 JUMP JUMPDEST PUSH1 0x20 DUP3 ADD SWAP2 POP DUP2 SWAP1 POP SWAP4 SWAP3 POP POP POP JUMP JUMPDEST PUSH0 DUP2 SWAP1 POP SWAP3 SWAP2 POP POP JUMP JUMPDEST PUSH32 0x19457468657265756D205369676E6564204D6573736167653A0A333200000000 PUSH0 DUP3 ADD MSTORE POP JUMP JUMPDEST PUSH0 PUSH2 0x642 PUSH1 0x1C DUP4 PUSH2 0x604 JUMP JUMPDEST SWAP2 POP PUSH2 0x64D DUP3 PUSH2 0x60E JUMP JUMPDEST PUSH1 0x1C DUP3 ADD SWAP1 POP SWAP2 SWAP1 POP JUMP JUMPDEST PUSH0 DUP2 SWAP1 POP SWAP2 SWAP1 POP JUMP JUMPDEST PUSH2 0x672 PUSH2 0x66D DUP3 PUSH2 0x313 JUMP JUMPDEST PUSH2 0x658 JUMP JUMPDEST DUP3 MSTORE POP POP JUMP JUMPDEST PUSH0 PUSH2 0x682 DUP3 PUSH2 0x636 JUMP JUMPDEST SWAP2 POP PUSH2 0x68E DUP3 DUP5 PUSH2 0x661 JUMP JUMPDEST PUSH1 0x20 DUP3 ADD SWAP2 POP DUP2 SWAP1 POP SWAP3 SWAP2 POP POP JUMP JUMPDEST PUSH0 DUP3 DUP3 MSTORE PUSH1 0x20 DUP3 ADD SWAP1 POP SWAP3 SWAP2 POP POP JUMP JUMPDEST PUSH32 0x696E76616C6964207369676E6174757265206C656E6774680000000000000000 PUSH0 DUP3 ADD MSTORE POP JUMP JUMPDEST PUSH0 PUSH2 0x6E1 PUSH1 0x18 DUP4 PUSH2 0x69D JUMP JUMPDEST SWAP2 POP PUSH2 0x6EC DUP3 PUSH2 0x6AD JUMP JUMPDEST PUSH1 0x20 DUP3 ADD SWAP1 POP SWAP2 SWAP1 POP JUMP JUMPDEST PUSH0 PUSH1 0x20 DUP3 ADD SWAP1 POP DUP2 DUP2 SUB PUSH0 DUP4 ADD MSTORE PUSH2 0x70E DUP2 PUSH2 0x6D5 JUMP JUMPDEST SWAP1 POP SWAP2 SWAP1 POP JUMP JUMPDEST PUSH2 0x71E DUP2 PUSH2 0x313 JUMP JUMPDEST DUP3 MSTORE POP POP JUMP JUMPDEST PUSH0 PUSH1 0xFF DUP3 AND SWAP1 POP SWAP2 SWAP1 POP JUMP JUMPDEST PUSH2 0x739 DUP2 PUSH2 0x724 JUMP JUMPDEST DUP3 MSTORE POP POP JUMP JUMPDEST PUSH0 PUSH1 0x80 DUP3 ADD SWAP1 POP PUSH2 0x752 PUSH0 DUP4 ADD DUP8 PUSH2 0x715 JUMP JUMPDEST PUSH2 0x75F PUSH1 0x20 DUP4 ADD DUP7 PUSH2 0x730 JUMP JUMPDEST PUSH2 0x76C PUSH1 0x40 DUP4 ADD DUP6 PUSH2 0x715 JUMP JUMPDEST PUSH2 0x779 PUSH1 0x60 DUP4 ADD DUP5 PUSH2 0x715 JUMP JUMPDEST SWAP6 SWAP5 POP POP POP POP POP JUMP INVALID LOG2 PUSH5 0x6970667358 0x22 SLT KECCAK256 SSTORE 0xBE LOG3 DIV 0xC5 0x24 EQ MSTORE GT DUP8 MSIZE AND CODECOPY EXTCODESIZE PUSH28 0x903BCDB0BC2AC99DF1F578F299249116F764736F6C634300081A0033 "
		},
		"gasEstimates": {
			"creation": {
				"codeDepositCost": "395200",
				"executionCost": "456",
				"totalCost": "395656"
			},
			"external": {
				"getMessageHash(address,uint256)": "infinite",
				"toEthSignedMessageHash(bytes32)": "infinite",
				"verify(bytes32,bytes,address)": "infinite"
			},
			"internal": {
				"recoverSigner(bytes32,bytes memory)": "infinite"
			}
		},
		"methodIdentifiers": {
			"getMessageHash(address,uint256)": "512c91df",
			"toEthSignedMessageHash(bytes32)": "918a15cf",
			"verify(bytes32,bytes,address)": "823ac373"
		}
	},
	"abi": [
		{
			"inputs": [
				{
					"internalType": "address",
					"name": "_account",
					"type": "address"
				},
				{
					"internalType": "uint256",
					"name": "_tokenId",
					"type": "uint256"
				}
			],
			"name": "getMessageHash",
			"outputs": [
				{
					"internalType": "bytes32",
					"name": "",
					"type": "bytes32"
				}
			],
			"stateMutability": "pure",
			"type": "function"
		},
		{
			"inputs": [
				{
					"internalType": "bytes32",
					"name": "hash",
					"type": "bytes32"
				}
			],
			"name": "toEthSignedMessageHash",
			"outputs": [
				{
					"internalType": "bytes32",
					"name": "",
					"type": "bytes32"
				}
			],
			"stateMutability": "pure",
			"type": "function"
		},
		{
			"inputs": [
				{
					"internalType": "bytes32",
					"name": "_msgHash",
					"type": "bytes32"
				},
				{
					"internalType": "bytes",
					"name": "_signature",
					"type": "bytes"
				},
				{
					"internalType": "address",
					"name": "_signer",
					"type": "address"
				}
			],
			"name": "verify",
			"outputs": [
				{
					"internalType": "bool",
					"name": "",
					"type": "bool"
				}
			],
			"stateMutability": "pure",
			"type": "function"
		}
	]
}