{
	"data": {
		"bytecode": {
			"linkReferences": {},
			"object": "6080604052348015600e575f80fd5b506102518061001c5f395ff3fe608060405234801561000f575f80fd5b5060043610610029575f3560e01c80637462ae731461002d575b5f80fd5b61003561004b565b60405161004291906100a8565b60405180910390f35b5f80423360014361005c91906100ee565b4060405160200161006f939291906101df565b604051602081830303815290604052805190602001209050805f1c91505090565b5f819050919050565b6100a281610090565b82525050565b5f6020820190506100bb5f830184610099565b92915050565b7f4e487b71000000000000000000000000000000000000000000000000000000005f52601160045260245ffd5b5f6100f882610090565b915061010383610090565b925082820390508181111561011b5761011a6100c1565b5b92915050565b5f819050919050565b61013b61013682610090565b610121565b82525050565b5f73ffffffffffffffffffffffffffffffffffffffff82169050919050565b5f61016a82610141565b9050919050565b5f8160601b9050919050565b5f61018782610171565b9050919050565b5f6101988261017d565b9050919050565b6101b06101ab82610160565b61018e565b82525050565b5f819050919050565b5f819050919050565b6101d96101d4826101b6565b6101bf565b82525050565b5f6101ea828661012a565b6020820191506101fa828561019f565b60148201915061020a82846101c8565b60208201915081905094935050505056fea264697066735822122026a9d99e94b0dcd88457fa2b9eedfa1d91970198c151502dbfd65d5815e5bfd564736f6c634300081a0033",
			"opcodes": "PUSH1 0x80 PUSH1 0x40 MSTORE CALLVALUE DUP1 ISZERO PUSH1 0xE JUMPI PUSH0 DUP1 REVERT JUMPDEST POP PUSH2 0x251 DUP1 PUSH2 0x1C PUSH0 CODECOPY PUSH0 RETURN INVALID PUSH1 0x80 PUSH1 0x40 MSTORE CALLVALUE DUP1 ISZERO PUSH2 0xF JUMPI PUSH0 DUP1 REVERT JUMPDEST POP PUSH1 0x4 CALLDATASIZE LT PUSH2 0x29 JUMPI PUSH0 CALLDATALOAD PUSH1 0xE0 SHR DUP1 PUSH4 0x7462AE73 EQ PUSH2 0x2D JUMPI JUMPDEST PUSH0 DUP1 REVERT JUMPDEST PUSH2 0x35 PUSH2 0x4B JUMP JUMPDEST PUSH1 0x40 MLOAD PUSH2 0x42 SWAP2 SWAP1 PUSH2 0xA8 JUMP JUMPDEST PUSH1 0x40 MLOAD DUP1 SWAP2 SUB SWAP1 RETURN JUMPDEST PUSH0 DUP1 TIMESTAMP CALLER PUSH1 0x1 NUMBER PUSH2 0x5C SWAP2 SWAP1 PUSH2 0xEE JUMP JUMPDEST BLOCKHASH PUSH1 0x40 MLOAD PUSH1 0x20 ADD PUSH2 0x6F SWAP4 SWAP3 SWAP2 SWAP1 PUSH2 0x1DF JUMP JUMPDEST PUSH1 0x40 MLOAD PUSH1 0x20 DUP2 DUP4 SUB SUB DUP2 MSTORE SWAP1 PUSH1 0x40 MSTORE DUP1 MLOAD SWAP1 PUSH1 0x20 ADD KECCAK256 SWAP1 POP DUP1 PUSH0 SHR SWAP2 POP POP SWAP1 JUMP JUMPDEST PUSH0 DUP2 SWAP1 POP SWAP2 SWAP1 POP JUMP JUMPDEST PUSH2 0xA2 DUP2 PUSH2 0x90 JUMP JUMPDEST DUP3 MSTORE POP POP JUMP JUMPDEST PUSH0 PUSH1 0x20 DUP3 ADD SWAP1 POP PUSH2 0xBB PUSH0 DUP4 ADD DUP5 PUSH2 0x99 JUMP JUMPDEST SWAP3 SWAP2 POP POP JUMP JUMPDEST PUSH32 0x4E487B7100000000000000000000000000000000000000000000000000000000 PUSH0 MSTORE PUSH1 0x11 PUSH1 0x4 MSTORE PUSH1 0x24 PUSH0 REVERT JUMPDEST PUSH0 PUSH2 0xF8 DUP3 PUSH2 0x90 JUMP JUMPDEST SWAP2 POP PUSH2 0x103 DUP4 PUSH2 0x90 JUMP JUMPDEST SWAP3 POP DUP3 DUP3 SUB SWAP1 POP DUP2 DUP2 GT ISZERO PUSH2 0x11B JUMPI PUSH2 0x11A PUSH2 0xC1 JUMP JUMPDEST JUMPDEST SWAP3 SWAP2 POP POP JUMP JUMPDEST PUSH0 DUP2 SWAP1 POP SWAP2 SWAP1 POP JUMP JUMPDEST PUSH2 0x13B PUSH2 0x136 DUP3 PUSH2 0x90 JUMP JUMPDEST PUSH2 0x121 JUMP JUMPDEST DUP3 MSTORE POP POP JUMP JUMPDEST PUSH0 PUSH20 0xFFFFFFFFFFFFFFFFFFFFFFFFFFFFFFFFFFFFFFFF DUP3 AND SWAP1 POP SWAP2 SWAP1 POP JUMP JUMPDEST PUSH0 PUSH2 0x16A DUP3 PUSH2 0x141 JUMP JUMPDEST SWAP1 POP SWAP2 SWAP1 POP JUMP JUMPDEST PUSH0 DUP2 PUSH1 0x60 SHL SWAP1 POP SWAP2 SWAP1 POP JUMP JUMPDEST PUSH0 PUSH2 0x187 DUP3 PUSH2 0x171 JUMP JUMPDEST SWAP1 POP SWAP2 SWAP1 POP JUMP JUMPDEST PUSH0 PUSH2 0x198 DUP3 PUSH2 0x17D JUMP JUMPDEST SWAP1 POP SWAP2 SWAP1 POP JUMP JUMPDEST PUSH2 0x1B0 PUSH2 0x1AB DUP3 PUSH2 0x160 JUMP JUMPDEST PUSH2 0x18E JUMP JUMPDEST DUP3 MSTORE POP POP JUMP JUMPDEST PUSH0 DUP2 SWAP1 POP SWAP2 SWAP1 POP JUMP JUMPDEST PUSH0 DUP2 SWAP1 POP SWAP2 SWAP1 POP JUMP JUMPDEST PUSH2 0x1D9 PUSH2 0x1D4 DUP3 PUSH2 0x1B6 JUMP JUMPDEST PUSH2 0x1BF JUMP JUMPDEST DUP3 MSTORE POP POP JUMP JUMPDEST PUSH0 PUSH2 0x1EA DUP3 DUP7 PUSH2 0x12A JUMP JUMPDEST PUSH1 0x20 DUP3 ADD SWAP2 POP PUSH2 0x1FA DUP3 DUP6 PUSH2 0x19F JUMP JUMPDEST PUSH1 0x14 DUP3 ADD SWAP2 POP PUSH2 0x20A DUP3 DUP5 PUSH2 0x1C8 JUMP JUMPDEST PUSH1 0x20 DUP3 ADD SWAP2 POP DUP2 SWAP1 POP SWAP5 SWAP4 POP POP POP POP JUMP INVALID LOG2 PUSH5 0x6970667358 0x22 SLT KECCAK256 0x26 0xA9 0xD9 SWAP15 SWAP5 0xB0 0xDC 0xD8 DUP5 JUMPI STATICCALL 0x2B SWAP15 0xED STATICCALL SAR SWAP2 SWAP8 ADD SWAP9 0xC1 MLOAD POP 0x2D 0xBF 0xD6 TSTORE PC ISZERO 0xE5 0xBF 0xD5 PUSH5 0x736F6C6343 STOP ADDMOD BYTE STOP CALLER "
		},
		"gasEstimates": {
			"creation": {
				"codeDepositCost": "118600",
				"executionCost": "163",
				"totalCost": "118763"
			},
			"external": {
				"getRandomOnchain()": "infinite"
			}
		},
		"methodIdentifiers": {
			"getRandomOnchain()": "7462ae73"
		}
	},
	"abi": [
		{
			"inputs": [],
			"name": "getRandomOnchain",
			"outputs": [
				{
					"internalType": "uint256",
					"name": "",
					"type": "uint256"
				}
			],
			"stateMutability": "view",
			"type": "function"
		}
	]
}